{
  "abi": [
    {
      "inputs": [
        {
          "internalType": "bytes",
          "name": "buffer",
          "type": "bytes"
        }
      ],
      "name": "iToHex",
      "outputs": [
        {
          "internalType": "string",
          "name": "",
          "type": "string"
        }
      ],
      "stateMutability": "pure",
      "type": "function"
    }
  ],
  "bytecode": {
    "object": "0x61057661003a600b82828239805160001a60731461002d57634e487b7160e01b600052600060045260246000fd5b30600052607381538281f3fe73000000000000000000000000000000000000000030146080604052600436106100355760003560e01c8063671ff7861461003a575b600080fd5b61004d6100483660046102c3565b610063565b60405161005a91906103b6565b60405180910390f35b60606000825160026100759190610436565b67ffffffffffffffff81111561008d5761008d610294565b6040519080825280601f01601f1916602001820160405280156100b7576020820181803683370190505b5060408051808201909152601081527f3031323334353637383961626364656600000000000000000000000000000000602082015290915060005b845181101561026a5781825186838151811061011057610110610453565b0160200151610122919060f81c6104b1565b8151811061013257610132610453565b01602001517fff000000000000000000000000000000000000000000000000000000000000001683610165836002610436565b8151811061017557610175610453565b60200101907effffffffffffffffffffffffffffffffffffffffffffffffffffffffffffff1916908160001a9053508182518683815181106101b9576101b9610453565b01602001516101cb919060f81c6104c5565b815181106101db576101db610453565b01602001517fff00000000000000000000000000000000000000000000000000000000000000168361020e836002610436565b6102199060016104d9565b8151811061022957610229610453565b60200101907effffffffffffffffffffffffffffffffffffffffffffffffffffffffffffff1916908160001a90535080610262816104ec565b9150506100f2565b508160405160200161027c9190610524565b60405160208183030381529060405292505050919050565b7f4e487b7100000000000000000000000000000000000000000000000000000000600052604160045260246000fd5b6000602082840312156102d557600080fd5b813567ffffffffffffffff808211156102ed57600080fd5b818401915084601f83011261030157600080fd5b81358181111561031357610313610294565b604051601f82017fffffffffffffffffffffffffffffffffffffffffffffffffffffffffffffffe0908116603f0116810190838211818310171561035957610359610294565b8160405282815287602084870101111561037257600080fd5b826020860160208301376000928101602001929092525095945050505050565b60005b838110156103ad578181015183820152602001610395565b50506000910152565b60208152600082518060208401526103d5816040850160208701610392565b601f017fffffffffffffffffffffffffffffffffffffffffffffffffffffffffffffffe0169190910160400192915050565b7f4e487b7100000000000000000000000000000000000000000000000000000000600052601160045260246000fd5b808202811582820484141761044d5761044d610407565b92915050565b7f4e487b7100000000000000000000000000000000000000000000000000000000600052603260045260246000fd5b7f4e487b7100000000000000000000000000000000000000000000000000000000600052601260045260246000fd5b6000826104c0576104c0610482565b500490565b6000826104d4576104d4610482565b500690565b8082018082111561044d5761044d610407565b60007fffffffffffffffffffffffffffffffffffffffffffffffffffffffffffffffff820361051d5761051d610407565b5060010190565b7f307800000000000000000000000000000000000000000000000000000000000081526000825161055c816002850160208701610392565b919091016002019291505056fea164736f6c6343000813000a"
  }
}