{
  "abi": [
    {
      "inputs": [
        {
          "internalType": "bytes",
          "name": "buffer",
          "type": "bytes"
        }
      ],
      "name": "iToHex",
      "outputs": [
        {
          "internalType": "string",
          "name": "",
          "type": "string"
        }
      ],
      "stateMutability": "pure",
      "type": "function"
    }
  ],
  "bytecode": {
    "object": "0x61042f61003a600b82828239805160001a60731461002d57634e487b7160e01b600052600060045260246000fd5b30600052607381538281f3fe73000000000000000000000000000000000000000030146080604052600436106100355760003560e01c8063671ff7861461003a575b600080fd5b61004d61004836600461023d565b610063565b60405161005a9190610312565b60405180910390f35b6060600082516002610075919061035b565b67ffffffffffffffff81111561008d5761008d610227565b6040519080825280601f01601f1916602001820160405280156100b7576020820181803683370190505b5060408051808201909152601081526f181899199a1a9b1b9c1cb0b131b232b360811b602082015290915060005b84518110156101fd5781825186838151811061010357610103610378565b0160200151610115919060f81c6103a4565b8151811061012557610125610378565b01602001516001600160f81b0319168361014083600261035b565b8151811061015057610150610378565b60200101906001600160f81b031916908160001a90535081825186838151811061017c5761017c610378565b016020015161018e919060f81c6103b8565b8151811061019e5761019e610378565b01602001516001600160f81b031916836101b983600261035b565b6101c49060016103cc565b815181106101d4576101d4610378565b60200101906001600160f81b031916908160001a905350806101f5816103df565b9150506100e5565b508160405160200161020f91906103f8565b60405160208183030381529060405292505050919050565b634e487b7160e01b600052604160045260246000fd5b60006020828403121561024f57600080fd5b813567ffffffffffffffff8082111561026757600080fd5b818401915084601f83011261027b57600080fd5b81358181111561028d5761028d610227565b604051601f8201601f19908116603f011681019083821181831017156102b5576102b5610227565b816040528281528760208487010111156102ce57600080fd5b826020860160208301376000928101602001929092525095945050505050565b60005b838110156103095781810151838201526020016102f1565b50506000910152565b60208152600082518060208401526103318160408501602087016102ee565b601f01601f19169190910160400192915050565b634e487b7160e01b600052601160045260246000fd5b808202811582820484141761037257610372610345565b92915050565b634e487b7160e01b600052603260045260246000fd5b634e487b7160e01b600052601260045260246000fd5b6000826103b3576103b361038e565b500490565b6000826103c7576103c761038e565b500690565b8082018082111561037257610372610345565b6000600182016103f1576103f1610345565b5060010190565b61060f60f31b8152600082516104158160028501602087016102ee565b919091016002019291505056fea164736f6c6343000813000a"
  }
}