{
  "abi": [
    {
      "inputs": [],
      "name": "example",
      "outputs": [],
      "stateMutability": "nonpayable",
      "type": "function"
    }
  ],
  "bytecode": {
    "object": "0x608060405234801561001057600080fd5b506103a0806100206000396000f3fe608060405234801561001057600080fd5b506004361061002b5760003560e01c806354353f2f14610030575b600080fd5b61003861003a565b005b600060405161004890610122565b604051809103906000f080158015610064573d6000803e3d6000fd5b509050806001600160a01b031663a11c1caf6040518163ffffffff1660e01b8152600401600060405180830381865afa1580156100a5573d6000803e3d6000fd5b505050506040513d6000823e601f3d908101601f191682016040526100cd919081019061019e565b50806001600160a01b03166328b5e32b6040518163ffffffff1660e01b815260040160006040518083038186803b15801561010757600080fd5b505afa15801561011b573d6000803e3d6000fd5b5050505050565b60f3806102a183390190565b634e487b7160e01b600052604160045260246000fd5b6040516020810167ffffffffffffffff811182821017156101675761016761012e565b60405290565b604051601f8201601f1916810167ffffffffffffffff811182821017156101965761019661012e565b604052919050565b600060208083850312156101b157600080fd5b825167ffffffffffffffff808211156101c957600080fd5b81850191508282870312156101dd57600080fd5b6101e5610144565b8251828111156101f457600080fd5b80840193505083838803121561020957600080fd5b610211610144565b83518381111561022057600080fd5b80850194505087601f85011261023557600080fd5b8351838111156102475761024761012e565b8060051b935061025886850161016d565b818152938501860193868101908a86111561027257600080fd5b958701955b8587101561029057865182529587019590870190610277565b835250508152969550505050505056fe608060405234801561001057600080fd5b5060d48061001f6000396000f3fe6080604052348015600f57600080fd5b506004361060325760003560e01c806328b5e32b146037578063a11c1caf146039575b600080fd5b005b604080518082018252606060208083018281529092528251808401845291820190815281529051606891906071565b60405180910390f35b60208082528251828201829052516040830182905280516060840181905260009291820190839060808601905b8083101560bc5783518252928401926001929092019190840190609e565b50969550505050505056fea164736f6c6343000813000aa164736f6c6343000813000a"
  }
}