{
  "abi": [
    {
      "inputs": [
        {
          "internalType": "address",
          "name": "",
          "type": "address"
        },
        {
          "internalType": "bytes",
          "name": "",
          "type": "bytes"
        }
      ],
      "name": "PeekerReverted",
      "type": "error"
    },
    {
      "inputs": [],
      "name": "callback",
      "outputs": [],
      "stateMutability": "payable",
      "type": "function"
    },
    {
      "inputs": [],
      "name": "example",
      "outputs": [
        {
          "internalType": "bytes",
          "name": "",
          "type": "bytes"
        }
      ],
      "stateMutability": "payable",
      "type": "function"
    }
  ],
  "bytecode": {
    "object": "0x608060405234801561001057600080fd5b50610a92806100206000396000f3fe6080604052600436106100295760003560e01c8063083b27321461002e57806354353f2f14610030575b600080fd5b005b61003861004e565b604051610045919061059f565b60405180910390f35b60408051600180825281830190925260609160009190602080830190803683370190505090503081600081518110610088576100886105cf565b60200260200101906001600160a01b031690816001600160a01b03168152505060006100d8600a8384604051806040016040528060098152602001686e616d65737061636560b81b81525061021c565b805160408051808201825260048152636b65793160e01b6020808301919091528251600191810191909152939450610122939091015b604051602081830303815290604052610322565b8051604080518082018252600481526335b2bc9960e11b602080830191909152825160029181019190915261015893920161010e565b60006101848260000151604051806040016040528060048152602001636b65793160e01b8152506103d4565b604080516001602082015291925001604051602081830303815290604052805190602001208180519060200120146101bb57600080fd5b60006101e9600a604051806040016040528060098152602001686e616d65737061636560b81b815250610487565b50506040805160048152602481019091526020810180516001600160e01b031663041d939960e11b179052949350505050565b6040805160c0810182526000808252602082018190529181019190915260608082018190526080820181905260a082015260008063420300006001600160a01b0316878787876040516020016102759493929190610629565b60408051601f198184030181529082905261028f91610672565b600060405180830381855afa9150503d80600081146102ca576040519150601f19603f3d011682016040523d82523d6000602084013e6102cf565b606091505b509150915081610303576342030000816040516375fff46760e01b81526004016102fa92919061068e565b60405180910390fd5b80806020019051810190610317919061091a565b979650505050505050565b60008063420200006001600160a01b03168585856040516020016103489392919061094f565b60408051601f198184030181529082905261036291610672565b600060405180830381855afa9150503d806000811461039d576040519150601f19603f3d011682016040523d82523d6000602084013e6103a2565b606091505b5091509150816103cd576342020000816040516375fff46760e01b81526004016102fa92919061068e565b5050505050565b606060008063420200016001600160a01b031685856040516020016103fa92919061098e565b60408051601f198184030181529082905261041491610672565b600060405180830381855afa9150503d806000811461044f576040519150601f19603f3d011682016040523d82523d6000602084013e610454565b606091505b50915091508161047f576342020001816040516375fff46760e01b81526004016102fa92919061068e565b949350505050565b606060008063420300016001600160a01b031685856040516020016104ad9291906109b1565b60408051601f19818403018152908290526104c791610672565b600060405180830381855afa9150503d8060008114610502576040519150601f19603f3d011682016040523d82523d6000602084013e610507565b606091505b509150915081610532576342030001816040516375fff46760e01b81526004016102fa92919061068e565b8080602001905181019061054691906109d4565b95945050505050565b60005b8381101561056a578181015183820152602001610552565b50506000910152565b6000815180845261058b81602086016020860161054f565b601f01601f19169290920160200192915050565b6020815260006105b26020830184610573565b9392505050565b634e487b7160e01b600052604160045260246000fd5b634e487b7160e01b600052603260045260246000fd5b600081518084526020808501945080840160005b8381101561061e5781516001600160a01b0316875295820195908201906001016105f9565b509495945050505050565b67ffffffffffffffff8516815260806020820152600061064c60808301866105e5565b828103604084015261065e81866105e5565b905082810360608401526103178185610573565b6000825161068481846020870161054f565b9190910192915050565b6001600160a01b038316815260406020820181905260009061047f90830184610573565b60405160c0810167ffffffffffffffff811182821017156106d5576106d56105b9565b60405290565b604051601f8201601f1916810167ffffffffffffffff81118282101715610704576107046105b9565b604052919050565b80516fffffffffffffffffffffffffffffffff198116811461072d57600080fd5b919050565b805167ffffffffffffffff8116811461072d57600080fd5b600067ffffffffffffffff821115610764576107646105b9565b5060051b60200190565b600082601f83011261077f57600080fd5b8151602061079461078f8361074a565b6106db565b82815260059290921b840181019181810190868411156107b357600080fd5b8286015b848110156107e45780516001600160a01b03811681146107d75760008081fd5b83529183019183016107b7565b509695505050505050565b600082601f83011261080057600080fd5b815167ffffffffffffffff81111561081a5761081a6105b9565b61082d601f8201601f19166020016106db565b81815284602083860101111561084257600080fd5b61047f82602083016020870161054f565b600060c0828403121561086557600080fd5b61086d6106b2565b90506108788261070c565b81526108866020830161070c565b602082015261089760408301610732565b6040820152606082015167ffffffffffffffff808211156108b757600080fd5b6108c38583860161076e565b606084015260808401519150808211156108dc57600080fd5b6108e88583860161076e565b608084015260a084015191508082111561090157600080fd5b5061090e848285016107ef565b60a08301525092915050565b60006020828403121561092c57600080fd5b815167ffffffffffffffff81111561094357600080fd5b61047f84828501610853565b6001600160801b0319841681526060602082015260006109726060830185610573565b82810360408401526109848185610573565b9695505050505050565b6001600160801b03198316815260406020820152600061047f6040830184610573565b67ffffffffffffffff8316815260406020820152600061047f6040830184610573565b600060208083850312156109e757600080fd5b825167ffffffffffffffff808211156109ff57600080fd5b818501915085601f830112610a1357600080fd5b8151610a2161078f8261074a565b81815260059190911b83018401908481019088831115610a4057600080fd5b8585015b83811015610a7857805185811115610a5c5760008081fd5b610a6a8b89838a0101610853565b845250918601918601610a44565b509897505050505050505056fea164736f6c6343000813000a",
    "linkReferences": {}
  },
  "methodIdentifiers": {
    "callback()": "083b2732",
    "example()": "54353f2f"
  },
  "id": 14
}