{
  "abi": [
    {
      "inputs": [
        {
          "internalType": "address",
          "name": "",
          "type": "address"
        },
        {
          "internalType": "bytes",
          "name": "",
          "type": "bytes"
        }
      ],
      "name": "PeekerReverted",
      "type": "error"
    },
    {
      "inputs": [],
      "name": "callback",
      "outputs": [],
      "stateMutability": "payable",
      "type": "function"
    },
    {
      "inputs": [],
      "name": "example",
      "outputs": [
        {
          "internalType": "bytes",
          "name": "",
          "type": "bytes"
        }
      ],
      "stateMutability": "payable",
      "type": "function"
    }
  ],
  "bytecode": {
    "object": "0x608060405234801561001057600080fd5b50610b35806100206000396000f3fe6080604052600436106100295760003560e01c8063083b27321461002e57806354353f2f14610030575b600080fd5b005b61003861004e565b6040516100459190610642565b60405180910390f35b6040805160018082528183019092526060916000919060208083019080368337019050509050308160008151811061008857610088610672565b60200260200101906001600160a01b031690816001600160a01b0316815250506100b0610225565b5060006100e1600a8384604051806040016040528060098152602001686e616d65737061636560b81b8152506102c8565b805160408051808201825260048152636b65793160e01b602080830191909152825160019181019190915293945061012b939091015b6040516020818303038152906040526103c5565b8051604080518082018252600481526335b2bc9960e11b6020808301919091528251600291810191909152610161939201610117565b600061018d8260000151604051806040016040528060048152602001636b65793160e01b815250610477565b604080516001602082015291925001604051602081830303815290604052805190602001208180519060200120146101c457600080fd5b60006101f2600a604051806040016040528060098152602001686e616d65737061636560b81b81525061052a565b50506040805160048152602481019091526020810180516001600160e01b031663041d939960e11b179052949350505050565b6040805160008082526020820192839052606092909182916404420100019161024d91610688565b600060405180830381855afa9150503d8060008114610288576040519150601f19603f3d011682016040523d82523d6000602084013e61028d565b606091505b5091509150816102c257640442010001816040516375fff46760e01b81526004016102b99291906106a4565b60405180910390fd5b92915050565b6040805160c0810182526000808252602082018190529181019190915260608082018190526080820181905260a082015260008063420300006001600160a01b031687878787604051602001610321949392919061070c565b60408051601f198184030181529082905261033b91610688565b600060405180830381855afa9150503d8060008114610376576040519150601f19603f3d011682016040523d82523d6000602084013e61037b565b606091505b5091509150816103a6576342030000816040516375fff46760e01b81526004016102b99291906106a4565b808060200190518101906103ba91906109bd565b979650505050505050565b60008063420200006001600160a01b03168585856040516020016103eb939291906109f2565b60408051601f198184030181529082905261040591610688565b600060405180830381855afa9150503d8060008114610440576040519150601f19603f3d011682016040523d82523d6000602084013e610445565b606091505b509150915081610470576342020000816040516375fff46760e01b81526004016102b99291906106a4565b5050505050565b606060008063420200016001600160a01b0316858560405160200161049d929190610a31565b60408051601f19818403018152908290526104b791610688565b600060405180830381855afa9150503d80600081146104f2576040519150601f19603f3d011682016040523d82523d6000602084013e6104f7565b606091505b509150915081610522576342020001816040516375fff46760e01b81526004016102b99291906106a4565b949350505050565b606060008063420300016001600160a01b03168585604051602001610550929190610a54565b60408051601f198184030181529082905261056a91610688565b600060405180830381855afa9150503d80600081146105a5576040519150601f19603f3d011682016040523d82523d6000602084013e6105aa565b606091505b5091509150816105d5576342030001816040516375fff46760e01b81526004016102b99291906106a4565b808060200190518101906105e99190610a77565b95945050505050565b60005b8381101561060d5781810151838201526020016105f5565b50506000910152565b6000815180845261062e8160208601602086016105f2565b601f01601f19169290920160200192915050565b6020815260006106556020830184610616565b9392505050565b634e487b7160e01b600052604160045260246000fd5b634e487b7160e01b600052603260045260246000fd5b6000825161069a8184602087016105f2565b9190910192915050565b6001600160a01b038316815260406020820181905260009061052290830184610616565b600081518084526020808501945080840160005b838110156107015781516001600160a01b0316875295820195908201906001016106dc565b509495945050505050565b67ffffffffffffffff8516815260806020820152600061072f60808301866106c8565b828103604084015261074181866106c8565b905082810360608401526103ba8185610616565b60405160c0810167ffffffffffffffff811182821017156107785761077861065c565b60405290565b604051601f8201601f1916810167ffffffffffffffff811182821017156107a7576107a761065c565b604052919050565b80516fffffffffffffffffffffffffffffffff19811681146107d057600080fd5b919050565b805167ffffffffffffffff811681146107d057600080fd5b600067ffffffffffffffff8211156108075761080761065c565b5060051b60200190565b600082601f83011261082257600080fd5b81516020610837610832836107ed565b61077e565b82815260059290921b8401810191818101908684111561085657600080fd5b8286015b848110156108875780516001600160a01b038116811461087a5760008081fd5b835291830191830161085a565b509695505050505050565b600082601f8301126108a357600080fd5b815167ffffffffffffffff8111156108bd576108bd61065c565b6108d0601f8201601f191660200161077e565b8181528460208386010111156108e557600080fd5b6105228260208301602087016105f2565b600060c0828403121561090857600080fd5b610910610755565b905061091b826107af565b8152610929602083016107af565b602082015261093a604083016107d5565b6040820152606082015167ffffffffffffffff8082111561095a57600080fd5b61096685838601610811565b6060840152608084015191508082111561097f57600080fd5b61098b85838601610811565b608084015260a08401519150808211156109a457600080fd5b506109b184828501610892565b60a08301525092915050565b6000602082840312156109cf57600080fd5b815167ffffffffffffffff8111156109e657600080fd5b610522848285016108f6565b6001600160801b031984168152606060208201526000610a156060830185610616565b8281036040840152610a278185610616565b9695505050505050565b6001600160801b0319831681526040602082015260006105226040830184610616565b67ffffffffffffffff831681526040602082015260006105226040830184610616565b60006020808385031215610a8a57600080fd5b825167ffffffffffffffff80821115610aa257600080fd5b818501915085601f830112610ab657600080fd5b8151610ac4610832826107ed565b81815260059190911b83018401908481019088831115610ae357600080fd5b8585015b83811015610b1b57805185811115610aff5760008081fd5b610b0d8b89838a01016108f6565b845250918601918601610ae7565b509897505050505050505056fea164736f6c6343000813000a",
    "linkReferences": {}
  },
  "methodIdentifiers": {
    "callback()": "083b2732",
    "example()": "54353f2f"
  },
  "id": 0
}