{
  "abi": [
    {
      "inputs": [
        {
          "internalType": "address",
          "name": "",
          "type": "address"
        },
        {
          "internalType": "bytes",
          "name": "",
          "type": "bytes"
        }
      ],
      "name": "PeekerReverted",
      "type": "error"
    },
    {
      "anonymous": false,
      "inputs": [
        {
          "indexed": true,
          "internalType": "uint64",
          "name": "num",
          "type": "uint64"
        }
      ],
      "name": "Event",
      "type": "event"
    },
    {
      "inputs": [
        {
          "internalType": "uint64",
          "name": "num",
          "type": "uint64"
        }
      ],
      "name": "callback",
      "outputs": [],
      "stateMutability": "payable",
      "type": "function"
    },
    {
      "inputs": [],
      "name": "example",
      "outputs": [
        {
          "internalType": "bytes",
          "name": "",
          "type": "bytes"
        }
      ],
      "stateMutability": "payable",
      "type": "function"
    }
  ],
  "bytecode": {
    "object": "0x608060405234801561001057600080fd5b506102b8806100206000396000f3fe6080604052600436106100295760003560e01c806354353f2f1461002e578063a6c00dcb1461004c575b600080fd5b610036610061565b60405161004391906101f6565b60405180910390f35b61005f61005a366004610229565b6100b8565b005b6060600061006d6100f0565b6040805167ffffffffffffffff9290921660248084019190915281518084039091018152604490920190526020810180516001600160e01b031663a6c00dcb60e01b17905292915050565b60405167ffffffffffffffff8216907f907b6183af8dff6c3ccd5a6e356d2950ee5261d1de2d382d1d2d32eebf1d1c1b90600090a250565b604080516000808252602082019283905291829182916405432000019161011691610246565b600060405180830381855afa9150503d8060008114610151576040519150601f19603f3d011682016040523d82523d6000602084013e610156565b606091505b50915091508161018b57640543200001816040516375fff46760e01b8152600401610182929190610262565b60405180910390fd5b8080602001905181019061019f919061028e565b9250505090565b60005b838110156101c15781810151838201526020016101a9565b50506000910152565b600081518084526101e28160208601602086016101a6565b601f01601f19169290920160200192915050565b60208152600061020960208301846101ca565b9392505050565b67ffffffffffffffff8116811461022657600080fd5b50565b60006020828403121561023b57600080fd5b813561020981610210565b600082516102588184602087016101a6565b9190910192915050565b6001600160a01b0383168152604060208201819052600090610286908301846101ca565b949350505050565b6000602082840312156102a057600080fd5b81516102098161021056fea164736f6c6343000813000a",
    "linkReferences": {}
  },
  "methodIdentifiers": {
    "callback(uint64)": "a6c00dcb",
    "example()": "54353f2f"
  },
  "id": 0
}