{
  "abi": [
    {
      "inputs": [
        {
          "internalType": "address",
          "name": "",
          "type": "address"
        },
        {
          "internalType": "bytes",
          "name": "",
          "type": "bytes"
        }
      ],
      "name": "PeekerReverted",
      "type": "error"
    },
    {
      "inputs": [
        {
          "internalType": "uint256",
          "name": "value",
          "type": "uint256"
        },
        {
          "internalType": "uint256",
          "name": "length",
          "type": "uint256"
        }
      ],
      "name": "StringsInsufficientHexLength",
      "type": "error"
    },
    {
      "inputs": [
        {
          "internalType": "address",
          "name": "target",
          "type": "address"
        },
        {
          "internalType": "uint256",
          "name": "expected",
          "type": "uint256"
        }
      ],
      "name": "callTarget",
      "outputs": [],
      "stateMutability": "nonpayable",
      "type": "function"
    },
    {
      "inputs": [
        {
          "internalType": "string",
          "name": "url",
          "type": "string"
        },
        {
          "components": [
            {
              "internalType": "address",
              "name": "to",
              "type": "address"
            },
            {
              "internalType": "uint64",
              "name": "gas",
              "type": "uint64"
            },
            {
              "internalType": "uint64",
              "name": "gasPrice",
              "type": "uint64"
            },
            {
              "internalType": "uint64",
              "name": "value",
              "type": "uint64"
            },
            {
              "internalType": "uint64",
              "name": "nonce",
              "type": "uint64"
            },
            {
              "internalType": "bytes",
              "name": "data",
              "type": "bytes"
            },
            {
              "internalType": "uint64",
              "name": "chainId",
              "type": "uint64"
            },
            {
              "internalType": "bytes",
              "name": "r",
              "type": "bytes"
            },
            {
              "internalType": "bytes",
              "name": "s",
              "type": "bytes"
            },
            {
              "internalType": "bytes",
              "name": "v",
              "type": "bytes"
            }
          ],
          "internalType": "struct ExampleEthCallSource.Transaction",
          "name": "txn",
          "type": "tuple"
        }
      ],
      "name": "example5",
      "outputs": [],
      "stateMutability": "nonpayable",
      "type": "function"
    },
    {
      "inputs": [
        {
          "internalType": "string",
          "name": "url",
          "type": "string"
        }
      ],
      "name": "getExample",
      "outputs": [],
      "stateMutability": "nonpayable",
      "type": "function"
    },
    {
      "inputs": [],
      "name": "other",
      "outputs": [],
      "stateMutability": "nonpayable",
      "type": "function"
    },
    {
      "inputs": [
        {
          "internalType": "string",
          "name": "url",
          "type": "string"
        },
        {
          "internalType": "bytes",
          "name": "body",
          "type": "bytes"
        }
      ],
      "name": "postExample",
      "outputs": [],
      "stateMutability": "nonpayable",
      "type": "function"
    },
    {
      "inputs": [
        {
          "internalType": "string",
          "name": "url",
          "type": "string"
        }
      ],
      "name": "sampleJSON",
      "outputs": [],
      "stateMutability": "nonpayable",
      "type": "function"
    },
    {
      "inputs": [
        {
          "internalType": "string",
          "name": "url",
          "type": "string"
        },
        {
          "components": [
            {
              "internalType": "address",
              "name": "to",
              "type": "address"
            },
            {
              "internalType": "uint64",
              "name": "gas",
              "type": "uint64"
            },
            {
              "internalType": "uint64",
              "name": "gasPrice",
              "type": "uint64"
            },
            {
              "internalType": "uint64",
              "name": "value",
              "type": "uint64"
            },
            {
              "internalType": "uint64",
              "name": "nonce",
              "type": "uint64"
            },
            {
              "internalType": "bytes",
              "name": "data",
              "type": "bytes"
            },
            {
              "internalType": "uint64",
              "name": "chainId",
              "type": "uint64"
            },
            {
              "internalType": "bytes",
              "name": "r",
              "type": "bytes"
            },
            {
              "internalType": "bytes",
              "name": "s",
              "type": "bytes"
            },
            {
              "internalType": "bytes",
              "name": "v",
              "type": "bytes"
            }
          ],
          "internalType": "struct ExampleEthCallSource.Transaction",
          "name": "txn",
          "type": "tuple"
        }
      ],
      "name": "simulateTxn",
      "outputs": [
        {
          "components": [
            {
              "internalType": "uint256",
              "name": "blockValue",
              "type": "uint256"
            }
          ],
          "internalType": "struct ExampleEthCallSource.SimulateResult",
          "name": "",
          "type": "tuple"
        }
      ],
      "stateMutability": "nonpayable",
      "type": "function"
    }
  ],
  "bytecode": {
    "object": "0x608060405234801561001057600080fd5b5061222c806100206000396000f3fe608060405234801561001057600080fd5b506004361061007d5760003560e01c806376d59b561161005b57806376d59b56146100d057806385295877146100955780639c1f9b7a146100e3578063d2a932f1146100f657600080fd5b80630655a9411461008257806335a4746f1461009757806348bce064146100bd575b600080fd5b610095610090366004611a1d565b610109565b005b6100aa6100a5366004611a1d565b610118565b6040519051815260200160405180910390f35b6100956100cb366004611b87565b610436565b6100956100de366004611bb1565b6104a2565b6100956100f1366004611be5565b6107fa565b610095610104366004611bb1565b610875565b6101138282610118565b505050565b60408051602081019091526000815260608260a00151516000146101625760a083015160405161014c918391602001611c88565b6040516020818303038152906040529050610185565b806040516020016101739190611cd9565b60405160208183030381529060405290505b82516001600160a01b0316156101c657806101a384600001516108ef565b6040516020016101b4929190611d0b565b60405160208183030381529060405290505b806101dd84602001516001600160401b0316610905565b6101f385604001516001600160401b0316610905565b61020986608001516001600160401b0316610905565b61021f87606001516001600160401b0316610905565b6102358860c001516001600160401b0316610905565b6102428960e0015161093d565b6102508a610100015161093d565b604051602001610267989796959493929190611d59565b60405160208183030381529060405290508061028784610120015161093d565b604051602001610298929190611e9c565b6040516020818303038152906040529050806040516020016102ba9190611eea565b60408051808303601f19018152602083018252606083528151600180825281840190935290935090816020015b60608152602001906001900390816102e7575050815260408051808201909152601d81527f436f6e74656e742d547970653a6170706c69636174696f6e2f6a736f6e00000060208201528151805160009061034457610344611f1e565b6020026020010181905250816040516020016103609190611f34565b6040516020818303038152906040529150600061037e868484610948565b905060606103986040518060200160405280600081525090565b8291506103a482610a20565b9050600061041961041461040f61040a6040518060400160405280600c81526020016b11313637b1b5ab30b63ab29160a11b8152506103e287610a39565b6002815181106103f4576103f4611f1e565b6020026020010151610a4890919063ffffffff16565b610aaf565b610abe565b610c4f565b604080516020810190915290815296505050505050505b92915050565b6040805160048152602481019091526020810180516001600160e01b0316631b53398f60e21b17905260009061046d908490610cda565b90506000818060200190518101906104859190611fc5565b6001600160401b0316905082811461049c57600080fd5b50505050565b60408051600b60208201526104c791015b604051602081830303815290604052610da2565b6040805160208101825260608152815160018082528184019093529091816020015b60608152602001906001900390816104e9575050815260408051808201909152601d81527f436f6e74656e742d547970653a6170706c69636174696f6e2f6a736f6e00000060208201528151805160009061054657610546611f1e565b602002602001018190525060006040516020016105d2907f7b226a736f6e727063223a2022322e30222c20226d6574686f64223a2022657481527f685f676574426c6f636b42794e756d626572222c2022706172616d73223a205b60208201527f22307831222c2066616c73655d2c20226964223a20317d000000000000000000604082015260570190565b604051602081830303815290604052905060006105f0848385610948565b90506105fb81610da2565b60606106136040518060200160405280600081525090565b82915061061f82610a20565b60408051607b602082015291925061063791016104b3565b61066a61066561064683610a39565b60008151811061065857610658611f1e565b6020026020010151610e4b565b610da2565b61069861066561067983610a39565b60008151811061068b5761068b611f1e565b6020026020010151610aaf565b6106b96106656106a783610a39565b60018151811061065857610658611f1e565b6106da6106656106c883610a39565b60018151811061068b5761068b611f1e565b6106fb6106656106e983610a39565b60028151811061065857610658611f1e565b61071c61066561070a83610a39565b60028151811061068b5761068b611f1e565b61074d61066561064661072e84610a39565b60028151811061074057610740611f1e565b6020026020010151610a39565b61075f6106656106a761072e84610a39565b6107716106656106e961072e84610a39565b61079561066561078361072e84610a39565b60038151811061065857610658611f1e565b6107b96106656107a761072e84610a39565b60048151811061065857610658611f1e565b6107dd6106656107cb61072e84610a39565b60058151811061065857610658611f1e565b60408051601660208201526107f291016104b3565b505050505050565b6040805160208101825260608152815160018082528184019093529091816020015b606081526020019060019003908161081c5750508152604080518082019091526003815262623a6360e81b60208201528151805160009061085f5761085f611f1e565b602002602001018190525061049c838383610948565b6040805160208101825260608152815160018082528184019093529091816020015b60608152602001906001900390816108975750508152604080518082019091526003815262309d3160e91b6020820152815180516000906108da576108da611f1e565b60200260200101819052506101138282610e6a565b60606104306001600160a01b0383166014610f17565b606061091082611096565b90506030602082015160001a14600282510161307882840152600282840103925081810383525050919050565b6060610910826110f8565b60606000806401532000016001600160a01b031686868660405160200161097193929190612074565b60408051601f198184030181529082905261098b916120b7565b600060405180830381855afa9150503d80600081146109c6576040519150601f19603f3d011682016040523d82523d6000602084013e6109cb565b606091505b509150915081610a0057640153200001816040516375fff46760e01b81526004016109f79291906120d3565b60405180910390fd5b80806020019051810190610a1491906120f7565b925050505b9392505050565b6040805160008082529181905290610a198360ff61115e565b60606000610a1983600361115e565b60408051600081529052815160609060071660020361043057815160208301206000610a7385610a39565b805190915060051b5b8015610aa657818101519550601f190182610a9687610e4b565b8051906020012003610a7c578593505b50505092915050565b60606000610a1983600061115e565b606060008290506002815110158015610afc575080600081518110610ae557610ae5611f1e565b6020910101516001600160f81b031916601160f91b145b8015610b3957508060018251610b12919061217a565b81518110610b2257610b22611f1e565b6020910101516001600160f81b031916601160f91b145b610b755760405162461bcd60e51b815260206004820152600d60248201526c125b9d985b1a59081a5b9c1d5d609a1b60448201526064016109f7565b600060028251610b85919061217a565b6001600160401b03811115610b9c57610b9c6118f7565b6040519080825280601f01601f191660200182016040528015610bc6576020820181803683370190505b50905060015b60018351610bda919061217a565b811015610c4757828181518110610bf357610bf3611f1e565b01602001516001600160f81b03191682610c0e60018461217a565b81518110610c1e57610c1e611f1e565b60200101906001600160f81b031916908160001a90535080610c3f8161218d565b915050610bcc565b509392505050565b600081516001811160208085015160f01c17613078141660011b5b6001810190507403010a071000000b0104040208000c05090d060e0f6d03e4088843e41bac00000000000060ff83870151161c601f161a8360fc1c8115171583029250600181038460041b01935050818110610c6a575080610cd45763101827966000526004601cfd5b50919050565b606060008063421000036001600160a01b03168585604051602001610d009291906120d3565b60408051601f1981840301815290829052610d1a916120b7565b600060405180830381855afa9150503d8060008114610d55576040519150601f19603f3d011682016040523d82523d6000602084013e610d5a565b606091505b509150915081610d85576342100003816040516375fff46760e01b81526004016109f79291906120d3565b80806020019051810190610d9991906120f7565b95945050505050565b6000806401832000016001600160a01b031683604051602001610dc591906121a6565b60408051601f1981840301815290829052610ddf916120b7565b600060405180830381855afa9150503d8060008114610e1a576040519150601f19603f3d011682016040523d82523d6000602084013e610e1f565b606091505b50915091508161011357640183200001816040516375fff46760e01b81526004016109f79291906120d3565b805160609060801615610e65576000610a1983600161115e565b919050565b60606000806401432000016001600160a01b03168585604051602001610e919291906121b9565b60408051601f1981840301815290829052610eab916120b7565b600060405180830381855afa9150503d8060008114610ee6576040519150601f19603f3d011682016040523d82523d6000602084013e610eeb565b606091505b509150915081610d8557640143200001816040516375fff46760e01b81526004016109f79291906120d3565b6060826000610f278460026121de565b610f329060026121f5565b6001600160401b03811115610f4957610f496118f7565b6040519080825280601f01601f191660200182016040528015610f73576020820181803683370190505b509050600360fc1b81600081518110610f8e57610f8e611f1e565b60200101906001600160f81b031916908160001a905350600f60fb1b81600181518110610fbd57610fbd611f1e565b60200101906001600160f81b031916908160001a9053506000610fe18560026121de565b610fec9060016121f5565b90505b6001811115611064576f181899199a1a9b1b9c1cb0b131b232b360811b83600f166010811061102057611020611f1e565b1a60f81b82828151811061103657611036611f1e565b60200101906001600160f81b031916908160001a90535060049290921c9161105d81612208565b9050610fef565b50811561108e5760405163e22e27eb60e01b815260048101869052602481018590526044016109f7565b949350505050565b606060806040510190506020810160405260008152806f30313233343536373839616263646566600f52600119835b600f811651938201936001850153600f8160041c1651845360081c806110c5575050819003601f19909101908152919050565b8051604051818001600282019081526f30313233343536373839616263646566600f52918301906022015b81841461114e57600184019350600f845116516001820153600f845160041c16518153600201611123565b6000815260200160405250919050565b6000611850565b63101827966000526004601cfd5b805b6001640100002600611188835160001a90565b1c161561043057600101611175565b63ffffffff83113d3d3e63ffffffff821b191691901b1790565b6040516111d384860360786111ce601f1986890301605888611197565b611197565b959095178552505050602082016040525090565b6000806111f8846018600051611197565b6112028787611173565b91508682106112115750611337565b815160001a60228103611243578261122b89858589611547565b935061123b60048583868a6111b1565b945050611328565b605b81036112605761125788848488611340565b93509350611328565b607b81036112745761125788848488611409565b6703ff200000000000811c60011615611293576112578884848861161b565b8760048401116112ed5782835160e01c637472756581036112cb576004850194506112c260058684878b6111b1565b95505050611328565b636e756c6c81036112ea576004850194506112c260068684878b6111b1565b50505b8760058401116113205782835160d81c6466616c7365810361131d576005850194506112c260058684878b6111b1565b50505b611328611165565b50506113348682611173565b90505b94509492505050565b600060018401815b86821061135757611357611165565b8261137b576113668783611173565b9150605d611375835160001a90565b146113de575b611387878385876111e7565b9250925082156113cf576113a18160988551604017611197565b83526001016113b1825160001a90565b605d81036113bf57506113de565b602c81036113cd57506113d3565b505b8691505b600182019150611348565b506001016113ee82603886611197565b93506113fe6001828787876111b1565b915094509492505050565b6000600184015b85811061141f5761141f611165565b816114435761142e8682611173565b9050607d61143d825160001a90565b146114e7575b61144d8682611173565b90508061145c87838587611547565b6114668882611173565b9250603a611475845160001a90565b036114d957611489886001850186886111e7565b9350935083156114d9576114b060208601830360986111ce85850360b88951608017611197565b8452825160001a607d81036114c7575050506114e7565b602c81036114d7575050506114df565b505b50508590505b600101611410565b6001016114f682603886611197565b93506113fe6002828787876111b1565b6001667e0000007e03ff603061151f8585015160001a90565b031c1661152e5761152e611165565b60058214611543576115436001830182611506565b5050565b5050600082821061155a5761155a611165565b50600181015b805160001a6022810361157357506115d1565b605c81146115845750600101611560565b600182015160001a905060016a0510110400000000002001602283031c16156115b05750600201611560565b607581036115cc576115c3600283611506565b50600601611560565b508290505b8281106115e0576115e0611165565b60010192915050565b805b600a60306115fa835160001a90565b031015611609576001016115eb565b808214841615610a1957610a19611165565b600083602d61162b825160001a90565b03611634576001015b600a6030611643835160001a90565b031061165157611651611165565b805160001a6001820191506030811461167357611670600088846115e9565b91505b50602e611681825160001a90565b0361169857611695600187600184016115e9565b90505b805160658160001a602017036116c7576116c46001886001850162010001600e8660011a031a016115e9565b91505b506113fe6003828787876111b1565b60405190820190601f19601f850181165b83810151838201528101806116e75750508381526000846020830101528360408201016040529392505050565b84836116d6565b805160609060028160071611610cd4578215811517610cd457602081161561174f57603881901c63ffffffff169150610cd4565b604051915060208201603882901c63ffffffff165b8015611796578082528051601881901c63ffffffff1661178687601884611197565b9092525060209190910190611764565b50601f1983820381018060051c8552826040526117b585603886611197565b9350836020178652604081106117e8576020850192508085015b835181518552815260209093019282018084106117cf57505b50505050919050565b8051606090821581151715611806575061108e565b80841c63ffffffff1691508086166118475760d881901c63ffffffff1661183482871c63ffffffff16611714565b925050611842828583611197565b861783525b50949350505050565b8180156118c257600181146118d857600381146118e75760208401845181018082146118a857805160001a6022825361188f8760d8601160f91b611197565b60005261189f828460008a6111e7565b93509450808253505b831581831017156118bb576118bb611165565b50506118f0565b6118d1601060786058876117f1565b91506118f0565b6118d1600860b86098876117f1565b61108e8461171b565b5092915050565b634e487b7160e01b600052604160045260246000fd5b60405161014081016001600160401b0381118282101715611930576119306118f7565b60405290565b604051601f8201601f191681016001600160401b038111828210171561195e5761195e6118f7565b604052919050565b60006001600160401b0382111561197f5761197f6118f7565b50601f01601f191660200190565b600082601f83011261199e57600080fd5b81356119b16119ac82611966565b611936565b8181528460208386010111156119c657600080fd5b816020850160208301376000918101602001919091529392505050565b80356001600160a01b0381168114610e6557600080fd5b6001600160401b0381168114611a0f57600080fd5b50565b8035610e65816119fa565b60008060408385031215611a3057600080fd5b82356001600160401b0380821115611a4757600080fd5b611a538683870161198d565b93506020850135915080821115611a6957600080fd5b908401906101408287031215611a7e57600080fd5b611a8661190d565b611a8f836119e3565b8152611a9d60208401611a12565b6020820152611aae60408401611a12565b6040820152611abf60608401611a12565b6060820152611ad060808401611a12565b608082015260a083013582811115611ae757600080fd5b611af38882860161198d565b60a083015250611b0560c08401611a12565b60c082015260e083013582811115611b1c57600080fd5b611b288882860161198d565b60e0830152506101008084013583811115611b4257600080fd5b611b4e8982870161198d565b8284015250506101208084013583811115611b6857600080fd5b611b748982870161198d565b8284015250508093505050509250929050565b60008060408385031215611b9a57600080fd5b611ba3836119e3565b946020939093013593505050565b600060208284031215611bc357600080fd5b81356001600160401b03811115611bd957600080fd5b61108e8482850161198d565b60008060408385031215611bf857600080fd5b82356001600160401b0380821115611c0f57600080fd5b611c1b8683870161198d565b93506020850135915080821115611c3157600080fd5b50611c3e8582860161198d565b9150509250929050565b60005b83811015611c63578181015183820152602001611c4b565b50506000910152565b60008151611c7e818560208601611c48565b9290920192915050565b60008351611c9a818460208801611c48565b671134b7383aba111d60c11b9083019081528351611cbf816008840160208801611c48565b600b60fa1b60089290910191820152600901949350505050565b60008251611ceb818460208701611c48565b6d089a5b9c1d5d088e88088c1e088b60921b920191825250600e01919050565b60008351611d1d818460208801611c48565b64113a37911d60d91b9083019081528351611d3f816005840160208801611c48565b600b60fa1b60059290910191820152600601949350505050565b600089516020611d6c8285838f01611c48565b661133b0b9911d1160c91b9184019182528a51611d8f8160078501848f01611c48565b6d11161133b0b9a83934b1b2911d1160911b600793909101928301528951611dbd8160158501848e01611c48565b6a1116113737b731b2911d1160a91b601593909101928301528851611de781838501848d01611c48565b6a1116113b30b63ab2911d1160a91b9201818101929092528751611e1181602b85018b8501611c48565b611e8b611e7d611e77611e64611e5e611e4b611e45602b888b01016c11161131b430b4b724b2111d1160991b8152600d0190565b8e611c6c565b6611161139111d1160c91b815260070190565b8b611c6c565b6611161139911d1160c91b815260070190565b88611c6c565b61088b60f21b815260020190565b9d9c50505050505050505050505050565b60008351611eae818460208801611c48565b64113b111d1160d91b9083019081528351611ed0816005840160208801611c48565b601160f91b60059290910191820152600601949350505050565b607b60f81b815260008251611f06816001850160208701611c48565b607d60f81b6001939091019283015250600201919050565b634e487b7160e01b600052603260045260246000fd5b7f7b226a736f6e727063223a2022322e30222c20226d6574686f64223a2022737581527f617665785f6275696c64457468426c6f636b222c2022706172616d73223a205b6020820152666e756c6c2c205b60c81b604082015260008251611fa2816047850160208701611c48565b6b5d5d2c20226964223a20317d60a01b6047939091019283015250605301919050565b600060208284031215611fd757600080fd5b8151610a19816119fa565b60008151808452611ffa816020860160208601611c48565b601f01601f19169290920160200192915050565b60006020808401835182865281815180845260408801915060408160051b8901019350848301925060005b8181101561206757603f19898603018352612055858551611fe2565b94509285019291850191600101612039565b5092979650505050505050565b6060815260006120876060830186611fe2565b82810360208401526120998186611fe2565b905082810360408401526120ad818561200e565b9695505050505050565b600082516120c9818460208701611c48565b9190910192915050565b6001600160a01b038316815260406020820181905260009061108e90830184611fe2565b60006020828403121561210957600080fd5b81516001600160401b0381111561211f57600080fd5b8201601f8101841361213057600080fd5b805161213e6119ac82611966565b81815285602083850101111561215357600080fd5b610d99826020830160208601611c48565b634e487b7160e01b600052601160045260246000fd5b8181038181111561043057610430612164565b60006001820161219f5761219f612164565b5060010190565b602081526000610a196020830184611fe2565b6040815260006121cc6040830185611fe2565b8281036020840152610d99818561200e565b808202811582820484141761043057610430612164565b8082018082111561043057610430612164565b60008161221757612217612164565b50600019019056fea164736f6c6343000813000a"
  }
}