{
  "abi": [
    {
      "inputs": [
        {
          "internalType": "address",
          "name": "",
          "type": "address"
        },
        {
          "internalType": "bytes",
          "name": "",
          "type": "bytes"
        }
      ],
      "name": "PeekerReverted",
      "type": "error"
    },
    {
      "inputs": [
        {
          "internalType": "address",
          "name": "target",
          "type": "address"
        },
        {
          "internalType": "uint256",
          "name": "expected",
          "type": "uint256"
        }
      ],
      "name": "callTarget",
      "outputs": [],
      "stateMutability": "nonpayable",
      "type": "function"
    },
    {
      "inputs": [
        {
          "internalType": "string",
          "name": "url",
          "type": "string"
        }
      ],
      "name": "getExample",
      "outputs": [],
      "stateMutability": "nonpayable",
      "type": "function"
    },
    {
      "inputs": [],
      "name": "other",
      "outputs": [],
      "stateMutability": "nonpayable",
      "type": "function"
    },
    {
      "inputs": [
        {
          "internalType": "string",
          "name": "url",
          "type": "string"
        },
        {
          "internalType": "bytes",
          "name": "body",
          "type": "bytes"
        }
      ],
      "name": "postExample",
      "outputs": [],
      "stateMutability": "nonpayable",
      "type": "function"
    },
    {
      "inputs": [
        {
          "internalType": "string",
          "name": "url",
          "type": "string"
        }
      ],
      "name": "sampleJSON",
      "outputs": [],
      "stateMutability": "nonpayable",
      "type": "function"
    }
  ],
  "bytecode": {
    "object": "0x608060405234801561001057600080fd5b5061250d806100206000396000f3fe60806040523480156200001157600080fd5b50600436106200005e5760003560e01c806348bce064146200006357806376d59b56146200007c57806385295877146200007a5780639c1f9b7a1462000093578063d2a932f114620000aa575b600080fd5b6200007a6200007436600462000650565b620000c1565b005b6200007a6200008d3660046200076c565b62000133565b6200007a620000a4366004620007ad565b62000220565b6200007a620000bb3660046200076c565b620002a1565b6040805160048152602481019091526020810180516001600160e01b0316631b53398f60e21b179052600090620000fa90849062000326565b90506000818060200190518101906200011491906200082d565b67ffffffffffffffff1690508281146200012d57600080fd5b50505050565b60408051600b60208201526200015a91015b60405160208183030381529060405262000402565b6000816040516200016b9062000642565b620001779190620008ad565b604051809103906000f08015801562000194573d6000803e3d6000fd5b5060405163017d7d8360e41b8152601460048201529091506001600160a01b038216906317d7d83090602401602060405180830381865afa158015620001de573d6000803e3d6000fd5b505050506040513d601f19601f820116820180604052508101906200020491906200082d565b5060408051601660208201526200021c910162000145565b5050565b6040805160208101825260608152815160018082528184019093529091816020015b6060815260200190600190039081620002425750508152604080518082019091526003815262623a6360e81b602082015281518051600090620002895762000289620008c2565b60200260200101819052506200012d838383620004b4565b6040805160208101825260608152815160018082528184019093529091816020015b6060815260200190600190039081620002c35750508152604080518082019091526003815262309d3160e91b6020820152815180516000906200030a576200030a620008c2565b60200260200101819052506200032182826200058c565b505050565b606060008063421000036001600160a01b031685856040516020016200034e929190620008d8565b60408051601f19818403018152908290526200036a91620008fe565b600060405180830381855afa9150503d8060008114620003a7576040519150601f19603f3d011682016040523d82523d6000602084013e620003ac565b606091505b509150915081620003e3576342100003816040516375fff46760e01b8152600401620003da929190620008d8565b60405180910390fd5b80806020019051810190620003f991906200091c565b95945050505050565b6000806401832000016001600160a01b031683604051602001620004279190620008ad565b60408051601f19818403018152908290526200044391620008fe565b600060405180830381855afa9150503d806000811462000480576040519150601f19603f3d011682016040523d82523d6000602084013e62000485565b606091505b5091509150816200032157640183200001816040516375fff46760e01b8152600401620003da929190620008d8565b60606000806401532000016001600160a01b0316868686604051602001620004df93929190620009fd565b60408051601f1981840301815290829052620004fb91620008fe565b600060405180830381855afa9150503d806000811462000538576040519150601f19603f3d011682016040523d82523d6000602084013e6200053d565b606091505b5091509150816200056c57640153200001816040516375fff46760e01b8152600401620003da929190620008d8565b808060200190518101906200058291906200091c565b9695505050505050565b60606000806401432000016001600160a01b03168585604051602001620005b592919062000a3c565b60408051601f1981840301815290829052620005d191620008fe565b600060405180830381855afa9150503d80600081146200060e576040519150601f19603f3d011682016040523d82523d6000602084013e62000613565b606091505b509150915081620003e357640143200001816040516375fff46760e01b8152600401620003da929190620008d8565b611a9b8062000a6683390190565b600080604083850312156200066457600080fd5b82356001600160a01b03811681146200067c57600080fd5b946020939093013593505050565b634e487b7160e01b600052604160045260246000fd5b604051601f8201601f1916810167ffffffffffffffff81118282101715620006cc57620006cc6200068a565b604052919050565b600067ffffffffffffffff821115620006f157620006f16200068a565b50601f01601f191660200190565b6000620007166200071084620006d4565b620006a0565b90508281528383830111156200072b57600080fd5b828260208301376000602084830101529392505050565b600082601f8301126200075457600080fd5b6200076583833560208501620006ff565b9392505050565b6000602082840312156200077f57600080fd5b813567ffffffffffffffff8111156200079757600080fd5b620007a58482850162000742565b949350505050565b60008060408385031215620007c157600080fd5b823567ffffffffffffffff80821115620007da57600080fd5b620007e88683870162000742565b93506020850135915080821115620007ff57600080fd5b508301601f810185136200081257600080fd5b6200082385823560208401620006ff565b9150509250929050565b6000602082840312156200084057600080fd5b815167ffffffffffffffff811681146200076557600080fd5b60005b83811015620008765781810151838201526020016200085c565b50506000910152565b600081518084526200089981602086016020860162000859565b601f01601f19169290920160200192915050565b6020815260006200076560208301846200087f565b634e487b7160e01b600052603260045260246000fd5b6001600160a01b0383168152604060208201819052600090620007a5908301846200087f565b600082516200091281846020870162000859565b9190910192915050565b6000602082840312156200092f57600080fd5b815167ffffffffffffffff8111156200094757600080fd5b8201601f810184136200095957600080fd5b80516200096a6200071082620006d4565b8181528560208385010111156200098057600080fd5b620003f982602083016020860162000859565b60006020808401835182865281815180845260408801915060408160051b8901019350848301925060005b81811015620009f057603f19898603018352620009dd8585516200087f565b94509285019291850191600101620009be565b5092979650505050505050565b60608152600062000a1260608301866200087f565b828103602084015262000a2681866200087f565b9050828103604084015262000582818562000993565b60408152600062000a5160408301856200087f565b8281036020840152620003f981856200099356fe60806040523480156200001157600080fd5b5060405162001a9b38038062001a9b8339810160408190526200003491620000de565b80604051620000439062000094565b6200004f919062000196565b604051809103906000f0801580156200006c573d6000803e3d6000fd5b50600080546001600160a01b0319166001600160a01b039290921691909117905550620001cb565b610913806200118883390190565b634e487b7160e01b600052604160045260246000fd5b60005b83811015620000d5578181015183820152602001620000bb565b50506000910152565b600060208284031215620000f157600080fd5b81516001600160401b03808211156200010957600080fd5b818401915084601f8301126200011e57600080fd5b815181811115620001335762000133620000a2565b604051601f8201601f19908116603f011681019083821181831017156200015e576200015e620000a2565b816040528281528760208487010111156200017857600080fd5b6200018b836020830160208801620000b8565b979650505050505050565b6020815260008251806020840152620001b7816040850160208701620000b8565b601f01601f19169190910160400192915050565b610fad80620001db6000396000f3fe608060405234801561001057600080fd5b50600436106100415760003560e01c806317d7d8301461004657806354fd4d501461007657806357e871e71461007e575b600080fd5b610059610054366004610cb9565b610086565b60405167ffffffffffffffff909116815260200160405180910390f35b610059610175565b6100596101ff565b60408051600260208201526000916100ad910160405160208183030381529060405261023c565b600080546001600160a01b031663b6ae04256100d267ffffffffffffffff86166102f3565b6040516020016100e29190610d07565b6040516020818303038152906040526040518263ffffffff1660e01b815260040161010d9190610d71565b600060405180830381865afa15801561012a573d6000803e3d6000fd5b505050506040513d6000823e601f3d908101601f191682016040526101529190810190610dc5565b90508061015e8161023c565b600061016982610310565b50600195945050505050565b6000805460408051838152602081019182905263b6ae042560e01b9091526001600160a01b039091169063b6ae0425906101b29060248101610e72565b600060405180830381865afa1580156101cf573d6000803e3d6000fd5b505050506040513d6000823e601f3d908101601f191682016040526101f79190810190610dc5565b506001905090565b6000805460408051838152602081019182905263b6ae042560e01b9091526001600160a01b039091169063b6ae0425906101b29060248101610ea7565b6000806401832000016001600160a01b03168360405160200161025f9190610ee0565b60408051601f198184030181529082905261027991610ef3565b600060405180830381855afa9150503d80600081146102b4576040519150601f19603f3d011682016040523d82523d6000602084013e6102b9565b606091505b5091509150816102ee57640183200001816040516375fff46760e01b81526004016102e5929190610f0f565b60405180910390fd5b505050565b606061030a8261030284610330565b60010161039a565b92915050565b60408051600080825291819052906103298360ff61051a565b9392505050565b600080608083901c156103485760809290921c916010015b604083901c1561035d5760409290921c916008015b602083901c156103725760209290921c916004015b601083901c156103875760109290921c916002015b600883901c1561030a5760010192915050565b60608260006103aa846002610f49565b6103b5906002610f60565b67ffffffffffffffff8111156103cd576103cd610daf565b6040519080825280601f01601f1916602001820160405280156103f7576020820181803683370190505b509050600360fc1b8160008151811061041257610412610f73565b60200101906001600160f81b031916908160001a905350600f60fb1b8160018151811061044157610441610f73565b60200101906001600160f81b031916908160001a9053506000610465856002610f49565b610470906001610f60565b90505b60018111156104e8576f181899199a1a9b1b9c1cb0b131b232b360811b83600f16601081106104a4576104a4610f73565b1a60f81b8282815181106104ba576104ba610f73565b60200101906001600160f81b031916908160001a90535060049290921c916104e181610f89565b9050610473565b5081156105125760405163e22e27eb60e01b815260048101869052602481018590526044016102e5565b949350505050565b6000610c12565b63101827966000526004601cfd5b805b6001640100002600610544835160001a90565b1c161561030a57600101610531565b63ffffffff83113d3d3e63ffffffff821b191691901b1790565b60405161058f848603607861058a601f1986890301605888610553565b610553565b959095178552505050602082016040525090565b6000806105b4846018600051610553565b6105be878761052f565b91508682106105cd57506106f3565b815160001a602281036105ff57826105e789858589610903565b93506105f760048583868a61056d565b9450506106e4565b605b810361061c57610613888484886106fc565b935093506106e4565b607b810361063057610613888484886107c5565b6703ff200000000000811c6001161561064f57610613888484886109d7565b8760048401116106a95782835160e01c637472756581036106875760048501945061067e60058684878b61056d565b955050506106e4565b636e756c6c81036106a65760048501945061067e60068684878b61056d565b50505b8760058401116106dc5782835160d81c6466616c736581036106d95760058501945061067e60058684878b61056d565b50505b6106e4610521565b50506106f0868261052f565b90505b94509492505050565b600060018401815b86821061071357610713610521565b8261073757610722878361052f565b9150605d610731835160001a90565b1461079a575b610743878385876105a3565b92509250821561078b5761075d8160988551604017610553565b835260010161076d825160001a90565b605d810361077b575061079a565b602c8103610789575061078f565b505b8691505b600182019150610704565b506001016107aa82603886610553565b93506107ba60018287878761056d565b915094509492505050565b6000600184015b8581106107db576107db610521565b816107ff576107ea868261052f565b9050607d6107f9825160001a90565b146108a3575b610809868261052f565b90508061081887838587610903565b610822888261052f565b9250603a610831845160001a90565b0361089557610845886001850186886105a3565b9350935083156108955761086c602086018303609861058a85850360b88951608017610553565b8452825160001a607d8103610883575050506108a3565b602c81036108935750505061089b565b505b50508590505b6001016107cc565b6001016108b282603886610553565b93506107ba60028287878761056d565b6001667e0000007e03ff60306108db8585015160001a90565b031c166108ea576108ea610521565b600582146108ff576108ff60018301826108c2565b5050565b5050600082821061091657610916610521565b50600181015b805160001a6022810361092f575061098d565b605c8114610940575060010161091c565b600182015160001a905060016a0510110400000000002001602283031c161561096c575060020161091c565b607581036109885761097f6002836108c2565b5060060161091c565b508290505b82811061099c5761099c610521565b60010192915050565b805b600a60306109b6835160001a90565b0310156109c5576001016109a7565b80821484161561032957610329610521565b600083602d6109e7825160001a90565b036109f0576001015b600a60306109ff835160001a90565b0310610a0d57610a0d610521565b805160001a60018201915060308114610a2f57610a2c600088846109a5565b91505b50602e610a3d825160001a90565b03610a5457610a51600187600184016109a5565b90505b805160658160001a60201703610a8357610a806001886001850162010001600e8660011a031a016109a5565b91505b506107ba60038287878761056d565b60405190820190601f19601f850181165b8381015183820152810180610aa35750508381526000846020830101528360408201016040529392505050565b8483610a92565b50919050565b805160609060028160071611610ad7578215811517610ad7576020811615610b1157603881901c63ffffffff169150610ad7565b604051915060208201603882901c63ffffffff165b8015610b58578082528051601881901c63ffffffff16610b4887601884610553565b9092525060209190910190610b26565b50601f1983820381018060051c855282604052610b7785603886610553565b935083602017865260408110610baa576020850192508085015b83518151855281526020909301928201808410610b9157505b50505050919050565b8051606090821581151715610bc85750610512565b80841c63ffffffff169150808616610c095760d881901c63ffffffff16610bf682871c63ffffffff16610ad0565b925050610c04828583610553565b861783525b50949350505050565b818015610c845760018114610c9a5760038114610ca9576020840184518101808214610c6a57805160001a60228253610c518760d8601160f91b610553565b600052610c61828460008a6105a3565b93509450808253505b83158183101715610c7d57610c7d610521565b5050610cb2565b610c9360106078605887610bb3565b9150610cb2565b610c93600860b8609887610bb3565b61051284610add565b5092915050565b600060208284031215610ccb57600080fd5b813567ffffffffffffffff8116811461032957600080fd5b60005b83811015610cfe578181015183820152602001610ce6565b50506000910152565b612d9160f11b81528151600090610d25816002850160208701610ce3565b68222c2066616c73655d60b81b6002939091019283015250600b01919050565b60008151808452610d5d816020860160208601610ce3565b601f01601f19169290920160200192915050565b60408152601460408201527332ba342fb3b2ba213637b1b5a13ca73ab6b132b960611b60608201526080602082015260006103296080830184610d45565b634e487b7160e01b600052604160045260246000fd5b600060208284031215610dd757600080fd5b815167ffffffffffffffff80821115610def57600080fd5b818401915084601f830112610e0357600080fd5b815181811115610e1557610e15610daf565b604051601f8201601f19908116603f01168101908382118183101715610e3d57610e3d610daf565b81604052828152876020848701011115610e5657600080fd5b610e67836020830160208801610ce3565b979650505050505050565b60408152600b60408201526a3732ba2fbb32b939b4b7b760a91b60608201526080602082015260006103296080830184610d45565b60408152600f60408201526e32ba342fb13637b1b5a73ab6b132b960891b60608201526080602082015260006103296080830184610d45565b6020815260006103296020830184610d45565b60008251610f05818460208701610ce3565b9190910192915050565b6001600160a01b038316815260406020820181905260009061051290830184610d45565b634e487b7160e01b600052601160045260246000fd5b808202811582820484141761030a5761030a610f33565b8082018082111561030a5761030a610f33565b634e487b7160e01b600052603260045260246000fd5b600081610f9857610f98610f33565b50600019019056fea164736f6c6343000813000a608060405234801561001057600080fd5b5060405162000913380380620009138339810160408190526100319161005a565b600061003d82826101ac565b505061026b565b634e487b7160e01b600052604160045260246000fd5b6000602080838503121561006d57600080fd5b82516001600160401b038082111561008457600080fd5b818501915085601f83011261009857600080fd5b8151818111156100aa576100aa610044565b604051601f8201601f19908116603f011681019083821181831017156100d2576100d2610044565b8160405282815288868487010111156100ea57600080fd5b600093505b8284101561010c57848401860151818501870152928501926100ef565b600086848301015280965050505050505092915050565b600181811c9082168061013757607f821691505b60208210810361015757634e487b7160e01b600052602260045260246000fd5b50919050565b601f8211156101a757600081815260208120601f850160051c810160208610156101845750805b601f850160051c820191505b818110156101a357828155600101610190565b5050505b505050565b81516001600160401b038111156101c5576101c5610044565b6101d9816101d38454610123565b8461015d565b602080601f83116001811461020e57600084156101f65750858301515b600019600386901b1c1916600185901b1785556101a3565b600085815260208120601f198616915b8281101561023d5788860151825594840194600190910190840161021e565b508582101561025b5787850151600019600388901b60f8161c191681555b5050505050600190811b01905550565b610698806200027b6000396000f3fe608060405234801561001057600080fd5b506004361061002b5760003560e01c8063b6ae042514610030575b600080fd5b61004361003e366004610366565b610059565b6040516100509190610445565b60405180910390f35b60606100716040518060200160405280606081525090565b60408051600180825281830190925290816020015b6060815260200190600190039081610086575050815260408051808201909152601d81527f436f6e74656e742d547970653a6170706c69636174696f6e2f6a736f6e0000006020820152815180516000906100e3576100e361045f565b6020026020010181905250825160000361011557604051806040016040528060028152602001615b5d60f01b81525092505b6000848460405160200161012a929190610475565b604051602081830303815290604052905060006101d26000805461014d906104fd565b80601f0160208091040260200160405190810160405280929190818152602001828054610179906104fd565b80156101c65780601f1061019b576101008083540402835291602001916101c6565b820191906000526020600020905b8154815290600101906020018083116101a957829003601f168201915b505050505083856101ec565b93506101e692505050565b60405180910390fd5b92915050565b60606000806401532000016001600160a01b031686868660405160200161021593929190610537565b60408051601f198184030181529082905261022f916105cc565b600060405180830381855afa9150503d806000811461026a576040519150601f19603f3d011682016040523d82523d6000602084013e61026f565b606091505b50915091508161029b57640153200001816040516375fff46760e01b81526004016101dd9291906105e8565b808060200190518101906102af9190610614565b9695505050505050565b634e487b7160e01b600052604160045260246000fd5b604051601f8201601f1916810167ffffffffffffffff811182821017156102f8576102f86102b9565b604052919050565b600067ffffffffffffffff82111561031a5761031a6102b9565b50601f01601f191660200190565b600061033b61033684610300565b6102cf565b905082815283838301111561034f57600080fd5b828260208301376000602084830101529392505050565b6000806040838503121561037957600080fd5b823567ffffffffffffffff8082111561039157600080fd5b818501915085601f8301126103a557600080fd5b6103b486833560208501610328565b935060208501359150808211156103ca57600080fd5b508301601f810185136103dc57600080fd5b6103eb85823560208401610328565b9150509250929050565b60005b838110156104105781810151838201526020016103f8565b50506000910152565b600081518084526104318160208601602086016103f5565b601f01601f19169290920160200192915050565b6020815260006104586020830184610419565b9392505050565b634e487b7160e01b600052603260045260246000fd5b7f7b226a736f6e727063223a2022322e30222c20226d6574686f64223a202200008152600083516104ad81601e8501602088016103f5565b6c0111610113830b930b6b9911d1609d1b601e9184019182015283516104da81602b8401602088016103f5565b692c20226964223a20317d60b01b602b9290910191820152603501949350505050565b600181811c9082168061051157607f821691505b60208210810361053157634e487b7160e01b600052602260045260246000fd5b50919050565b60608152600061054a6060830186610419565b60208382038185015261055d8287610419565b91508382036040850152808201855182845281815180845260408601915060408160051b8701019350848301925060005b818110156105bc57603f198786030183526105aa858551610419565b9450928501929185019160010161058e565b50929a9950505050505050505050565b600082516105de8184602087016103f5565b9190910192915050565b6001600160a01b038316815260406020820181905260009061060c90830184610419565b949350505050565b60006020828403121561062657600080fd5b815167ffffffffffffffff81111561063d57600080fd5b8201601f8101841361064e57600080fd5b805161065c61033682610300565b81815285602083850101111561067157600080fd5b6106828260208301602086016103f5565b9594505050505056fea164736f6c6343000813000aa164736f6c6343000813000a"
  }
}