{
  "abi": [
    {
      "inputs": [
        {
          "internalType": "address",
          "name": "",
          "type": "address"
        },
        {
          "internalType": "bytes",
          "name": "",
          "type": "bytes"
        }
      ],
      "name": "PeekerReverted",
      "type": "error"
    },
    {
      "inputs": [
        {
          "internalType": "address",
          "name": "target",
          "type": "address"
        },
        {
          "internalType": "uint256",
          "name": "expected",
          "type": "uint256"
        }
      ],
      "name": "callTarget",
      "outputs": [],
      "stateMutability": "nonpayable",
      "type": "function"
    },
    {
      "inputs": [
        {
          "internalType": "string",
          "name": "url",
          "type": "string"
        }
      ],
      "name": "getExample",
      "outputs": [],
      "stateMutability": "nonpayable",
      "type": "function"
    },
    {
      "inputs": [
        {
          "internalType": "string",
          "name": "url",
          "type": "string"
        },
        {
          "internalType": "bytes",
          "name": "body",
          "type": "bytes"
        }
      ],
      "name": "postExample",
      "outputs": [],
      "stateMutability": "nonpayable",
      "type": "function"
    },
    {
      "inputs": [
        {
          "internalType": "string",
          "name": "url",
          "type": "string"
        }
      ],
      "name": "sampleJSON",
      "outputs": [],
      "stateMutability": "nonpayable",
      "type": "function"
    }
  ],
  "bytecode": {
    "object": "0x608060405234801561001057600080fd5b50611ca3806100206000396000f3fe60806040523480156200001157600080fd5b5060043610620000525760003560e01c806348bce064146200005757806376d59b5614620000705780639c1f9b7a1462000087578063d2a932f1146200009e575b600080fd5b6200006e620000683660046200061a565b620000b5565b005b6200006e6200008136600462000736565b62000127565b6200006e6200009836600462000777565b620002a1565b6200006e620000af36600462000736565b62000322565b6040805160048152602481019091526020810180516001600160e01b0316631b53398f60e21b179052600090620000ee908490620003a2565b9050600081806020019051810190620001089190620007f7565b67ffffffffffffffff1690508281146200012157600080fd5b50505050565b60008160405162000138906200060c565b62000144919062000877565b604051809103906000f08015801562000161573d6000803e3d6000fd5b509050806001600160a01b03166354fd4d506040518163ffffffff1660e01b8152600401602060405180830381865afa158015620001a3573d6000803e3d6000fd5b505050506040513d601f19601f82011682018060405250810190620001c99190620007f7565b50806001600160a01b03166357e871e76040518163ffffffff1660e01b8152600401602060405180830381865afa15801562000209573d6000803e3d6000fd5b505050506040513d601f19601f820116820180604052508101906200022f9190620007f7565b5060405163017d7d8360e41b8152601460048201526001600160a01b038216906317d7d83090602401602060405180830381865afa15801562000276573d6000803e3d6000fd5b505050506040513d601f19601f820116820180604052508101906200029c9190620007f7565b505050565b6040805160208101825260608152815160018082528184019093529091816020015b6060815260200190600190039081620002c35750508152604080518082019091526003815262623a6360e81b6020820152815180516000906200030a576200030a6200088c565b6020026020010181905250620001218383836200047e565b6040805160208101825260608152815160018082528184019093529091816020015b6060815260200190600190039081620003445750508152604080518082019091526003815262309d3160e91b6020820152815180516000906200038b576200038b6200088c565b60200260200101819052506200029c828262000556565b606060008063421000036001600160a01b03168585604051602001620003ca929190620008a2565b60408051601f1981840301815290829052620003e691620008c8565b600060405180830381855afa9150503d806000811462000423576040519150601f19603f3d011682016040523d82523d6000602084013e62000428565b606091505b5091509150816200045f576342100003816040516375fff46760e01b815260040162000456929190620008a2565b60405180910390fd5b80806020019051810190620004759190620008e6565b95945050505050565b60606000806401532000016001600160a01b0316868686604051602001620004a993929190620009c7565b60408051601f1981840301815290829052620004c591620008c8565b600060405180830381855afa9150503d806000811462000502576040519150601f19603f3d011682016040523d82523d6000602084013e62000507565b606091505b5091509150816200053657640153200001816040516375fff46760e01b815260040162000456929190620008a2565b808060200190518101906200054c9190620008e6565b9695505050505050565b60606000806401432000016001600160a01b031685856040516020016200057f92919062000a06565b60408051601f19818403018152908290526200059b91620008c8565b600060405180830381855afa9150503d8060008114620005d8576040519150601f19603f3d011682016040523d82523d6000602084013e620005dd565b606091505b5091509150816200045f57640143200001816040516375fff46760e01b815260040162000456929190620008a2565b6112678062000a3083390190565b600080604083850312156200062e57600080fd5b82356001600160a01b03811681146200064657600080fd5b946020939093013593505050565b634e487b7160e01b600052604160045260246000fd5b604051601f8201601f1916810167ffffffffffffffff8111828210171562000696576200069662000654565b604052919050565b600067ffffffffffffffff821115620006bb57620006bb62000654565b50601f01601f191660200190565b6000620006e0620006da846200069e565b6200066a565b9050828152838383011115620006f557600080fd5b828260208301376000602084830101529392505050565b600082601f8301126200071e57600080fd5b6200072f83833560208501620006c9565b9392505050565b6000602082840312156200074957600080fd5b813567ffffffffffffffff8111156200076157600080fd5b6200076f848285016200070c565b949350505050565b600080604083850312156200078b57600080fd5b823567ffffffffffffffff80821115620007a457600080fd5b620007b2868387016200070c565b93506020850135915080821115620007c957600080fd5b508301601f81018513620007dc57600080fd5b620007ed85823560208401620006c9565b9150509250929050565b6000602082840312156200080a57600080fd5b815167ffffffffffffffff811681146200072f57600080fd5b60005b838110156200084057818101518382015260200162000826565b50506000910152565b600081518084526200086381602086016020860162000823565b601f01601f19169290920160200192915050565b6020815260006200072f602083018462000849565b634e487b7160e01b600052603260045260246000fd5b6001600160a01b03831681526040602082018190526000906200076f9083018462000849565b60008251620008dc81846020870162000823565b9190910192915050565b600060208284031215620008f957600080fd5b815167ffffffffffffffff8111156200091157600080fd5b8201601f810184136200092357600080fd5b805162000934620006da826200069e565b8181528560208385010111156200094a57600080fd5b6200047582602083016020860162000823565b60006020808401835182865281815180845260408801915060408160051b8901019350848301925060005b81811015620009ba57603f19898603018352620009a785855162000849565b9450928501929185019160010162000988565b5092979650505050505050565b606081526000620009dc606083018662000849565b8281036020840152620009f0818662000849565b905082810360408401526200054c81856200095d565b60408152600062000a1b604083018562000849565b82810360208401526200047581856200095d56fe608060405234801561001057600080fd5b5060405161126738038061126783398101604081905261002f916100d0565b8060405161003c90610089565b610046919061017c565b604051809103906000f080158015610062573d6000803e3d6000fd5b50600080546001600160a01b0319166001600160a01b0392909216919091179055506101af565b6109fb8061086c83390190565b634e487b7160e01b600052604160045260246000fd5b60005b838110156100c75781810151838201526020016100af565b50506000910152565b6000602082840312156100e257600080fd5b81516001600160401b03808211156100f957600080fd5b818401915084601f83011261010d57600080fd5b81518181111561011f5761011f610096565b604051601f8201601f19908116603f0116810190838211818310171561014757610147610096565b8160405282815287602084870101111561016057600080fd5b6101718360208301602088016100ac565b979650505050505050565b602081526000825180602084015261019b8160408501602087016100ac565b601f01601f19169190910160400192915050565b6106ae806101be6000396000f3fe608060405234801561001057600080fd5b50600436106100415760003560e01c806317d7d8301461004657806354fd4d501461007657806357e871e71461007e575b600080fd5b610059610054366004610406565b610086565b60405167ffffffffffffffff909116815260200160405180910390f35b610059610134565b6100596101be565b600080546001600160a01b031663b6ae04256100ab67ffffffffffffffff85166101fb565b6040516020016100bb919061045b565b6040516020818303038152906040526040518263ffffffff1660e01b81526004016100e691906104c5565b600060405180830381865afa158015610103573d6000803e3d6000fd5b505050506040513d6000823e601f3d908101601f1916820160405261012b9190810190610519565b50600192915050565b6000805460408051838152602081019182905263b6ae042560e01b9091526001600160a01b039091169063b6ae04259061017190602481016105c6565b600060405180830381865afa15801561018e573d6000803e3d6000fd5b505050506040513d6000823e601f3d908101601f191682016040526101b69190810190610519565b506001905090565b6000805460408051838152602081019182905263b6ae042560e01b9091526001600160a01b039091169063b6ae04259061017190602481016105fb565b60606102128261020a84610218565b600101610282565b92915050565b600080608083901c156102305760809290921c916010015b604083901c156102455760409290921c916008015b602083901c1561025a5760209290921c916004015b601083901c1561026f5760109290921c916002015b600883901c156102125760010192915050565b606082600061029284600261064a565b61029d906002610661565b67ffffffffffffffff8111156102b5576102b5610503565b6040519080825280601f01601f1916602001820160405280156102df576020820181803683370190505b509050600360fc1b816000815181106102fa576102fa610674565b60200101906001600160f81b031916908160001a905350600f60fb1b8160018151811061032957610329610674565b60200101906001600160f81b031916908160001a905350600061034d85600261064a565b610358906001610661565b90505b60018111156103d0576f181899199a1a9b1b9c1cb0b131b232b360811b83600f166010811061038c5761038c610674565b1a60f81b8282815181106103a2576103a2610674565b60200101906001600160f81b031916908160001a90535060049290921c916103c98161068a565b905061035b565b5081156103fe5760405163e22e27eb60e01b8152600481018690526024810185905260440160405180910390fd5b949350505050565b60006020828403121561041857600080fd5b813567ffffffffffffffff8116811461043057600080fd5b9392505050565b60005b8381101561045257818101518382015260200161043a565b50506000910152565b612d9160f11b81528151600090610479816002850160208701610437565b68222c2066616c73655d60b81b6002939091019283015250600b01919050565b600081518084526104b1816020860160208601610437565b601f01601f19169290920160200192915050565b60408152601460408201527332ba342fb3b2ba213637b1b5a13ca73ab6b132b960611b60608201526080602082015260006104306080830184610499565b634e487b7160e01b600052604160045260246000fd5b60006020828403121561052b57600080fd5b815167ffffffffffffffff8082111561054357600080fd5b818401915084601f83011261055757600080fd5b81518181111561056957610569610503565b604051601f8201601f19908116603f0116810190838211818310171561059157610591610503565b816040528281528760208487010111156105aa57600080fd5b6105bb836020830160208801610437565b979650505050505050565b60408152600b60408201526a3732ba2fbb32b939b4b7b760a91b60608201526080602082015260006104306080830184610499565b60408152600f60408201526e32ba342fb13637b1b5a73ab6b132b960891b60608201526080602082015260006104306080830184610499565b634e487b7160e01b600052601160045260246000fd5b808202811582820484141761021257610212610634565b8082018082111561021257610212610634565b634e487b7160e01b600052603260045260246000fd5b60008161069957610699610634565b50600019019056fea164736f6c6343000813000a60806040523480156200001157600080fd5b50604051620009fb380380620009fb833981016040819052620000349162000060565b6000620000428282620001c4565b505062000290565b634e487b7160e01b600052604160045260246000fd5b600060208083850312156200007457600080fd5b82516001600160401b03808211156200008c57600080fd5b818501915085601f830112620000a157600080fd5b815181811115620000b657620000b66200004a565b604051601f8201601f19908116603f01168101908382118183101715620000e157620000e16200004a565b816040528281528886848701011115620000fa57600080fd5b600093505b828410156200011e5784840186015181850187015292850192620000ff565b600086848301015280965050505050505092915050565b600181811c908216806200014a57607f821691505b6020821081036200016b57634e487b7160e01b600052602260045260246000fd5b50919050565b601f821115620001bf57600081815260208120601f850160051c810160208610156200019a5750805b601f850160051c820191505b81811015620001bb57828155600101620001a6565b5050505b505050565b81516001600160401b03811115620001e057620001e06200004a565b620001f881620001f1845462000135565b8462000171565b602080601f831160018114620002305760008415620002175750858301515b600019600386901b1c1916600185901b178555620001bb565b600085815260208120601f198616915b82811015620002615788860151825594840194600190910190840162000240565b5085821015620002805787850151600019600388901b60f8161c191681555b5050505050600190811b01905550565b61075b80620002a06000396000f3fe608060405234801561001057600080fd5b506004361061002b5760003560e01c8063b6ae042514610030575b600080fd5b61004361003e366004610431565b610059565b6040516100509190610510565b60405180910390f35b60606100716040518060200160405280606081525090565b60408051600180825281830190925290816020015b6060815260200190600190039081610086575050815260408051808201909152601d81527f436f6e74656e742d547970653a6170706c69636174696f6e2f6a736f6e0000006020820152815180516000906100e3576100e361052a565b6020026020010181905250825160000361011557604051806040016040528060028152602001615b5d60f01b81525092505b6000848460405160200161012a929190610540565b604051602081830303815290604052905060006101d26000805461014d906105c8565b80601f0160208091040260200160405190810160405280929190818152602001828054610179906105c8565b80156101c65780601f1061019b576101008083540402835291602001916101c6565b820191906000526020600020905b8154815290600101906020018083116101a957829003601f168201915b505050505083856101e7565b90506101dd816102bd565b5095945050505050565b60606000806401532000016001600160a01b031686868660405160200161021093929190610602565b60408051601f198184030181529082905261022a91610697565b600060405180830381855afa9150503d8060008114610265576040519150601f19603f3d011682016040523d82523d6000602084013e61026a565b606091505b50915091508161029f57640153200001816040516375fff46760e01b81526004016102969291906106b3565b60405180910390fd5b808060200190518101906102b391906106d7565b9695505050505050565b60606000806401632000016001600160a01b0316846040516020016102e29190610510565b60408051601f19818403018152908290526102fc91610697565b600060405180830381855afa9150503d8060008114610337576040519150601f19603f3d011682016040523d82523d6000602084013e61033c565b606091505b50915091508161036857640163200001816040516375fff46760e01b81526004016102969291906106b3565b8080602001905181019061037c91906106d7565b949350505050565b634e487b7160e01b600052604160045260246000fd5b604051601f8201601f1916810167ffffffffffffffff811182821017156103c3576103c3610384565b604052919050565b600067ffffffffffffffff8211156103e5576103e5610384565b50601f01601f191660200190565b6000610406610401846103cb565b61039a565b905082815283838301111561041a57600080fd5b828260208301376000602084830101529392505050565b6000806040838503121561044457600080fd5b823567ffffffffffffffff8082111561045c57600080fd5b818501915085601f83011261047057600080fd5b61047f868335602085016103f3565b9350602085013591508082111561049557600080fd5b508301601f810185136104a757600080fd5b6104b6858235602084016103f3565b9150509250929050565b60005b838110156104db5781810151838201526020016104c3565b50506000910152565b600081518084526104fc8160208601602086016104c0565b601f01601f19169290920160200192915050565b60208152600061052360208301846104e4565b9392505050565b634e487b7160e01b600052603260045260246000fd5b7f7b226a736f6e727063223a2022322e30222c20226d6574686f64223a2022000081526000835161057881601e8501602088016104c0565b6c0111610113830b930b6b9911d1609d1b601e9184019182015283516105a581602b8401602088016104c0565b692c20226964223a20317d60b01b602b9290910191820152603501949350505050565b600181811c908216806105dc57607f821691505b6020821081036105fc57634e487b7160e01b600052602260045260246000fd5b50919050565b60608152600061061560608301866104e4565b60208382038185015261062882876104e4565b91508382036040850152808201855182845281815180845260408601915060408160051b8701019350848301925060005b8181101561068757603f198786030183526106758585516104e4565b94509285019291850191600101610659565b50929a9950505050505050505050565b600082516106a98184602087016104c0565b9190910192915050565b6001600160a01b038316815260406020820181905260009061037c908301846104e4565b6000602082840312156106e957600080fd5b815167ffffffffffffffff81111561070057600080fd5b8201601f8101841361071157600080fd5b805161071f610401826103cb565b81815285602083850101111561073457600080fd5b6107458260208301602086016104c0565b9594505050505056fea164736f6c6343000813000aa164736f6c6343000813000a"
  }
}