{
  "abi": [
    {
      "inputs": [
        {
          "internalType": "address",
          "name": "",
          "type": "address"
        },
        {
          "internalType": "bytes",
          "name": "",
          "type": "bytes"
        }
      ],
      "name": "PeekerReverted",
      "type": "error"
    },
    {
      "inputs": [
        {
          "internalType": "address",
          "name": "target",
          "type": "address"
        },
        {
          "internalType": "uint256",
          "name": "expected",
          "type": "uint256"
        }
      ],
      "name": "callTarget",
      "outputs": [],
      "stateMutability": "nonpayable",
      "type": "function"
    },
    {
      "inputs": [
        {
          "internalType": "string",
          "name": "url",
          "type": "string"
        }
      ],
      "name": "getExample",
      "outputs": [],
      "stateMutability": "nonpayable",
      "type": "function"
    },
    {
      "inputs": [
        {
          "internalType": "string",
          "name": "url",
          "type": "string"
        },
        {
          "internalType": "bytes",
          "name": "body",
          "type": "bytes"
        }
      ],
      "name": "postExample",
      "outputs": [],
      "stateMutability": "nonpayable",
      "type": "function"
    }
  ],
  "bytecode": {
    "object": "0x608060405234801561001057600080fd5b50610803806100206000396000f3fe608060405234801561001057600080fd5b50600436106100415760003560e01c806348bce064146100465780639c1f9b7a1461005b578063d2a932f11461006e575b600080fd5b610059610054366004610433565b610081565b005b61005961006936600461053f565b6100ee565b61005961007c3660046105b7565b610169565b6040805160048152602481019091526020810180516001600160e01b0316631b53398f60e21b1790526000906100b89084906101e8565b90506000818060200190518101906100d091906105f4565b67ffffffffffffffff1690508281146100e857600080fd5b50505050565b6040805160208101825260608152815160018082528184019093529091816020015b60608152602001906001900390816101105750508152604080518082019091526003815262623a6360e81b6020820152815180516000906101535761015361061e565b60200260200101819052506100e88383836102b9565b6040805160208101825260608152815160018082528184019093529091816020015b606081526020019060019003908161018b5750508152604080518082019091526003815262309d3160e91b6020820152815180516000906101ce576101ce61061e565b60200260200101819052506101e38282610386565b505050565b606060008063421000036001600160a01b0316858560405160200161020e929190610684565b60408051601f1981840301815290829052610228916106a8565b600060405180830381855afa9150503d8060008114610263576040519150601f19603f3d011682016040523d82523d6000602084013e610268565b606091505b50915091508161029c576342100003816040516375fff46760e01b8152600401610293929190610684565b60405180910390fd5b808060200190518101906102b091906106c4565b95945050505050565b60606000806401532000016001600160a01b03168686866040516020016102e293929190610798565b60408051601f19818403018152908290526102fc916106a8565b600060405180830381855afa9150503d8060008114610337576040519150601f19603f3d011682016040523d82523d6000602084013e61033c565b606091505b50915091508161036857640153200001816040516375fff46760e01b8152600401610293929190610684565b8080602001905181019061037c91906106c4565b9695505050505050565b60606000806401432000016001600160a01b031685856040516020016103ad9291906107d1565b60408051601f19818403018152908290526103c7916106a8565b600060405180830381855afa9150503d8060008114610402576040519150601f19603f3d011682016040523d82523d6000602084013e610407565b606091505b50915091508161029c57640143200001816040516375fff46760e01b8152600401610293929190610684565b6000806040838503121561044657600080fd5b82356001600160a01b038116811461045d57600080fd5b946020939093013593505050565b634e487b7160e01b600052604160045260246000fd5b604051601f8201601f1916810167ffffffffffffffff811182821017156104aa576104aa61046b565b604052919050565b600067ffffffffffffffff8211156104cc576104cc61046b565b50601f01601f191660200190565b60006104ed6104e8846104b2565b610481565b905082815283838301111561050157600080fd5b828260208301376000602084830101529392505050565b600082601f83011261052957600080fd5b610538838335602085016104da565b9392505050565b6000806040838503121561055257600080fd5b823567ffffffffffffffff8082111561056a57600080fd5b61057686838701610518565b9350602085013591508082111561058c57600080fd5b508301601f8101851361059e57600080fd5b6105ad858235602084016104da565b9150509250929050565b6000602082840312156105c957600080fd5b813567ffffffffffffffff8111156105e057600080fd5b6105ec84828501610518565b949350505050565b60006020828403121561060657600080fd5b815167ffffffffffffffff8116811461053857600080fd5b634e487b7160e01b600052603260045260246000fd5b60005b8381101561064f578181015183820152602001610637565b50506000910152565b60008151808452610670816020860160208601610634565b601f01601f19169290920160200192915050565b6001600160a01b03831681526040602082018190526000906105ec90830184610658565b600082516106ba818460208701610634565b9190910192915050565b6000602082840312156106d657600080fd5b815167ffffffffffffffff8111156106ed57600080fd5b8201601f810184136106fe57600080fd5b805161070c6104e8826104b2565b81815285602083850101111561072157600080fd5b6102b0826020830160208601610634565b60006020808401835182865281815180845260408801915060408160051b8901019350848301925060005b8181101561078b57603f19898603018352610779858551610658565b9450928501929185019160010161075d565b5092979650505050505050565b6060815260006107ab6060830186610658565b82810360208401526107bd8186610658565b9050828103604084015261037c8185610732565b6040815260006107e46040830185610658565b82810360208401526102b0818561073256fea164736f6c6343000813000a"
  }
}