{
  "abi": [
    {
      "inputs": [
        {
          "internalType": "address",
          "name": "",
          "type": "address"
        },
        {
          "internalType": "bytes",
          "name": "",
          "type": "bytes"
        }
      ],
      "name": "PeekerReverted",
      "type": "error"
    },
    {
      "anonymous": false,
      "inputs": [
        {
          "indexed": false,
          "internalType": "uint64",
          "name": "num",
          "type": "uint64"
        }
      ],
      "name": "Event",
      "type": "event"
    },
    {
      "inputs": [
        {
          "internalType": "address",
          "name": "target",
          "type": "address"
        },
        {
          "internalType": "uint256",
          "name": "expected",
          "type": "uint256"
        }
      ],
      "name": "callTarget",
      "outputs": [],
      "stateMutability": "nonpayable",
      "type": "function"
    },
    {
      "inputs": [
        {
          "internalType": "uint64",
          "name": "numLogs",
          "type": "uint64"
        }
      ],
      "name": "emitEvent",
      "outputs": [],
      "stateMutability": "payable",
      "type": "function"
    },
    {
      "inputs": [],
      "name": "ilegalStateTransition",
      "outputs": [],
      "stateMutability": "payable",
      "type": "function"
    }
  ],
  "bytecode": {
    "object": "0x608060405234801561001057600080fd5b50610481806100206000396000f3fe6080604052600436106100345760003560e01c806326819d161461003957806348bce0641461004e5780639476e9661461006e575b600080fd5b61004c610047366004610281565b610076565b005b34801561005a57600080fd5b5061004c6100693660046102a5565b6100e8565b61004c610155565b60005b8167ffffffffffffffff168167ffffffffffffffff1610156100e45760405167ffffffffffffffff821681527f907b6183af8dff6c3ccd5a6e356d2950ee5261d1de2d382d1d2d32eebf1d1c1b9060200160405180910390a1806100dc816102dd565b915050610079565b5050565b6040805160048152602481019091526020810180516001600160e01b0316631b53398f60e21b17905260009061011f908490610197565b90506000818060200190518101906101379190610312565b67ffffffffffffffff16905082811461014f57600080fd5b50505050565b6000805467ffffffffffffffff16908061016e836102dd565b91906101000a81548167ffffffffffffffff021916908367ffffffffffffffff16021790555050565b606060008063421000036001600160a01b031685856040516020016101bd929190610353565b60408051601f19818403018152908290526101d791610395565b600060405180830381855afa9150503d8060008114610212576040519150601f19603f3d011682016040523d82523d6000602084013e610217565b606091505b50915091508161024b576342100003816040516375fff46760e01b8152600401610242929190610353565b60405180910390fd5b8080602001905181019061025f91906103c7565b95945050505050565b67ffffffffffffffff8116811461027e57600080fd5b50565b60006020828403121561029357600080fd5b813561029e81610268565b9392505050565b600080604083850312156102b857600080fd5b82356001600160a01b03811681146102cf57600080fd5b946020939093013593505050565b600067ffffffffffffffff80831681810361030857634e487b7160e01b600052601160045260246000fd5b6001019392505050565b60006020828403121561032457600080fd5b815161029e81610268565b60005b8381101561034a578181015183820152602001610332565b50506000910152565b60018060a01b0383168152604060208201526000825180604084015261038081606085016020870161032f565b601f01601f1916919091016060019392505050565b600082516103a781846020870161032f565b9190910192915050565b634e487b7160e01b600052604160045260246000fd5b6000602082840312156103d957600080fd5b815167ffffffffffffffff808211156103f157600080fd5b818401915084601f83011261040557600080fd5b815181811115610417576104176103b1565b604051601f8201601f19908116603f0116810190838211818310171561043f5761043f6103b1565b8160405282815287602084870101111561045857600080fd5b61046983602083016020880161032f565b97965050505050505056fea164736f6c6343000813000a"
  }
}