{
  "abi": [
    {
      "inputs": [
        {
          "internalType": "address",
          "name": "",
          "type": "address"
        },
        {
          "internalType": "bytes",
          "name": "",
          "type": "bytes"
        }
      ],
      "name": "PeekerReverted",
      "type": "error"
    },
    {
      "inputs": [
        {
          "internalType": "address",
          "name": "target",
          "type": "address"
        },
        {
          "internalType": "uint256",
          "name": "expected",
          "type": "uint256"
        }
      ],
      "name": "callTarget",
      "outputs": [],
      "stateMutability": "nonpayable",
      "type": "function"
    }
  ],
  "bytecode": {
    "object": "0x608060405234801561001057600080fd5b506103bd806100206000396000f3fe608060405234801561001057600080fd5b506004361061002b5760003560e01c806348bce06414610030575b600080fd5b61004361003e366004610194565b610045565b005b6040805160048152602481019091526020810180516001600160e01b0316631b53398f60e21b17905260009061007c9084906100b6565b90506000816000015180602001905181019061009891906101cc565b67ffffffffffffffff1690508281146100b057600080fd5b50505050565b60408051602081019091526060815260008063421000036001600160a01b031685856040516020016100e9929190610221565b60408051601f198184030181529082905261010391610263565b600060405180830381855afa9150503d806000811461013e576040519150601f19603f3d011682016040523d82523d6000602084013e610143565b606091505b509150915081610177576342100003816040516375fff46760e01b815260040161016e929190610221565b60405180910390fd5b8080602001905181019061018b91906102ef565b95945050505050565b600080604083850312156101a757600080fd5b82356001600160a01b03811681146101be57600080fd5b946020939093013593505050565b6000602082840312156101de57600080fd5b815167ffffffffffffffff811681146101f657600080fd5b9392505050565b60005b83811015610218578181015183820152602001610200565b50506000910152565b60018060a01b0383168152604060208201526000825180604084015261024e8160608501602087016101fd565b601f01601f1916919091016060019392505050565b600082516102758184602087016101fd565b9190910192915050565b634e487b7160e01b600052604160045260246000fd5b6040516020810167ffffffffffffffff811182821017156102b8576102b861027f565b60405290565b604051601f8201601f1916810167ffffffffffffffff811182821017156102e7576102e761027f565b604052919050565b6000602080838503121561030257600080fd5b825167ffffffffffffffff8082111561031a57600080fd5b818501915082828703121561032e57600080fd5b610336610295565b82518281111561034557600080fd5b80840193505086601f84011261035a57600080fd5b82518281111561036c5761036c61027f565b61037e601f8201601f191686016102be565b9250808352878582860101111561039457600080fd5b6103a3818685018787016101fd565b509081529594505050505056fea164736f6c6343000813000a"
  }
}