{
  "abi": [
    {
      "inputs": [],
      "name": "get",
      "outputs": [
        {
          "internalType": "uint256",
          "name": "",
          "type": "uint256"
        }
      ],
      "stateMutability": "view",
      "type": "function"
    }
  ],
  "bytecode": {
    "object": "0x6080604052348015600f57600080fd5b50604e80601d6000396000f3fe6080604052348015600f57600080fd5b506004361060285760003560e01c80636d4ce63c14602d575b600080fd5b606560405190815260200160405180910390f3fea164736f6c6343000813000a",
    "linkReferences": {}
  },
  "deployedBytecode": {
    "object": "0x6080604052348015600f57600080fd5b506004361060285760003560e01c80636d4ce63c14602d575b600080fd5b606560405190815260200160405180910390f3fea164736f6c6343000813000a",
    "linkReferences": {}
  },
  "methodIdentifiers": {
    "get()": "6d4ce63c"
  },
  "id": 26
}