{
  "abi": [
    {
      "inputs": [
        {
          "internalType": "address",
          "name": "",
          "type": "address"
        },
        {
          "internalType": "bytes",
          "name": "",
          "type": "bytes"
        }
      ],
      "name": "PeekerReverted",
      "type": "error"
    },
    {
      "inputs": [
        {
          "internalType": "address",
          "name": "target",
          "type": "address"
        },
        {
          "internalType": "uint256",
          "name": "expected",
          "type": "uint256"
        }
      ],
      "name": "callTarget",
      "outputs": [],
      "stateMutability": "nonpayable",
      "type": "function"
    },
    {
      "inputs": [],
      "name": "ilegalStateTransition",
      "outputs": [],
      "stateMutability": "payable",
      "type": "function"
    },
    {
      "inputs": [
        {
          "components": [
            {
              "internalType": "string",
              "name": "url",
              "type": "string"
            },
            {
              "internalType": "string",
              "name": "method",
              "type": "string"
            },
            {
              "internalType": "string[]",
              "name": "headers",
              "type": "string[]"
            },
            {
              "internalType": "bytes",
              "name": "body",
              "type": "bytes"
            }
          ],
          "internalType": "struct Suave.HttpRequest",
          "name": "request",
          "type": "tuple"
        }
      ],
      "name": "remoteCall",
      "outputs": [],
      "stateMutability": "nonpayable",
      "type": "function"
    }
  ],
  "bytecode": {
    "object": "0x608060405234801561001057600080fd5b5061079e806100206000396000f3fe6080604052600436106100345760003560e01c806348bce064146100395780639476e9661461005b578063d99cb65c14610063575b600080fd5b34801561004557600080fd5b506100596100543660046102d5565b610083565b005b6100596100f0565b34801561006f57600080fd5b5061005961007e36600461049a565b610132565b6040805160048152602481019091526020810180516001600160e01b0316631b53398f60e21b1790526000906100ba90849061013f565b90506000818060200190518101906100d29190610573565b67ffffffffffffffff1690508281146100ea57600080fd5b50505050565b6000805467ffffffffffffffff169080610109836105a4565b91906101000a81548167ffffffffffffffff021916908367ffffffffffffffff16021790555050565b61013b81610210565b5050565b606060008063421000036001600160a01b03168585604051602001610165929190610629565b60408051601f198184030181529082905261017f9161064d565b600060405180830381855afa9150503d80600081146101ba576040519150601f19603f3d011682016040523d82523d6000602084013e6101bf565b606091505b5091509150816101f3576342100003816040516375fff46760e01b81526004016101ea929190610629565b60405180910390fd5b808060200190518101906102079190610669565b95945050505050565b606060008063432000026001600160a01b03168460405160200161023491906106d7565b60408051601f198184030181529082905261024e9161064d565b600060405180830381855afa9150503d8060008114610289576040519150601f19603f3d011682016040523d82523d6000602084013e61028e565b606091505b5091509150816102b9576343200002816040516375fff46760e01b81526004016101ea929190610629565b808060200190518101906102cd9190610669565b949350505050565b600080604083850312156102e857600080fd5b82356001600160a01b03811681146102ff57600080fd5b946020939093013593505050565b634e487b7160e01b600052604160045260246000fd5b6040516080810167ffffffffffffffff811182821017156103465761034661030d565b60405290565b604051601f8201601f1916810167ffffffffffffffff811182821017156103755761037561030d565b604052919050565b600067ffffffffffffffff8211156103975761039761030d565b50601f01601f191660200190565b600082601f8301126103b657600080fd5b81356103c96103c48261037d565b61034c565b8181528460208386010111156103de57600080fd5b816020850160208301376000918101602001919091529392505050565b600082601f83011261040c57600080fd5b8135602067ffffffffffffffff808311156104295761042961030d565b8260051b61043883820161034c565b938452858101830193838101908886111561045257600080fd5b84880192505b8583101561048e578235848111156104705760008081fd5b61047e8a87838c01016103a5565b8352509184019190840190610458565b98975050505050505050565b6000602082840312156104ac57600080fd5b813567ffffffffffffffff808211156104c457600080fd5b90830190608082860312156104d857600080fd5b6104e0610323565b8235828111156104ef57600080fd5b6104fb878286016103a5565b82525060208301358281111561051057600080fd5b61051c878286016103a5565b60208301525060408301358281111561053457600080fd5b610540878286016103fb565b60408301525060608301358281111561055857600080fd5b610564878286016103a5565b60608301525095945050505050565b60006020828403121561058557600080fd5b815167ffffffffffffffff8116811461059d57600080fd5b9392505050565b600067ffffffffffffffff8083168181036105cf57634e487b7160e01b600052601160045260246000fd5b6001019392505050565b60005b838110156105f45781810151838201526020016105dc565b50506000910152565b600081518084526106158160208601602086016105d9565b601f01601f19169290920160200192915050565b6001600160a01b03831681526040602082018190526000906102cd908301846105fd565b6000825161065f8184602087016105d9565b9190910192915050565b60006020828403121561067b57600080fd5b815167ffffffffffffffff81111561069257600080fd5b8201601f810184136106a357600080fd5b80516106b16103c48261037d565b8181528560208385010111156106c657600080fd5b6102078260208301602086016105d9565b6000602080835283516080828501526106f360a08501826105fd565b905081850151601f198086840301604087015261071083836105fd565b60408801518782038301606089015280518083529194508501925084840190600581901b8501860160005b8281101561076757848783030184526107558287516105fd565b9588019593880193915060010161073b565b5060608a01519650838982030160808a015261078381886105fd565b9a995050505050505050505056fea164736f6c6343000813000a"
  }
}