{
  "abi": [
    {
      "inputs": [
        {
          "internalType": "address",
          "name": "",
          "type": "address"
        },
        {
          "internalType": "bytes",
          "name": "",
          "type": "bytes"
        }
      ],
      "name": "PeekerReverted",
      "type": "error"
    },
    {
      "inputs": [
        {
          "internalType": "address",
          "name": "target",
          "type": "address"
        },
        {
          "internalType": "uint256",
          "name": "expected",
          "type": "uint256"
        }
      ],
      "name": "callTarget",
      "outputs": [],
      "stateMutability": "nonpayable",
      "type": "function"
    }
  ],
  "bytecode": {
    "object": "0x608060405234801561001057600080fd5b5061033e806100206000396000f3fe608060405234801561001057600080fd5b506004361061002b5760003560e01c806348bce06414610030575b600080fd5b61004361003e366004610183565b610045565b005b6040805160048152602481019091526020810180516001600160e01b0316631b53398f60e21b17905260009061007c9084906100b2565b905060008180602001905181019061009491906101bb565b67ffffffffffffffff1690508281146100ac57600080fd5b50505050565b606060008063421000036001600160a01b031685856040516020016100d8929190610210565b60408051601f19818403018152908290526100f291610252565b600060405180830381855afa9150503d806000811461012d576040519150601f19603f3d011682016040523d82523d6000602084013e610132565b606091505b509150915081610166576342100003816040516375fff46760e01b815260040161015d929190610210565b60405180910390fd5b8080602001905181019061017a9190610284565b95945050505050565b6000806040838503121561019657600080fd5b82356001600160a01b03811681146101ad57600080fd5b946020939093013593505050565b6000602082840312156101cd57600080fd5b815167ffffffffffffffff811681146101e557600080fd5b9392505050565b60005b838110156102075781810151838201526020016101ef565b50506000910152565b60018060a01b0383168152604060208201526000825180604084015261023d8160608501602087016101ec565b601f01601f1916919091016060019392505050565b600082516102648184602087016101ec565b9190910192915050565b634e487b7160e01b600052604160045260246000fd5b60006020828403121561029657600080fd5b815167ffffffffffffffff808211156102ae57600080fd5b818401915084601f8301126102c257600080fd5b8151818111156102d4576102d461026e565b604051601f8201601f19908116603f011681019083821181831017156102fc576102fc61026e565b8160405282815287602084870101111561031557600080fd5b6103268360208301602088016101ec565b97965050505050505056fea164736f6c6343000813000a",
    "linkReferences": {}
  },
  "methodIdentifiers": {
    "callTarget(address,uint256)": "48bce064"
  },
  "id": 19
}