{
  "abi": [
    {
      "inputs": [
        {
          "internalType": "address",
          "name": "",
          "type": "address"
        },
        {
          "internalType": "bytes",
          "name": "",
          "type": "bytes"
        }
      ],
      "name": "PeekerReverted",
      "type": "error"
    },
    {
      "inputs": [
        {
          "internalType": "address",
          "name": "target",
          "type": "address"
        },
        {
          "internalType": "uint256",
          "name": "expected",
          "type": "uint256"
        }
      ],
      "name": "callTarget",
      "outputs": [],
      "stateMutability": "nonpayable",
      "type": "function"
    },
    {
      "inputs": [],
      "name": "ilegalStateTransition",
      "outputs": [],
      "stateMutability": "payable",
      "type": "function"
    }
  ],
  "bytecode": {
    "object": "0x608060405234801561001057600080fd5b506103c8806100206000396000f3fe6080604052600436106100295760003560e01c806348bce0641461002e5780639476e96614610050575b600080fd5b34801561003a57600080fd5b5061004e6100493660046101d8565b610058565b005b61004e6100c5565b6040805160048152602481019091526020810180516001600160e01b0316631b53398f60e21b17905260009061008f908490610107565b90506000818060200190518101906100a79190610210565b67ffffffffffffffff1690508281146100bf57600080fd5b50505050565b6000805467ffffffffffffffff1690806100de83610241565b91906101000a81548167ffffffffffffffff021916908367ffffffffffffffff16021790555050565b606060008063421000036001600160a01b0316858560405160200161012d92919061029a565b60408051601f1981840301815290829052610147916102dc565b600060405180830381855afa9150503d8060008114610182576040519150601f19603f3d011682016040523d82523d6000602084013e610187565b606091505b5091509150816101bb576342100003816040516375fff46760e01b81526004016101b292919061029a565b60405180910390fd5b808060200190518101906101cf919061030e565b95945050505050565b600080604083850312156101eb57600080fd5b82356001600160a01b038116811461020257600080fd5b946020939093013593505050565b60006020828403121561022257600080fd5b815167ffffffffffffffff8116811461023a57600080fd5b9392505050565b600067ffffffffffffffff80831681810361026c57634e487b7160e01b600052601160045260246000fd5b6001019392505050565b60005b83811015610291578181015183820152602001610279565b50506000910152565b60018060a01b038316815260406020820152600082518060408401526102c7816060850160208701610276565b601f01601f1916919091016060019392505050565b600082516102ee818460208701610276565b9190910192915050565b634e487b7160e01b600052604160045260246000fd5b60006020828403121561032057600080fd5b815167ffffffffffffffff8082111561033857600080fd5b818401915084601f83011261034c57600080fd5b81518181111561035e5761035e6102f8565b604051601f8201601f19908116603f01168101908382118183101715610386576103866102f8565b8160405282815287602084870101111561039f57600080fd5b6103b0836020830160208801610276565b97965050505050505056fea164736f6c6343000813000a"
  }
}