{
  "abi": [
    {
      "inputs": [
        {
          "internalType": "address",
          "name": "",
          "type": "address"
        },
        {
          "internalType": "bytes",
          "name": "",
          "type": "bytes"
        }
      ],
      "name": "PeekerReverted",
      "type": "error"
    },
    {
      "anonymous": false,
      "inputs": [
        {
          "indexed": false,
          "internalType": "uint64",
          "name": "num",
          "type": "uint64"
        }
      ],
      "name": "Event",
      "type": "event"
    },
    {
      "inputs": [
        {
          "internalType": "address",
          "name": "target",
          "type": "address"
        },
        {
          "internalType": "uint256",
          "name": "expected",
          "type": "uint256"
        }
      ],
      "name": "callTarget",
      "outputs": [],
      "stateMutability": "nonpayable",
      "type": "function"
    },
    {
      "inputs": [
        {
          "internalType": "uint64",
          "name": "numLogs",
          "type": "uint64"
        }
      ],
      "name": "emitEvent",
      "outputs": [],
      "stateMutability": "payable",
      "type": "function"
    }
  ],
  "bytecode": {
    "object": "0x608060405234801561001057600080fd5b5061042c806100206000396000f3fe6080604052600436106100295760003560e01c806326819d161461002e57806348bce06414610043575b600080fd5b61004161003c36600461022c565b610063565b005b34801561004f57600080fd5b5061004161005e366004610250565b6100d5565b60005b8167ffffffffffffffff168167ffffffffffffffff1610156100d15760405167ffffffffffffffff821681527f907b6183af8dff6c3ccd5a6e356d2950ee5261d1de2d382d1d2d32eebf1d1c1b9060200160405180910390a1806100c981610288565b915050610066565b5050565b6040805160048152602481019091526020810180516001600160e01b0316631b53398f60e21b17905260009061010c908490610142565b905060008180602001905181019061012491906102bd565b67ffffffffffffffff16905082811461013c57600080fd5b50505050565b606060008063421000036001600160a01b031685856040516020016101689291906102fe565b60408051601f198184030181529082905261018291610340565b600060405180830381855afa9150503d80600081146101bd576040519150601f19603f3d011682016040523d82523d6000602084013e6101c2565b606091505b5091509150816101f6576342100003816040516375fff46760e01b81526004016101ed9291906102fe565b60405180910390fd5b8080602001905181019061020a9190610372565b95945050505050565b67ffffffffffffffff8116811461022957600080fd5b50565b60006020828403121561023e57600080fd5b813561024981610213565b9392505050565b6000806040838503121561026357600080fd5b82356001600160a01b038116811461027a57600080fd5b946020939093013593505050565b600067ffffffffffffffff8083168181036102b357634e487b7160e01b600052601160045260246000fd5b6001019392505050565b6000602082840312156102cf57600080fd5b815161024981610213565b60005b838110156102f55781810151838201526020016102dd565b50506000910152565b60018060a01b0383168152604060208201526000825180604084015261032b8160608501602087016102da565b601f01601f1916919091016060019392505050565b600082516103528184602087016102da565b9190910192915050565b634e487b7160e01b600052604160045260246000fd5b60006020828403121561038457600080fd5b815167ffffffffffffffff8082111561039c57600080fd5b818401915084601f8301126103b057600080fd5b8151818111156103c2576103c261035c565b604051601f8201601f19908116603f011681019083821181831017156103ea576103ea61035c565b8160405282815287602084870101111561040357600080fd5b6104148360208301602088016102da565b97965050505050505056fea164736f6c6343000813000a"
  }
}