{
  "abi": [
    {
      "inputs": [
        {
          "internalType": "address",
          "name": "",
          "type": "address"
        },
        {
          "internalType": "bytes",
          "name": "",
          "type": "bytes"
        }
      ],
      "name": "PeekerReverted",
      "type": "error"
    },
    {
      "inputs": [
        {
          "internalType": "uint256",
          "name": "value",
          "type": "uint256"
        },
        {
          "internalType": "uint256",
          "name": "length",
          "type": "uint256"
        }
      ],
      "name": "StringsInsufficientHexLength",
      "type": "error"
    },
    {
      "inputs": [
        {
          "internalType": "address",
          "name": "target",
          "type": "address"
        },
        {
          "internalType": "uint256",
          "name": "expected",
          "type": "uint256"
        }
      ],
      "name": "callTarget",
      "outputs": [],
      "stateMutability": "view",
      "type": "function"
    },
    {
      "inputs": [
        {
          "internalType": "string",
          "name": "url",
          "type": "string"
        },
        {
          "components": [
            {
              "internalType": "address",
              "name": "to",
              "type": "address"
            },
            {
              "internalType": "uint64",
              "name": "gas",
              "type": "uint64"
            },
            {
              "internalType": "uint64",
              "name": "gasPrice",
              "type": "uint64"
            },
            {
              "internalType": "uint64",
              "name": "value",
              "type": "uint64"
            },
            {
              "internalType": "uint64",
              "name": "nonce",
              "type": "uint64"
            },
            {
              "internalType": "bytes",
              "name": "data",
              "type": "bytes"
            },
            {
              "internalType": "uint64",
              "name": "chainId",
              "type": "uint64"
            },
            {
              "internalType": "bytes",
              "name": "r",
              "type": "bytes"
            },
            {
              "internalType": "bytes",
              "name": "s",
              "type": "bytes"
            },
            {
              "internalType": "bytes",
              "name": "v",
              "type": "bytes"
            }
          ],
          "internalType": "struct Types.Transaction[]",
          "name": "txns",
          "type": "tuple[]"
        }
      ],
      "name": "example5",
      "outputs": [],
      "stateMutability": "view",
      "type": "function"
    },
    {
      "inputs": [
        {
          "internalType": "string",
          "name": "url",
          "type": "string"
        }
      ],
      "name": "getExample",
      "outputs": [],
      "stateMutability": "view",
      "type": "function"
    },
    {
      "inputs": [
        {
          "internalType": "string",
          "name": "url",
          "type": "string"
        },
        {
          "internalType": "bytes",
          "name": "body",
          "type": "bytes"
        }
      ],
      "name": "postExample",
      "outputs": [],
      "stateMutability": "view",
      "type": "function"
    }
  ],
  "bytecode": {
    "object": "0x608060405234801561001057600080fd5b50611f43806100206000396000f3fe608060405234801561001057600080fd5b506004361061004c5760003560e01c8063189f81861461005157806348bce064146100665780639c1f9b7a14610079578063d2a932f11461008c575b600080fd5b61006461005f366004611696565b61009f565b005b61006461007436600461188c565b6100ae565b6100646100873660046118b6565b61011a565b61006461009a366004611919565b610195565b6100a9828261020f565b505050565b6040805160048152602481019091526020810180516001600160e01b0316631b53398f60e21b1790526000906100e59084906103fb565b90506000818060200190518101906100fd919061194d565b6001600160401b0316905082811461011457600080fd5b50505050565b6040805160208101825260608152815160018082528184019093529091816020015b606081526020019060019003908161013c5750508152604080518082019091526003815262623a6360e81b60208201528151805160009061017f5761017f61196a565b60200260200101819052506101148383836104cc565b6040805160208101825260608152815160018082528184019093529091816020015b60608152602001906001900390816101b75750508152604080518082019091526003815262309d3160e91b6020820152815180516000906101fa576101fa61196a565b60200260200101819052506100a9828261059b565b604080516020810190915260008152606060005b83518110156102c5578060000361027c576102568482815181106102495761024961196a565b6020026020010151610648565b60405160200161026691906119c0565b60405160208183030381529060405291506102b3565b6102918482815181106102495761024961196a565b6040516020016102a191906119dc565b60405160208183030381529060405291505b806102bd81611a17565b915050610223565b506040805160208101825260608152815160018082528184019093529091816020015b60608152602001906001900390816102e8575050815260408051808201909152601d81527f436f6e74656e742d547970653a6170706c69636174696f6e2f6a736f6e0000006020820152815180516000906103455761034561196a565b6020026020010181905250816040516020016103619190611a30565b6040516020818303038152906040529150600061037f8684846104cc565b9050600061038c826107f3565b905060006103df6103da6103d56103d06040518060400160405280600c81526020016b11313637b1b5ab30b63ab29160a11b8152508661086390919063ffffffff16565b6108ca565b6108d9565b610a6a565b6040805160208101909152908152955050505050505b92915050565b606060008063421000036001600160a01b03168585604051602001610421929190611aed565b60408051601f198184030181529082905261043b916119c0565b600060405180830381855afa9150503d8060008114610476576040519150601f19603f3d011682016040523d82523d6000602084013e61047b565b606091505b5091509150816104af576342100003816040516375fff46760e01b81526004016104a6929190611aed565b60405180910390fd5b808060200190518101906104c39190611b11565b95945050505050565b60606000806401532000016001600160a01b03168686866040516020016104f593929190611be4565b60408051601f198184030181529082905261050f916119c0565b600060405180830381855afa9150503d806000811461054a576040519150601f19603f3d011682016040523d82523d6000602084013e61054f565b606091505b50915091508161057b57640153200001816040516375fff46760e01b81526004016104a6929190611aed565b8080602001905181019061058f9190611b11565b925050505b9392505050565b60606000806401432000016001600160a01b031685856040516020016105c2929190611c27565b60408051601f19818403018152908290526105dc916119c0565b600060405180830381855afa9150503d8060008114610617576040519150601f19603f3d011682016040523d82523d6000602084013e61061c565b606091505b5091509150816104af57640143200001816040516375fff46760e01b81526004016104a6929190611aed565b6060808260a00151516000146106845760a083015160405161066e918391602001611c4c565b60405160208183030381529060405290506106a7565b806040516020016106959190611c9d565b60405160208183030381529060405290505b82516001600160a01b0316156106e857806106c58460000151610af5565b6040516020016106d6929190611ccf565b60405160208183030381529060405290505b806106ff84602001516001600160401b0316610b0b565b61071585604001516001600160401b0316610b0b565b61072b86608001516001600160401b0316610b0b565b61074187606001516001600160401b0316610b0b565b6107578860c001516001600160401b0316610b0b565b6107648960e00151610b43565b6107728a6101000151610b43565b604051602001610789989796959493929190611d1d565b6040516020818303038152906040529050806107a9846101200151610b43565b6040516020016107ba929190611e60565b6040516020818303038152906040529050806040516020016107dc9190611eae565b60408051601f198184030181529190529392505050565b604080516020810190915260008152606061081a6040518060200160405280600081525090565b83915061082682610b4e565b905061085b60405180604001604052806008815260200167113932b9bab63a1160c11b8152508261086390919063ffffffff16565b949350505050565b6040805160008152905281516060906007166002036103f55781516020830120600061088e85610b67565b805190915060051b5b80156108c157818101519550601f1901826108b187610b76565b8051906020012003610897578593505b50505092915050565b60606000610594836000610b95565b6060600082905060028151101580156109175750806000815181106109005761090061196a565b6020910101516001600160f81b031916601160f91b145b80156109545750806001825161092d9190611ee2565b8151811061093d5761093d61196a565b6020910101516001600160f81b031916601160f91b145b6109905760405162461bcd60e51b815260206004820152600d60248201526c125b9d985b1a59081a5b9c1d5d609a1b60448201526064016104a6565b6000600282516109a09190611ee2565b6001600160401b038111156109b7576109b7611570565b6040519080825280601f01601f1916602001820160405280156109e1576020820181803683370190505b50905060015b600183516109f59190611ee2565b811015610a6257828181518110610a0e57610a0e61196a565b01602001516001600160f81b03191682610a29600184611ee2565b81518110610a3957610a3961196a565b60200101906001600160f81b031916908160001a90535080610a5a81611a17565b9150506109e7565b509392505050565b600081516001811160208085015160f01c17613078141660011b5b6001810190507403010a071000000b0104040208000c05090d060e0f6d03e4088843e41bac00000000000060ff83870151161c601f161a8360fc1c8115171583029250600181038460041b01935050818110610a85575080610aef5763101827966000526004601cfd5b50919050565b60606103f56001600160a01b0383166014611331565b6060610b16826114a8565b90506030602082015160001a14600282510161307882840152600282840103925081810383525050919050565b6060610b168261150a565b60408051600080825291819052906105948360ff610b95565b60606000610594836003610b95565b805160609060801615610b90576000610594836001610b95565b919050565b6000611287565b63101827966000526004601cfd5b805b6001640100002600610bbf835160001a90565b1c16156103f557600101610bac565b63ffffffff83113d3d3e63ffffffff821b191691901b1790565b604051610c0a8486036078610c05601f1986890301605888610bce565b610bce565b959095178552505050602082016040525090565b600080610c2f846018600051610bce565b610c398787610baa565b9150868210610c485750610d6e565b815160001a60228103610c7a5782610c6289858589610f7e565b9350610c7260048583868a610be8565b945050610d5f565b605b8103610c9757610c8e88848488610d77565b93509350610d5f565b607b8103610cab57610c8e88848488610e40565b6703ff200000000000811c60011615610cca57610c8e88848488611052565b876004840111610d245782835160e01c63747275658103610d0257600485019450610cf960058684878b610be8565b95505050610d5f565b636e756c6c8103610d2157600485019450610cf960068684878b610be8565b50505b876005840111610d575782835160d81c6466616c73658103610d5457600585019450610cf960058684878b610be8565b50505b610d5f610b9c565b5050610d6b8682610baa565b90505b94509492505050565b600060018401815b868210610d8e57610d8e610b9c565b82610db257610d9d8783610baa565b9150605d610dac835160001a90565b14610e15575b610dbe87838587610c1e565b925092508215610e0657610dd88160988551604017610bce565b8352600101610de8825160001a90565b605d8103610df65750610e15565b602c8103610e045750610e0a565b505b8691505b600182019150610d7f565b50600101610e2582603886610bce565b9350610e35600182878787610be8565b915094509492505050565b6000600184015b858110610e5657610e56610b9c565b81610e7a57610e658682610baa565b9050607d610e74825160001a90565b14610f1e575b610e848682610baa565b905080610e9387838587610f7e565b610e9d8882610baa565b9250603a610eac845160001a90565b03610f1057610ec088600185018688610c1e565b935093508315610f1057610ee76020860183036098610c0585850360b88951608017610bce565b8452825160001a607d8103610efe57505050610f1e565b602c8103610f0e57505050610f16565b505b50508590505b600101610e47565b600101610f2d82603886610bce565b9350610e35600282878787610be8565b6001667e0000007e03ff6030610f568585015160001a90565b031c16610f6557610f65610b9c565b60058214610f7a57610f7a6001830182610f3d565b5050565b50506000828210610f9157610f91610b9c565b50600181015b805160001a60228103610faa5750611008565b605c8114610fbb5750600101610f97565b600182015160001a905060016a0510110400000000002001602283031c1615610fe75750600201610f97565b6075810361100357610ffa600283610f3d565b50600601610f97565b508290505b82811061101757611017610b9c565b60010192915050565b805b600a6030611031835160001a90565b03101561104057600101611022565b80821484161561059457610594610b9c565b600083602d611062825160001a90565b0361106b576001015b600a603061107a835160001a90565b031061108857611088610b9c565b805160001a600182019150603081146110aa576110a760008884611020565b91505b50602e6110b8825160001a90565b036110cf576110cc60018760018401611020565b90505b805160658160001a602017036110fe576110fb6001886001850162010001600e8660011a031a01611020565b91505b50610e35600382878787610be8565b60405190820190601f19601f850181165b838101518382015281018061111e5750508381526000846020830101528360408201016040529392505050565b848361110d565b805160609060028160071611610aef578215811517610aef57602081161561118657603881901c63ffffffff169150610aef565b604051915060208201603882901c63ffffffff165b80156111cd578082528051601881901c63ffffffff166111bd87601884610bce565b909252506020919091019061119b565b50601f1983820381018060051c8552826040526111ec85603886610bce565b93508360201786526040811061121f576020850192508085015b8351815185528152602090930192820180841061120657505b50505050919050565b805160609082158115171561123d575061085b565b80841c63ffffffff16915080861661127e5760d881901c63ffffffff1661126b82871c63ffffffff1661114b565b925050611279828583610bce565b861783525b50949350505050565b8180156112f9576001811461130f576003811461131e5760208401845181018082146112df57805160001a602282536112c68760d8601160f91b610bce565b6000526112d6828460008a610c1e565b93509450808253505b831581831017156112f2576112f2610b9c565b505061132a565b61130860106078605887611228565b915061132a565b611308600860b8609887611228565b61132784611152565b91505b5092915050565b6060826000611341846002611ef5565b61134c906002611f0c565b6001600160401b0381111561136357611363611570565b6040519080825280601f01601f19166020018201604052801561138d576020820181803683370190505b509050600360fc1b816000815181106113a8576113a861196a565b60200101906001600160f81b031916908160001a905350600f60fb1b816001815181106113d7576113d761196a565b60200101906001600160f81b031916908160001a90535060006113fb856002611ef5565b611406906001611f0c565b90505b600181111561147e576f181899199a1a9b1b9c1cb0b131b232b360811b83600f166010811061143a5761143a61196a565b1a60f81b8282815181106114505761145061196a565b60200101906001600160f81b031916908160001a90535060049290921c9161147781611f1f565b9050611409565b5081156113275760405163e22e27eb60e01b815260048101869052602481018590526044016104a6565b606060806040510190506020810160405260008152806f30313233343536373839616263646566600f52600119835b600f811651938201936001850153600f8160041c1651845360081c806114d7575050819003601f19909101908152919050565b8051604051818001600282019081526f30313233343536373839616263646566600f52918301906022015b81841461156057600184019350600f845116516001820153600f845160041c16518153600201611535565b6000815260200160405250919050565b634e487b7160e01b600052604160045260246000fd5b60405161014081016001600160401b03811182821017156115a9576115a9611570565b60405290565b604051601f8201601f191681016001600160401b03811182821017156115d7576115d7611570565b604052919050565b60006001600160401b038211156115f8576115f8611570565b50601f01601f191660200190565b600082601f83011261161757600080fd5b813561162a611625826115df565b6115af565b81815284602083860101111561163f57600080fd5b816020850160208301376000918101602001919091529392505050565b80356001600160a01b0381168114610b9057600080fd5b6001600160401b038116811461168857600080fd5b50565b8035610b9081611673565b600080604083850312156116a957600080fd5b82356001600160401b03808211156116c057600080fd5b6116cc86838701611606565b93506020915081850135818111156116e357600080fd5b8501601f810187136116f457600080fd5b80358281111561170657611706611570565b8060051b6117158582016115af565b918252828101850191858101908a84111561172f57600080fd5b86850192505b8383101561187b5782358681111561174c57600080fd5b8501610140818d03601f1901121561176357600080fd5b61176b611586565b61177689830161165c565b81526117846040830161168b565b898201526117946060830161168b565b60408201526117a56080830161168b565b60608201526117b660a0830161168b565b608082015260c0820135888111156117cd57600080fd5b6117db8e8b83860101611606565b60a0830152506117ed60e0830161168b565b60c08201526101008201358881111561180557600080fd5b6118138e8b83860101611606565b60e083015250610120808301358981111561182d57600080fd5b61183b8f8c83870101611606565b610100840152506101408301358981111561185557600080fd5b6118638f8c83870101611606565b91830191909152508352509186019190860190611735565b809750505050505050509250929050565b6000806040838503121561189f57600080fd5b6118a88361165c565b946020939093013593505050565b600080604083850312156118c957600080fd5b82356001600160401b03808211156118e057600080fd5b6118ec86838701611606565b9350602085013591508082111561190257600080fd5b5061190f85828601611606565b9150509250929050565b60006020828403121561192b57600080fd5b81356001600160401b0381111561194157600080fd5b61132784828501611606565b60006020828403121561195f57600080fd5b815161059481611673565b634e487b7160e01b600052603260045260246000fd5b60005b8381101561199b578181015183820152602001611983565b50506000910152565b600081516119b6818560208601611980565b9290920192915050565b600082516119d2818460208701611980565b9190910192915050565b600082516119ee818460208701611980565b600b60fa1b920191825250600101919050565b634e487b7160e01b600052601160045260246000fd5b600060018201611a2957611a29611a01565b5060010190565b7f7b226a736f6e727063223a2022322e30222c20226d6574686f64223a2022737581527f617665785f6275696c64457468426c6f636b222c2022706172616d73223a205b6020820152666e756c6c2c205b60c81b604082015260008251611a9e816047850160208701611980565b6b5d5d2c20226964223a20317d60a01b6047939091019283015250605301919050565b60008151808452611ad9816020860160208601611980565b601f01601f19169290920160200192915050565b6001600160a01b038316815260406020820181905260009061085b90830184611ac1565b600060208284031215611b2357600080fd5b81516001600160401b03811115611b3957600080fd5b8201601f81018413611b4a57600080fd5b8051611b58611625826115df565b818152856020838501011115611b6d57600080fd5b6104c3826020830160208601611980565b60006020808401835182865281815180845260408801915060408160051b8901019350848301925060005b81811015611bd757603f19898603018352611bc5858551611ac1565b94509285019291850191600101611ba9565b5092979650505050505050565b606081526000611bf76060830186611ac1565b8281036020840152611c098186611ac1565b90508281036040840152611c1d8185611b7e565b9695505050505050565b604081526000611c3a6040830185611ac1565b82810360208401526104c38185611b7e565b60008351611c5e818460208801611980565b671134b7383aba111d60c11b9083019081528351611c83816008840160208801611980565b600b60fa1b60089290910191820152600901949350505050565b60008251611caf818460208701611980565b6d089a5b9c1d5d088e88088c1e088b60921b920191825250600e01919050565b60008351611ce1818460208801611980565b64113a37911d60d91b9083019081528351611d03816005840160208801611980565b600b60fa1b60059290910191820152600601949350505050565b600089516020611d308285838f01611980565b661133b0b9911d1160c91b9184019182528a51611d538160078501848f01611980565b6d11161133b0b9a83934b1b2911d1160911b600793909101928301528951611d818160158501848e01611980565b6a1116113737b731b2911d1160a91b601593909101928301528851611dab81838501848d01611980565b6a1116113b30b63ab2911d1160a91b9201818101929092528751611dd581602b85018b8501611980565b611e4f611e41611e3b611e28611e22611e0f611e09602b888b01016c11161131b430b4b724b2111d1160991b8152600d0190565b8e6119a4565b6611161139111d1160c91b815260070190565b8b6119a4565b6611161139911d1160c91b815260070190565b886119a4565b61088b60f21b815260020190565b9d9c50505050505050505050505050565b60008351611e72818460208801611980565b64113b111d1160d91b9083019081528351611e94816005840160208801611980565b601160f91b60059290910191820152600601949350505050565b607b60f81b815260008251611eca816001850160208701611980565b607d60f81b6001939091019283015250600201919050565b818103818111156103f5576103f5611a01565b80820281158282048414176103f5576103f5611a01565b808201808211156103f5576103f5611a01565b600081611f2e57611f2e611a01565b50600019019056fea164736f6c6343000813000a",
    "linkReferences": {}
  },
  "methodIdentifiers": {
    "callTarget(address,uint256)": "48bce064",
    "example5(string,(address,uint64,uint64,uint64,uint64,bytes,uint64,bytes,bytes,bytes)[])": "189f8186",
    "getExample(string)": "d2a932f1",
    "postExample(string,bytes)": "9c1f9b7a"
  },
  "id": 27
}