{
  "abi": [
    {
      "inputs": [
        {
          "internalType": "address",
          "name": "",
          "type": "address"
        },
        {
          "internalType": "bytes",
          "name": "",
          "type": "bytes"
        }
      ],
      "name": "PeekerReverted",
      "type": "error"
    },
    {
      "inputs": [
        {
          "internalType": "uint256",
          "name": "value",
          "type": "uint256"
        },
        {
          "internalType": "uint256",
          "name": "length",
          "type": "uint256"
        }
      ],
      "name": "StringsInsufficientHexLength",
      "type": "error"
    },
    {
      "inputs": [
        {
          "internalType": "address",
          "name": "target",
          "type": "address"
        },
        {
          "internalType": "uint256",
          "name": "expected",
          "type": "uint256"
        }
      ],
      "name": "callTarget",
      "outputs": [],
      "stateMutability": "nonpayable",
      "type": "function"
    },
    {
      "inputs": [
        {
          "internalType": "string",
          "name": "url",
          "type": "string"
        },
        {
          "components": [
            {
              "internalType": "address",
              "name": "to",
              "type": "address"
            },
            {
              "internalType": "uint64",
              "name": "gas",
              "type": "uint64"
            },
            {
              "internalType": "uint64",
              "name": "gasPrice",
              "type": "uint64"
            },
            {
              "internalType": "uint64",
              "name": "value",
              "type": "uint64"
            },
            {
              "internalType": "uint64",
              "name": "nonce",
              "type": "uint64"
            },
            {
              "internalType": "bytes",
              "name": "data",
              "type": "bytes"
            },
            {
              "internalType": "uint64",
              "name": "chainId",
              "type": "uint64"
            },
            {
              "internalType": "bytes",
              "name": "r",
              "type": "bytes"
            },
            {
              "internalType": "bytes",
              "name": "s",
              "type": "bytes"
            },
            {
              "internalType": "bytes",
              "name": "v",
              "type": "bytes"
            }
          ],
          "internalType": "struct Types.Transaction",
          "name": "txn",
          "type": "tuple"
        }
      ],
      "name": "example5",
      "outputs": [],
      "stateMutability": "nonpayable",
      "type": "function"
    },
    {
      "inputs": [
        {
          "internalType": "string",
          "name": "url",
          "type": "string"
        }
      ],
      "name": "getExample",
      "outputs": [],
      "stateMutability": "nonpayable",
      "type": "function"
    },
    {
      "inputs": [],
      "name": "other",
      "outputs": [],
      "stateMutability": "nonpayable",
      "type": "function"
    },
    {
      "inputs": [
        {
          "internalType": "string",
          "name": "url",
          "type": "string"
        },
        {
          "internalType": "bytes",
          "name": "body",
          "type": "bytes"
        }
      ],
      "name": "postExample",
      "outputs": [],
      "stateMutability": "nonpayable",
      "type": "function"
    },
    {
      "inputs": [
        {
          "internalType": "string",
          "name": "url",
          "type": "string"
        }
      ],
      "name": "sampleJSON",
      "outputs": [],
      "stateMutability": "nonpayable",
      "type": "function"
    }
  ],
  "bytecode": {
    "object": "0x608060405234801561001057600080fd5b5061223d806100206000396000f3fe608060405234801561001057600080fd5b50600436106100625760003560e01c80630655a9411461006757806348bce0641461007c57806376d59b561461008f578063852958771461007a5780639c1f9b7a146100a2578063d2a932f1146100b5575b600080fd5b61007a610075366004611a2e565b6100c8565b005b61007a61008a366004611b98565b6100d7565b61007a61009d366004611bc2565b610143565b61007a6100b0366004611bf6565b61049b565b61007a6100c3366004611bc2565b610516565b6100d28282610590565b505050565b6040805160048152602481019091526020810180516001600160e01b0316631b53398f60e21b17905260009061010e9084906106ea565b90506000818060200190518101906101269190611c59565b6001600160401b0316905082811461013d57600080fd5b50505050565b60408051600b602082015261016891015b6040516020818303038152906040526107bb565b6040805160208101825260608152815160018082528184019093529091816020015b606081526020019060019003908161018a575050815260408051808201909152601d81527f436f6e74656e742d547970653a6170706c69636174696f6e2f6a736f6e0000006020820152815180516000906101e7576101e7611c76565b60200260200101819052506000604051602001610273907f7b226a736f6e727063223a2022322e30222c20226d6574686f64223a2022657481527f685f676574426c6f636b42794e756d626572222c2022706172616d73223a205b60208201527f22307831222c2066616c73655d2c20226964223a20317d000000000000000000604082015260570190565b60405160208183030381529060405290506000610291848385610864565b905061029c816107bb565b60606102b46040518060200160405280600081525090565b8291506102c082610933565b60408051607b60208201529192506102d89101610154565b61030b6103066102e78361094c565b6000815181106102f9576102f9611c76565b602002602001015161095b565b6107bb565b61033961030661031a8361094c565b60008151811061032c5761032c611c76565b602002602001015161097a565b61035a6103066103488361094c565b6001815181106102f9576102f9611c76565b61037b6103066103698361094c565b60018151811061032c5761032c611c76565b61039c61030661038a8361094c565b6002815181106102f9576102f9611c76565b6103bd6103066103ab8361094c565b60028151811061032c5761032c611c76565b6103ee6103066102e76103cf8461094c565b6002815181106103e1576103e1611c76565b602002602001015161094c565b6104006103066103486103cf8461094c565b61041261030661038a6103cf8461094c565b6104366103066104246103cf8461094c565b6003815181106102f9576102f9611c76565b61045a6103066104486103cf8461094c565b6004815181106102f9576102f9611c76565b61047e61030661046c6103cf8461094c565b6005815181106102f9576102f9611c76565b60408051601660208201526104939101610154565b505050505050565b6040805160208101825260608152815160018082528184019093529091816020015b60608152602001906001900390816104bd5750508152604080518082019091526003815262623a6360e81b60208201528151805160009061050057610500611c76565b602002602001018190525061013d838383610864565b6040805160208101825260608152815160018082528184019093529091816020015b60608152602001906001900390816105385750508152604080518082019091526003815262309d3160e91b60208201528151805160009061057b5761057b611c76565b60200260200101819052506100d28282610989565b60408051602081019091526000815260006105aa83610a36565b90506105c26040518060200160405280606081525090565b60408051600180825281830190925290816020015b60608152602001906001900390816105d7575050815260408051808201909152601d81527f436f6e74656e742d547970653a6170706c69636174696f6e2f6a736f6e00000060208201528151805160009061063457610634611c76565b6020026020010181905250816040516020016106509190611ccc565b6040516020818303038152906040529150600061066e868484610864565b9050600061067b82610be1565b905060006106ce6106c96106c46106bf6040518060400160405280600c81526020016b11313637b1b5ab30b63ab29160a11b81525086610c5190919063ffffffff16565b61097a565b610cb8565b610e49565b6040805160208101909152908152955050505050505b92915050565b606060008063421000036001600160a01b03168585604051602001610710929190611d89565b60408051601f198184030181529082905261072a91611dad565b600060405180830381855afa9150503d8060008114610765576040519150601f19603f3d011682016040523d82523d6000602084013e61076a565b606091505b50915091508161079e576342100003816040516375fff46760e01b8152600401610795929190611d89565b60405180910390fd5b808060200190518101906107b29190611dc9565b95945050505050565b6000806401832000016001600160a01b0316836040516020016107de9190611e36565b60408051601f19818403018152908290526107f891611dad565b600060405180830381855afa9150503d8060008114610833576040519150601f19603f3d011682016040523d82523d6000602084013e610838565b606091505b5091509150816100d257640183200001816040516375fff46760e01b8152600401610795929190611d89565b60606000806401532000016001600160a01b031686868660405160200161088d93929190611eaf565b60408051601f19818403018152908290526108a791611dad565b600060405180830381855afa9150503d80600081146108e2576040519150601f19603f3d011682016040523d82523d6000602084013e6108e7565b606091505b50915091508161091357640153200001816040516375fff46760e01b8152600401610795929190611d89565b808060200190518101906109279190611dc9565b925050505b9392505050565b604080516000808252918190529061092c8360ff610ed4565b6060600061092c836003610ed4565b80516060906080161561097557600061092c836001610ed4565b919050565b6060600061092c836000610ed4565b60606000806401432000016001600160a01b031685856040516020016109b0929190611ef2565b60408051601f19818403018152908290526109ca91611dad565b600060405180830381855afa9150503d8060008114610a05576040519150601f19603f3d011682016040523d82523d6000602084013e610a0a565b606091505b50915091508161079e57640143200001816040516375fff46760e01b8152600401610795929190611d89565b6060808260a0015151600014610a725760a0830151604051610a5c918391602001611f17565b6040516020818303038152906040529050610a95565b80604051602001610a839190611f68565b60405160208183030381529060405290505b82516001600160a01b031615610ad65780610ab38460000151611670565b604051602001610ac4929190611f9a565b60405160208183030381529060405290505b80610aed84602001516001600160401b0316611686565b610b0385604001516001600160401b0316611686565b610b1986608001516001600160401b0316611686565b610b2f87606001516001600160401b0316611686565b610b458860c001516001600160401b0316611686565b610b528960e001516116be565b610b608a61010001516116be565b604051602001610b77989796959493929190611fe8565b604051602081830303815290604052905080610b978461012001516116be565b604051602001610ba892919061212b565b604051602081830303815290604052905080604051602001610bca9190612179565b60408051601f198184030181529190529392505050565b6040805160208101909152600081526060610c086040518060200160405280600081525090565b839150610c1482610933565b9050610c4960405180604001604052806008815260200167113932b9bab63a1160c11b81525082610c5190919063ffffffff16565b949350505050565b6040805160008152905281516060906007166002036106e457815160208301206000610c7c8561094c565b805190915060051b5b8015610caf57818101519550601f190182610c9f8761095b565b8051906020012003610c85578593505b50505092915050565b606060008290506002815110158015610cf6575080600081518110610cdf57610cdf611c76565b6020910101516001600160f81b031916601160f91b145b8015610d3357508060018251610d0c91906121c3565b81518110610d1c57610d1c611c76565b6020910101516001600160f81b031916601160f91b145b610d6f5760405162461bcd60e51b815260206004820152600d60248201526c125b9d985b1a59081a5b9c1d5d609a1b6044820152606401610795565b600060028251610d7f91906121c3565b6001600160401b03811115610d9657610d96611908565b6040519080825280601f01601f191660200182016040528015610dc0576020820181803683370190505b50905060015b60018351610dd491906121c3565b811015610e4157828181518110610ded57610ded611c76565b01602001516001600160f81b03191682610e086001846121c3565b81518110610e1857610e18611c76565b60200101906001600160f81b031916908160001a90535080610e39816121d6565b915050610dc6565b509392505050565b600081516001811160208085015160f01c17613078141660011b5b6001810190507403010a071000000b0104040208000c05090d060e0f6d03e4088843e41bac00000000000060ff83870151161c601f161a8360fc1c8115171583029250600181038460041b01935050818110610e64575080610ece5763101827966000526004601cfd5b50919050565b60006115c6565b63101827966000526004601cfd5b805b6001640100002600610efe835160001a90565b1c16156106e457600101610eeb565b63ffffffff83113d3d3e63ffffffff821b191691901b1790565b604051610f498486036078610f44601f1986890301605888610f0d565b610f0d565b959095178552505050602082016040525090565b600080610f6e846018600051610f0d565b610f788787610ee9565b9150868210610f8757506110ad565b815160001a60228103610fb95782610fa1898585896112bd565b9350610fb160048583868a610f27565b94505061109e565b605b8103610fd657610fcd888484886110b6565b9350935061109e565b607b8103610fea57610fcd8884848861117f565b6703ff200000000000811c6001161561100957610fcd88848488611391565b8760048401116110635782835160e01c637472756581036110415760048501945061103860058684878b610f27565b9550505061109e565b636e756c6c81036110605760048501945061103860068684878b610f27565b50505b8760058401116110965782835160d81c6466616c736581036110935760058501945061103860058684878b610f27565b50505b61109e610edb565b50506110aa8682610ee9565b90505b94509492505050565b600060018401815b8682106110cd576110cd610edb565b826110f1576110dc8783610ee9565b9150605d6110eb835160001a90565b14611154575b6110fd87838587610f5d565b925092508215611145576111178160988551604017610f0d565b8352600101611127825160001a90565b605d81036111355750611154565b602c81036111435750611149565b505b8691505b6001820191506110be565b5060010161116482603886610f0d565b9350611174600182878787610f27565b915094509492505050565b6000600184015b85811061119557611195610edb565b816111b9576111a48682610ee9565b9050607d6111b3825160001a90565b1461125d575b6111c38682610ee9565b9050806111d2878385876112bd565b6111dc8882610ee9565b9250603a6111eb845160001a90565b0361124f576111ff88600185018688610f5d565b93509350831561124f576112266020860183036098610f4485850360b88951608017610f0d565b8452825160001a607d810361123d5750505061125d565b602c810361124d57505050611255565b505b50508590505b600101611186565b60010161126c82603886610f0d565b9350611174600282878787610f27565b6001667e0000007e03ff60306112958585015160001a90565b031c166112a4576112a4610edb565b600582146112b9576112b9600183018261127c565b5050565b505060008282106112d0576112d0610edb565b50600181015b805160001a602281036112e95750611347565b605c81146112fa57506001016112d6565b600182015160001a905060016a0510110400000000002001602283031c161561132657506002016112d6565b607581036113425761133960028361127c565b506006016112d6565b508290505b82811061135657611356610edb565b60010192915050565b805b600a6030611370835160001a90565b03101561137f57600101611361565b80821484161561092c5761092c610edb565b600083602d6113a1825160001a90565b036113aa576001015b600a60306113b9835160001a90565b03106113c7576113c7610edb565b805160001a600182019150603081146113e9576113e66000888461135f565b91505b50602e6113f7825160001a90565b0361140e5761140b6001876001840161135f565b90505b805160658160001a6020170361143d5761143a6001886001850162010001600e8660011a031a0161135f565b91505b50611174600382878787610f27565b60405190820190601f19601f850181165b838101518382015281018061145d5750508381526000846020830101528360408201016040529392505050565b848361144c565b805160609060028160071611610ece578215811517610ece5760208116156114c557603881901c63ffffffff169150610ece565b604051915060208201603882901c63ffffffff165b801561150c578082528051601881901c63ffffffff166114fc87601884610f0d565b90925250602091909101906114da565b50601f1983820381018060051c85528260405261152b85603886610f0d565b93508360201786526040811061155e576020850192508085015b8351815185528152602090930192820180841061154557505b50505050919050565b805160609082158115171561157c5750610c49565b80841c63ffffffff1691508086166115bd5760d881901c63ffffffff166115aa82871c63ffffffff1661148a565b9250506115b8828583610f0d565b861783525b50949350505050565b818015611638576001811461164e576003811461165d57602084018451810180821461161e57805160001a602282536116058760d8601160f91b610f0d565b600052611615828460008a610f5d565b93509450808253505b8315818310171561163157611631610edb565b5050611669565b61164760106078605887611567565b9150611669565b611647600860b8609887611567565b61166684611491565b91505b5092915050565b60606106e46001600160a01b03831660146116c9565b606061169182611840565b90506030602082015160001a14600282510161307882840152600282840103925081810383525050919050565b6060611691826118a2565b60608260006116d98460026121ef565b6116e4906002612206565b6001600160401b038111156116fb576116fb611908565b6040519080825280601f01601f191660200182016040528015611725576020820181803683370190505b509050600360fc1b8160008151811061174057611740611c76565b60200101906001600160f81b031916908160001a905350600f60fb1b8160018151811061176f5761176f611c76565b60200101906001600160f81b031916908160001a90535060006117938560026121ef565b61179e906001612206565b90505b6001811115611816576f181899199a1a9b1b9c1cb0b131b232b360811b83600f16601081106117d2576117d2611c76565b1a60f81b8282815181106117e8576117e8611c76565b60200101906001600160f81b031916908160001a90535060049290921c9161180f81612219565b90506117a1565b5081156116665760405163e22e27eb60e01b81526004810186905260248101859052604401610795565b606060806040510190506020810160405260008152806f30313233343536373839616263646566600f52600119835b600f811651938201936001850153600f8160041c1651845360081c8061186f575050819003601f19909101908152919050565b8051604051818001600282019081526f30313233343536373839616263646566600f52918301906022015b8184146118f857600184019350600f845116516001820153600f845160041c165181536002016118cd565b6000815260200160405250919050565b634e487b7160e01b600052604160045260246000fd5b60405161014081016001600160401b038111828210171561194157611941611908565b60405290565b604051601f8201601f191681016001600160401b038111828210171561196f5761196f611908565b604052919050565b60006001600160401b0382111561199057611990611908565b50601f01601f191660200190565b600082601f8301126119af57600080fd5b81356119c26119bd82611977565b611947565b8181528460208386010111156119d757600080fd5b816020850160208301376000918101602001919091529392505050565b80356001600160a01b038116811461097557600080fd5b6001600160401b0381168114611a2057600080fd5b50565b803561097581611a0b565b60008060408385031215611a4157600080fd5b82356001600160401b0380821115611a5857600080fd5b611a648683870161199e565b93506020850135915080821115611a7a57600080fd5b908401906101408287031215611a8f57600080fd5b611a9761191e565b611aa0836119f4565b8152611aae60208401611a23565b6020820152611abf60408401611a23565b6040820152611ad060608401611a23565b6060820152611ae160808401611a23565b608082015260a083013582811115611af857600080fd5b611b048882860161199e565b60a083015250611b1660c08401611a23565b60c082015260e083013582811115611b2d57600080fd5b611b398882860161199e565b60e0830152506101008084013583811115611b5357600080fd5b611b5f8982870161199e565b8284015250506101208084013583811115611b7957600080fd5b611b858982870161199e565b8284015250508093505050509250929050565b60008060408385031215611bab57600080fd5b611bb4836119f4565b946020939093013593505050565b600060208284031215611bd457600080fd5b81356001600160401b03811115611bea57600080fd5b6116668482850161199e565b60008060408385031215611c0957600080fd5b82356001600160401b0380821115611c2057600080fd5b611c2c8683870161199e565b93506020850135915080821115611c4257600080fd5b50611c4f8582860161199e565b9150509250929050565b600060208284031215611c6b57600080fd5b815161092c81611a0b565b634e487b7160e01b600052603260045260246000fd5b60005b83811015611ca7578181015183820152602001611c8f565b50506000910152565b60008151611cc2818560208601611c8c565b9290920192915050565b7f7b226a736f6e727063223a2022322e30222c20226d6574686f64223a2022737581527f617665785f6275696c64457468426c6f636b222c2022706172616d73223a205b6020820152666e756c6c2c205b60c81b604082015260008251611d3a816047850160208701611c8c565b6b5d5d2c20226964223a20317d60a01b6047939091019283015250605301919050565b60008151808452611d75816020860160208601611c8c565b601f01601f19169290920160200192915050565b6001600160a01b0383168152604060208201819052600090610c4990830184611d5d565b60008251611dbf818460208701611c8c565b9190910192915050565b600060208284031215611ddb57600080fd5b81516001600160401b03811115611df157600080fd5b8201601f81018413611e0257600080fd5b8051611e106119bd82611977565b818152856020838501011115611e2557600080fd5b6107b2826020830160208601611c8c565b60208152600061092c6020830184611d5d565b60006020808401835182865281815180845260408801915060408160051b8901019350848301925060005b81811015611ea257603f19898603018352611e90858551611d5d565b94509285019291850191600101611e74565b5092979650505050505050565b606081526000611ec26060830186611d5d565b8281036020840152611ed48186611d5d565b90508281036040840152611ee88185611e49565b9695505050505050565b604081526000611f056040830185611d5d565b82810360208401526107b28185611e49565b60008351611f29818460208801611c8c565b671134b7383aba111d60c11b9083019081528351611f4e816008840160208801611c8c565b600b60fa1b60089290910191820152600901949350505050565b60008251611f7a818460208701611c8c565b6d089a5b9c1d5d088e88088c1e088b60921b920191825250600e01919050565b60008351611fac818460208801611c8c565b64113a37911d60d91b9083019081528351611fce816005840160208801611c8c565b600b60fa1b60059290910191820152600601949350505050565b600089516020611ffb8285838f01611c8c565b661133b0b9911d1160c91b9184019182528a5161201e8160078501848f01611c8c565b6d11161133b0b9a83934b1b2911d1160911b60079390910192830152895161204c8160158501848e01611c8c565b6a1116113737b731b2911d1160a91b60159390910192830152885161207681838501848d01611c8c565b6a1116113b30b63ab2911d1160a91b92018181019290925287516120a081602b85018b8501611c8c565b61211a61210c6121066120f36120ed6120da6120d4602b888b01016c11161131b430b4b724b2111d1160991b8152600d0190565b8e611cb0565b6611161139111d1160c91b815260070190565b8b611cb0565b6611161139911d1160c91b815260070190565b88611cb0565b61088b60f21b815260020190565b9d9c50505050505050505050505050565b6000835161213d818460208801611c8c565b64113b111d1160d91b908301908152835161215f816005840160208801611c8c565b601160f91b60059290910191820152600601949350505050565b607b60f81b815260008251612195816001850160208701611c8c565b607d60f81b6001939091019283015250600201919050565b634e487b7160e01b600052601160045260246000fd5b818103818111156106e4576106e46121ad565b6000600182016121e8576121e86121ad565b5060010190565b80820281158282048414176106e4576106e46121ad565b808201808211156106e4576106e46121ad565b600081612228576122286121ad565b50600019019056fea164736f6c6343000813000a",
    "linkReferences": {}
  },
  "methodIdentifiers": {
    "callTarget(address,uint256)": "48bce064",
    "example5(string,(address,uint64,uint64,uint64,uint64,bytes,uint64,bytes,bytes,bytes))": "0655a941",
    "getExample(string)": "d2a932f1",
    "other()": "85295877",
    "postExample(string,bytes)": "9c1f9b7a",
    "sampleJSON(string)": "76d59b56"
  },
  "id": 26
}