{
  "abi": [
    {
      "inputs": [
        {
          "internalType": "address",
          "name": "",
          "type": "address"
        },
        {
          "internalType": "bytes",
          "name": "",
          "type": "bytes"
        }
      ],
      "name": "PeekerReverted",
      "type": "error"
    },
    {
      "inputs": [],
      "name": "callback",
      "outputs": [],
      "stateMutability": "payable",
      "type": "function"
    },
    {
      "inputs": [
        {
          "internalType": "bytes",
          "name": "txn",
          "type": "bytes"
        }
      ],
      "name": "run",
      "outputs": [
        {
          "internalType": "bytes",
          "name": "",
          "type": "bytes"
        }
      ],
      "stateMutability": "payable",
      "type": "function"
    }
  ],
  "bytecode": {
    "object": "0x608060405234801561001057600080fd5b506106d6806100206000396000f3fe6080604052600436106100295760003560e01c8063083b27321461002e5780633a27652314610030575b600080fd5b005b61004361003e36600461030d565b610059565b60405161005091906103fb565b60405180910390f35b60606000610066836100d8565b905080602001515160011461007a57600080fd5b50506040805160048152602481019091526020810180517bffffffffffffffffffffffffffffffffffffffffffffffffffffffff167f083b273200000000000000000000000000000000000000000000000000000000179052919050565b604080518082019091526000815260606020820152600080635110000173ffffffffffffffffffffffffffffffffffffffff168460405160200161011c91906103fb565b604080517fffffffffffffffffffffffffffffffffffffffffffffffffffffffffffffffe08184030181529082905261015491610415565b600060405180830381855afa9150503d806000811461018f576040519150601f19603f3d011682016040523d82523d6000602084013e610194565b606091505b5091509150816101e1576351100001816040517f75fff4670000000000000000000000000000000000000000000000000000000081526004016101d8929190610431565b60405180910390fd5b808060200190518101906101f59190610513565b949350505050565b7f4e487b7100000000000000000000000000000000000000000000000000000000600052604160045260246000fd5b6040805190810167ffffffffffffffff8111828210171561024f5761024f6101fd565b60405290565b6040516060810167ffffffffffffffff8111828210171561024f5761024f6101fd565b604051601f82017fffffffffffffffffffffffffffffffffffffffffffffffffffffffffffffffe016810167ffffffffffffffff811182821017156102bf576102bf6101fd565b604052919050565b600067ffffffffffffffff8211156102e1576102e16101fd565b50601f017fffffffffffffffffffffffffffffffffffffffffffffffffffffffffffffffe01660200190565b60006020828403121561031f57600080fd5b813567ffffffffffffffff81111561033657600080fd5b8201601f8101841361034757600080fd5b803561035a610355826102c7565b610278565b81815285602083850101111561036f57600080fd5b81602084016020830137600091810160200191909152949350505050565b60005b838110156103a8578181015183820152602001610390565b50506000910152565b600081518084526103c981602086016020860161038d565b601f017fffffffffffffffffffffffffffffffffffffffffffffffffffffffffffffffe0169290920160200192915050565b60208152600061040e60208301846103b1565b9392505050565b6000825161042781846020870161038d565b9190910192915050565b73ffffffffffffffffffffffffffffffffffffffff831681526040602082015260006101f560408301846103b1565b600067ffffffffffffffff82111561047a5761047a6101fd565b5060051b60200190565b805173ffffffffffffffffffffffffffffffffffffffff811681146104a857600080fd5b919050565b600082601f8301126104be57600080fd5b815160206104ce61035583610460565b82815260059290921b840181019181810190868411156104ed57600080fd5b8286015b8481101561050857805183529183019183016104f1565b509695505050505050565b6000602080838503121561052657600080fd5b825167ffffffffffffffff8082111561053e57600080fd5b908401906040828703121561055257600080fd5b61055a61022c565b8251828116811461056a57600080fd5b8152828401518281111561057d57600080fd5b80840193505086601f84011261059257600080fd5b82516105a061035582610460565b81815260059190911b840185019085810190898311156105bf57600080fd5b8686015b838110156106b6578051868111156105da57600080fd5b87016060818d037fffffffffffffffffffffffffffffffffffffffffffffffffffffffffffffffe001121561060e57600080fd5b610616610255565b898201518881111561062757600080fd5b8201603f81018e1361063857600080fd5b8a810151610648610355826102c7565b8181528f604083850101111561065d57600080fd5b61066d828e83016040860161038d565b83525061067e905060408301610484565b8a82015260608201518881111561069457600080fd5b6106a28e8c838601016104ad565b6040830152508452509187019187016105c3565b509583019590955250969550505050505056fea164736f6c6343000813000a"
  }
}