{
  "abi": [
    {
      "inputs": [
        {
          "internalType": "address",
          "name": "",
          "type": "address"
        },
        {
          "internalType": "bytes",
          "name": "",
          "type": "bytes"
        }
      ],
      "name": "PeekerReverted",
      "type": "error"
    },
    {
      "inputs": [],
      "name": "callback",
      "outputs": [],
      "stateMutability": "payable",
      "type": "function"
    },
    {
      "inputs": [
        {
          "internalType": "bytes",
          "name": "txn",
          "type": "bytes"
        }
      ],
      "name": "run",
      "outputs": [
        {
          "internalType": "bytes",
          "name": "",
          "type": "bytes"
        }
      ],
      "stateMutability": "payable",
      "type": "function"
    }
  ],
  "bytecode": {
    "object": "0x608060405234801561001057600080fd5b506107f1806100206000396000f3fe6080604052600436106100295760003560e01c8063083b27321461002e5780633a27652314610030575b600080fd5b005b61004361003e3660046103b4565b610059565b60405161005091906104a2565b60405180910390f35b606060006100668361017f565b905080602001515160011461007a57600080fd5b6040805160048152602481019091526020810180517bffffffffffffffffffffffffffffffffffffffffffffffffffffffff167f6d4ce63c000000000000000000000000000000000000000000000000000000001790526100da906104bc565b81602001516000815181106100f1576100f1610501565b60200260200101516040015160008151811061010f5761010f610501565b60200260200101511461012157600080fd5b50506040805160048152602481019091526020810180517bffffffffffffffffffffffffffffffffffffffffffffffffffffffff167f083b273200000000000000000000000000000000000000000000000000000000179052919050565b604080518082019091526000815260606020820152600080635110000173ffffffffffffffffffffffffffffffffffffffff16846040516020016101c391906104a2565b604080517fffffffffffffffffffffffffffffffffffffffffffffffffffffffffffffffe0818403018152908290526101fb91610530565b600060405180830381855afa9150503d8060008114610236576040519150601f19603f3d011682016040523d82523d6000602084013e61023b565b606091505b509150915081610288576351100001816040517f75fff46700000000000000000000000000000000000000000000000000000000815260040161027f92919061054c565b60405180910390fd5b8080602001905181019061029c919061062e565b949350505050565b7f4e487b7100000000000000000000000000000000000000000000000000000000600052604160045260246000fd5b6040805190810167ffffffffffffffff811182821017156102f6576102f66102a4565b60405290565b6040516060810167ffffffffffffffff811182821017156102f6576102f66102a4565b604051601f82017fffffffffffffffffffffffffffffffffffffffffffffffffffffffffffffffe016810167ffffffffffffffff81118282101715610366576103666102a4565b604052919050565b600067ffffffffffffffff821115610388576103886102a4565b50601f017fffffffffffffffffffffffffffffffffffffffffffffffffffffffffffffffe01660200190565b6000602082840312156103c657600080fd5b813567ffffffffffffffff8111156103dd57600080fd5b8201601f810184136103ee57600080fd5b80356104016103fc8261036e565b61031f565b81815285602083850101111561041657600080fd5b81602084016020830137600091810160200191909152949350505050565b60005b8381101561044f578181015183820152602001610437565b50506000910152565b60008151808452610470816020860160208601610434565b601f017fffffffffffffffffffffffffffffffffffffffffffffffffffffffffffffffe0169290920160200192915050565b6020815260006104b56020830184610458565b9392505050565b805160208083015191908110156104fb577fffffffffffffffffffffffffffffffffffffffffffffffffffffffffffffffff8160200360031b1b821691505b50919050565b7f4e487b7100000000000000000000000000000000000000000000000000000000600052603260045260246000fd5b60008251610542818460208701610434565b9190910192915050565b73ffffffffffffffffffffffffffffffffffffffff8316815260406020820152600061029c6040830184610458565b600067ffffffffffffffff821115610595576105956102a4565b5060051b60200190565b805173ffffffffffffffffffffffffffffffffffffffff811681146105c357600080fd5b919050565b600082601f8301126105d957600080fd5b815160206105e96103fc8361057b565b82815260059290921b8401810191818101908684111561060857600080fd5b8286015b84811015610623578051835291830191830161060c565b509695505050505050565b6000602080838503121561064157600080fd5b825167ffffffffffffffff8082111561065957600080fd5b908401906040828703121561066d57600080fd5b6106756102d3565b8251828116811461068557600080fd5b8152828401518281111561069857600080fd5b80840193505086601f8401126106ad57600080fd5b82516106bb6103fc8261057b565b81815260059190911b840185019085810190898311156106da57600080fd5b8686015b838110156107d1578051868111156106f557600080fd5b87016060818d037fffffffffffffffffffffffffffffffffffffffffffffffffffffffffffffffe001121561072957600080fd5b6107316102fc565b898201518881111561074257600080fd5b8201603f81018e1361075357600080fd5b8a8101516107636103fc8261036e565b8181528f604083850101111561077857600080fd5b610788828e830160408601610434565b83525061079990506040830161059f565b8a8201526060820151888111156107af57600080fd5b6107bd8e8c838601016105c8565b6040830152508452509187019187016106de565b509583019590955250969550505050505056fea164736f6c6343000813000a"
  }
}