{
  "abi": [
    {
      "inputs": [
        {
          "internalType": "address",
          "name": "",
          "type": "address"
        },
        {
          "internalType": "bytes",
          "name": "",
          "type": "bytes"
        }
      ],
      "name": "PeekerReverted",
      "type": "error"
    },
    {
      "anonymous": false,
      "inputs": [
        {
          "indexed": false,
          "internalType": "uint64",
          "name": "egp",
          "type": "uint64"
        }
      ],
      "name": "SimResultEvent",
      "type": "event"
    },
    {
      "inputs": [],
      "name": "fetchBidConfidentialBundleData",
      "outputs": [
        {
          "internalType": "bytes",
          "name": "",
          "type": "bytes"
        }
      ],
      "stateMutability": "nonpayable",
      "type": "function"
    },
    {
      "inputs": [],
      "name": "helloWorld",
      "outputs": [],
      "stateMutability": "payable",
      "type": "function"
    }
  ],
  "bytecode": {
    "object": "0x608060405234801561001057600080fd5b506104f2806100206000396000f3fe6080604052600436106100295760003560e01c806392f07a581461002e578063c605f76c14610059575b600080fd5b34801561003a57600080fd5b50610043610063565b604051610050919061039e565b60405180910390f35b61006161009c565b005b606061006d610168565b61007657600080fd5b60006100806101f1565b90508080602001905181019061009691906103ce565b91505090565b6100a4610168565b6100ad57600080fd5b6000306001600160a01b03166392f07a586040518163ffffffff1660e01b81526004016000604051808303816000875af11580156100ef573d6000803e3d6000fd5b505050506040513d6000823e601f3d908101601f1916820160405261011791908101906103ce565b9050600061012482610289565b60405167ffffffffffffffff821681529091507f2384e786ffd10e7e13594085282378558c96b60fe4e2e42380551c627ba068d59060200160405180910390a15050565b6040516000908190819063420100009082818181855afa9150503d80600081146101ae576040519150601f19603f3d011682016040523d82523d6000602084013e6101b3565b606091505b5091509150816101e7576342010000816040516375fff46760e01b81526004016101de92919061047b565b60405180910390fd5b6020015192915050565b6040805160008082526020820192839052606092909182916342010001916102189161049f565b600060405180830381855afa9150503d8060008114610253576040519150601f19603f3d011682016040523d82523d6000602084013e610258565b606091505b509150915081610283576342010001816040516375fff46760e01b81526004016101de92919061047b565b92915050565b600080600063421000006001600160a01b0316846040516020016102ad919061039e565b60408051601f19818403018152908290526102c79161049f565b600060405180830381855afa9150503d8060008114610302576040519150601f19603f3d011682016040523d82523d6000602084013e610307565b606091505b509150915081610332576342100000816040516375fff46760e01b81526004016101de92919061047b565b8080602001905181019061034691906104bb565b949350505050565b60005b83811015610369578181015183820152602001610351565b50506000910152565b6000815180845261038a81602086016020860161034e565b601f01601f19169290920160200192915050565b6020815260006103b16020830184610372565b9392505050565b634e487b7160e01b600052604160045260246000fd5b6000602082840312156103e057600080fd5b815167ffffffffffffffff808211156103f857600080fd5b818401915084601f83011261040c57600080fd5b81518181111561041e5761041e6103b8565b604051601f8201601f19908116603f01168101908382118183101715610446576104466103b8565b8160405282815287602084870101111561045f57600080fd5b61047083602083016020880161034e565b979650505050505050565b6001600160a01b038316815260406020820181905260009061034690830184610372565b600082516104b181846020870161034e565b9190910192915050565b6000602082840312156104cd57600080fd5b815167ffffffffffffffff811681146103b157600080fdfea164736f6c6343000813000a"
  }
}