{
  "abi": [
    {
      "inputs": [
        {
          "internalType": "address",
          "name": "",
          "type": "address"
        },
        {
          "internalType": "bytes",
          "name": "",
          "type": "bytes"
        }
      ],
      "name": "PeekerReverted",
      "type": "error"
    },
    {
      "inputs": [],
      "name": "BUILD_ETH_BLOCK",
      "outputs": [
        {
          "internalType": "address",
          "name": "",
          "type": "address"
        }
      ],
      "stateMutability": "view",
      "type": "function"
    },
    {
      "inputs": [],
      "name": "CONFIDENTIAL_INPUTS",
      "outputs": [
        {
          "internalType": "address",
          "name": "",
          "type": "address"
        }
      ],
      "stateMutability": "view",
      "type": "function"
    },
    {
      "inputs": [],
      "name": "CONFIDENTIAL_STORE_RETRIEVE",
      "outputs": [
        {
          "internalType": "address",
          "name": "",
          "type": "address"
        }
      ],
      "stateMutability": "view",
      "type": "function"
    },
    {
      "inputs": [],
      "name": "CONFIDENTIAL_STORE_STORE",
      "outputs": [
        {
          "internalType": "address",
          "name": "",
          "type": "address"
        }
      ],
      "stateMutability": "view",
      "type": "function"
    },
    {
      "inputs": [],
      "name": "ETHCALL",
      "outputs": [
        {
          "internalType": "address",
          "name": "",
          "type": "address"
        }
      ],
      "stateMutability": "view",
      "type": "function"
    },
    {
      "inputs": [],
      "name": "EXTRACT_HINT",
      "outputs": [
        {
          "internalType": "address",
          "name": "",
          "type": "address"
        }
      ],
      "stateMutability": "view",
      "type": "function"
    },
    {
      "inputs": [],
      "name": "FETCH_BIDS",
      "outputs": [
        {
          "internalType": "address",
          "name": "",
          "type": "address"
        }
      ],
      "stateMutability": "view",
      "type": "function"
    },
    {
      "inputs": [],
      "name": "FILL_MEV_SHARE_BUNDLE",
      "outputs": [
        {
          "internalType": "address",
          "name": "",
          "type": "address"
        }
      ],
      "stateMutability": "view",
      "type": "function"
    },
    {
      "inputs": [],
      "name": "GET_BINANCE_PRICE",
      "outputs": [
        {
          "internalType": "address",
          "name": "",
          "type": "address"
        }
      ],
      "stateMutability": "view",
      "type": "function"
    },
    {
      "inputs": [],
      "name": "IS_CONFIDENTIAL_ADDR",
      "outputs": [
        {
          "internalType": "address",
          "name": "",
          "type": "address"
        }
      ],
      "stateMutability": "view",
      "type": "function"
    },
    {
      "inputs": [],
      "name": "NEW_BID",
      "outputs": [
        {
          "internalType": "address",
          "name": "",
          "type": "address"
        }
      ],
      "stateMutability": "view",
      "type": "function"
    },
    {
      "inputs": [],
      "name": "SIGN_ETH_TRANSACTION",
      "outputs": [
        {
          "internalType": "address",
          "name": "",
          "type": "address"
        }
      ],
      "stateMutability": "view",
      "type": "function"
    },
    {
      "inputs": [],
      "name": "SIMULATE_BUNDLE",
      "outputs": [
        {
          "internalType": "address",
          "name": "",
          "type": "address"
        }
      ],
      "stateMutability": "view",
      "type": "function"
    },
    {
      "inputs": [],
      "name": "SUBMIT_BUNDLE_JSON_RPC",
      "outputs": [
        {
          "internalType": "address",
          "name": "",
          "type": "address"
        }
      ],
      "stateMutability": "view",
      "type": "function"
    },
    {
      "inputs": [],
      "name": "SUBMIT_ETH_BLOCK_BID_TO_RELAY",
      "outputs": [
        {
          "internalType": "address",
          "name": "",
          "type": "address"
        }
      ],
      "stateMutability": "view",
      "type": "function"
    }
  ],
  "bytecode": {
    "object": "0x6101d261003a600b82828239805160001a60731461002d57634e487b7160e01b600052600060045260246000fd5b30600052607381538281f3fe73000000000000000000000000000000000000000030146080604052600436106100ff5760003560e01c806394804c69116100a1578063c91e11df11610070578063c91e11df14610199578063d91525db146101a4578063f0608b1c146101af578063f6ab3de5146101ba57600080fd5b806394804c691461016d578063b61b127d14610178578063b7817da014610183578063bc50c0051461018e57600080fd5b806369094cbc116100dd57806369094cbc146101415780637320cb171461014c578063744795b914610157578063751afe2c1461016257600080fd5b806301c1953014610104578063040e51831461012b57806332c71b6914610136575b600080fd5b61010f634320000181565b6040516001600160a01b03909116815260200160405180910390f35b61010f634210000381565b61010f634201234581565b61010f634201000181565b61010f634203000081565b61010f634010000181565b61010f634210003781565b61010f634210000181565b61010f634210000081565b61010f634202000081565b61010f634210000281565b61010f634203000181565b61010f634201000081565b61010f634300000181565b61010f63420200018156fea164736f6c6343000813000a",
    "linkReferences": {}
  },
  "methodIdentifiers": {
    "BUILD_ETH_BLOCK()": "94804c69",
    "CONFIDENTIAL_INPUTS()": "69094cbc",
    "CONFIDENTIAL_STORE_RETRIEVE()": "f6ab3de5",
    "CONFIDENTIAL_STORE_STORE()": "b7817da0",
    "ETHCALL()": "040e5183",
    "EXTRACT_HINT()": "751afe2c",
    "FETCH_BIDS()": "c91e11df",
    "FILL_MEV_SHARE_BUNDLE()": "01c19530",
    "GET_BINANCE_PRICE()": "32c71b69",
    "IS_CONFIDENTIAL_ADDR()": "d91525db",
    "NEW_BID()": "7320cb17",
    "SIGN_ETH_TRANSACTION()": "744795b9",
    "SIMULATE_BUNDLE()": "b61b127d",
    "SUBMIT_BUNDLE_JSON_RPC()": "f0608b1c",
    "SUBMIT_ETH_BLOCK_BID_TO_RELAY()": "bc50c005"
  },
  "id": 14
}