{
  "abi": [
    {
      "inputs": [
        {
          "internalType": "address",
          "name": "",
          "type": "address"
        },
        {
          "internalType": "bytes",
          "name": "",
          "type": "bytes"
        }
      ],
      "name": "PeekerReverted",
      "type": "error"
    },
    {
      "inputs": [
        {
          "components": [
            {
              "internalType": "uint64",
              "name": "slot",
              "type": "uint64"
            },
            {
              "internalType": "bytes",
              "name": "proposerPubkey",
              "type": "bytes"
            },
            {
              "internalType": "bytes32",
              "name": "parent",
              "type": "bytes32"
            },
            {
              "internalType": "uint64",
              "name": "timestamp",
              "type": "uint64"
            },
            {
              "internalType": "address",
              "name": "feeRecipient",
              "type": "address"
            },
            {
              "internalType": "uint64",
              "name": "gasLimit",
              "type": "uint64"
            },
            {
              "internalType": "bytes32",
              "name": "random",
              "type": "bytes32"
            },
            {
              "components": [
                {
                  "internalType": "uint64",
                  "name": "index",
                  "type": "uint64"
                },
                {
                  "internalType": "uint64",
                  "name": "validator",
                  "type": "uint64"
                },
                {
                  "internalType": "address",
                  "name": "Address",
                  "type": "address"
                },
                {
                  "internalType": "uint64",
                  "name": "amount",
                  "type": "uint64"
                }
              ],
              "internalType": "struct Suave.Withdrawal[]",
              "name": "withdrawals",
              "type": "tuple[]"
            }
          ],
          "internalType": "struct Suave.BuildBlockArgs",
          "name": "param1",
          "type": "tuple"
        },
        {
          "internalType": "Suave.BidId",
          "name": "param2",
          "type": "bytes16"
        },
        {
          "internalType": "string",
          "name": "param3",
          "type": "string"
        }
      ],
      "name": "buildEthBlock",
      "outputs": [
        {
          "internalType": "bytes",
          "name": "",
          "type": "bytes"
        },
        {
          "internalType": "bytes",
          "name": "",
          "type": "bytes"
        }
      ],
      "stateMutability": "view",
      "type": "function"
    },
    {
      "inputs": [],
      "name": "confidentialInputs",
      "outputs": [
        {
          "internalType": "bytes",
          "name": "",
          "type": "bytes"
        }
      ],
      "stateMutability": "view",
      "type": "function"
    },
    {
      "inputs": [
        {
          "internalType": "Suave.BidId",
          "name": "param1",
          "type": "bytes16"
        },
        {
          "internalType": "string",
          "name": "param2",
          "type": "string"
        }
      ],
      "name": "confidentialStoreRetrieve",
      "outputs": [
        {
          "internalType": "bytes",
          "name": "",
          "type": "bytes"
        }
      ],
      "stateMutability": "view",
      "type": "function"
    },
    {
      "inputs": [
        {
          "internalType": "Suave.BidId",
          "name": "param1",
          "type": "bytes16"
        },
        {
          "internalType": "string",
          "name": "param2",
          "type": "string"
        },
        {
          "internalType": "bytes",
          "name": "param3",
          "type": "bytes"
        }
      ],
      "name": "confidentialStoreStore",
      "outputs": [],
      "stateMutability": "view",
      "type": "function"
    },
    {
      "inputs": [
        {
          "internalType": "bytes",
          "name": "param1",
          "type": "bytes"
        }
      ],
      "name": "extractHint",
      "outputs": [
        {
          "internalType": "bytes",
          "name": "",
          "type": "bytes"
        }
      ],
      "stateMutability": "view",
      "type": "function"
    },
    {
      "inputs": [
        {
          "internalType": "uint64",
          "name": "param1",
          "type": "uint64"
        },
        {
          "internalType": "string",
          "name": "param2",
          "type": "string"
        }
      ],
      "name": "fetchBids",
      "outputs": [
        {
          "components": [
            {
              "internalType": "Suave.BidId",
              "name": "id",
              "type": "bytes16"
            },
            {
              "internalType": "Suave.BidId",
              "name": "salt",
              "type": "bytes16"
            },
            {
              "internalType": "uint64",
              "name": "decryptionCondition",
              "type": "uint64"
            },
            {
              "internalType": "address[]",
              "name": "allowedPeekers",
              "type": "address[]"
            },
            {
              "internalType": "address[]",
              "name": "allowedStores",
              "type": "address[]"
            },
            {
              "internalType": "string",
              "name": "version",
              "type": "string"
            }
          ],
          "internalType": "struct Suave.Bid[]",
          "name": "",
          "type": "tuple[]"
        }
      ],
      "stateMutability": "view",
      "type": "function"
    },
    {
      "inputs": [],
      "name": "isConfidential",
      "outputs": [
        {
          "internalType": "bool",
          "name": "",
          "type": "bool"
        }
      ],
      "stateMutability": "view",
      "type": "function"
    },
    {
      "inputs": [
        {
          "internalType": "uint64",
          "name": "param1",
          "type": "uint64"
        },
        {
          "internalType": "address[]",
          "name": "param2",
          "type": "address[]"
        },
        {
          "internalType": "address[]",
          "name": "param3",
          "type": "address[]"
        },
        {
          "internalType": "string",
          "name": "param4",
          "type": "string"
        }
      ],
      "name": "newBid",
      "outputs": [
        {
          "components": [
            {
              "internalType": "Suave.BidId",
              "name": "id",
              "type": "bytes16"
            },
            {
              "internalType": "Suave.BidId",
              "name": "salt",
              "type": "bytes16"
            },
            {
              "internalType": "uint64",
              "name": "decryptionCondition",
              "type": "uint64"
            },
            {
              "internalType": "address[]",
              "name": "allowedPeekers",
              "type": "address[]"
            },
            {
              "internalType": "address[]",
              "name": "allowedStores",
              "type": "address[]"
            },
            {
              "internalType": "string",
              "name": "version",
              "type": "string"
            }
          ],
          "internalType": "struct Suave.Bid",
          "name": "",
          "type": "tuple"
        }
      ],
      "stateMutability": "view",
      "type": "function"
    },
    {
      "inputs": [
        {
          "internalType": "bytes",
          "name": "param1",
          "type": "bytes"
        }
      ],
      "name": "simulateBundle",
      "outputs": [
        {
          "internalType": "uint64",
          "name": "",
          "type": "uint64"
        }
      ],
      "stateMutability": "view",
      "type": "function"
    },
    {
      "inputs": [
        {
          "internalType": "string",
          "name": "param1",
          "type": "string"
        },
        {
          "internalType": "bytes",
          "name": "param2",
          "type": "bytes"
        }
      ],
      "name": "submitEthBlockBidToRelay",
      "outputs": [
        {
          "internalType": "bytes",
          "name": "",
          "type": "bytes"
        }
      ],
      "stateMutability": "view",
      "type": "function"
    }
  ],
  "bytecode": {
    "object": "0x608060405234801561001057600080fd5b50610944806100206000396000f3fe608060405234801561001057600080fd5b506004361061009e5760003560e01c80634f563141116100665780634f56314114610121578063a90a6c5f14610141578063ae9a604014610156578063b2c1714c14610164578063bd5bcdf31461017f57600080fd5b8063023e8e2f146100a35780630e38f337146100d457806320f16c3e146100e357806336cb97fd1461010457806337a5686a1461010b575b600080fd5b6100b76100b13660046102e0565b50600090565b6040516001600160401b0390911681526020015b60405180910390f35b604051600081526020016100cb565b6100f76100f13660046102e0565b50606090565b6040516100cb919061035a565b60606100f7565b6100f7610119366004610374565b606092915050565b61013461012f36600461049f565b6101a6565b6040516100cb919061060a565b61015461014f36600461063e565b505050565b005b6100f76101193660046106b1565b6101726101193660046106f4565b6040516100cb9190610710565b61019861018d366004610821565b606080935093915050565b6040516100cb929190610912565b6040805160c0810182526000808252602082018190529181019190915260608082018190526080820181905260a08201525b949350505050565b634e487b7160e01b600052604160045260246000fd5b604051608081016001600160401b0381118282101715610218576102186101e0565b60405290565b60405161010081016001600160401b0381118282101715610218576102186101e0565b604051601f8201601f191681016001600160401b0381118282101715610269576102696101e0565b604052919050565b600082601f83011261028257600080fd5b81356001600160401b0381111561029b5761029b6101e0565b6102ae601f8201601f1916602001610241565b8181528460208386010111156102c357600080fd5b816020850160208301376000918101602001919091529392505050565b6000602082840312156102f257600080fd5b81356001600160401b0381111561030857600080fd5b6101d884828501610271565b6000815180845260005b8181101561033a5760208185018101518683018201520161031e565b506000602082860101526020601f19601f83011685010191505092915050565b60208152600061036d6020830184610314565b9392505050565b6000806040838503121561038757600080fd5b82356001600160401b038082111561039e57600080fd5b6103aa86838701610271565b935060208501359150808211156103c057600080fd5b506103cd85828601610271565b9150509250929050565b80356001600160401b03811681146103ee57600080fd5b919050565b60006001600160401b0382111561040c5761040c6101e0565b5060051b60200190565b80356001600160a01b03811681146103ee57600080fd5b600082601f83011261043e57600080fd5b8135602061045361044e836103f3565b610241565b82815260059290921b8401810191818101908684111561047257600080fd5b8286015b848110156104945761048781610416565b8352918301918301610476565b509695505050505050565b600080600080608085870312156104b557600080fd5b6104be856103d7565b935060208501356001600160401b03808211156104da57600080fd5b6104e68883890161042d565b945060408701359150808211156104fc57600080fd5b6105088883890161042d565b9350606087013591508082111561051e57600080fd5b5061052b87828801610271565b91505092959194509250565b600081518084526020808501945080840160005b838110156105705781516001600160a01b03168752958201959082019060010161054b565b509495945050505050565b60006fffffffffffffffffffffffffffffffff19808351168452806020840151166020850152506001600160401b036040830151166040840152606082015160c060608501526105ce60c0850182610537565b9050608083015184820360808601526105e78282610537565b91505060a083015184820360a08601526106018282610314565b95945050505050565b60208152600061036d602083018461057b565b80356fffffffffffffffffffffffffffffffff19811681146103ee57600080fd5b60008060006060848603121561065357600080fd5b61065c8461061d565b925060208401356001600160401b038082111561067857600080fd5b61068487838801610271565b9350604086013591508082111561069a57600080fd5b506106a786828701610271565b9150509250925092565b600080604083850312156106c457600080fd5b6106cd8361061d565b915060208301356001600160401b038111156106e857600080fd5b6103cd85828601610271565b6000806040838503121561070757600080fd5b6106cd836103d7565b6000602080830181845280855180835260408601915060408160051b870101925083870160005b8281101561076557603f1988860301845261075385835161057b565b94509285019290850190600101610737565b5092979650505050505050565b600082601f83011261078357600080fd5b8135602061079361044e836103f3565b82815260079290921b840181019181810190868411156107b257600080fd5b8286015b8481101561049457608081890312156107cf5760008081fd5b6107d76101f6565b6107e0826103d7565b81526107ed8583016103d7565b8582015260406107fe818401610416565b90820152606061080f8382016103d7565b908201528352918301916080016107b6565b60008060006060848603121561083657600080fd5b83356001600160401b038082111561084d57600080fd5b90850190610100828803121561086257600080fd5b61086a61021e565b610873836103d7565b815260208301358281111561088757600080fd5b61089389828601610271565b602083015250604083013560408201526108af606084016103d7565b60608201526108c060808401610416565b60808201526108d160a084016103d7565b60a082015260c083013560c082015260e0830135828111156108f257600080fd5b6108fe89828601610772565b60e08301525094506106846020870161061d565b6040815260006109256040830185610314565b8281036020840152610601818561031456fea164736f6c6343000813000a",
    "linkReferences": {}
  },
  "methodIdentifiers": {
    "buildEthBlock((uint64,bytes,bytes32,uint64,address,uint64,bytes32,(uint64,uint64,address,uint64)[]),bytes16,string)": "bd5bcdf3",
    "confidentialInputs()": "36cb97fd",
    "confidentialStoreRetrieve(bytes16,string)": "ae9a6040",
    "confidentialStoreStore(bytes16,string,bytes)": "a90a6c5f",
    "extractHint(bytes)": "20f16c3e",
    "fetchBids(uint64,string)": "b2c1714c",
    "isConfidential()": "0e38f337",
    "newBid(uint64,address[],address[],string)": "4f563141",
    "simulateBundle(bytes)": "023e8e2f",
    "submitEthBlockBidToRelay(string,bytes)": "37a5686a"
  },
  "id": 14
}