{
  "abi": [
    {
      "inputs": [
        {
          "internalType": "address",
          "name": "",
          "type": "address"
        },
        {
          "internalType": "bytes",
          "name": "",
          "type": "bytes"
        }
      ],
      "name": "PeekerReverted",
      "type": "error"
    },
    {
      "inputs": [],
      "name": "BUILD_ETH_BLOCK",
      "outputs": [
        {
          "internalType": "address",
          "name": "",
          "type": "address"
        }
      ],
      "stateMutability": "view",
      "type": "function"
    },
    {
      "inputs": [],
      "name": "CONFIDENTIAL_INPUTS",
      "outputs": [
        {
          "internalType": "address",
          "name": "",
          "type": "address"
        }
      ],
      "stateMutability": "view",
      "type": "function"
    },
    {
      "inputs": [],
      "name": "CONFIDENTIAL_STORE_RETRIEVE",
      "outputs": [
        {
          "internalType": "address",
          "name": "",
          "type": "address"
        }
      ],
      "stateMutability": "view",
      "type": "function"
    },
    {
      "inputs": [],
      "name": "CONFIDENTIAL_STORE_STORE",
      "outputs": [
        {
          "internalType": "address",
          "name": "",
          "type": "address"
        }
      ],
      "stateMutability": "view",
      "type": "function"
    },
    {
      "inputs": [],
      "name": "ETHCALL",
      "outputs": [
        {
          "internalType": "address",
          "name": "",
          "type": "address"
        }
      ],
      "stateMutability": "view",
      "type": "function"
    },
    {
      "inputs": [],
      "name": "EXTRACT_HINT",
      "outputs": [
        {
          "internalType": "address",
          "name": "",
          "type": "address"
        }
      ],
      "stateMutability": "view",
      "type": "function"
    },
    {
      "inputs": [],
      "name": "FETCH_BIDS",
      "outputs": [
        {
          "internalType": "address",
          "name": "",
          "type": "address"
        }
      ],
      "stateMutability": "view",
      "type": "function"
    },
    {
      "inputs": [],
      "name": "FILL_MEV_SHARE_BUNDLE",
      "outputs": [
        {
          "internalType": "address",
          "name": "",
          "type": "address"
        }
      ],
      "stateMutability": "view",
      "type": "function"
    },
    {
      "inputs": [],
      "name": "IS_CONFIDENTIAL_ADDR",
      "outputs": [
        {
          "internalType": "address",
          "name": "",
          "type": "address"
        }
      ],
      "stateMutability": "view",
      "type": "function"
    },
    {
      "inputs": [],
      "name": "NEW_BID",
      "outputs": [
        {
          "internalType": "address",
          "name": "",
          "type": "address"
        }
      ],
      "stateMutability": "view",
      "type": "function"
    },
    {
      "inputs": [],
      "name": "SIGN_ETH_TRANSACTION",
      "outputs": [
        {
          "internalType": "address",
          "name": "",
          "type": "address"
        }
      ],
      "stateMutability": "view",
      "type": "function"
    },
    {
      "inputs": [],
      "name": "SIMULATE_BUNDLE",
      "outputs": [
        {
          "internalType": "address",
          "name": "",
          "type": "address"
        }
      ],
      "stateMutability": "view",
      "type": "function"
    },
    {
      "inputs": [],
      "name": "SUBMIT_BUNDLE_JSON_RPC",
      "outputs": [
        {
          "internalType": "address",
          "name": "",
          "type": "address"
        }
      ],
      "stateMutability": "view",
      "type": "function"
    },
    {
      "inputs": [],
      "name": "SUBMIT_ETH_BLOCK_BID_TO_RELAY",
      "outputs": [
        {
          "internalType": "address",
          "name": "",
          "type": "address"
        }
      ],
      "stateMutability": "view",
      "type": "function"
    }
  ],
  "bytecode": {
    "object": "0x6101bc61003a600b82828239805160001a60731461002d57634e487b7160e01b600052600060045260246000fd5b30600052607381538281f3fe73000000000000000000000000000000000000000030146080604052600436106100f45760003560e01c8063b61b127d11610096578063c91e11df11610070578063c91e11df14610183578063d91525db1461018e578063f0608b1c14610199578063f6ab3de5146101a457600080fd5b8063b61b127d14610162578063b7817da01461016d578063bc50c0051461017857600080fd5b80637320cb17116100d25780637320cb1714610136578063744795b914610141578063751afe2c1461014c57806394804c691461015757600080fd5b806301c19530146100f9578063040e51831461012057806369094cbc1461012b575b600080fd5b610104634320000181565b6040516001600160a01b03909116815260200160405180910390f35b610104634210000381565b610104634201000181565b610104634203000081565b610104634010000181565b610104634210003781565b610104634210000181565b610104634210000081565b610104634202000081565b610104634210000281565b610104634203000181565b610104634201000081565b610104634300000181565b61010463420200018156fea164736f6c6343000813000a",
    "linkReferences": {}
  },
  "methodIdentifiers": {
    "BUILD_ETH_BLOCK()": "94804c69",
    "CONFIDENTIAL_INPUTS()": "69094cbc",
    "CONFIDENTIAL_STORE_RETRIEVE()": "f6ab3de5",
    "CONFIDENTIAL_STORE_STORE()": "b7817da0",
    "ETHCALL()": "040e5183",
    "EXTRACT_HINT()": "751afe2c",
    "FETCH_BIDS()": "c91e11df",
    "FILL_MEV_SHARE_BUNDLE()": "01c19530",
    "IS_CONFIDENTIAL_ADDR()": "d91525db",
    "NEW_BID()": "7320cb17",
    "SIGN_ETH_TRANSACTION()": "744795b9",
    "SIMULATE_BUNDLE()": "b61b127d",
    "SUBMIT_BUNDLE_JSON_RPC()": "f0608b1c",
    "SUBMIT_ETH_BLOCK_BID_TO_RELAY()": "bc50c005"
  },
  "id": 14
}