{
  "abi": [
    {
      "inputs": [
        {
          "internalType": "address",
          "name": "",
          "type": "address"
        },
        {
          "internalType": "bytes",
          "name": "",
          "type": "bytes"
        }
      ],
      "name": "PeekerReverted",
      "type": "error"
    },
    {
      "inputs": [],
      "name": "BUILD_ETH_BLOCK",
      "outputs": [
        {
          "internalType": "address",
          "name": "",
          "type": "address"
        }
      ],
      "stateMutability": "view",
      "type": "function"
    },
    {
      "inputs": [],
      "name": "CONFIDENTIAL_INPUTS",
      "outputs": [
        {
          "internalType": "address",
          "name": "",
          "type": "address"
        }
      ],
      "stateMutability": "view",
      "type": "function"
    },
    {
      "inputs": [],
      "name": "CONFIDENTIAL_STORE_RETRIEVE",
      "outputs": [
        {
          "internalType": "address",
          "name": "",
          "type": "address"
        }
      ],
      "stateMutability": "view",
      "type": "function"
    },
    {
      "inputs": [],
      "name": "CONFIDENTIAL_STORE_STORE",
      "outputs": [
        {
          "internalType": "address",
          "name": "",
          "type": "address"
        }
      ],
      "stateMutability": "view",
      "type": "function"
    },
    {
      "inputs": [],
      "name": "ETHCALL",
      "outputs": [
        {
          "internalType": "address",
          "name": "",
          "type": "address"
        }
      ],
      "stateMutability": "view",
      "type": "function"
    },
    {
      "inputs": [],
      "name": "EXTRACT_HINT",
      "outputs": [
        {
          "internalType": "address",
          "name": "",
          "type": "address"
        }
      ],
      "stateMutability": "view",
      "type": "function"
    },
    {
      "inputs": [],
      "name": "FETCH_BIDS",
      "outputs": [
        {
          "internalType": "address",
          "name": "",
          "type": "address"
        }
      ],
      "stateMutability": "view",
      "type": "function"
    },
    {
      "inputs": [],
      "name": "FILL_MEV_SHARE_BUNDLE",
      "outputs": [
        {
          "internalType": "address",
          "name": "",
          "type": "address"
        }
      ],
      "stateMutability": "view",
      "type": "function"
    },
    {
      "inputs": [],
      "name": "IS_CONFIDENTIAL",
      "outputs": [
        {
          "internalType": "address",
          "name": "",
          "type": "address"
        }
      ],
      "stateMutability": "view",
      "type": "function"
    },
    {
      "inputs": [],
      "name": "IS_CONFIDENTIAL_ADDR",
      "outputs": [
        {
          "internalType": "address",
          "name": "",
          "type": "address"
        }
      ],
      "stateMutability": "view",
      "type": "function"
    },
    {
      "inputs": [],
      "name": "NEW_BID",
      "outputs": [
        {
          "internalType": "address",
          "name": "",
          "type": "address"
        }
      ],
      "stateMutability": "view",
      "type": "function"
    },
    {
      "inputs": [],
      "name": "SIGN_ETH_TRANSACTION",
      "outputs": [
        {
          "internalType": "address",
          "name": "",
          "type": "address"
        }
      ],
      "stateMutability": "view",
      "type": "function"
    },
    {
      "inputs": [],
      "name": "SIMULATE_BUNDLE",
      "outputs": [
        {
          "internalType": "address",
          "name": "",
          "type": "address"
        }
      ],
      "stateMutability": "view",
      "type": "function"
    },
    {
      "inputs": [],
      "name": "SUBMIT_BUNDLE_JSON_RPC",
      "outputs": [
        {
          "internalType": "address",
          "name": "",
          "type": "address"
        }
      ],
      "stateMutability": "view",
      "type": "function"
    },
    {
      "inputs": [],
      "name": "SUBMIT_ETH_BLOCK_BID_TO_RELAY",
      "outputs": [
        {
          "internalType": "address",
          "name": "",
          "type": "address"
        }
      ],
      "stateMutability": "view",
      "type": "function"
    },
    {
      "inputs": [
        {
          "components": [
            {
              "internalType": "uint64",
              "name": "slot",
              "type": "uint64"
            },
            {
              "internalType": "bytes",
              "name": "proposerPubkey",
              "type": "bytes"
            },
            {
              "internalType": "bytes32",
              "name": "parent",
              "type": "bytes32"
            },
            {
              "internalType": "uint64",
              "name": "timestamp",
              "type": "uint64"
            },
            {
              "internalType": "address",
              "name": "feeRecipient",
              "type": "address"
            },
            {
              "internalType": "uint64",
              "name": "gasLimit",
              "type": "uint64"
            },
            {
              "internalType": "bytes32",
              "name": "random",
              "type": "bytes32"
            },
            {
              "components": [
                {
                  "internalType": "uint64",
                  "name": "index",
                  "type": "uint64"
                },
                {
                  "internalType": "uint64",
                  "name": "validator",
                  "type": "uint64"
                },
                {
                  "internalType": "address",
                  "name": "Address",
                  "type": "address"
                },
                {
                  "internalType": "uint64",
                  "name": "amount",
                  "type": "uint64"
                }
              ],
              "internalType": "struct Suave.Withdrawal[]",
              "name": "withdrawals",
              "type": "tuple[]"
            }
          ],
          "internalType": "struct Suave.BuildBlockArgs",
          "name": "param1",
          "type": "tuple"
        },
        {
          "internalType": "Suave.BidId",
          "name": "param2",
          "type": "bytes16"
        },
        {
          "internalType": "string",
          "name": "param3",
          "type": "string"
        }
      ],
      "name": "buildEthBlock",
      "outputs": [
        {
          "internalType": "bytes",
          "name": "",
          "type": "bytes"
        },
        {
          "internalType": "bytes",
          "name": "",
          "type": "bytes"
        }
      ],
      "stateMutability": "view",
      "type": "function"
    },
    {
      "inputs": [],
      "name": "confidentialInputs",
      "outputs": [
        {
          "internalType": "bytes",
          "name": "",
          "type": "bytes"
        }
      ],
      "stateMutability": "view",
      "type": "function"
    },
    {
      "inputs": [
        {
          "internalType": "Suave.BidId",
          "name": "param1",
          "type": "bytes16"
        },
        {
          "internalType": "string",
          "name": "param2",
          "type": "string"
        }
      ],
      "name": "confidentialStoreRetrieve",
      "outputs": [
        {
          "internalType": "bytes",
          "name": "",
          "type": "bytes"
        }
      ],
      "stateMutability": "view",
      "type": "function"
    },
    {
      "inputs": [
        {
          "internalType": "Suave.BidId",
          "name": "param1",
          "type": "bytes16"
        },
        {
          "internalType": "string",
          "name": "param2",
          "type": "string"
        },
        {
          "internalType": "bytes",
          "name": "param3",
          "type": "bytes"
        }
      ],
      "name": "confidentialStoreStore",
      "outputs": [],
      "stateMutability": "view",
      "type": "function"
    },
    {
      "inputs": [
        {
          "internalType": "address",
          "name": "param1",
          "type": "address"
        },
        {
          "internalType": "bytes",
          "name": "param2",
          "type": "bytes"
        }
      ],
      "name": "ethcall",
      "outputs": [
        {
          "internalType": "bytes",
          "name": "",
          "type": "bytes"
        }
      ],
      "stateMutability": "view",
      "type": "function"
    },
    {
      "inputs": [
        {
          "internalType": "bytes",
          "name": "param1",
          "type": "bytes"
        }
      ],
      "name": "extractHint",
      "outputs": [
        {
          "internalType": "bytes",
          "name": "",
          "type": "bytes"
        }
      ],
      "stateMutability": "view",
      "type": "function"
    },
    {
      "inputs": [
        {
          "internalType": "uint64",
          "name": "param1",
          "type": "uint64"
        },
        {
          "internalType": "string",
          "name": "param2",
          "type": "string"
        }
      ],
      "name": "fetchBids",
      "outputs": [
        {
          "components": [
            {
              "internalType": "Suave.BidId",
              "name": "id",
              "type": "bytes16"
            },
            {
              "internalType": "Suave.BidId",
              "name": "salt",
              "type": "bytes16"
            },
            {
              "internalType": "uint64",
              "name": "decryptionCondition",
              "type": "uint64"
            },
            {
              "internalType": "address[]",
              "name": "allowedPeekers",
              "type": "address[]"
            },
            {
              "internalType": "address[]",
              "name": "allowedStores",
              "type": "address[]"
            },
            {
              "internalType": "string",
              "name": "version",
              "type": "string"
            }
          ],
          "internalType": "struct Suave.Bid[]",
          "name": "",
          "type": "tuple[]"
        }
      ],
      "stateMutability": "view",
      "type": "function"
    },
    {
      "inputs": [
        {
          "internalType": "Suave.BidId",
          "name": "param1",
          "type": "bytes16"
        }
      ],
      "name": "fillMevShareBundle",
      "outputs": [
        {
          "internalType": "bytes",
          "name": "",
          "type": "bytes"
        }
      ],
      "stateMutability": "view",
      "type": "function"
    },
    {
      "inputs": [],
      "name": "isConfidential",
      "outputs": [
        {
          "internalType": "bool",
          "name": "",
          "type": "bool"
        }
      ],
      "stateMutability": "view",
      "type": "function"
    },
    {
      "inputs": [
        {
          "internalType": "uint64",
          "name": "param1",
          "type": "uint64"
        },
        {
          "internalType": "address[]",
          "name": "param2",
          "type": "address[]"
        },
        {
          "internalType": "address[]",
          "name": "param3",
          "type": "address[]"
        },
        {
          "internalType": "string",
          "name": "param4",
          "type": "string"
        }
      ],
      "name": "newBid",
      "outputs": [
        {
          "components": [
            {
              "internalType": "Suave.BidId",
              "name": "id",
              "type": "bytes16"
            },
            {
              "internalType": "Suave.BidId",
              "name": "salt",
              "type": "bytes16"
            },
            {
              "internalType": "uint64",
              "name": "decryptionCondition",
              "type": "uint64"
            },
            {
              "internalType": "address[]",
              "name": "allowedPeekers",
              "type": "address[]"
            },
            {
              "internalType": "address[]",
              "name": "allowedStores",
              "type": "address[]"
            },
            {
              "internalType": "string",
              "name": "version",
              "type": "string"
            }
          ],
          "internalType": "struct Suave.Bid",
          "name": "",
          "type": "tuple"
        }
      ],
      "stateMutability": "view",
      "type": "function"
    },
    {
      "inputs": [
        {
          "internalType": "bytes",
          "name": "param1",
          "type": "bytes"
        },
        {
          "internalType": "string",
          "name": "param2",
          "type": "string"
        },
        {
          "internalType": "string",
          "name": "param3",
          "type": "string"
        }
      ],
      "name": "signEthTransaction",
      "outputs": [
        {
          "internalType": "bytes",
          "name": "",
          "type": "bytes"
        }
      ],
      "stateMutability": "view",
      "type": "function"
    },
    {
      "inputs": [
        {
          "internalType": "bytes",
          "name": "param1",
          "type": "bytes"
        }
      ],
      "name": "simulateBundle",
      "outputs": [
        {
          "internalType": "uint64",
          "name": "",
          "type": "uint64"
        }
      ],
      "stateMutability": "view",
      "type": "function"
    },
    {
      "inputs": [
        {
          "internalType": "string",
          "name": "param1",
          "type": "string"
        },
        {
          "internalType": "string",
          "name": "param2",
          "type": "string"
        },
        {
          "internalType": "bytes",
          "name": "param3",
          "type": "bytes"
        }
      ],
      "name": "submitBundleJsonRPC",
      "outputs": [
        {
          "internalType": "bytes",
          "name": "",
          "type": "bytes"
        }
      ],
      "stateMutability": "view",
      "type": "function"
    },
    {
      "inputs": [
        {
          "internalType": "string",
          "name": "param1",
          "type": "string"
        },
        {
          "internalType": "bytes",
          "name": "param2",
          "type": "bytes"
        }
      ],
      "name": "submitEthBlockBidToRelay",
      "outputs": [
        {
          "internalType": "bytes",
          "name": "",
          "type": "bytes"
        }
      ],
      "stateMutability": "view",
      "type": "function"
    }
  ],
  "bytecode": {
    "object": "0x611c3961003a600b82828239805160001a60731461002d57634e487b7160e01b600052600060045260246000fd5b30600052607381538281f3fe73000000000000000000000000000000000000000030146080604052600436106101d95760003560e01c80637c108a441161010e578063b61b127d116100ac578063d91525db1161007b578063d91525db1461030f578063f0608b1c146103bf578063f6ab3de5146103ca578063fb4f1e0d146103d557600080fd5b8063b61b127d14610393578063b7817da01461039e578063bc50c005146103a9578063c91e11df146103b457600080fd5b806394804c69116100e857806394804c6914610340578063a90a6c5f1461034b578063ae9a604014610360578063b2c1714c1461037357600080fd5b80637c108a441461030f5780638735d6171461031a57806392649e7d1461032d57600080fd5b80633b7fb4131161017b578063727bb5c711610155578063727bb5c7146102cd5780637320cb17146102ee578063744795b9146102f9578063751afe2c1461030457600080fd5b80633b7fb4131461028f5780634f563141146102a257806369094cbc146102c257600080fd5b80630e38f337116101b75780630e38f3371461023c57806320f16c3e1461025457806336cb97fd1461027457806337a5686a1461027c57600080fd5b806301c19530146101de578063023e8e2f14610206578063040e518314610231575b600080fd5b6101e9634320000181565b6040516001600160a01b0390911681526020015b60405180910390f35b610219610214366004610f84565b6103e8565b6040516001600160401b0390911681526020016101fd565b6101e9634210000381565b6102446104b6565b60405190151581526020016101fd565b610267610262366004610f84565b610561565b6040516101fd9190611008565b61026761061e565b61026761028a366004611022565b6106c4565b61026761029d3660046110ad565b61078c565b6102b56102b03660046111a4565b610837565b6040516101fd91906112ff565b6101e9634201000181565b6102e06102db3660046113ea565b610934565b6040516101fd929190611508565b6101e9634203000081565b6101e9634010000181565b6101e9634210003781565b6101e9634201000081565b61026761032836600461152d565b610a04565b61026761033b36600461154a565b610aac565b6101e9634210000181565b61035e6103593660046115a4565b610b77565b005b61026761036e3660046115e0565b610c3d565b6103866103813660046115fe565b610ce8565b6040516101fd919061161c565b6101e9634210000081565b6101e9634202000081565b6101e9634210000281565b6101e9634203000181565b6101e9634300000181565b6101e9634202000181565b6102676103e336600461154a565b610da7565b600080600063421000006001600160a01b03168460405160200161040c9190611008565b60408051601f19818403018152908290526104269161167e565b600060405180830381855afa9150503d8060008114610461576040519150601f19603f3d011682016040523d82523d6000602084013e610466565b606091505b50915091508161049a576342100000816040516375fff46760e01b815260040161049192919061169a565b60405180910390fd5b808060200190518101906104ae91906116c9565b949350505050565b604080516000808252602082019283905291829182916342010000916104db9161167e565b600060405180830381855afa9150503d8060008114610516576040519150601f19603f3d011682016040523d82523d6000602084013e61051b565b606091505b509150915081610546576342010000816040516375fff46760e01b815260040161049192919061169a565b8080602001905181019061055a91906116e6565b9250505090565b606060008063421000376001600160a01b0316846040516020016105859190611008565b60408051601f198184030181529082905261059f9161167e565b600060405180830381855afa9150503d80600081146105da576040519150601f19603f3d011682016040523d82523d6000602084013e6105df565b606091505b50915091508161060a576342100037816040516375fff46760e01b815260040161049192919061169a565b808060200190518101906104ae919061174d565b6040805160008082526020820192839052606092909182916342010001916106459161167e565b600060405180830381855afa9150503d8060008114610680576040519150601f19603f3d011682016040523d82523d6000602084013e610685565b606091505b5091509150816106b0576342010001816040516375fff46760e01b815260040161049192919061169a565b8080602001905181019061055a919061174d565b606060008063421000026001600160a01b031685856040516020016106ea929190611508565b60408051601f19818403018152908290526107049161167e565b600060405180830381855afa9150503d806000811461073f576040519150601f19603f3d011682016040523d82523d6000602084013e610744565b606091505b50915091508161076f576342100002816040516375fff46760e01b815260040161049192919061169a565b80806020019051810190610783919061174d565b95945050505050565b606060008063421000036001600160a01b031685856040516020016107b292919061169a565b60408051601f19818403018152908290526107cc9161167e565b600060405180830381855afa9150503d8060008114610807576040519150601f19603f3d011682016040523d82523d6000602084013e61080c565b606091505b50915091508161076f576342100003816040516375fff46760e01b815260040161049192919061169a565b6040805160c0810182526000808252602082018190529181019190915260608082018190526080820181905260a082015260008063420300006001600160a01b0316878787876040516020016108909493929190611781565b60408051601f19818403018152908290526108aa9161167e565b600060405180830381855afa9150503d80600081146108e5576040519150601f19603f3d011682016040523d82523d6000602084013e6108ea565b606091505b509150915081610915576342030000816040516375fff46760e01b815260040161049192919061169a565b8080602001905181019061092991906118fe565b979650505050505050565b60608060008063421000016001600160a01b031687878760405160200161095d93929190611999565b60408051601f19818403018152908290526109779161167e565b600060405180830381855afa9150503d80600081146109b2576040519150601f19603f3d011682016040523d82523d6000602084013e6109b7565b606091505b5091509150816109e2576342100001816040516375fff46760e01b815260040161049192919061169a565b808060200190518101906109f69190611a6e565b935093505050935093915050565b604080516001600160801b03198316602082015260609160009182916343200001910160408051601f1981840301815290829052610a419161167e565b600060405180830381855afa9150503d8060008114610a7c576040519150601f19603f3d011682016040523d82523d6000602084013e610a81565b606091505b50915091508161060a576343200001816040516375fff46760e01b815260040161049192919061169a565b606060008063430000016001600160a01b0316868686604051602001610ad493929190611ac7565b60408051601f1981840301815290829052610aee9161167e565b600060405180830381855afa9150503d8060008114610b29576040519150601f19603f3d011682016040523d82523d6000602084013e610b2e565b606091505b509150915081610b59576343000001816040516375fff46760e01b815260040161049192919061169a565b80806020019051810190610b6d919061174d565b9695505050505050565b60008063420200006001600160a01b0316858585604051602001610b9d93929190611b00565b60408051601f1981840301815290829052610bb79161167e565b600060405180830381855afa9150503d8060008114610bf2576040519150601f19603f3d011682016040523d82523d6000602084013e610bf7565b606091505b509150915081610c22576342020000816040516375fff46760e01b815260040161049192919061169a565b80806020019051810190610c369190611b23565b5050505050565b606060008063420200016001600160a01b03168585604051602001610c63929190611b37565b60408051601f1981840301815290829052610c7d9161167e565b600060405180830381855afa9150503d8060008114610cb8576040519150601f19603f3d011682016040523d82523d6000602084013e610cbd565b606091505b50915091508161076f576342020001816040516375fff46760e01b815260040161049192919061169a565b606060008063420300016001600160a01b03168585604051602001610d0e929190611b5a565b60408051601f1981840301815290829052610d289161167e565b600060405180830381855afa9150503d8060008114610d63576040519150601f19603f3d011682016040523d82523d6000602084013e610d68565b606091505b509150915081610d93576342030001816040516375fff46760e01b815260040161049192919061169a565b808060200190518101906107839190611b7c565b606060008063401000016001600160a01b0316868686604051602001610dcf93929190611ac7565b60408051601f1981840301815290829052610de99161167e565b600060405180830381855afa9150503d8060008114610e24576040519150601f19603f3d011682016040523d82523d6000602084013e610e29565b606091505b509150915081610b59576340100001816040516375fff46760e01b815260040161049192919061169a565b634e487b7160e01b600052604160045260246000fd5b604051608081016001600160401b0381118282101715610e8c57610e8c610e54565b60405290565b60405161010081016001600160401b0381118282101715610e8c57610e8c610e54565b60405160c081016001600160401b0381118282101715610e8c57610e8c610e54565b604051601f8201601f191681016001600160401b0381118282101715610eff57610eff610e54565b604052919050565b60006001600160401b03821115610f2057610f20610e54565b50601f01601f191660200190565b600082601f830112610f3f57600080fd5b8135610f52610f4d82610f07565b610ed7565b818152846020838601011115610f6757600080fd5b816020850160208301376000918101602001919091529392505050565b600060208284031215610f9657600080fd5b81356001600160401b03811115610fac57600080fd5b6104ae84828501610f2e565b60005b83811015610fd3578181015183820152602001610fbb565b50506000910152565b60008151808452610ff4816020860160208601610fb8565b601f01601f19169290920160200192915050565b60208152600061101b6020830184610fdc565b9392505050565b6000806040838503121561103557600080fd5b82356001600160401b038082111561104c57600080fd5b61105886838701610f2e565b9350602085013591508082111561106e57600080fd5b5061107b85828601610f2e565b9150509250929050565b6001600160a01b038116811461109a57600080fd5b50565b80356110a881611085565b919050565b600080604083850312156110c057600080fd5b82356110cb81611085565b915060208301356001600160401b038111156110e657600080fd5b61107b85828601610f2e565b6001600160401b038116811461109a57600080fd5b80356110a8816110f2565b60006001600160401b0382111561112b5761112b610e54565b5060051b60200190565b600082601f83011261114657600080fd5b81356020611156610f4d83611112565b82815260059290921b8401810191818101908684111561117557600080fd5b8286015b8481101561119957803561118c81611085565b8352918301918301611179565b509695505050505050565b600080600080608085870312156111ba57600080fd5b84356111c5816110f2565b935060208501356001600160401b03808211156111e157600080fd5b6111ed88838901611135565b9450604087013591508082111561120357600080fd5b61120f88838901611135565b9350606087013591508082111561122557600080fd5b5061123287828801610f2e565b91505092959194509250565b600081518084526020808501945080840160005b838110156112775781516001600160a01b031687529582019590820190600101611252565b509495945050505050565b60006001600160801b0319808351168452806020840151166020850152506001600160401b036040830151166040840152606082015160c060608501526112cc60c085018261123e565b9050608083015184820360808601526112e5828261123e565b91505060a083015184820360a08601526107838282610fdc565b60208152600061101b6020830184611282565b600082601f83011261132357600080fd5b81356020611333610f4d83611112565b82815260079290921b8401810191818101908684111561135257600080fd5b8286015b84811015611199576080818903121561136f5760008081fd5b611377610e6a565b8135611382816110f2565b815281850135611391816110f2565b818601526040828101356113a481611085565b908201526060828101356113b7816110f2565b90820152835291830191608001611356565b6001600160801b03198116811461109a57600080fd5b80356110a8816113c9565b6000806000606084860312156113ff57600080fd5b83356001600160401b038082111561141657600080fd5b90850190610100828803121561142b57600080fd5b611433610e92565b61143c83611107565b815260208301358281111561145057600080fd5b61145c89828601610f2e565b6020830152506040830135604082015261147860608401611107565b60608201526114896080840161109d565b608082015261149a60a08401611107565b60a082015260c083013560c082015260e0830135828111156114bb57600080fd5b6114c789828601611312565b60e08301525094506114db602087016113df565b935060408601359150808211156114f157600080fd5b506114fe86828701610f2e565b9150509250925092565b60408152600061151b6040830185610fdc565b82810360208401526107838185610fdc565b60006020828403121561153f57600080fd5b813561101b816113c9565b60008060006060848603121561155f57600080fd5b83356001600160401b038082111561157657600080fd5b61158287838801610f2e565b9450602086013591508082111561159857600080fd5b6114db87838801610f2e565b6000806000606084860312156115b957600080fd5b83356115c4816113c9565b925060208401356001600160401b038082111561159857600080fd5b600080604083850312156115f357600080fd5b82356110cb816113c9565b6000806040838503121561161157600080fd5b82356110cb816110f2565b6000602080830181845280855180835260408601915060408160051b870101925083870160005b8281101561167157603f1988860301845261165f858351611282565b94509285019290850190600101611643565b5092979650505050505050565b60008251611690818460208701610fb8565b9190910192915050565b6001600160a01b03831681526040602082018190526000906104ae90830184610fdc565b80516110a8816110f2565b6000602082840312156116db57600080fd5b815161101b816110f2565b6000602082840312156116f857600080fd5b8151801515811461101b57600080fd5b600082601f83011261171957600080fd5b8151611727610f4d82610f07565b81815284602083860101111561173c57600080fd5b6104ae826020830160208701610fb8565b60006020828403121561175f57600080fd5b81516001600160401b0381111561177557600080fd5b6104ae84828501611708565b6001600160401b03851681526080602082015260006117a3608083018661123e565b82810360408401526117b5818661123e565b905082810360608401526109298185610fdc565b80516110a8816113c9565b600082601f8301126117e557600080fd5b815160206117f5610f4d83611112565b82815260059290921b8401810191818101908684111561181457600080fd5b8286015b8481101561119957805161182b81611085565b8352918301918301611818565b600060c0828403121561184a57600080fd5b611852610eb5565b905061185d826117c9565b815261186b602083016117c9565b602082015261187c604083016116be565b604082015260608201516001600160401b038082111561189b57600080fd5b6118a7858386016117d4565b606084015260808401519150808211156118c057600080fd5b6118cc858386016117d4565b608084015260a08401519150808211156118e557600080fd5b506118f284828501611708565b60a08301525092915050565b60006020828403121561191057600080fd5b81516001600160401b0381111561192657600080fd5b6104ae84828501611838565b600081518084526020808501945080840160005b8381101561127757815180516001600160401b039081168952848201518116858a01526040808301516001600160a01b0316908a0152606091820151169088015260809096019590820190600101611946565b606081526001600160401b038451166060820152600060208501516101008060808501526119cb610160850183610fdc565b9150604087015160a085015260608701516119f160c08601826001600160401b03169052565b5060808701516001600160a01b03811660e08601525060a08701516001600160401b03811685830152505060c086015161012084015260e0860151838203605f1901610140850152611a438282611932565b915050611a5c60208401866001600160801b0319169052565b8281036040840152610b6d8185610fdc565b60008060408385031215611a8157600080fd5b82516001600160401b0380821115611a9857600080fd5b611aa486838701611708565b93506020850151915080821115611aba57600080fd5b5061107b85828601611708565b606081526000611ada6060830186610fdc565b8281036020840152611aec8186610fdc565b90508281036040840152610b6d8185610fdc565b6001600160801b031984168152606060208201526000611a5c6060830185610fdc565b60008183031215611b3357600080fd5b5050565b6001600160801b0319831681526040602082015260006104ae6040830184610fdc565b6001600160401b03831681526040602082015260006104ae6040830184610fdc565b60006020808385031215611b8f57600080fd5b82516001600160401b0380821115611ba657600080fd5b818501915085601f830112611bba57600080fd5b8151611bc8610f4d82611112565b81815260059190911b83018401908481019088831115611be757600080fd5b8585015b83811015611c1f57805185811115611c035760008081fd5b611c118b89838a0101611838565b845250918601918601611beb565b509897505050505050505056fea164736f6c6343000813000a",
    "linkReferences": {}
  },
  "methodIdentifiers": {
    "BUILD_ETH_BLOCK()": "94804c69",
    "CONFIDENTIAL_INPUTS()": "69094cbc",
    "CONFIDENTIAL_STORE_RETRIEVE()": "f6ab3de5",
    "CONFIDENTIAL_STORE_STORE()": "b7817da0",
    "ETHCALL()": "040e5183",
    "EXTRACT_HINT()": "751afe2c",
    "FETCH_BIDS()": "c91e11df",
    "FILL_MEV_SHARE_BUNDLE()": "01c19530",
    "IS_CONFIDENTIAL()": "7c108a44",
    "IS_CONFIDENTIAL_ADDR()": "d91525db",
    "NEW_BID()": "7320cb17",
    "SIGN_ETH_TRANSACTION()": "744795b9",
    "SIMULATE_BUNDLE()": "b61b127d",
    "SUBMIT_BUNDLE_JSON_RPC()": "f0608b1c",
    "SUBMIT_ETH_BLOCK_BID_TO_RELAY()": "bc50c005",
    "buildEthBlock(Suave.BuildBlockArgs,bytes16,string)": "727bb5c7",
    "confidentialInputs()": "36cb97fd",
    "confidentialStoreRetrieve(bytes16,string)": "ae9a6040",
    "confidentialStoreStore(bytes16,string,bytes)": "a90a6c5f",
    "ethcall(address,bytes)": "3b7fb413",
    "extractHint(bytes)": "20f16c3e",
    "fetchBids(uint64,string)": "b2c1714c",
    "fillMevShareBundle(bytes16)": "8735d617",
    "isConfidential()": "0e38f337",
    "newBid(uint64,address[],address[],string)": "4f563141",
    "signEthTransaction(bytes,string,string)": "fb4f1e0d",
    "simulateBundle(bytes)": "023e8e2f",
    "submitBundleJsonRPC(string,string,bytes)": "92649e7d",
    "submitEthBlockBidToRelay(string,bytes)": "37a5686a"
  },
  "id": 14
}