{
  "abi": [
    {
      "inputs": [
        {
          "internalType": "address",
          "name": "",
          "type": "address"
        },
        {
          "internalType": "bytes",
          "name": "",
          "type": "bytes"
        }
      ],
      "name": "PeekerReverted",
      "type": "error"
    },
    {
      "inputs": [
        {
          "components": [
            {
              "internalType": "uint64",
              "name": "slot",
              "type": "uint64"
            },
            {
              "internalType": "bytes",
              "name": "proposerPubkey",
              "type": "bytes"
            },
            {
              "internalType": "bytes32",
              "name": "parent",
              "type": "bytes32"
            },
            {
              "internalType": "uint64",
              "name": "timestamp",
              "type": "uint64"
            },
            {
              "internalType": "address",
              "name": "feeRecipient",
              "type": "address"
            },
            {
              "internalType": "uint64",
              "name": "gasLimit",
              "type": "uint64"
            },
            {
              "internalType": "bytes32",
              "name": "random",
              "type": "bytes32"
            },
            {
              "components": [
                {
                  "internalType": "uint64",
                  "name": "index",
                  "type": "uint64"
                },
                {
                  "internalType": "uint64",
                  "name": "validator",
                  "type": "uint64"
                },
                {
                  "internalType": "address",
                  "name": "Address",
                  "type": "address"
                },
                {
                  "internalType": "uint64",
                  "name": "amount",
                  "type": "uint64"
                }
              ],
              "internalType": "struct Suave.Withdrawal[]",
              "name": "withdrawals",
              "type": "tuple[]"
            }
          ],
          "internalType": "struct Suave.BuildBlockArgs",
          "name": "blockArgs",
          "type": "tuple"
        },
        {
          "internalType": "Suave.BidId",
          "name": "bid",
          "type": "bytes16"
        },
        {
          "internalType": "string",
          "name": "namespace",
          "type": "string"
        }
      ],
      "name": "buildEthBlock",
      "outputs": [
        {
          "internalType": "bytes",
          "name": "",
          "type": "bytes"
        },
        {
          "internalType": "bytes",
          "name": "",
          "type": "bytes"
        }
      ],
      "stateMutability": "view",
      "type": "function"
    },
    {
      "inputs": [
        {
          "internalType": "Suave.BidId",
          "name": "bidId",
          "type": "bytes16"
        },
        {
          "internalType": "string",
          "name": "key",
          "type": "string"
        }
      ],
      "name": "confidentialStoreRetrieve",
      "outputs": [
        {
          "internalType": "bytes",
          "name": "",
          "type": "bytes"
        }
      ],
      "stateMutability": "view",
      "type": "function"
    },
    {
      "inputs": [
        {
          "internalType": "Suave.BidId",
          "name": "bidId",
          "type": "bytes16"
        },
        {
          "internalType": "string",
          "name": "key",
          "type": "string"
        },
        {
          "internalType": "bytes",
          "name": "data",
          "type": "bytes"
        }
      ],
      "name": "confidentialStoreStore",
      "outputs": [],
      "stateMutability": "view",
      "type": "function"
    },
    {
      "inputs": [
        {
          "internalType": "bytes",
          "name": "bundleData",
          "type": "bytes"
        }
      ],
      "name": "extractHint",
      "outputs": [
        {
          "internalType": "bytes",
          "name": "",
          "type": "bytes"
        }
      ],
      "stateMutability": "view",
      "type": "function"
    },
    {
      "inputs": [
        {
          "internalType": "uint64",
          "name": "cond",
          "type": "uint64"
        },
        {
          "internalType": "string",
          "name": "namespace",
          "type": "string"
        }
      ],
      "name": "fetchBids",
      "outputs": [
        {
          "components": [
            {
              "internalType": "Suave.BidId",
              "name": "id",
              "type": "bytes16"
            },
            {
              "internalType": "Suave.BidId",
              "name": "salt",
              "type": "bytes16"
            },
            {
              "internalType": "uint64",
              "name": "decryptionCondition",
              "type": "uint64"
            },
            {
              "internalType": "address[]",
              "name": "allowedPeekers",
              "type": "address[]"
            },
            {
              "internalType": "address[]",
              "name": "allowedStores",
              "type": "address[]"
            },
            {
              "internalType": "string",
              "name": "version",
              "type": "string"
            }
          ],
          "internalType": "struct Suave.Bid[]",
          "name": "",
          "type": "tuple[]"
        }
      ],
      "stateMutability": "view",
      "type": "function"
    },
    {
      "inputs": [
        {
          "internalType": "uint64",
          "name": "decryptionCondition",
          "type": "uint64"
        },
        {
          "internalType": "address[]",
          "name": "allowedPeekers",
          "type": "address[]"
        },
        {
          "internalType": "address[]",
          "name": "allowedStores",
          "type": "address[]"
        },
        {
          "internalType": "string",
          "name": "BidType",
          "type": "string"
        }
      ],
      "name": "newBid",
      "outputs": [
        {
          "components": [
            {
              "internalType": "Suave.BidId",
              "name": "id",
              "type": "bytes16"
            },
            {
              "internalType": "Suave.BidId",
              "name": "salt",
              "type": "bytes16"
            },
            {
              "internalType": "uint64",
              "name": "decryptionCondition",
              "type": "uint64"
            },
            {
              "internalType": "address[]",
              "name": "allowedPeekers",
              "type": "address[]"
            },
            {
              "internalType": "address[]",
              "name": "allowedStores",
              "type": "address[]"
            },
            {
              "internalType": "string",
              "name": "version",
              "type": "string"
            }
          ],
          "internalType": "struct Suave.Bid",
          "name": "",
          "type": "tuple"
        }
      ],
      "stateMutability": "view",
      "type": "function"
    },
    {
      "inputs": [
        {
          "internalType": "bytes",
          "name": "bundleData",
          "type": "bytes"
        }
      ],
      "name": "simulateBundle",
      "outputs": [
        {
          "internalType": "uint64",
          "name": "",
          "type": "uint64"
        }
      ],
      "stateMutability": "view",
      "type": "function"
    },
    {
      "inputs": [
        {
          "internalType": "string",
          "name": "relayUrl",
          "type": "string"
        },
        {
          "internalType": "bytes",
          "name": "builderBid",
          "type": "bytes"
        }
      ],
      "name": "submitEthBlockBidToRelay",
      "outputs": [
        {
          "internalType": "bytes",
          "name": "",
          "type": "bytes"
        }
      ],
      "stateMutability": "view",
      "type": "function"
    }
  ],
  "bytecode": {
    "object": "0x608060405234801561001057600080fd5b50610918806100206000396000f3fe608060405234801561001057600080fd5b50600436106100885760003560e01c8063a90a6c5f1161005b578063a90a6c5f14610115578063ae9a60401461012a578063b2c1714c14610138578063bd5bcdf31461015357600080fd5b8063023e8e2f1461008d57806320f16c3e146100be57806337a5686a146100df5780634f563141146100f5575b600080fd5b6100a161009b3660046102b4565b50600090565b6040516001600160401b0390911681526020015b60405180910390f35b6100d26100cc3660046102b4565b50606090565b6040516100b5919061032e565b6100d26100ed366004610348565b606092915050565b610108610103366004610473565b61017a565b6040516100b591906105de565b610128610123366004610612565b505050565b005b6100d26100ed366004610685565b6101466100ed3660046106c8565b6040516100b591906106e4565b61016c6101613660046107f5565b606080935093915050565b6040516100b59291906108e6565b6040805160c0810182526000808252602082018190529181019190915260608082018190526080820181905260a08201525b949350505050565b634e487b7160e01b600052604160045260246000fd5b604051608081016001600160401b03811182821017156101ec576101ec6101b4565b60405290565b60405161010081016001600160401b03811182821017156101ec576101ec6101b4565b604051601f8201601f191681016001600160401b038111828210171561023d5761023d6101b4565b604052919050565b600082601f83011261025657600080fd5b81356001600160401b0381111561026f5761026f6101b4565b610282601f8201601f1916602001610215565b81815284602083860101111561029757600080fd5b816020850160208301376000918101602001919091529392505050565b6000602082840312156102c657600080fd5b81356001600160401b038111156102dc57600080fd5b6101ac84828501610245565b6000815180845260005b8181101561030e576020818501810151868301820152016102f2565b506000602082860101526020601f19601f83011685010191505092915050565b60208152600061034160208301846102e8565b9392505050565b6000806040838503121561035b57600080fd5b82356001600160401b038082111561037257600080fd5b61037e86838701610245565b9350602085013591508082111561039457600080fd5b506103a185828601610245565b9150509250929050565b80356001600160401b03811681146103c257600080fd5b919050565b60006001600160401b038211156103e0576103e06101b4565b5060051b60200190565b80356001600160a01b03811681146103c257600080fd5b600082601f83011261041257600080fd5b81356020610427610422836103c7565b610215565b82815260059290921b8401810191818101908684111561044657600080fd5b8286015b848110156104685761045b816103ea565b835291830191830161044a565b509695505050505050565b6000806000806080858703121561048957600080fd5b610492856103ab565b935060208501356001600160401b03808211156104ae57600080fd5b6104ba88838901610401565b945060408701359150808211156104d057600080fd5b6104dc88838901610401565b935060608701359150808211156104f257600080fd5b506104ff87828801610245565b91505092959194509250565b600081518084526020808501945080840160005b838110156105445781516001600160a01b03168752958201959082019060010161051f565b509495945050505050565b60006fffffffffffffffffffffffffffffffff19808351168452806020840151166020850152506001600160401b036040830151166040840152606082015160c060608501526105a260c085018261050b565b9050608083015184820360808601526105bb828261050b565b91505060a083015184820360a08601526105d582826102e8565b95945050505050565b602081526000610341602083018461054f565b80356fffffffffffffffffffffffffffffffff19811681146103c257600080fd5b60008060006060848603121561062757600080fd5b610630846105f1565b925060208401356001600160401b038082111561064c57600080fd5b61065887838801610245565b9350604086013591508082111561066e57600080fd5b5061067b86828701610245565b9150509250925092565b6000806040838503121561069857600080fd5b6106a1836105f1565b915060208301356001600160401b038111156106bc57600080fd5b6103a185828601610245565b600080604083850312156106db57600080fd5b6106a1836103ab565b6000602080830181845280855180835260408601915060408160051b870101925083870160005b8281101561073957603f1988860301845261072785835161054f565b9450928501929085019060010161070b565b5092979650505050505050565b600082601f83011261075757600080fd5b81356020610767610422836103c7565b82815260079290921b8401810191818101908684111561078657600080fd5b8286015b8481101561046857608081890312156107a35760008081fd5b6107ab6101ca565b6107b4826103ab565b81526107c18583016103ab565b8582015260406107d28184016103ea565b9082015260606107e38382016103ab565b9082015283529183019160800161078a565b60008060006060848603121561080a57600080fd5b83356001600160401b038082111561082157600080fd5b90850190610100828803121561083657600080fd5b61083e6101f2565b610847836103ab565b815260208301358281111561085b57600080fd5b61086789828601610245565b60208301525060408301356040820152610883606084016103ab565b6060820152610894608084016103ea565b60808201526108a560a084016103ab565b60a082015260c083013560c082015260e0830135828111156108c657600080fd5b6108d289828601610746565b60e0830152509450610658602087016105f1565b6040815260006108f960408301856102e8565b82810360208401526105d581856102e856fea164736f6c6343000813000a",
    "linkReferences": {}
  },
  "methodIdentifiers": {
    "buildEthBlock((uint64,bytes,bytes32,uint64,address,uint64,bytes32,(uint64,uint64,address,uint64)[]),bytes16,string)": "bd5bcdf3",
    "confidentialStoreRetrieve(bytes16,string)": "ae9a6040",
    "confidentialStoreStore(bytes16,string,bytes)": "a90a6c5f",
    "extractHint(bytes)": "20f16c3e",
    "fetchBids(uint64,string)": "b2c1714c",
    "newBid(uint64,address[],address[],string)": "4f563141",
    "simulateBundle(bytes)": "023e8e2f",
    "submitEthBlockBidToRelay(string,bytes)": "37a5686a"
  },
  "id": 20
}