{
  "abi": [
    {
      "inputs": [
        {
          "internalType": "address",
          "name": "",
          "type": "address"
        },
        {
          "internalType": "bytes",
          "name": "",
          "type": "bytes"
        }
      ],
      "name": "PeekerReverted",
      "type": "error"
    },
    {
      "inputs": [
        {
          "components": [
            {
              "internalType": "uint64",
              "name": "slot",
              "type": "uint64"
            },
            {
              "internalType": "bytes",
              "name": "proposerPubkey",
              "type": "bytes"
            },
            {
              "internalType": "bytes32",
              "name": "parent",
              "type": "bytes32"
            },
            {
              "internalType": "uint64",
              "name": "timestamp",
              "type": "uint64"
            },
            {
              "internalType": "address",
              "name": "feeRecipient",
              "type": "address"
            },
            {
              "internalType": "uint64",
              "name": "gasLimit",
              "type": "uint64"
            },
            {
              "internalType": "bytes32",
              "name": "random",
              "type": "bytes32"
            },
            {
              "components": [
                {
                  "internalType": "uint64",
                  "name": "index",
                  "type": "uint64"
                },
                {
                  "internalType": "uint64",
                  "name": "validator",
                  "type": "uint64"
                },
                {
                  "internalType": "address",
                  "name": "Address",
                  "type": "address"
                },
                {
                  "internalType": "uint64",
                  "name": "amount",
                  "type": "uint64"
                }
              ],
              "internalType": "struct Suave.Withdrawal[]",
              "name": "withdrawals",
              "type": "tuple[]"
            }
          ],
          "internalType": "struct Suave.BuildBlockArgs",
          "name": "blockArgs",
          "type": "tuple"
        },
        {
          "internalType": "Suave.BidId",
          "name": "bid",
          "type": "bytes16"
        },
        {
          "internalType": "string",
          "name": "namespace",
          "type": "string"
        }
      ],
      "name": "buildEthBlock",
      "outputs": [
        {
          "internalType": "bytes",
          "name": "",
          "type": "bytes"
        },
        {
          "internalType": "bytes",
          "name": "",
          "type": "bytes"
        }
      ],
      "stateMutability": "view",
      "type": "function"
    },
    {
      "inputs": [
        {
          "internalType": "Suave.BidId",
          "name": "bidId",
          "type": "bytes16"
        },
        {
          "internalType": "string",
          "name": "key",
          "type": "string"
        }
      ],
      "name": "confidentialStoreRetrieve",
      "outputs": [
        {
          "internalType": "bytes",
          "name": "",
          "type": "bytes"
        }
      ],
      "stateMutability": "view",
      "type": "function"
    },
    {
      "inputs": [
        {
          "internalType": "Suave.BidId",
          "name": "bidId",
          "type": "bytes16"
        },
        {
          "internalType": "string",
          "name": "key",
          "type": "string"
        },
        {
          "internalType": "bytes",
          "name": "data",
          "type": "bytes"
        }
      ],
      "name": "confidentialStoreStore",
      "outputs": [],
      "stateMutability": "view",
      "type": "function"
    },
    {
      "inputs": [
        {
          "internalType": "bytes",
          "name": "bundleData",
          "type": "bytes"
        }
      ],
      "name": "extractHint",
      "outputs": [
        {
          "internalType": "bytes",
          "name": "",
          "type": "bytes"
        }
      ],
      "stateMutability": "view",
      "type": "function"
    },
    {
      "inputs": [
        {
          "internalType": "uint64",
          "name": "cond",
          "type": "uint64"
        },
        {
          "internalType": "string",
          "name": "namespace",
          "type": "string"
        }
      ],
      "name": "fetchBids",
      "outputs": [
        {
          "components": [
            {
              "internalType": "Suave.BidId",
              "name": "id",
              "type": "bytes16"
            },
            {
              "internalType": "Suave.BidId",
              "name": "salt",
              "type": "bytes16"
            },
            {
              "internalType": "uint64",
              "name": "decryptionCondition",
              "type": "uint64"
            },
            {
              "internalType": "address[]",
              "name": "allowedPeekers",
              "type": "address[]"
            },
            {
              "internalType": "address[]",
              "name": "allowedStores",
              "type": "address[]"
            },
            {
              "internalType": "string",
              "name": "version",
              "type": "string"
            }
          ],
          "internalType": "struct Suave.Bid[]",
          "name": "",
          "type": "tuple[]"
        }
      ],
      "stateMutability": "view",
      "type": "function"
    },
    {
      "inputs": [
        {
          "internalType": "Suave.BidId",
          "name": "bidId",
          "type": "bytes16"
        }
      ],
      "name": "fillMevShareBundle",
      "outputs": [
        {
          "internalType": "bytes",
          "name": "",
          "type": "bytes"
        }
      ],
      "stateMutability": "view",
      "type": "function"
    },
    {
      "inputs": [
        {
          "internalType": "uint64",
          "name": "decryptionCondition",
          "type": "uint64"
        },
        {
          "internalType": "address[]",
          "name": "allowedPeekers",
          "type": "address[]"
        },
        {
          "internalType": "address[]",
          "name": "allowedStores",
          "type": "address[]"
        },
        {
          "internalType": "string",
          "name": "BidType",
          "type": "string"
        }
      ],
      "name": "newBid",
      "outputs": [
        {
          "components": [
            {
              "internalType": "Suave.BidId",
              "name": "id",
              "type": "bytes16"
            },
            {
              "internalType": "Suave.BidId",
              "name": "salt",
              "type": "bytes16"
            },
            {
              "internalType": "uint64",
              "name": "decryptionCondition",
              "type": "uint64"
            },
            {
              "internalType": "address[]",
              "name": "allowedPeekers",
              "type": "address[]"
            },
            {
              "internalType": "address[]",
              "name": "allowedStores",
              "type": "address[]"
            },
            {
              "internalType": "string",
              "name": "version",
              "type": "string"
            }
          ],
          "internalType": "struct Suave.Bid",
          "name": "",
          "type": "tuple"
        }
      ],
      "stateMutability": "view",
      "type": "function"
    },
    {
      "inputs": [
        {
          "internalType": "bytes",
          "name": "bundleData",
          "type": "bytes"
        }
      ],
      "name": "simulateBundle",
      "outputs": [
        {
          "internalType": "uint64",
          "name": "",
          "type": "uint64"
        }
      ],
      "stateMutability": "view",
      "type": "function"
    },
    {
      "inputs": [
        {
          "internalType": "string",
          "name": "url",
          "type": "string"
        },
        {
          "internalType": "string",
          "name": "method",
          "type": "string"
        },
        {
          "internalType": "bytes",
          "name": "params",
          "type": "bytes"
        }
      ],
      "name": "submitBundleJsonRPC",
      "outputs": [
        {
          "internalType": "bytes",
          "name": "",
          "type": "bytes"
        }
      ],
      "stateMutability": "view",
      "type": "function"
    },
    {
      "inputs": [
        {
          "internalType": "string",
          "name": "relayUrl",
          "type": "string"
        },
        {
          "internalType": "bytes",
          "name": "builderBid",
          "type": "bytes"
        }
      ],
      "name": "submitEthBlockBidToRelay",
      "outputs": [
        {
          "internalType": "bytes",
          "name": "",
          "type": "bytes"
        }
      ],
      "stateMutability": "view",
      "type": "function"
    }
  ],
  "bytecode": {
    "object": "0x608060405234801561001057600080fd5b506109bc806100206000396000f3fe608060405234801561001057600080fd5b506004361061009e5760003560e01c806392649e7d1161006657806392649e7d14610139578063a90a6c5f14610150578063ae9a604014610165578063b2c1714c14610173578063bd5bcdf31461018e57600080fd5b8063023e8e2f146100a357806320f16c3e146100d457806337a5686a146100f55780634f5631411461010b5780638735d6171461012b575b600080fd5b6100b76100b13660046102ef565b50600090565b6040516001600160401b0390911681526020015b60405180910390f35b6100e86100e23660046102ef565b50606090565b6040516100cb9190610369565b6100e8610103366004610383565b606092915050565b61011e6101193660046104ae565b6101b5565b6040516100cb9190610619565b6100e86100e236600461064d565b6100e8610147366004610668565b60609392505050565b61016361015e3660046106ef565b505050565b005b6100e8610103366004610729565b61018161010336600461076c565b6040516100cb9190610788565b6101a761019c366004610899565b606080935093915050565b6040516100cb92919061098a565b6040805160c0810182526000808252602082018190529181019190915260608082018190526080820181905260a08201525b949350505050565b634e487b7160e01b600052604160045260246000fd5b604051608081016001600160401b0381118282101715610227576102276101ef565b60405290565b60405161010081016001600160401b0381118282101715610227576102276101ef565b604051601f8201601f191681016001600160401b0381118282101715610278576102786101ef565b604052919050565b600082601f83011261029157600080fd5b81356001600160401b038111156102aa576102aa6101ef565b6102bd601f8201601f1916602001610250565b8181528460208386010111156102d257600080fd5b816020850160208301376000918101602001919091529392505050565b60006020828403121561030157600080fd5b81356001600160401b0381111561031757600080fd5b6101e784828501610280565b6000815180845260005b818110156103495760208185018101518683018201520161032d565b506000602082860101526020601f19601f83011685010191505092915050565b60208152600061037c6020830184610323565b9392505050565b6000806040838503121561039657600080fd5b82356001600160401b03808211156103ad57600080fd5b6103b986838701610280565b935060208501359150808211156103cf57600080fd5b506103dc85828601610280565b9150509250929050565b80356001600160401b03811681146103fd57600080fd5b919050565b60006001600160401b0382111561041b5761041b6101ef565b5060051b60200190565b80356001600160a01b03811681146103fd57600080fd5b600082601f83011261044d57600080fd5b8135602061046261045d83610402565b610250565b82815260059290921b8401810191818101908684111561048157600080fd5b8286015b848110156104a35761049681610425565b8352918301918301610485565b509695505050505050565b600080600080608085870312156104c457600080fd5b6104cd856103e6565b935060208501356001600160401b03808211156104e957600080fd5b6104f58883890161043c565b9450604087013591508082111561050b57600080fd5b6105178883890161043c565b9350606087013591508082111561052d57600080fd5b5061053a87828801610280565b91505092959194509250565b600081518084526020808501945080840160005b8381101561057f5781516001600160a01b03168752958201959082019060010161055a565b509495945050505050565b60006fffffffffffffffffffffffffffffffff19808351168452806020840151166020850152506001600160401b036040830151166040840152606082015160c060608501526105dd60c0850182610546565b9050608083015184820360808601526105f68282610546565b91505060a083015184820360a08601526106108282610323565b95945050505050565b60208152600061037c602083018461058a565b80356fffffffffffffffffffffffffffffffff19811681146103fd57600080fd5b60006020828403121561065f57600080fd5b61037c8261062c565b60008060006060848603121561067d57600080fd5b83356001600160401b038082111561069457600080fd5b6106a087838801610280565b945060208601359150808211156106b657600080fd5b6106c287838801610280565b935060408601359150808211156106d857600080fd5b506106e586828701610280565b9150509250925092565b60008060006060848603121561070457600080fd5b61070d8461062c565b925060208401356001600160401b03808211156106b657600080fd5b6000806040838503121561073c57600080fd5b6107458361062c565b915060208301356001600160401b0381111561076057600080fd5b6103dc85828601610280565b6000806040838503121561077f57600080fd5b610745836103e6565b6000602080830181845280855180835260408601915060408160051b870101925083870160005b828110156107dd57603f198886030184526107cb85835161058a565b945092850192908501906001016107af565b5092979650505050505050565b600082601f8301126107fb57600080fd5b8135602061080b61045d83610402565b82815260079290921b8401810191818101908684111561082a57600080fd5b8286015b848110156104a357608081890312156108475760008081fd5b61084f610205565b610858826103e6565b81526108658583016103e6565b858201526040610876818401610425565b9082015260606108878382016103e6565b9082015283529183019160800161082e565b6000806000606084860312156108ae57600080fd5b83356001600160401b03808211156108c557600080fd5b9085019061010082880312156108da57600080fd5b6108e261022d565b6108eb836103e6565b81526020830135828111156108ff57600080fd5b61090b89828601610280565b60208301525060408301356040820152610927606084016103e6565b606082015261093860808401610425565b608082015261094960a084016103e6565b60a082015260c083013560c082015260e08301358281111561096a57600080fd5b610976898286016107ea565b60e08301525094506106c26020870161062c565b60408152600061099d6040830185610323565b8281036020840152610610818561032356fea164736f6c6343000813000a"
  }
}