{
  "abi": [
    {
      "inputs": [
        {
          "internalType": "address",
          "name": "",
          "type": "address"
        },
        {
          "internalType": "bytes",
          "name": "",
          "type": "bytes"
        }
      ],
      "name": "PeekerReverted",
      "type": "error"
    },
    {
      "inputs": [
        {
          "components": [
            {
              "internalType": "uint64",
              "name": "slot",
              "type": "uint64"
            },
            {
              "internalType": "bytes",
              "name": "proposerPubkey",
              "type": "bytes"
            },
            {
              "internalType": "bytes32",
              "name": "parent",
              "type": "bytes32"
            },
            {
              "internalType": "uint64",
              "name": "timestamp",
              "type": "uint64"
            },
            {
              "internalType": "address",
              "name": "feeRecipient",
              "type": "address"
            },
            {
              "internalType": "uint64",
              "name": "gasLimit",
              "type": "uint64"
            },
            {
              "internalType": "bytes32",
              "name": "random",
              "type": "bytes32"
            },
            {
              "components": [
                {
                  "internalType": "uint64",
                  "name": "index",
                  "type": "uint64"
                },
                {
                  "internalType": "uint64",
                  "name": "validator",
                  "type": "uint64"
                },
                {
                  "internalType": "address",
                  "name": "Address",
                  "type": "address"
                },
                {
                  "internalType": "uint64",
                  "name": "amount",
                  "type": "uint64"
                }
              ],
              "internalType": "struct Suave.Withdrawal[]",
              "name": "withdrawals",
              "type": "tuple[]"
            }
          ],
          "internalType": "struct Suave.BuildBlockArgs",
          "name": "blockArgs",
          "type": "tuple"
        },
        {
          "internalType": "Suave.BidId",
          "name": "bid",
          "type": "bytes16"
        },
        {
          "internalType": "string",
          "name": "namespace",
          "type": "string"
        }
      ],
      "name": "buildEthBlock",
      "outputs": [
        {
          "internalType": "bytes",
          "name": "",
          "type": "bytes"
        },
        {
          "internalType": "bytes",
          "name": "",
          "type": "bytes"
        }
      ],
      "stateMutability": "view",
      "type": "function"
    },
    {
      "inputs": [
        {
          "internalType": "Suave.BidId",
          "name": "bidId",
          "type": "bytes16"
        },
        {
          "internalType": "string",
          "name": "key",
          "type": "string"
        }
      ],
      "name": "confidentialRetrieve",
      "outputs": [
        {
          "internalType": "bytes",
          "name": "",
          "type": "bytes"
        }
      ],
      "stateMutability": "view",
      "type": "function"
    },
    {
      "inputs": [
        {
          "internalType": "Suave.BidId",
          "name": "bidId",
          "type": "bytes16"
        },
        {
          "internalType": "string",
          "name": "key",
          "type": "string"
        },
        {
          "internalType": "bytes",
          "name": "data",
          "type": "bytes"
        }
      ],
      "name": "confidentialStore",
      "outputs": [],
      "stateMutability": "view",
      "type": "function"
    },
    {
      "inputs": [
        {
          "internalType": "bytes",
          "name": "bundleData",
          "type": "bytes"
        }
      ],
      "name": "extractHint",
      "outputs": [
        {
          "internalType": "bytes",
          "name": "",
          "type": "bytes"
        }
      ],
      "stateMutability": "view",
      "type": "function"
    },
    {
      "inputs": [
        {
          "internalType": "uint64",
          "name": "cond",
          "type": "uint64"
        },
        {
          "internalType": "string",
          "name": "namespace",
          "type": "string"
        }
      ],
      "name": "fetchBids",
      "outputs": [
        {
          "components": [
            {
              "internalType": "Suave.BidId",
              "name": "id",
              "type": "bytes16"
            },
            {
              "internalType": "Suave.BidId",
              "name": "salt",
              "type": "bytes16"
            },
            {
              "internalType": "uint64",
              "name": "decryptionCondition",
              "type": "uint64"
            },
            {
              "internalType": "address[]",
              "name": "allowedPeekers",
              "type": "address[]"
            },
            {
              "internalType": "address[]",
              "name": "allowedStores",
              "type": "address[]"
            },
            {
              "internalType": "string",
              "name": "version",
              "type": "string"
            }
          ],
          "internalType": "struct Suave.Bid[]",
          "name": "",
          "type": "tuple[]"
        }
      ],
      "stateMutability": "view",
      "type": "function"
    },
    {
      "inputs": [
        {
          "internalType": "Suave.BidId",
          "name": "bidId",
          "type": "bytes16"
        }
      ],
      "name": "fillMevShareBundle",
      "outputs": [
        {
          "internalType": "bytes",
          "name": "",
          "type": "bytes"
        }
      ],
      "stateMutability": "view",
      "type": "function"
    },
    {
      "inputs": [
        {
          "internalType": "uint64",
          "name": "decryptionCondition",
          "type": "uint64"
        },
        {
          "internalType": "address[]",
          "name": "allowedPeekers",
          "type": "address[]"
        },
        {
          "internalType": "address[]",
          "name": "allowedStores",
          "type": "address[]"
        },
        {
          "internalType": "string",
          "name": "BidType",
          "type": "string"
        }
      ],
      "name": "newBid",
      "outputs": [
        {
          "components": [
            {
              "internalType": "Suave.BidId",
              "name": "id",
              "type": "bytes16"
            },
            {
              "internalType": "Suave.BidId",
              "name": "salt",
              "type": "bytes16"
            },
            {
              "internalType": "uint64",
              "name": "decryptionCondition",
              "type": "uint64"
            },
            {
              "internalType": "address[]",
              "name": "allowedPeekers",
              "type": "address[]"
            },
            {
              "internalType": "address[]",
              "name": "allowedStores",
              "type": "address[]"
            },
            {
              "internalType": "string",
              "name": "version",
              "type": "string"
            }
          ],
          "internalType": "struct Suave.Bid",
          "name": "",
          "type": "tuple"
        }
      ],
      "stateMutability": "view",
      "type": "function"
    },
    {
      "inputs": [
        {
          "internalType": "bytes",
          "name": "txn",
          "type": "bytes"
        },
        {
          "internalType": "string",
          "name": "chainId",
          "type": "string"
        },
        {
          "internalType": "string",
          "name": "signingKey",
          "type": "string"
        }
      ],
      "name": "signEthTransaction",
      "outputs": [
        {
          "internalType": "bytes",
          "name": "",
          "type": "bytes"
        }
      ],
      "stateMutability": "view",
      "type": "function"
    },
    {
      "inputs": [
        {
          "internalType": "bytes",
          "name": "bundleData",
          "type": "bytes"
        }
      ],
      "name": "simulateBundle",
      "outputs": [
        {
          "internalType": "uint64",
          "name": "",
          "type": "uint64"
        }
      ],
      "stateMutability": "view",
      "type": "function"
    },
    {
      "inputs": [
        {
          "internalType": "string",
          "name": "url",
          "type": "string"
        },
        {
          "internalType": "string",
          "name": "method",
          "type": "string"
        },
        {
          "internalType": "bytes",
          "name": "params",
          "type": "bytes"
        }
      ],
      "name": "submitBundleJsonRPC",
      "outputs": [
        {
          "internalType": "bytes",
          "name": "",
          "type": "bytes"
        }
      ],
      "stateMutability": "view",
      "type": "function"
    },
    {
      "inputs": [
        {
          "internalType": "string",
          "name": "relayUrl",
          "type": "string"
        },
        {
          "internalType": "bytes",
          "name": "builderBid",
          "type": "bytes"
        }
      ],
      "name": "submitEthBlockBidToRelay",
      "outputs": [
        {
          "internalType": "bytes",
          "name": "",
          "type": "bytes"
        }
      ],
      "stateMutability": "view",
      "type": "function"
    }
  ],
  "bytecode": {
    "object": "0x608060405234801561001057600080fd5b506109c7806100206000396000f3fe608060405234801561001057600080fd5b50600436106100a95760003560e01c806392649e7d1161007157806392649e7d14610144578063b2c1714c1461015b578063bd5bcdf314610176578063d22a3b0b1461019d578063e3b417bc146101b2578063fb4f1e0d1461014457600080fd5b8063023e8e2f146100ae57806320f16c3e146100df57806337a5686a146101005780634f563141146101165780638735d61714610136575b600080fd5b6100c26100bc3660046102fa565b50600090565b6040516001600160401b0390911681526020015b60405180910390f35b6100f36100ed3660046102fa565b50606090565b6040516100d69190610374565b6100f361010e36600461038e565b606092915050565b6101296101243660046104b9565b6101c0565b6040516100d69190610624565b6100f36100ed366004610658565b6100f3610152366004610673565b60609392505050565b61016961010e3660046106fa565b6040516100d6919061073d565b61018f61018436600461084e565b606080935093915050565b6040516100d692919061093f565b6101b06101ab366004610964565b505050565b005b6100f361010e36600461099e565b6040805160c0810182526000808252602082018190529181019190915260608082018190526080820181905260a08201525b949350505050565b634e487b7160e01b600052604160045260246000fd5b604051608081016001600160401b0381118282101715610232576102326101fa565b60405290565b60405161010081016001600160401b0381118282101715610232576102326101fa565b604051601f8201601f191681016001600160401b0381118282101715610283576102836101fa565b604052919050565b600082601f83011261029c57600080fd5b81356001600160401b038111156102b5576102b56101fa565b6102c8601f8201601f191660200161025b565b8181528460208386010111156102dd57600080fd5b816020850160208301376000918101602001919091529392505050565b60006020828403121561030c57600080fd5b81356001600160401b0381111561032257600080fd5b6101f28482850161028b565b6000815180845260005b8181101561035457602081850181015186830182015201610338565b506000602082860101526020601f19601f83011685010191505092915050565b602081526000610387602083018461032e565b9392505050565b600080604083850312156103a157600080fd5b82356001600160401b03808211156103b857600080fd5b6103c48683870161028b565b935060208501359150808211156103da57600080fd5b506103e78582860161028b565b9150509250929050565b80356001600160401b038116811461040857600080fd5b919050565b60006001600160401b03821115610426576104266101fa565b5060051b60200190565b80356001600160a01b038116811461040857600080fd5b600082601f83011261045857600080fd5b8135602061046d6104688361040d565b61025b565b82815260059290921b8401810191818101908684111561048c57600080fd5b8286015b848110156104ae576104a181610430565b8352918301918301610490565b509695505050505050565b600080600080608085870312156104cf57600080fd5b6104d8856103f1565b935060208501356001600160401b03808211156104f457600080fd5b61050088838901610447565b9450604087013591508082111561051657600080fd5b61052288838901610447565b9350606087013591508082111561053857600080fd5b506105458782880161028b565b91505092959194509250565b600081518084526020808501945080840160005b8381101561058a5781516001600160a01b031687529582019590820190600101610565565b509495945050505050565b60006fffffffffffffffffffffffffffffffff19808351168452806020840151166020850152506001600160401b036040830151166040840152606082015160c060608501526105e860c0850182610551565b9050608083015184820360808601526106018282610551565b91505060a083015184820360a086015261061b828261032e565b95945050505050565b6020815260006103876020830184610595565b80356fffffffffffffffffffffffffffffffff198116811461040857600080fd5b60006020828403121561066a57600080fd5b61038782610637565b60008060006060848603121561068857600080fd5b83356001600160401b038082111561069f57600080fd5b6106ab8783880161028b565b945060208601359150808211156106c157600080fd5b6106cd8783880161028b565b935060408601359150808211156106e357600080fd5b506106f08682870161028b565b9150509250925092565b6000806040838503121561070d57600080fd5b610716836103f1565b915060208301356001600160401b0381111561073157600080fd5b6103e78582860161028b565b6000602080830181845280855180835260408601915060408160051b870101925083870160005b8281101561079257603f19888603018452610780858351610595565b94509285019290850190600101610764565b5092979650505050505050565b600082601f8301126107b057600080fd5b813560206107c06104688361040d565b82815260079290921b840181019181810190868411156107df57600080fd5b8286015b848110156104ae57608081890312156107fc5760008081fd5b610804610210565b61080d826103f1565b815261081a8583016103f1565b85820152604061082b818401610430565b90820152606061083c8382016103f1565b908201528352918301916080016107e3565b60008060006060848603121561086357600080fd5b83356001600160401b038082111561087a57600080fd5b90850190610100828803121561088f57600080fd5b610897610238565b6108a0836103f1565b81526020830135828111156108b457600080fd5b6108c08982860161028b565b602083015250604083013560408201526108dc606084016103f1565b60608201526108ed60808401610430565b60808201526108fe60a084016103f1565b60a082015260c083013560c082015260e08301358281111561091f57600080fd5b61092b8982860161079f565b60e08301525094506106cd60208701610637565b604081526000610952604083018561032e565b828103602084015261061b818561032e565b60008060006060848603121561097957600080fd5b61098284610637565b925060208401356001600160401b03808211156106c157600080fd5b600080604083850312156109b157600080fd5b6107168361063756fea164736f6c6343000813000a"
  }
}