{
  "abi": [
    {
      "inputs": [
        {
          "internalType": "address",
          "name": "",
          "type": "address"
        },
        {
          "internalType": "bytes",
          "name": "",
          "type": "bytes"
        }
      ],
      "name": "PeekerReverted",
      "type": "error"
    },
    {
      "inputs": [
        {
          "components": [
            {
              "internalType": "uint64",
              "name": "slot",
              "type": "uint64"
            },
            {
              "internalType": "bytes",
              "name": "proposerPubkey",
              "type": "bytes"
            },
            {
              "internalType": "bytes32",
              "name": "parent",
              "type": "bytes32"
            },
            {
              "internalType": "uint64",
              "name": "timestamp",
              "type": "uint64"
            },
            {
              "internalType": "address",
              "name": "feeRecipient",
              "type": "address"
            },
            {
              "internalType": "uint64",
              "name": "gasLimit",
              "type": "uint64"
            },
            {
              "internalType": "bytes32",
              "name": "random",
              "type": "bytes32"
            },
            {
              "components": [
                {
                  "internalType": "uint64",
                  "name": "index",
                  "type": "uint64"
                },
                {
                  "internalType": "uint64",
                  "name": "validator",
                  "type": "uint64"
                },
                {
                  "internalType": "address",
                  "name": "Address",
                  "type": "address"
                },
                {
                  "internalType": "uint64",
                  "name": "amount",
                  "type": "uint64"
                }
              ],
              "internalType": "struct Suave.Withdrawal[]",
              "name": "withdrawals",
              "type": "tuple[]"
            }
          ],
          "internalType": "struct Suave.BuildBlockArgs",
          "name": "blockArgs",
          "type": "tuple"
        },
        {
          "internalType": "Suave.BidId",
          "name": "bid",
          "type": "bytes16"
        },
        {
          "internalType": "string",
          "name": "namespace",
          "type": "string"
        }
      ],
      "name": "buildEthBlock",
      "outputs": [
        {
          "internalType": "bytes",
          "name": "",
          "type": "bytes"
        },
        {
          "internalType": "bytes",
          "name": "",
          "type": "bytes"
        }
      ],
      "stateMutability": "view",
      "type": "function"
    },
    {
      "inputs": [
        {
          "internalType": "Suave.BidId",
          "name": "bidId",
          "type": "bytes16"
        },
        {
          "internalType": "string",
          "name": "key",
          "type": "string"
        }
      ],
      "name": "confidentialRetrieve",
      "outputs": [
        {
          "internalType": "bytes",
          "name": "",
          "type": "bytes"
        }
      ],
      "stateMutability": "view",
      "type": "function"
    },
    {
      "inputs": [
        {
          "internalType": "Suave.BidId",
          "name": "bidId",
          "type": "bytes16"
        },
        {
          "internalType": "string",
          "name": "key",
          "type": "string"
        },
        {
          "internalType": "bytes",
          "name": "data",
          "type": "bytes"
        }
      ],
      "name": "confidentialStore",
      "outputs": [],
      "stateMutability": "view",
      "type": "function"
    },
    {
      "inputs": [
        {
          "internalType": "bytes",
          "name": "bundleData",
          "type": "bytes"
        }
      ],
      "name": "extractHint",
      "outputs": [
        {
          "internalType": "bytes",
          "name": "",
          "type": "bytes"
        }
      ],
      "stateMutability": "view",
      "type": "function"
    },
    {
      "inputs": [
        {
          "internalType": "uint64",
          "name": "cond",
          "type": "uint64"
        },
        {
          "internalType": "string",
          "name": "namespace",
          "type": "string"
        }
      ],
      "name": "fetchBids",
      "outputs": [
        {
          "components": [
            {
              "internalType": "Suave.BidId",
              "name": "id",
              "type": "bytes16"
            },
            {
              "internalType": "Suave.BidId",
              "name": "salt",
              "type": "bytes16"
            },
            {
              "internalType": "uint64",
              "name": "decryptionCondition",
              "type": "uint64"
            },
            {
              "internalType": "address[]",
              "name": "allowedPeekers",
              "type": "address[]"
            },
            {
              "internalType": "address[]",
              "name": "allowedStores",
              "type": "address[]"
            },
            {
              "internalType": "string",
              "name": "version",
              "type": "string"
            }
          ],
          "internalType": "struct Suave.Bid[]",
          "name": "",
          "type": "tuple[]"
        }
      ],
      "stateMutability": "view",
      "type": "function"
    },
    {
      "inputs": [
        {
          "internalType": "Suave.BidId",
          "name": "bidId",
          "type": "bytes16"
        }
      ],
      "name": "fillMevShareBundle",
      "outputs": [
        {
          "internalType": "bytes",
          "name": "",
          "type": "bytes"
        }
      ],
      "stateMutability": "view",
      "type": "function"
    },
    {
      "inputs": [
        {
          "internalType": "uint64",
          "name": "decryptionCondition",
          "type": "uint64"
        },
        {
          "internalType": "address[]",
          "name": "allowedPeekers",
          "type": "address[]"
        },
        {
          "internalType": "address[]",
          "name": "allowedStores",
          "type": "address[]"
        },
        {
          "internalType": "string",
          "name": "BidType",
          "type": "string"
        }
      ],
      "name": "newBid",
      "outputs": [
        {
          "components": [
            {
              "internalType": "Suave.BidId",
              "name": "id",
              "type": "bytes16"
            },
            {
              "internalType": "Suave.BidId",
              "name": "salt",
              "type": "bytes16"
            },
            {
              "internalType": "uint64",
              "name": "decryptionCondition",
              "type": "uint64"
            },
            {
              "internalType": "address[]",
              "name": "allowedPeekers",
              "type": "address[]"
            },
            {
              "internalType": "address[]",
              "name": "allowedStores",
              "type": "address[]"
            },
            {
              "internalType": "string",
              "name": "version",
              "type": "string"
            }
          ],
          "internalType": "struct Suave.Bid",
          "name": "",
          "type": "tuple"
        }
      ],
      "stateMutability": "view",
      "type": "function"
    },
    {
      "inputs": [
        {
          "internalType": "bytes",
          "name": "txn",
          "type": "bytes"
        },
        {
          "internalType": "string",
          "name": "chainId",
          "type": "string"
        },
        {
          "internalType": "string",
          "name": "signingKey",
          "type": "string"
        }
      ],
      "name": "signEthTransaction",
      "outputs": [
        {
          "internalType": "bytes",
          "name": "",
          "type": "bytes"
        }
      ],
      "stateMutability": "view",
      "type": "function"
    },
    {
      "inputs": [
        {
          "internalType": "bytes",
          "name": "bundleData",
          "type": "bytes"
        }
      ],
      "name": "simulateBundle",
      "outputs": [
        {
          "internalType": "uint64",
          "name": "",
          "type": "uint64"
        }
      ],
      "stateMutability": "view",
      "type": "function"
    },
    {
      "inputs": [
        {
          "internalType": "string",
          "name": "url",
          "type": "string"
        },
        {
          "internalType": "string",
          "name": "method",
          "type": "string"
        },
        {
          "internalType": "bytes",
          "name": "params",
          "type": "bytes"
        }
      ],
      "name": "submitBundleJsonRPC",
      "outputs": [
        {
          "internalType": "bytes",
          "name": "",
          "type": "bytes"
        }
      ],
      "stateMutability": "view",
      "type": "function"
    },
    {
      "inputs": [
        {
          "internalType": "string",
          "name": "relayUrl",
          "type": "string"
        },
        {
          "internalType": "bytes",
          "name": "builderBid",
          "type": "bytes"
        }
      ],
      "name": "submitEthBlockBidToRelay",
      "outputs": [
        {
          "internalType": "bytes",
          "name": "",
          "type": "bytes"
        }
      ],
      "stateMutability": "view",
      "type": "function"
    }
  ],
  "bytecode": {
    "object": "0x608060405234801561001057600080fd5b50610abf806100206000396000f3fe608060405234801561001057600080fd5b50600436106100c95760003560e01c806392649e7d11610081578063d22a3b0b1161005b578063d22a3b0b146101be578063e3b417bc146101d3578063fb4f1e0d1461016557600080fd5b806392649e7d14610165578063b2c1714c1461017c578063bd5bcdf31461019757600080fd5b806337a5686a116100b257806337a5686a146101215780634f563141146101375780638735d6171461015757600080fd5b8063023e8e2f146100ce57806320f16c3e14610100575b600080fd5b6100e26100dc366004610374565b50600090565b60405167ffffffffffffffff90911681526020015b60405180910390f35b61011461010e366004610374565b50606090565b6040516100f7919061040d565b61011461012f366004610427565b606092915050565b61014a610145366004610562565b6101e1565b6040516100f791906106eb565b61011461010e36600461072e565b610114610173366004610749565b60609392505050565b61018a61012f3660046107d1565b6040516100f79190610815565b6101b06101a5366004610944565b606080935093915050565b6040516100f7929190610a36565b6101d16101cc366004610a5b565b505050565b005b61011461012f366004610a96565b6040805160c0810182526000808252602082018190529181019190915260608082018190526080820181905260a08201525b949350505050565b7f4e487b7100000000000000000000000000000000000000000000000000000000600052604160045260246000fd5b6040516080810167ffffffffffffffff8111828210171561026d5761026d61021b565b60405290565b604051610100810167ffffffffffffffff8111828210171561026d5761026d61021b565b604051601f82017fffffffffffffffffffffffffffffffffffffffffffffffffffffffffffffffe016810167ffffffffffffffff811182821017156102de576102de61021b565b604052919050565b600082601f8301126102f757600080fd5b813567ffffffffffffffff8111156103115761031161021b565b61034260207fffffffffffffffffffffffffffffffffffffffffffffffffffffffffffffffe0601f84011601610297565b81815284602083860101111561035757600080fd5b816020850160208301376000918101602001919091529392505050565b60006020828403121561038657600080fd5b813567ffffffffffffffff81111561039d57600080fd5b610213848285016102e6565b6000815180845260005b818110156103cf576020818501810151868301820152016103b3565b5060006020828601015260207fffffffffffffffffffffffffffffffffffffffffffffffffffffffffffffffe0601f83011685010191505092915050565b60208152600061042060208301846103a9565b9392505050565b6000806040838503121561043a57600080fd5b823567ffffffffffffffff8082111561045257600080fd5b61045e868387016102e6565b9350602085013591508082111561047457600080fd5b50610481858286016102e6565b9150509250929050565b803567ffffffffffffffff811681146104a357600080fd5b919050565b600067ffffffffffffffff8211156104c2576104c261021b565b5060051b60200190565b803573ffffffffffffffffffffffffffffffffffffffff811681146104a357600080fd5b600082601f83011261050157600080fd5b81356020610516610511836104a8565b610297565b82815260059290921b8401810191818101908684111561053557600080fd5b8286015b848110156105575761054a816104cc565b8352918301918301610539565b509695505050505050565b6000806000806080858703121561057857600080fd5b6105818561048b565b9350602085013567ffffffffffffffff8082111561059e57600080fd5b6105aa888389016104f0565b945060408701359150808211156105c057600080fd5b6105cc888389016104f0565b935060608701359150808211156105e257600080fd5b506105ef878288016102e6565b91505092959194509250565b600081518084526020808501945080840160005b8381101561064157815173ffffffffffffffffffffffffffffffffffffffff168752958201959082019060010161060f565b509495945050505050565b60007fffffffffffffffffffffffffffffffff000000000000000000000000000000008083511684528060208401511660208501525067ffffffffffffffff6040830151166040840152606082015160c060608501526106af60c08501826105fb565b9050608083015184820360808601526106c882826105fb565b91505060a083015184820360a08601526106e282826103a9565b95945050505050565b602081526000610420602083018461064c565b80357fffffffffffffffffffffffffffffffff00000000000000000000000000000000811681146104a357600080fd5b60006020828403121561074057600080fd5b610420826106fe565b60008060006060848603121561075e57600080fd5b833567ffffffffffffffff8082111561077657600080fd5b610782878388016102e6565b9450602086013591508082111561079857600080fd5b6107a4878388016102e6565b935060408601359150808211156107ba57600080fd5b506107c7868287016102e6565b9150509250925092565b600080604083850312156107e457600080fd5b6107ed8361048b565b9150602083013567ffffffffffffffff81111561080957600080fd5b610481858286016102e6565b6000602080830181845280855180835260408601915060408160051b870101925083870160005b82811015610888577fffffffffffffffffffffffffffffffffffffffffffffffffffffffffffffffc088860301845261087685835161064c565b9450928501929085019060010161083c565b5092979650505050505050565b600082601f8301126108a657600080fd5b813560206108b6610511836104a8565b82815260079290921b840181019181810190868411156108d557600080fd5b8286015b8481101561055757608081890312156108f25760008081fd5b6108fa61024a565b6109038261048b565b815261091085830161048b565b8582015260406109218184016104cc565b90820152606061093283820161048b565b908201528352918301916080016108d9565b60008060006060848603121561095957600080fd5b833567ffffffffffffffff8082111561097157600080fd5b90850190610100828803121561098657600080fd5b61098e610273565b6109978361048b565b81526020830135828111156109ab57600080fd5b6109b7898286016102e6565b602083015250604083013560408201526109d36060840161048b565b60608201526109e4608084016104cc565b60808201526109f560a0840161048b565b60a082015260c083013560c082015260e083013582811115610a1657600080fd5b610a2289828601610895565b60e08301525094506107a4602087016106fe565b604081526000610a4960408301856103a9565b82810360208401526106e281856103a9565b600080600060608486031215610a7057600080fd5b610a79846106fe565b9250602084013567ffffffffffffffff8082111561079857600080fd5b60008060408385031215610aa957600080fd5b6107ed836106fe56fea164736f6c6343000813000a"
  }
}