{
  "abi": [
    {
      "anonymous": false,
      "inputs": [
        {
          "indexed": false,
          "internalType": "Suave.BidId",
          "name": "bidId",
          "type": "bytes16"
        },
        {
          "indexed": false,
          "internalType": "uint64",
          "name": "decryptionCondition",
          "type": "uint64"
        },
        {
          "indexed": false,
          "internalType": "address[]",
          "name": "allowedPeekers",
          "type": "address[]"
        }
      ],
      "name": "BidEvent",
      "type": "event"
    },
    {
      "inputs": [
        {
          "components": [
            {
              "internalType": "Suave.BidId",
              "name": "id",
              "type": "bytes16"
            },
            {
              "internalType": "Suave.BidId",
              "name": "salt",
              "type": "bytes16"
            },
            {
              "internalType": "uint64",
              "name": "decryptionCondition",
              "type": "uint64"
            },
            {
              "internalType": "address[]",
              "name": "allowedPeekers",
              "type": "address[]"
            },
            {
              "internalType": "address[]",
              "name": "allowedStores",
              "type": "address[]"
            },
            {
              "internalType": "string",
              "name": "version",
              "type": "string"
            }
          ],
          "internalType": "struct Suave.Bid",
          "name": "bid",
          "type": "tuple"
        }
      ],
      "name": "emitBid",
      "outputs": [],
      "stateMutability": "nonpayable",
      "type": "function"
    },
    {
      "inputs": [],
      "name": "fetchBidConfidentialBundleData",
      "outputs": [
        {
          "internalType": "bytes",
          "name": "",
          "type": "bytes"
        }
      ],
      "stateMutability": "nonpayable",
      "type": "function"
    }
  ],
  "bytecode": {
    "object": "0x608060405234801561001057600080fd5b5061049a806100206000396000f3fe608060405234801561001057600080fd5b50600436106100365760003560e01c806392f07a581461003b578063c0b9d28714610059575b600080fd5b61004361006e565b60405161005091906101ff565b60405180910390f35b61006c610067366004610232565b610175565b005b606073__$e374338554c5da70f90c17374827737168$__630e38f3376040518163ffffffff1660e01b8152600401602060405180830381865af41580156100b9573d6000803e3d6000fd5b505050506040513d601f19601f820116820180604052508101906100dd9190610274565b6100e657600080fd5b600073__$e374338554c5da70f90c17374827737168$__6336cb97fd6040518163ffffffff1660e01b8152600401600060405180830381865af4158015610131573d6000803e3d6000fd5b505050506040513d6000823e601f3d908101601f1916820160405261015991908101906102ac565b90508080602001905181019061016f91906102ac565b91505090565b7f83481d5b04dea534715acad673a8177a46fc93882760f36bdc16ccac439d504e6101a36020830183610359565b6101b3606084016040850161038c565b6101c060608501856103b6565b6040516101d09493929190610407565b60405180910390a150565b60005b838110156101f65781810151838201526020016101de565b50506000910152565b602081526000825180602084015261021e8160408501602087016101db565b601f01601f19169190910160400192915050565b60006020828403121561024457600080fd5b813567ffffffffffffffff81111561025b57600080fd5b820160c0818503121561026d57600080fd5b9392505050565b60006020828403121561028657600080fd5b8151801515811461026d57600080fd5b634e487b7160e01b600052604160045260246000fd5b6000602082840312156102be57600080fd5b815167ffffffffffffffff808211156102d657600080fd5b818401915084601f8301126102ea57600080fd5b8151818111156102fc576102fc610296565b604051601f8201601f19908116603f0116810190838211818310171561032457610324610296565b8160405282815287602084870101111561033d57600080fd5b61034e8360208301602088016101db565b979650505050505050565b60006020828403121561036b57600080fd5b81356fffffffffffffffffffffffffffffffff198116811461026d57600080fd5b60006020828403121561039e57600080fd5b813567ffffffffffffffff8116811461026d57600080fd5b6000808335601e198436030181126103cd57600080fd5b83018035915067ffffffffffffffff8211156103e857600080fd5b6020019150600581901b360382131561040057600080fd5b9250929050565b6000606082016fffffffffffffffffffffffffffffffff1987168352602067ffffffffffffffff87168185015260606040850152818583526080850190508692506000805b8781101561047e5784356001600160a01b03811680821461046b578384fd5b845250938301939183019160010161044c565b5090999850505050505050505056fea164736f6c6343000813000a",
    "linkReferences": {
      "sol/libraries/Suave.sol": {
        "Suave": [
          {
            "start": 146,
            "length": 20
          },
          {
            "start": 266,
            "length": 20
          }
        ]
      }
    }
  },
  "methodIdentifiers": {
    "emitBid((bytes16,bytes16,uint64,address[],address[],string))": "c0b9d287",
    "fetchBidConfidentialBundleData()": "92f07a58"
  },
  "id": 18
}