{
  "abi": [
    {
      "inputs": [
        {
          "internalType": "address",
          "name": "",
          "type": "address"
        },
        {
          "internalType": "bytes",
          "name": "",
          "type": "bytes"
        }
      ],
      "name": "PeekerReverted",
      "type": "error"
    },
    {
      "anonymous": false,
      "inputs": [
        {
          "indexed": false,
          "internalType": "Suave.BidId",
          "name": "bidId",
          "type": "bytes16"
        },
        {
          "indexed": false,
          "internalType": "uint64",
          "name": "decryptionCondition",
          "type": "uint64"
        },
        {
          "indexed": false,
          "internalType": "address[]",
          "name": "allowedPeekers",
          "type": "address[]"
        }
      ],
      "name": "BidEvent",
      "type": "event"
    },
    {
      "inputs": [
        {
          "components": [
            {
              "internalType": "Suave.BidId",
              "name": "id",
              "type": "bytes16"
            },
            {
              "internalType": "Suave.BidId",
              "name": "salt",
              "type": "bytes16"
            },
            {
              "internalType": "uint64",
              "name": "decryptionCondition",
              "type": "uint64"
            },
            {
              "internalType": "address[]",
              "name": "allowedPeekers",
              "type": "address[]"
            },
            {
              "internalType": "address[]",
              "name": "allowedStores",
              "type": "address[]"
            },
            {
              "internalType": "string",
              "name": "version",
              "type": "string"
            }
          ],
          "internalType": "struct Suave.Bid",
          "name": "bid",
          "type": "tuple"
        }
      ],
      "name": "emitBid",
      "outputs": [],
      "stateMutability": "nonpayable",
      "type": "function"
    },
    {
      "inputs": [],
      "name": "fetchBidConfidentialBundleData",
      "outputs": [
        {
          "internalType": "bytes",
          "name": "",
          "type": "bytes"
        }
      ],
      "stateMutability": "nonpayable",
      "type": "function"
    }
  ],
  "bytecode": {
    "object": "0x608060405234801561001057600080fd5b5061051f806100206000396000f3fe608060405234801561001057600080fd5b50600436106100365760003560e01c806392f07a581461003b578063c0b9d28714610059575b600080fd5b61004361006e565b604051610050919061027e565b60405180910390f35b61006c610067366004610298565b6100a7565b005b606061007861010d565b61008157600080fd5b600061008b610196565b9050808060200190518101906100a191906102e9565b91505090565b7f83481d5b04dea534715acad673a8177a46fc93882760f36bdc16ccac439d504e6100d56020830183610396565b6100e560608401604085016103c9565b6100f260608501856103f3565b6040516101029493929190610444565b60405180910390a150565b6040516000908190819063420100009082818181855afa9150503d8060008114610153576040519150601f19603f3d011682016040523d82523d6000602084013e610158565b606091505b50915091508161018c576342010000816040516375fff46760e01b81526004016101839291906104ca565b60405180910390fd5b6020015192915050565b6040805160008082526020820192839052606092909182916342010001916101bd916104f6565b600060405180830381855afa9150503d80600081146101f8576040519150601f19603f3d011682016040523d82523d6000602084013e6101fd565b606091505b509150915081610228576342010001816040516375fff46760e01b81526004016101839291906104ca565b92915050565b60005b83811015610249578181015183820152602001610231565b50506000910152565b6000815180845261026a81602086016020860161022e565b601f01601f19169290920160200192915050565b6020815260006102916020830184610252565b9392505050565b6000602082840312156102aa57600080fd5b813567ffffffffffffffff8111156102c157600080fd5b820160c0818503121561029157600080fd5b634e487b7160e01b600052604160045260246000fd5b6000602082840312156102fb57600080fd5b815167ffffffffffffffff8082111561031357600080fd5b818401915084601f83011261032757600080fd5b815181811115610339576103396102d3565b604051601f8201601f19908116603f01168101908382118183101715610361576103616102d3565b8160405282815287602084870101111561037a57600080fd5b61038b83602083016020880161022e565b979650505050505050565b6000602082840312156103a857600080fd5b81356fffffffffffffffffffffffffffffffff198116811461029157600080fd5b6000602082840312156103db57600080fd5b813567ffffffffffffffff8116811461029157600080fd5b6000808335601e1984360301811261040a57600080fd5b83018035915067ffffffffffffffff82111561042557600080fd5b6020019150600581901b360382131561043d57600080fd5b9250929050565b6000606082016fffffffffffffffffffffffffffffffff1987168352602067ffffffffffffffff87168185015260606040850152818583526080850190508692506000805b878110156104bb5784356001600160a01b0381168082146104a8578384fd5b8452509383019391830191600101610489565b50909998505050505050505050565b6001600160a01b03831681526040602082018190526000906104ee90830184610252565b949350505050565b6000825161050881846020870161022e565b919091019291505056fea164736f6c6343000813000a",
    "linkReferences": {}
  },
  "methodIdentifiers": {
    "emitBid((bytes16,bytes16,uint64,address[],address[],string))": "c0b9d287",
    "fetchBidConfidentialBundleData()": "92f07a58"
  },
  "id": 19
}