{
  "abi": [
    {
      "inputs": [
        {
          "internalType": "address",
          "name": "",
          "type": "address"
        },
        {
          "internalType": "bytes",
          "name": "",
          "type": "bytes"
        }
      ],
      "name": "PeekerReverted",
      "type": "error"
    },
    {
      "anonymous": false,
      "inputs": [
        {
          "indexed": false,
          "internalType": "Suave.BidId",
          "name": "bidId",
          "type": "bytes16"
        },
        {
          "indexed": false,
          "internalType": "uint64",
          "name": "decryptionCondition",
          "type": "uint64"
        },
        {
          "indexed": false,
          "internalType": "address[]",
          "name": "allowedPeekers",
          "type": "address[]"
        }
      ],
      "name": "BidEvent",
      "type": "event"
    },
    {
      "inputs": [
        {
          "components": [
            {
              "internalType": "Suave.BidId",
              "name": "id",
              "type": "bytes16"
            },
            {
              "internalType": "Suave.BidId",
              "name": "salt",
              "type": "bytes16"
            },
            {
              "internalType": "uint64",
              "name": "decryptionCondition",
              "type": "uint64"
            },
            {
              "internalType": "address[]",
              "name": "allowedPeekers",
              "type": "address[]"
            },
            {
              "internalType": "address[]",
              "name": "allowedStores",
              "type": "address[]"
            },
            {
              "internalType": "string",
              "name": "version",
              "type": "string"
            }
          ],
          "internalType": "struct Suave.Bid",
          "name": "bid",
          "type": "tuple"
        }
      ],
      "name": "emitBid",
      "outputs": [],
      "stateMutability": "nonpayable",
      "type": "function"
    },
    {
      "inputs": [],
      "name": "fetchBidConfidentialBundleData",
      "outputs": [
        {
          "internalType": "bytes",
          "name": "",
          "type": "bytes"
        }
      ],
      "stateMutability": "nonpayable",
      "type": "function"
    },
    {
      "inputs": [
        {
          "internalType": "uint64",
          "name": "decryptionCondition",
          "type": "uint64"
        },
        {
          "internalType": "address[]",
          "name": "bidAllowedPeekers",
          "type": "address[]"
        },
        {
          "internalType": "address[]",
          "name": "bidAllowedStores",
          "type": "address[]"
        }
      ],
      "name": "newBid",
      "outputs": [
        {
          "internalType": "bytes",
          "name": "",
          "type": "bytes"
        }
      ],
      "stateMutability": "payable",
      "type": "function"
    }
  ],
  "bytecode": {
    "object": "0x608060405234801561001057600080fd5b50610e8f806100206000396000f3fe6080604052600436106100345760003560e01c8063236eb5a71461003957806392f07a5814610062578063c0b9d28714610077575b600080fd5b61004c610047366004610815565b610099565b60405161005991906108da565b60405180910390f35b34801561006e57600080fd5b5061004c610217565b34801561008357600080fd5b506100976100923660046108ed565b610250565b005b60606100a36102b6565b6100ac57600080fd5b6000306001600160a01b03166392f07a586040518163ffffffff1660e01b81526004016000604051808303816000875af11580156100ee573d6000803e3d6000fd5b505050506040513d6000823e601f3d908101601f191682016040526101169190810190610975565b905060006101238261033f565b905060006101608787876040518060400160405280601581526020017464656661756c743a76303a65746842756e646c657360581b815250610404565b905061019e81600001516040518060400160405280601581526020017464656661756c743a76303a65746842756e646c657360581b81525085610501565b8051604080518082018252601e81527f64656661756c743a76303a65746842756e646c6553696d526573756c7473000060208083019190915282516001600160401b038716818301528351808203909201825283019092526102009291610501565b61020a81846105b3565b93505050505b9392505050565b60606102216102b6565b61022a57600080fd5b600061023461064b565b90508080602001905181019061024a9190610975565b91505090565b7f83481d5b04dea534715acad673a8177a46fc93882760f36bdc16ccac439d504e61027e60208301836109dc565b61028e60608401604085016109f9565b61029b6060850185610a16565b6040516102ab9493929190610a66565b60405180910390a150565b6040516000908190819063420100009082818181855afa9150503d80600081146102fc576040519150601f19603f3d011682016040523d82523d6000602084013e610301565b606091505b509150915081610335576342010000816040516375fff46760e01b815260040161032c929190610adb565b60405180910390fd5b6020015192915050565b600080600063421000006001600160a01b03168460405160200161036391906108da565b60408051601f198184030181529082905261037d91610aff565b600060405180830381855afa9150503d80600081146103b8576040519150601f19603f3d011682016040523d82523d6000602084013e6103bd565b606091505b5091509150816103e8576342100000816040516375fff46760e01b815260040161032c929190610adb565b808060200190518101906103fc9190610b2b565b949350505050565b6040805160c0810182526000808252602082018190529181019190915260608082018190526080820181905260a082015260008063420300006001600160a01b03168787878760405160200161045d9493929190610b8c565b60408051601f198184030181529082905261047791610aff565b600060405180830381855afa9150503d80600081146104b2576040519150601f19603f3d011682016040523d82523d6000602084013e6104b7565b606091505b5091509150816104e2576342030000816040516375fff46760e01b815260040161032c929190610adb565b808060200190518101906104f69190610c63565b979650505050505050565b60008063420200006001600160a01b031685858560405160200161052793929190610d4a565b60408051601f198184030181529082905261054191610aff565b600060405180830381855afa9150503d806000811461057c576040519150601f19603f3d011682016040523d82523d6000602084013e610581565b606091505b5091509150816105ac576342020000816040516375fff46760e01b815260040161032c929190610adb565b5050505050565b60607f83481d5b04dea534715acad673a8177a46fc93882760f36bdc16ccac439d504e8360000151846040015185606001516040516105f493929190610d89565b60405180910390a160405163c0b9d28760e01b90610616908590602001610dc4565b60408051601f19818403018152908290526106349291602001610e51565b604051602081830303815290604052905092915050565b60408051600080825260208201928390526060929091829163420100019161067291610aff565b600060405180830381855afa9150503d80600081146106ad576040519150601f19603f3d011682016040523d82523d6000602084013e6106b2565b606091505b5091509150816106dd576342010001816040516375fff46760e01b815260040161032c929190610adb565b92915050565b6001600160401b03811681146106f857600080fd5b50565b634e487b7160e01b600052604160045260246000fd5b60405160c081016001600160401b0381118282101715610733576107336106fb565b60405290565b604051601f8201601f191681016001600160401b0381118282101715610761576107616106fb565b604052919050565b60006001600160401b03821115610782576107826106fb565b5060051b60200190565b6001600160a01b03811681146106f857600080fd5b600082601f8301126107b257600080fd5b813560206107c76107c283610769565b610739565b82815260059290921b840181019181810190868411156107e657600080fd5b8286015b8481101561080a5780356107fd8161078c565b83529183019183016107ea565b509695505050505050565b60008060006060848603121561082a57600080fd5b8335610835816106e3565b925060208401356001600160401b038082111561085157600080fd5b61085d878388016107a1565b9350604086013591508082111561087357600080fd5b50610880868287016107a1565b9150509250925092565b60005b838110156108a557818101518382015260200161088d565b50506000910152565b600081518084526108c681602086016020860161088a565b601f01601f19169290920160200192915050565b60208152600061021060208301846108ae565b6000602082840312156108ff57600080fd5b81356001600160401b0381111561091557600080fd5b820160c0818503121561021057600080fd5b60006001600160401b03831115610940576109406106fb565b610953601f8401601f1916602001610739565b905082815283838301111561096757600080fd5b61021083602083018461088a565b60006020828403121561098757600080fd5b81516001600160401b0381111561099d57600080fd5b8201601f810184136109ae57600080fd5b6103fc84825160208401610927565b6fffffffffffffffffffffffffffffffff19811681146106f857600080fd5b6000602082840312156109ee57600080fd5b8135610210816109bd565b600060208284031215610a0b57600080fd5b8135610210816106e3565b6000808335601e19843603018112610a2d57600080fd5b8301803591506001600160401b03821115610a4757600080fd5b6020019150600581901b3603821315610a5f57600080fd5b9250929050565b6000606082016001600160801b03198716835260206001600160401b03871681850152606060408501528185835260808501905086925060005b86811015610ace578335610ab38161078c565b6001600160a01b031682529282019290820190600101610aa0565b5098975050505050505050565b6001600160a01b03831681526040602082018190526000906103fc908301846108ae565b60008251610b1181846020870161088a565b9190910192915050565b8051610b26816106e3565b919050565b600060208284031215610b3d57600080fd5b8151610210816106e3565b600081518084526020808501945080840160005b83811015610b815781516001600160a01b031687529582019590820190600101610b5c565b509495945050505050565b6001600160401b0385168152608060208201526000610bae6080830186610b48565b8281036040840152610bc08186610b48565b905082810360608401526104f681856108ae565b8051610b26816109bd565b600082601f830112610bf057600080fd5b81516020610c006107c283610769565b82815260059290921b84018101918181019086841115610c1f57600080fd5b8286015b8481101561080a578051610c368161078c565b8352918301918301610c23565b600082601f830112610c5457600080fd5b61021083835160208501610927565b600060208284031215610c7557600080fd5b81516001600160401b0380821115610c8c57600080fd5b9083019060c08286031215610ca057600080fd5b610ca8610711565b610cb183610bd4565b8152610cbf60208401610bd4565b6020820152610cd060408401610b1b565b6040820152606083015182811115610ce757600080fd5b610cf387828601610bdf565b606083015250608083015182811115610d0b57600080fd5b610d1787828601610bdf565b60808301525060a083015182811115610d2f57600080fd5b610d3b87828601610c43565b60a08301525095945050505050565b6001600160801b031984168152606060208201526000610d6d60608301856108ae565b8281036040840152610d7f81856108ae565b9695505050505050565b6001600160801b0319841681526001600160401b0383166020820152606060408201526000610dbb6060830184610b48565b95945050505050565b6020815260006001600160801b0319808451166020840152806020850151166040840152506001600160401b036040840151166060830152606083015160c06080840152610e1560e0840182610b48565b90506080840151601f19808584030160a0860152610e338383610b48565b925060a08601519150808584030160c086015250610dbb82826108ae565b6001600160e01b0319831681528151600090610e7481600485016020870161088a565b91909101600401939250505056fea164736f6c6343000813000a",
    "linkReferences": {}
  },
  "methodIdentifiers": {
    "emitBid((bytes16,bytes16,uint64,address[],address[],string))": "c0b9d287",
    "fetchBidConfidentialBundleData()": "92f07a58",
    "newBid(uint64,address[],address[])": "236eb5a7"
  },
  "id": 19
}