{
  "abi": [
    {
      "inputs": [
        {
          "internalType": "address",
          "name": "",
          "type": "address"
        },
        {
          "internalType": "bytes",
          "name": "",
          "type": "bytes"
        }
      ],
      "name": "PeekerReverted",
      "type": "error"
    },
    {
      "anonymous": false,
      "inputs": [
        {
          "indexed": false,
          "internalType": "Suave.BidId",
          "name": "bidId",
          "type": "bytes16"
        },
        {
          "indexed": false,
          "internalType": "uint64",
          "name": "decryptionCondition",
          "type": "uint64"
        },
        {
          "indexed": false,
          "internalType": "address[]",
          "name": "allowedPeekers",
          "type": "address[]"
        }
      ],
      "name": "BidEvent",
      "type": "event"
    },
    {
      "inputs": [
        {
          "components": [
            {
              "internalType": "Suave.BidId",
              "name": "id",
              "type": "bytes16"
            },
            {
              "internalType": "Suave.BidId",
              "name": "salt",
              "type": "bytes16"
            },
            {
              "internalType": "uint64",
              "name": "decryptionCondition",
              "type": "uint64"
            },
            {
              "internalType": "address[]",
              "name": "allowedPeekers",
              "type": "address[]"
            },
            {
              "internalType": "address[]",
              "name": "allowedStores",
              "type": "address[]"
            },
            {
              "internalType": "string",
              "name": "version",
              "type": "string"
            }
          ],
          "internalType": "struct Suave.Bid",
          "name": "bid",
          "type": "tuple"
        }
      ],
      "name": "emitBid",
      "outputs": [],
      "stateMutability": "nonpayable",
      "type": "function"
    },
    {
      "inputs": [],
      "name": "fetchBidConfidentialBundleData",
      "outputs": [
        {
          "internalType": "bytes",
          "name": "",
          "type": "bytes"
        }
      ],
      "stateMutability": "nonpayable",
      "type": "function"
    },
    {
      "inputs": [
        {
          "internalType": "uint64",
          "name": "decryptionCondition",
          "type": "uint64"
        },
        {
          "internalType": "address[]",
          "name": "bidAllowedPeekers",
          "type": "address[]"
        },
        {
          "internalType": "address[]",
          "name": "bidAllowedStores",
          "type": "address[]"
        }
      ],
      "name": "newBid",
      "outputs": [
        {
          "internalType": "bytes",
          "name": "",
          "type": "bytes"
        }
      ],
      "stateMutability": "payable",
      "type": "function"
    }
  ],
  "bytecode": {
    "object": "0x608060405234801561001057600080fd5b50611175806100206000396000f3fe6080604052600436106100345760003560e01c8063236eb5a71461003957806392f07a5814610062578063c0b9d28714610077575b600080fd5b61004c6100473660046109ce565b610099565b6040516100599190610ab2565b60405180910390f35b34801561006e57600080fd5b5061004c610253565b34801561008357600080fd5b50610097610092366004610ac5565b61028c565b005b60606100a36102f2565b6100ac57600080fd5b60003073ffffffffffffffffffffffffffffffffffffffff166392f07a586040518163ffffffff1660e01b81526004016000604051808303816000875af11580156100fb573d6000803e3d6000fd5b505050506040513d6000823e601f3d9081017fffffffffffffffffffffffffffffffffffffffffffffffffffffffffffffffe01682016040526101419190810190610b6d565b9050600061014e82610394565b905060006101938787876040518060400160405280601581526020017f64656661756c743a76303a65746842756e646c6573000000000000000000000081525061049d565b90506101d981600001516040518060400160405280601581526020017f64656661756c743a76303a65746842756e646c65730000000000000000000000815250856105de565b8051604080518082018252601e81527f64656661756c743a76303a65746842756e646c6553696d526573756c74730000602080830191909152825167ffffffffffffffff87168183015283518082039092018252830190925261023c92916105de565b61024681846106d4565b93505050505b9392505050565b606061025d6102f2565b61026657600080fd5b60006102706107a3565b9050808060200190518101906102869190610b6d565b91505090565b7f83481d5b04dea534715acad673a8177a46fc93882760f36bdc16ccac439d504e6102ba6020830183610be4565b6102ca6060840160408501610c01565b6102d76060850185610c1e565b6040516102e79493929190610c8d565b60405180910390a150565b6040516000908190819063420100009082818181855afa9150503d8060008114610338576040519150601f19603f3d011682016040523d82523d6000602084013e61033d565b606091505b50915091508161038a576342010000816040517f75fff467000000000000000000000000000000000000000000000000000000008152600401610381929190610d28565b60405180910390fd5b6020015192915050565b6000806000634210000073ffffffffffffffffffffffffffffffffffffffff16846040516020016103c59190610ab2565b604080517fffffffffffffffffffffffffffffffffffffffffffffffffffffffffffffffe0818403018152908290526103fd91610d57565b600060405180830381855afa9150503d8060008114610438576040519150601f19603f3d011682016040523d82523d6000602084013e61043d565b606091505b509150915081610481576342100000816040517f75fff467000000000000000000000000000000000000000000000000000000008152600401610381929190610d28565b808060200190518101906104959190610d83565b949350505050565b6040805160c0810182526000808252602082018190529181019190915260608082018190526080820181905260a0820152600080634203000073ffffffffffffffffffffffffffffffffffffffff16878787876040516020016105039493929190610df1565b604080517fffffffffffffffffffffffffffffffffffffffffffffffffffffffffffffffe08184030181529082905261053b91610d57565b600060405180830381855afa9150503d8060008114610576576040519150601f19603f3d011682016040523d82523d6000602084013e61057b565b606091505b5091509150816105bf576342030000816040517f75fff467000000000000000000000000000000000000000000000000000000008152600401610381929190610d28565b808060200190518101906105d39190610ec9565b979650505050505050565b600080634202000073ffffffffffffffffffffffffffffffffffffffff1685858560405160200161061193929190610fb1565b604080517fffffffffffffffffffffffffffffffffffffffffffffffffffffffffffffffe08184030181529082905261064991610d57565b600060405180830381855afa9150503d8060008114610684576040519150601f19603f3d011682016040523d82523d6000602084013e610689565b606091505b5091509150816106cd576342020000816040517f75fff467000000000000000000000000000000000000000000000000000000008152600401610381929190610d28565b5050505050565b60607f83481d5b04dea534715acad673a8177a46fc93882760f36bdc16ccac439d504e83600001518460400151856060015160405161071593929190611008565b60405180910390a16040517fc0b9d287000000000000000000000000000000000000000000000000000000009061075090859060200161105c565b604080517fffffffffffffffffffffffffffffffffffffffffffffffffffffffffffffffe08184030181529082905261078c9291602001611120565b604051602081830303815290604052905092915050565b6040805160008082526020820192839052606092909182916342010001916107ca91610d57565b600060405180830381855afa9150503d8060008114610805576040519150601f19603f3d011682016040523d82523d6000602084013e61080a565b606091505b50915091508161084e576342010001816040517f75fff467000000000000000000000000000000000000000000000000000000008152600401610381929190610d28565b92915050565b67ffffffffffffffff8116811461086a57600080fd5b50565b7f4e487b7100000000000000000000000000000000000000000000000000000000600052604160045260246000fd5b60405160c0810167ffffffffffffffff811182821017156108bf576108bf61086d565b60405290565b604051601f82017fffffffffffffffffffffffffffffffffffffffffffffffffffffffffffffffe016810167ffffffffffffffff8111828210171561090c5761090c61086d565b604052919050565b600067ffffffffffffffff82111561092e5761092e61086d565b5060051b60200190565b73ffffffffffffffffffffffffffffffffffffffff8116811461086a57600080fd5b600082601f83011261096b57600080fd5b8135602061098061097b83610914565b6108c5565b82815260059290921b8401810191818101908684111561099f57600080fd5b8286015b848110156109c35780356109b681610938565b83529183019183016109a3565b509695505050505050565b6000806000606084860312156109e357600080fd5b83356109ee81610854565b9250602084013567ffffffffffffffff80821115610a0b57600080fd5b610a178783880161095a565b93506040860135915080821115610a2d57600080fd5b50610a3a8682870161095a565b9150509250925092565b60005b83811015610a5f578181015183820152602001610a47565b50506000910152565b60008151808452610a80816020860160208601610a44565b601f017fffffffffffffffffffffffffffffffffffffffffffffffffffffffffffffffe0169290920160200192915050565b60208152600061024c6020830184610a68565b600060208284031215610ad757600080fd5b813567ffffffffffffffff811115610aee57600080fd5b820160c0818503121561024c57600080fd5b600067ffffffffffffffff831115610b1a57610b1a61086d565b610b4b60207fffffffffffffffffffffffffffffffffffffffffffffffffffffffffffffffe0601f860116016108c5565b9050828152838383011115610b5f57600080fd5b61024c836020830184610a44565b600060208284031215610b7f57600080fd5b815167ffffffffffffffff811115610b9657600080fd5b8201601f81018413610ba757600080fd5b61049584825160208401610b00565b7fffffffffffffffffffffffffffffffff000000000000000000000000000000008116811461086a57600080fd5b600060208284031215610bf657600080fd5b813561024c81610bb6565b600060208284031215610c1357600080fd5b813561024c81610854565b60008083357fffffffffffffffffffffffffffffffffffffffffffffffffffffffffffffffe1843603018112610c5357600080fd5b83018035915067ffffffffffffffff821115610c6e57600080fd5b6020019150600581901b3603821315610c8657600080fd5b9250929050565b6000606082017fffffffffffffffffffffffffffffffff0000000000000000000000000000000087168352602067ffffffffffffffff871681850152606060408501528185835260808501905086925060005b86811015610d1b578335610cf381610938565b73ffffffffffffffffffffffffffffffffffffffff1682529282019290820190600101610ce0565b5098975050505050505050565b73ffffffffffffffffffffffffffffffffffffffff831681526040602082015260006104956040830184610a68565b60008251610d69818460208701610a44565b9190910192915050565b8051610d7e81610854565b919050565b600060208284031215610d9557600080fd5b815161024c81610854565b600081518084526020808501945080840160005b83811015610de657815173ffffffffffffffffffffffffffffffffffffffff1687529582019590820190600101610db4565b509495945050505050565b67ffffffffffffffff85168152608060208201526000610e146080830186610da0565b8281036040840152610e268186610da0565b905082810360608401526105d38185610a68565b8051610d7e81610bb6565b600082601f830112610e5657600080fd5b81516020610e6661097b83610914565b82815260059290921b84018101918181019086841115610e8557600080fd5b8286015b848110156109c3578051610e9c81610938565b8352918301918301610e89565b600082601f830112610eba57600080fd5b61024c83835160208501610b00565b600060208284031215610edb57600080fd5b815167ffffffffffffffff80821115610ef357600080fd5b9083019060c08286031215610f0757600080fd5b610f0f61089c565b610f1883610e3a565b8152610f2660208401610e3a565b6020820152610f3760408401610d73565b6040820152606083015182811115610f4e57600080fd5b610f5a87828601610e45565b606083015250608083015182811115610f7257600080fd5b610f7e87828601610e45565b60808301525060a083015182811115610f9657600080fd5b610fa287828601610ea9565b60a08301525095945050505050565b7fffffffffffffffffffffffffffffffff0000000000000000000000000000000084168152606060208201526000610fec6060830185610a68565b8281036040840152610ffe8185610a68565b9695505050505050565b7fffffffffffffffffffffffffffffffff000000000000000000000000000000008416815267ffffffffffffffff831660208201526060604082015260006110536060830184610da0565b95945050505050565b6020815260007fffffffffffffffffffffffffffffffff000000000000000000000000000000008084511660208401528060208501511660408401525067ffffffffffffffff6040840151166060830152606083015160c060808401526110c660e0840182610da0565b905060808401517fffffffffffffffffffffffffffffffffffffffffffffffffffffffffffffffe0808584030160a08601526111028383610da0565b925060a08601519150808584030160c0860152506110538282610a68565b7fffffffff00000000000000000000000000000000000000000000000000000000831681526000825161115a816004850160208701610a44565b91909101600401939250505056fea164736f6c6343000813000a"
  }
}