{
  "abi": [
    {
      "inputs": [
        {
          "internalType": "string[]",
          "name": "builderUrls_",
          "type": "string[]"
        }
      ],
      "stateMutability": "nonpayable",
      "type": "constructor"
    },
    {
      "inputs": [
        {
          "internalType": "address",
          "name": "",
          "type": "address"
        },
        {
          "internalType": "bytes",
          "name": "",
          "type": "bytes"
        }
      ],
      "name": "PeekerReverted",
      "type": "error"
    },
    {
      "anonymous": false,
      "inputs": [
        {
          "indexed": false,
          "internalType": "Suave.BidId",
          "name": "bidId",
          "type": "bytes16"
        },
        {
          "indexed": false,
          "internalType": "uint64",
          "name": "decryptionCondition",
          "type": "uint64"
        },
        {
          "indexed": false,
          "internalType": "address[]",
          "name": "allowedPeekers",
          "type": "address[]"
        }
      ],
      "name": "BidEvent",
      "type": "event"
    },
    {
      "inputs": [
        {
          "internalType": "uint256",
          "name": "",
          "type": "uint256"
        }
      ],
      "name": "builderUrls",
      "outputs": [
        {
          "internalType": "string",
          "name": "",
          "type": "string"
        }
      ],
      "stateMutability": "view",
      "type": "function"
    },
    {
      "inputs": [
        {
          "components": [
            {
              "internalType": "Suave.BidId",
              "name": "id",
              "type": "bytes16"
            },
            {
              "internalType": "Suave.BidId",
              "name": "salt",
              "type": "bytes16"
            },
            {
              "internalType": "uint64",
              "name": "decryptionCondition",
              "type": "uint64"
            },
            {
              "internalType": "address[]",
              "name": "allowedPeekers",
              "type": "address[]"
            },
            {
              "internalType": "address[]",
              "name": "allowedStores",
              "type": "address[]"
            },
            {
              "internalType": "string",
              "name": "version",
              "type": "string"
            }
          ],
          "internalType": "struct Suave.Bid",
          "name": "bid",
          "type": "tuple"
        }
      ],
      "name": "emitBid",
      "outputs": [],
      "stateMutability": "nonpayable",
      "type": "function"
    },
    {
      "inputs": [],
      "name": "fetchBidConfidentialBundleData",
      "outputs": [
        {
          "internalType": "bytes",
          "name": "",
          "type": "bytes"
        }
      ],
      "stateMutability": "nonpayable",
      "type": "function"
    },
    {
      "inputs": [
        {
          "internalType": "uint64",
          "name": "decryptionCondition",
          "type": "uint64"
        },
        {
          "internalType": "address[]",
          "name": "bidAllowedPeekers",
          "type": "address[]"
        },
        {
          "internalType": "address[]",
          "name": "bidAllowedStores",
          "type": "address[]"
        }
      ],
      "name": "newBid",
      "outputs": [
        {
          "internalType": "bytes",
          "name": "",
          "type": "bytes"
        }
      ],
      "stateMutability": "payable",
      "type": "function"
    }
  ],
  "bytecode": {
    "object": "0x60806040523480156200001157600080fd5b506040516200161038038062001610833981016040819052620000349162000171565b80516200004990600090602084019062000051565b505062000410565b8280548282559060005260206000209081019282156200009c579160200282015b828111156200009c57825182906200008b908262000344565b509160200191906001019062000072565b50620000aa929150620000ae565b5090565b80821115620000aa576000620000c58282620000cf565b50600101620000ae565b508054620000dd90620002b5565b6000825580601f10620000ee575050565b601f0160209004906000526020600020908101906200010e919062000111565b50565b5b80821115620000aa576000815560010162000112565b634e487b7160e01b600052604160045260246000fd5b604051601f8201601f191681016001600160401b038111828210171562000169576200016962000128565b604052919050565b600060208083850312156200018557600080fd5b82516001600160401b03808211156200019d57600080fd5b8185019150601f8681840112620001b357600080fd5b825182811115620001c857620001c862000128565b8060051b620001d98682016200013e565b918252848101860191868101908a841115620001f457600080fd5b87870192505b83831015620002a757825186811115620002145760008081fd5b8701603f81018c13620002275760008081fd5b88810151878111156200023e576200023e62000128565b62000251818801601f19168b016200013e565b81815260408e81848601011115620002695760008081fd5b60005b8381101562000289578481018201518382018e01528c016200026c565b505060009181018b01919091528352509187019190870190620001fa565b9a9950505050505050505050565b600181811c90821680620002ca57607f821691505b602082108103620002eb57634e487b7160e01b600052602260045260246000fd5b50919050565b601f8211156200033f57600081815260208120601f850160051c810160208610156200031a5750805b601f850160051c820191505b818110156200033b5782815560010162000326565b5050505b505050565b81516001600160401b0381111562000360576200036062000128565b6200037881620003718454620002b5565b84620002f1565b602080601f831160018114620003b05760008415620003975750858301515b600019600386901b1c1916600185901b1785556200033b565b600085815260208120601f198616915b82811015620003e157888601518255948401946001909101908401620003c0565b5085821015620004005787850151600019600388901b60f8161c191681555b5050505050600190811b01905550565b6111f080620004206000396000f3fe60806040526004361061003f5760003560e01c80631141a0b014610044578063236eb5a71461007a57806392f07a581461008d578063c0b9d287146100a2575b600080fd5b34801561005057600080fd5b5061006461005f366004610984565b6100c4565b60405161007191906109ed565b60405180910390f35b610064610088366004610b32565b610170565b34801561009957600080fd5b506100646102ee565b3480156100ae57600080fd5b506100c26100bd366004610ba7565b610327565b005b600081815481106100d457600080fd5b9060005260206000200160009150905080546100ef90610be1565b80601f016020809104026020016040519081016040528092919081815260200182805461011b90610be1565b80156101685780601f1061013d57610100808354040283529160200191610168565b820191906000526020600020905b81548152906001019060200180831161014b57829003601f168201915b505050505081565b606061017a61038d565b61018357600080fd5b6000306001600160a01b03166392f07a586040518163ffffffff1660e01b81526004016000604051808303816000875af11580156101c5573d6000803e3d6000fd5b505050506040513d6000823e601f3d908101601f191682016040526101ed9190810190610c69565b905060006101fa82610416565b905060006102378787876040518060400160405280601581526020017464656661756c743a76303a65746842756e646c657360581b8152506104db565b905061027581600001516040518060400160405280601581526020017464656661756c743a76303a65746842756e646c657360581b815250856105d8565b8051604080518082018252601e81527f64656661756c743a76303a65746842756e646c6553696d526573756c7473000060208083019190915282516001600160401b038716818301528351808203909201825283019092526102d792916105d8565b6102e1818461068a565b93505050505b9392505050565b60606102f861038d565b61030157600080fd5b600061030b61078d565b9050808060200190518101906103219190610c69565b91505090565b7f83481d5b04dea534715acad673a8177a46fc93882760f36bdc16ccac439d504e6103556020830183610cd0565b6103656060840160408501610ced565b6103726060850185610d0a565b6040516103829493929190610d5a565b60405180910390a150565b6040516000908190819063420100009082818181855afa9150503d80600081146103d3576040519150601f19603f3d011682016040523d82523d6000602084013e6103d8565b606091505b50915091508161040c576342010000816040516375fff46760e01b8152600401610403929190610dcf565b60405180910390fd5b6020015192915050565b600080600063421000006001600160a01b03168460405160200161043a91906109ed565b60408051601f198184030181529082905261045491610df3565b600060405180830381855afa9150503d806000811461048f576040519150601f19603f3d011682016040523d82523d6000602084013e610494565b606091505b5091509150816104bf576342100000816040516375fff46760e01b8152600401610403929190610dcf565b808060200190518101906104d39190610e1f565b949350505050565b6040805160c0810182526000808252602082018190529181019190915260608082018190526080820181905260a082015260008063420300006001600160a01b0316878787876040516020016105349493929190610e80565b60408051601f198184030181529082905261054e91610df3565b600060405180830381855afa9150503d8060008114610589576040519150601f19603f3d011682016040523d82523d6000602084013e61058e565b606091505b5091509150816105b9576342030000816040516375fff46760e01b8152600401610403929190610dcf565b808060200190518101906105cd9190610f57565b979650505050505050565b60008063420200006001600160a01b03168585856040516020016105fe9392919061103e565b60408051601f198184030181529082905261061891610df3565b600060405180830381855afa9150503d8060008114610653576040519150601f19603f3d011682016040523d82523d6000602084013e610658565b606091505b509150915081610683576342020000816040516375fff46760e01b8152600401610403929190610dcf565b5050505050565b606060005b6000548110156107825761076f600082815481106106af576106af61107d565b9060005260206000200180546106c490610be1565b80601f01602080910402602001604051908101604052809291908181526020018280546106f090610be1565b801561073d5780601f106107125761010080835404028352916020019161073d565b820191906000526020600020905b81548152906001019060200180831161072057829003601f168201915b50505050506040518060400160405280600e81526020016d6574685f73656e6442756e646c6560901b81525085610825565b508061077a81611093565b91505061068f565b506102e783836108ec565b6040805160008082526020820192839052606092909182916342010001916107b491610df3565b600060405180830381855afa9150503d80600081146107ef576040519150601f19603f3d011682016040523d82523d6000602084013e6107f4565b606091505b50915091508161081f576342010001816040516375fff46760e01b8152600401610403929190610dcf565b92915050565b606061082f61038d565b61083857600080fd5b60008063430000016001600160a01b031686868660405160200161085e939291906110ba565b60408051601f198184030181529082905261087891610df3565b600060405180830381855afa9150503d80600081146108b3576040519150601f19603f3d011682016040523d82523d6000602084013e6108b8565b606091505b5091509150816108e3576343000001816040516375fff46760e01b8152600401610403929190610dcf565b95945050505050565b60607f83481d5b04dea534715acad673a8177a46fc93882760f36bdc16ccac439d504e83600001518460400151856060015160405161092d939291906110f3565b60405180910390a160405163c0b9d28760e01b9061094f908590602001611125565b60408051601f198184030181529082905261096d92916020016111b2565b604051602081830303815290604052905092915050565b60006020828403121561099657600080fd5b5035919050565b60005b838110156109b85781810151838201526020016109a0565b50506000910152565b600081518084526109d981602086016020860161099d565b601f01601f19169290920160200192915050565b6020815260006102e760208301846109c1565b6001600160401b0381168114610a1557600080fd5b50565b634e487b7160e01b600052604160045260246000fd5b60405160c081016001600160401b0381118282101715610a5057610a50610a18565b60405290565b604051601f8201601f191681016001600160401b0381118282101715610a7e57610a7e610a18565b604052919050565b60006001600160401b03821115610a9f57610a9f610a18565b5060051b60200190565b6001600160a01b0381168114610a1557600080fd5b600082601f830112610acf57600080fd5b81356020610ae4610adf83610a86565b610a56565b82815260059290921b84018101918181019086841115610b0357600080fd5b8286015b84811015610b27578035610b1a81610aa9565b8352918301918301610b07565b509695505050505050565b600080600060608486031215610b4757600080fd5b8335610b5281610a00565b925060208401356001600160401b0380821115610b6e57600080fd5b610b7a87838801610abe565b93506040860135915080821115610b9057600080fd5b50610b9d86828701610abe565b9150509250925092565b600060208284031215610bb957600080fd5b81356001600160401b03811115610bcf57600080fd5b820160c081850312156102e757600080fd5b600181811c90821680610bf557607f821691505b602082108103610c1557634e487b7160e01b600052602260045260246000fd5b50919050565b60006001600160401b03831115610c3457610c34610a18565b610c47601f8401601f1916602001610a56565b9050828152838383011115610c5b57600080fd5b6102e783602083018461099d565b600060208284031215610c7b57600080fd5b81516001600160401b03811115610c9157600080fd5b8201601f81018413610ca257600080fd5b6104d384825160208401610c1b565b6fffffffffffffffffffffffffffffffff1981168114610a1557600080fd5b600060208284031215610ce257600080fd5b81356102e781610cb1565b600060208284031215610cff57600080fd5b81356102e781610a00565b6000808335601e19843603018112610d2157600080fd5b8301803591506001600160401b03821115610d3b57600080fd5b6020019150600581901b3603821315610d5357600080fd5b9250929050565b6000606082016001600160801b03198716835260206001600160401b03871681850152606060408501528185835260808501905086925060005b86811015610dc2578335610da781610aa9565b6001600160a01b031682529282019290820190600101610d94565b5098975050505050505050565b6001600160a01b03831681526040602082018190526000906104d3908301846109c1565b60008251610e0581846020870161099d565b9190910192915050565b8051610e1a81610a00565b919050565b600060208284031215610e3157600080fd5b81516102e781610a00565b600081518084526020808501945080840160005b83811015610e755781516001600160a01b031687529582019590820190600101610e50565b509495945050505050565b6001600160401b0385168152608060208201526000610ea26080830186610e3c565b8281036040840152610eb48186610e3c565b905082810360608401526105cd81856109c1565b8051610e1a81610cb1565b600082601f830112610ee457600080fd5b81516020610ef4610adf83610a86565b82815260059290921b84018101918181019086841115610f1357600080fd5b8286015b84811015610b27578051610f2a81610aa9565b8352918301918301610f17565b600082601f830112610f4857600080fd5b6102e783835160208501610c1b565b600060208284031215610f6957600080fd5b81516001600160401b0380821115610f8057600080fd5b9083019060c08286031215610f9457600080fd5b610f9c610a2e565b610fa583610ec8565b8152610fb360208401610ec8565b6020820152610fc460408401610e0f565b6040820152606083015182811115610fdb57600080fd5b610fe787828601610ed3565b606083015250608083015182811115610fff57600080fd5b61100b87828601610ed3565b60808301525060a08301518281111561102357600080fd5b61102f87828601610f37565b60a08301525095945050505050565b6001600160801b03198416815260606020820152600061106160608301856109c1565b828103604084015261107381856109c1565b9695505050505050565b634e487b7160e01b600052603260045260246000fd5b6000600182016110b357634e487b7160e01b600052601160045260246000fd5b5060010190565b6060815260006110cd60608301866109c1565b82810360208401526110df81866109c1565b9050828103604084015261107381856109c1565b6001600160801b0319841681526001600160401b03831660208201526060604082015260006108e36060830184610e3c565b6020815260006001600160801b0319808451166020840152806020850151166040840152506001600160401b036040840151166060830152606083015160c0608084015261117660e0840182610e3c565b90506080840151601f19808584030160a08601526111948383610e3c565b925060a08601519150808584030160c0860152506108e382826109c1565b6001600160e01b03198316815281516000906111d581600485016020870161099d565b91909101600401939250505056fea164736f6c6343000813000a"
  }
}