{
  "abi": [
    {
      "inputs": [
        {
          "internalType": "string",
          "name": "boostRelayUrl_",
          "type": "string"
        }
      ],
      "stateMutability": "nonpayable",
      "type": "constructor"
    },
    {
      "inputs": [
        {
          "internalType": "address",
          "name": "",
          "type": "address"
        },
        {
          "internalType": "bytes",
          "name": "",
          "type": "bytes"
        }
      ],
      "name": "PeekerReverted",
      "type": "error"
    },
    {
      "anonymous": false,
      "inputs": [
        {
          "indexed": false,
          "internalType": "Suave.BidId",
          "name": "bidId",
          "type": "bytes16"
        },
        {
          "indexed": false,
          "internalType": "uint64",
          "name": "decryptionCondition",
          "type": "uint64"
        },
        {
          "indexed": false,
          "internalType": "address[]",
          "name": "allowedPeekers",
          "type": "address[]"
        }
      ],
      "name": "BidEvent",
      "type": "event"
    },
    {
      "anonymous": false,
      "inputs": [
        {
          "indexed": false,
          "internalType": "Suave.BidId",
          "name": "bidId",
          "type": "bytes16"
        },
        {
          "indexed": false,
          "internalType": "bytes",
          "name": "builderBid",
          "type": "bytes"
        }
      ],
      "name": "BuilderBoostBidEvent",
      "type": "event"
    },
    {
      "inputs": [
        {
          "components": [
            {
              "internalType": "uint64",
              "name": "slot",
              "type": "uint64"
            },
            {
              "internalType": "bytes",
              "name": "proposerPubkey",
              "type": "bytes"
            },
            {
              "internalType": "bytes32",
              "name": "parent",
              "type": "bytes32"
            },
            {
              "internalType": "uint64",
              "name": "timestamp",
              "type": "uint64"
            },
            {
              "internalType": "address",
              "name": "feeRecipient",
              "type": "address"
            },
            {
              "internalType": "uint64",
              "name": "gasLimit",
              "type": "uint64"
            },
            {
              "internalType": "bytes32",
              "name": "random",
              "type": "bytes32"
            },
            {
              "components": [
                {
                  "internalType": "uint64",
                  "name": "index",
                  "type": "uint64"
                },
                {
                  "internalType": "uint64",
                  "name": "validator",
                  "type": "uint64"
                },
                {
                  "internalType": "address",
                  "name": "Address",
                  "type": "address"
                },
                {
                  "internalType": "uint64",
                  "name": "amount",
                  "type": "uint64"
                }
              ],
              "internalType": "struct Suave.Withdrawal[]",
              "name": "withdrawals",
              "type": "tuple[]"
            },
            {
              "internalType": "bytes",
              "name": "extra",
              "type": "bytes"
            }
          ],
          "internalType": "struct Suave.BuildBlockArgs",
          "name": "blockArgs",
          "type": "tuple"
        },
        {
          "internalType": "uint64",
          "name": "blockHeight",
          "type": "uint64"
        },
        {
          "internalType": "Suave.BidId[]",
          "name": "bids",
          "type": "bytes16[]"
        },
        {
          "internalType": "string",
          "name": "namespace",
          "type": "string"
        }
      ],
      "name": "buildAndEmit",
      "outputs": [
        {
          "internalType": "bytes",
          "name": "",
          "type": "bytes"
        }
      ],
      "stateMutability": "nonpayable",
      "type": "function"
    },
    {
      "inputs": [
        {
          "components": [
            {
              "internalType": "uint64",
              "name": "slot",
              "type": "uint64"
            },
            {
              "internalType": "bytes",
              "name": "proposerPubkey",
              "type": "bytes"
            },
            {
              "internalType": "bytes32",
              "name": "parent",
              "type": "bytes32"
            },
            {
              "internalType": "uint64",
              "name": "timestamp",
              "type": "uint64"
            },
            {
              "internalType": "address",
              "name": "feeRecipient",
              "type": "address"
            },
            {
              "internalType": "uint64",
              "name": "gasLimit",
              "type": "uint64"
            },
            {
              "internalType": "bytes32",
              "name": "random",
              "type": "bytes32"
            },
            {
              "components": [
                {
                  "internalType": "uint64",
                  "name": "index",
                  "type": "uint64"
                },
                {
                  "internalType": "uint64",
                  "name": "validator",
                  "type": "uint64"
                },
                {
                  "internalType": "address",
                  "name": "Address",
                  "type": "address"
                },
                {
                  "internalType": "uint64",
                  "name": "amount",
                  "type": "uint64"
                }
              ],
              "internalType": "struct Suave.Withdrawal[]",
              "name": "withdrawals",
              "type": "tuple[]"
            },
            {
              "internalType": "bytes",
              "name": "extra",
              "type": "bytes"
            }
          ],
          "internalType": "struct Suave.BuildBlockArgs",
          "name": "blockArgs",
          "type": "tuple"
        },
        {
          "internalType": "uint64",
          "name": "blockHeight",
          "type": "uint64"
        }
      ],
      "name": "buildFromPool",
      "outputs": [
        {
          "internalType": "bytes",
          "name": "",
          "type": "bytes"
        }
      ],
      "stateMutability": "nonpayable",
      "type": "function"
    },
    {
      "inputs": [
        {
          "components": [
            {
              "internalType": "uint64",
              "name": "slot",
              "type": "uint64"
            },
            {
              "internalType": "bytes",
              "name": "proposerPubkey",
              "type": "bytes"
            },
            {
              "internalType": "bytes32",
              "name": "parent",
              "type": "bytes32"
            },
            {
              "internalType": "uint64",
              "name": "timestamp",
              "type": "uint64"
            },
            {
              "internalType": "address",
              "name": "feeRecipient",
              "type": "address"
            },
            {
              "internalType": "uint64",
              "name": "gasLimit",
              "type": "uint64"
            },
            {
              "internalType": "bytes32",
              "name": "random",
              "type": "bytes32"
            },
            {
              "components": [
                {
                  "internalType": "uint64",
                  "name": "index",
                  "type": "uint64"
                },
                {
                  "internalType": "uint64",
                  "name": "validator",
                  "type": "uint64"
                },
                {
                  "internalType": "address",
                  "name": "Address",
                  "type": "address"
                },
                {
                  "internalType": "uint64",
                  "name": "amount",
                  "type": "uint64"
                }
              ],
              "internalType": "struct Suave.Withdrawal[]",
              "name": "withdrawals",
              "type": "tuple[]"
            },
            {
              "internalType": "bytes",
              "name": "extra",
              "type": "bytes"
            }
          ],
          "internalType": "struct Suave.BuildBlockArgs",
          "name": "blockArgs",
          "type": "tuple"
        },
        {
          "internalType": "uint64",
          "name": "blockHeight",
          "type": "uint64"
        }
      ],
      "name": "buildMevShare",
      "outputs": [
        {
          "internalType": "bytes",
          "name": "",
          "type": "bytes"
        }
      ],
      "stateMutability": "nonpayable",
      "type": "function"
    },
    {
      "inputs": [
        {
          "components": [
            {
              "internalType": "uint64",
              "name": "slot",
              "type": "uint64"
            },
            {
              "internalType": "bytes",
              "name": "proposerPubkey",
              "type": "bytes"
            },
            {
              "internalType": "bytes32",
              "name": "parent",
              "type": "bytes32"
            },
            {
              "internalType": "uint64",
              "name": "timestamp",
              "type": "uint64"
            },
            {
              "internalType": "address",
              "name": "feeRecipient",
              "type": "address"
            },
            {
              "internalType": "uint64",
              "name": "gasLimit",
              "type": "uint64"
            },
            {
              "internalType": "bytes32",
              "name": "random",
              "type": "bytes32"
            },
            {
              "components": [
                {
                  "internalType": "uint64",
                  "name": "index",
                  "type": "uint64"
                },
                {
                  "internalType": "uint64",
                  "name": "validator",
                  "type": "uint64"
                },
                {
                  "internalType": "address",
                  "name": "Address",
                  "type": "address"
                },
                {
                  "internalType": "uint64",
                  "name": "amount",
                  "type": "uint64"
                }
              ],
              "internalType": "struct Suave.Withdrawal[]",
              "name": "withdrawals",
              "type": "tuple[]"
            },
            {
              "internalType": "bytes",
              "name": "extra",
              "type": "bytes"
            }
          ],
          "internalType": "struct Suave.BuildBlockArgs",
          "name": "blockArgs",
          "type": "tuple"
        },
        {
          "internalType": "uint64",
          "name": "blockHeight",
          "type": "uint64"
        },
        {
          "internalType": "Suave.BidId[]",
          "name": "bids",
          "type": "bytes16[]"
        },
        {
          "internalType": "string",
          "name": "namespace",
          "type": "string"
        }
      ],
      "name": "doBuild",
      "outputs": [
        {
          "components": [
            {
              "internalType": "Suave.BidId",
              "name": "id",
              "type": "bytes16"
            },
            {
              "internalType": "Suave.BidId",
              "name": "salt",
              "type": "bytes16"
            },
            {
              "internalType": "uint64",
              "name": "decryptionCondition",
              "type": "uint64"
            },
            {
              "internalType": "address[]",
              "name": "allowedPeekers",
              "type": "address[]"
            },
            {
              "internalType": "address[]",
              "name": "allowedStores",
              "type": "address[]"
            },
            {
              "internalType": "string",
              "name": "version",
              "type": "string"
            }
          ],
          "internalType": "struct Suave.Bid",
          "name": "",
          "type": "tuple"
        },
        {
          "internalType": "bytes",
          "name": "",
          "type": "bytes"
        }
      ],
      "stateMutability": "view",
      "type": "function"
    },
    {
      "inputs": [
        {
          "components": [
            {
              "internalType": "Suave.BidId",
              "name": "id",
              "type": "bytes16"
            },
            {
              "internalType": "Suave.BidId",
              "name": "salt",
              "type": "bytes16"
            },
            {
              "internalType": "uint64",
              "name": "decryptionCondition",
              "type": "uint64"
            },
            {
              "internalType": "address[]",
              "name": "allowedPeekers",
              "type": "address[]"
            },
            {
              "internalType": "address[]",
              "name": "allowedStores",
              "type": "address[]"
            },
            {
              "internalType": "string",
              "name": "version",
              "type": "string"
            }
          ],
          "internalType": "struct Suave.Bid",
          "name": "bid",
          "type": "tuple"
        }
      ],
      "name": "emitBid",
      "outputs": [],
      "stateMutability": "nonpayable",
      "type": "function"
    },
    {
      "inputs": [
        {
          "components": [
            {
              "internalType": "Suave.BidId",
              "name": "id",
              "type": "bytes16"
            },
            {
              "internalType": "Suave.BidId",
              "name": "salt",
              "type": "bytes16"
            },
            {
              "internalType": "uint64",
              "name": "decryptionCondition",
              "type": "uint64"
            },
            {
              "internalType": "address[]",
              "name": "allowedPeekers",
              "type": "address[]"
            },
            {
              "internalType": "address[]",
              "name": "allowedStores",
              "type": "address[]"
            },
            {
              "internalType": "string",
              "name": "version",
              "type": "string"
            }
          ],
          "internalType": "struct Suave.Bid",
          "name": "bid",
          "type": "tuple"
        },
        {
          "internalType": "bytes",
          "name": "builderBid",
          "type": "bytes"
        }
      ],
      "name": "emitBuilderBidAndBid",
      "outputs": [
        {
          "components": [
            {
              "internalType": "Suave.BidId",
              "name": "id",
              "type": "bytes16"
            },
            {
              "internalType": "Suave.BidId",
              "name": "salt",
              "type": "bytes16"
            },
            {
              "internalType": "uint64",
              "name": "decryptionCondition",
              "type": "uint64"
            },
            {
              "internalType": "address[]",
              "name": "allowedPeekers",
              "type": "address[]"
            },
            {
              "internalType": "address[]",
              "name": "allowedStores",
              "type": "address[]"
            },
            {
              "internalType": "string",
              "name": "version",
              "type": "string"
            }
          ],
          "internalType": "struct Suave.Bid",
          "name": "",
          "type": "tuple"
        },
        {
          "internalType": "bytes",
          "name": "",
          "type": "bytes"
        }
      ],
      "stateMutability": "nonpayable",
      "type": "function"
    },
    {
      "inputs": [],
      "name": "fetchBidConfidentialBundleData",
      "outputs": [
        {
          "internalType": "bytes",
          "name": "",
          "type": "bytes"
        }
      ],
      "stateMutability": "nonpayable",
      "type": "function"
    },
    {
      "inputs": [
        {
          "internalType": "Suave.BidId",
          "name": "_l",
          "type": "bytes16"
        },
        {
          "internalType": "Suave.BidId",
          "name": "_r",
          "type": "bytes16"
        }
      ],
      "name": "idsEqual",
      "outputs": [
        {
          "internalType": "bool",
          "name": "",
          "type": "bool"
        }
      ],
      "stateMutability": "pure",
      "type": "function"
    },
    {
      "inputs": [
        {
          "internalType": "Suave.BidId",
          "name": "bidId",
          "type": "bytes16"
        },
        {
          "internalType": "bytes",
          "name": "signedBlindedHeader",
          "type": "bytes"
        }
      ],
      "name": "unlock",
      "outputs": [
        {
          "internalType": "bytes",
          "name": "",
          "type": "bytes"
        }
      ],
      "stateMutability": "view",
      "type": "function"
    }
  ],
  "bytecode": {
    "object": "0x60806040523480156200001157600080fd5b5060405162002a4f38038062002a4f833981016040819052620000349162000060565b6000620000428282620001c4565b505062000290565b634e487b7160e01b600052604160045260246000fd5b600060208083850312156200007457600080fd5b82516001600160401b03808211156200008c57600080fd5b818501915085601f830112620000a157600080fd5b815181811115620000b657620000b66200004a565b604051601f8201601f19908116603f01168101908382118183101715620000e157620000e16200004a565b816040528281528886848701011115620000fa57600080fd5b600093505b828410156200011e5784840186015181850187015292850192620000ff565b600086848301015280965050505050505092915050565b600181811c908216806200014a57607f821691505b6020821081036200016b57634e487b7160e01b600052602260045260246000fd5b50919050565b601f821115620001bf57600081815260208120601f850160051c810160208610156200019a5750805b601f850160051c820191505b81811015620001bb57828155600101620001a6565b5050505b505050565b81516001600160401b03811115620001e057620001e06200004a565b620001f881620001f1845462000135565b8462000171565b602080601f831160018114620002305760008415620002175750858301515b600019600386901b1c1916600185901b178555620001bb565b600085815260208120601f198616915b82811015620002615788860151825594840194600190910190840162000240565b5085821015620002805787850151600019600388901b60f8161c191681555b5050505050600190811b01905550565b6127af80620002a06000396000f3fe608060405234801561001057600080fd5b50600436106100935760003560e01c806392f07a581161006657806392f07a5814610108578063b33e471514610110578063c0b9d28714610123578063d503387a14610138578063e829cd5d1461014b57600080fd5b8063232ef1f414610098578063346ab175146100c2578063464b0c3a146100e25780637df1cde2146100f5575b600080fd5b6100ab6100a63660046119de565b61016e565b6040516100b9929190611be6565b60405180910390f35b6100d56100d0366004611c0b565b610304565b6040516100b99190611c5c565b6100d56100f03660046119de565b6106d3565b6100d5610103366004611c76565b61088c565b6100d56108e4565b6100ab61011e366004611d29565b61091d565b610136610131366004611e2b565b6109b8565b005b6100d5610146366004611c0b565b610a1e565b61015e610159366004611e65565b610fe3565b60405190151581526020016100b9565b61017661163e565b6040805160028082526060808301845292600092919060208301908036833701905050905030816000815181106101af576101af611e93565b60200260200101906001600160a01b031690816001600160a01b0316815250506342100001816001815181106101e7576101e7611e93565b60200260200101906001600160a01b031690816001600160a01b03168152505060006102428783846040518060400160405280601581526020017464656661756c743a76303a6d65726765644269647360581b8152506110a7565b905061029f81600001516040518060400160405280601581526020017464656661756c743a76303a6d65726765644269647360581b8152508860405160200161028b9190611ee3565b60405160208183030381529060405261117b565b6000806102b18a84600001518961122d565b915091506102f5836000015160405180604001604052806019815260200178191959985d5b1d0e9d8c0e989d5a5b19195c94185e5b1bd859603a1b8152508361117b565b50909890975095505050505050565b606061030e6112fd565b61031757600080fd5b6000610350836040518060400160405280601581526020017464656661756c743a76303a65746842756e646c657360581b81525061137d565b9050805160000361037f57306040516375fff46760e01b81526004016103769190611ef6565b60405180910390fd5b600081516001600160401b0381111561039a5761039a611672565b6040519080825280602002602001820160405280156103df57816020015b60408051808201909152600080825260208201528152602001906001900390816103b85790505b50905060005b82518110156104dd57600061044c84838151811061040557610405611e93565b6020026020010151600001516040518060400160405280601e81526020017f64656661756c743a76303a65746842756e646c6553696d526573756c74730000815250611445565b90506000818060200190518101906104649190611f34565b90506040518060400160405280826001600160401b0316815260200186858151811061049257610492611e93565b6020026020010151600001516001600160801b0319168152508484815181106104bd576104bd611e93565b6020026020010181905250505080806104d590611f67565b9150506103e5565b50805160005b6104ee600183611f80565b8110156105fb576000610502826001611f93565b90505b828110156105e85783818151811061051f5761051f611e93565b6020026020010151600001516001600160401b031684838151811061054657610546611e93565b6020026020010151600001516001600160401b031610156105d657600084838151811061057557610575611e93565b6020026020010151905084828151811061059157610591611e93565b60200260200101518584815181106105ab576105ab611e93565b6020026020010181905250808583815181106105c9576105c9611e93565b6020026020010181905250505b806105e081611f67565b915050610505565b50806105f381611f67565b9150506104e3565b50600083516001600160401b0381111561061757610617611672565b604051908082528060200260200182016040528015610640578160200160208202803683370190505b50905060005b83518110156106aa5783818151811061066157610661611e93565b60200260200101516020015182828151811061067f5761067f611e93565b6001600160801b031990921660209283029190910190910152806106a281611f67565b915050610646565b506106c6878783604051806020016040528060008152506106d3565b9450505050505b92915050565b60606106dd6112fd565b6106e657600080fd5b6040516308cbbc7d60e21b81526000908190309063232ef1f490610714908a908a908a908a906004016120da565b600060405180830381865afa158015610731573d6000803e3d6000fd5b505050506040513d6000823e601f3d908101601f19168201604052610759919081019061229c565b915091506107f16000805461076d906122f5565b80601f0160208091040260200160405190810160405280929190818152602001828054610799906122f5565b80156107e65780601f106107bb576101008083540402835291602001916107e6565b820191906000526020600020905b8154815290600101906020018083116107c957829003601f168201915b5050505050826114f0565b507f83481d5b04dea534715acad673a8177a46fc93882760f36bdc16ccac439d504e8260000151836040015184606001516040516108319392919061232f565b60405180910390a160405163c0b9d28760e01b90610853908490602001612361565b60408051601f19818403018152908290526108719291602001612374565b60405160208183030381529060405292505050949350505050565b60606108966112fd565b61089f57600080fd5b60006108dc8460405180604001604052806019815260200178191959985d5b1d0e9d8c0e989d5a5b19195c94185e5b1bd859603a1b815250611445565b949350505050565b60606108ee6112fd565b6108f757600080fd5b60006109016115ac565b90508080602001905181019061091791906123a5565b91505090565b61092561163e565b60607f67fa9c16cd72410c4cc1d47205b31852a81ec5e92d1c8cebc3ecbe98ed67fe3f84600001518460405161095c9291906123d9565b60405180910390a17f83481d5b04dea534715acad673a8177a46fc93882760f36bdc16ccac439d504e8460000151856040015186606001516040516109a39392919061232f565b60405180910390a150829050815b9250929050565b7f83481d5b04dea534715acad673a8177a46fc93882760f36bdc16ccac439d504e6109e660208301836123fc565b6109f66060840160408501612419565b610a036060850185612436565b604051610a13949392919061247f565b60405180910390a150565b6060610a286112fd565b610a3157600080fd5b6000610a6a83604051806040016040528060158152602001746d657673686172653a76303a6d617463684269647360581b81525061137d565b90506000610aad846040518060400160405280601c81526020017f6d657673686172653a76303a756e6d61746368656442756e646c65730000000081525061137d565b90508051600003610ad357306040516375fff46760e01b81526004016103769190611ef6565b600081516001600160401b03811115610aee57610aee611672565b604051908082528060200260200182016040528015610b2757816020015b610b1461163e565b815260200190600190039081610b0c5790505b50905060005b8251811015610c7a576000838281518110610b4a57610b4a611e93565b6020026020010151905060005b8551811015610c47576000610bb7878381518110610b7757610b77611e93565b602002602001015160000151604051806040016040528060168152602001756d657673686172653a76303a6d65726765644269647360501b815250611445565b806020019051810190610bca91906124f4565b9050610c0d81600081518110610be257610be2611e93565b6020026020010151878681518110610bfc57610bfc611e93565b602002602001015160000151610fe3565b15610c3457868281518110610c2457610c24611e93565b6020026020010151925050610c47565b5080610c3f81611f67565b915050610b57565b5080838381518110610c5b57610c5b611e93565b6020026020010181905250508080610c7290611f67565b915050610b2d565b50600081516001600160401b03811115610c9657610c96611672565b604051908082528060200260200182016040528015610cdb57816020015b6040805180820190915260008082526020820152815260200190600190039081610cb45790505b50905060005b8251811015610dd9576000610d48848381518110610d0157610d01611e93565b6020026020010151600001516040518060400160405280601f81526020017f6d657673686172653a76303a65746842756e646c6553696d526573756c747300815250611445565b9050600081806020019051810190610d609190611f34565b90506040518060400160405280826001600160401b03168152602001868581518110610d8e57610d8e611e93565b6020026020010151600001516001600160801b031916815250848481518110610db957610db9611e93565b602002602001018190525050508080610dd190611f67565b915050610ce1565b50805160005b610dea600183611f80565b811015610ef7576000610dfe826001611f93565b90505b82811015610ee457838181518110610e1b57610e1b611e93565b6020026020010151600001516001600160401b0316848381518110610e4257610e42611e93565b6020026020010151600001516001600160401b03161015610ed2576000848381518110610e7157610e71611e93565b60200260200101519050848281518110610e8d57610e8d611e93565b6020026020010151858481518110610ea757610ea7611e93565b602002602001018190525080858381518110610ec557610ec5611e93565b6020026020010181905250505b80610edc81611f67565b915050610e01565b5080610eef81611f67565b915050610ddf565b50600083516001600160401b03811115610f1357610f13611672565b604051908082528060200260200182016040528015610f3c578160200160208202803683370190505b50905060005b8351811015610fa657838181518110610f5d57610f5d611e93565b602002602001015160200151828281518110610f7b57610f7b611e93565b6001600160801b03199092166020928302919091019091015280610f9e81611f67565b915050610f42565b50610fd68989836040518060400160405280600b81526020016a06d657673686172653a76360ac1b8152506106d3565b9998505050505050505050565b604080516001600160801b03198481166020830152825160108184030181526030830184529084166050830152825180830384018152606090920190925260009190825b825181101561109b5781818151811061104257611042611e93565b602001015160f81c60f81b6001600160f81b03191683828151811061106957611069611e93565b01602001516001600160f81b0319161461108957600093505050506106cd565b8061109381611f67565b915050611027565b50600195945050505050565b6110af61163e565b60008063420300006001600160a01b0316878787876040516020016110d79493929190612582565b60408051601f19818403018152908290526110f1916125b6565b600060405180830381855afa9150503d806000811461112c576040519150601f19603f3d011682016040523d82523d6000602084013e611131565b606091505b50915091508161115c576342030000816040516375fff46760e01b81526004016103769291906125d2565b8080602001905181019061117091906125f6565b979650505050505050565b60008063420200006001600160a01b03168585856040516020016111a19392919061262a565b60408051601f19818403018152908290526111bb916125b6565b600060405180830381855afa9150503d80600081146111f6576040519150601f19603f3d011682016040523d82523d6000602084013e6111fb565b606091505b509150915081611226576342020000816040516375fff46760e01b81526004016103769291906125d2565b5050505050565b60608060008063421000016001600160a01b03168787876040516020016112569392919061265f565b60408051601f1981840301815290829052611270916125b6565b600060405180830381855afa9150503d80600081146112ab576040519150601f19603f3d011682016040523d82523d6000602084013e6112b0565b606091505b5091509150816112db576342100001816040516375fff46760e01b81526004016103769291906125d2565b808060200190518101906112ef9190612694565b935093505050935093915050565b6040516000908190819063420100009082818181855afa9150503d8060008114611343576040519150601f19603f3d011682016040523d82523d6000602084013e611348565b606091505b509150915081611373576342010000816040516375fff46760e01b81526004016103769291906125d2565b6020015192915050565b606060008063420300016001600160a01b031685856040516020016113a39291906126ca565b60408051601f19818403018152908290526113bd916125b6565b600060405180830381855afa9150503d80600081146113f8576040519150601f19603f3d011682016040523d82523d6000602084013e6113fd565b606091505b509150915081611428576342030001816040516375fff46760e01b81526004016103769291906125d2565b8080602001905181019061143c91906126ec565b95945050505050565b606060008063420200016001600160a01b0316858560405160200161146b9291906123d9565b60408051601f1981840301815290829052611485916125b6565b600060405180830381855afa9150503d80600081146114c0576040519150601f19603f3d011682016040523d82523d6000602084013e6114c5565b606091505b5091509150816108dc576342020001816040516375fff46760e01b81526004016103769291906125d2565b60606114fa6112fd565b61150357600080fd5b60008063421000026001600160a01b0316858560405160200161152792919061278f565b60408051601f1981840301815290829052611541916125b6565b600060405180830381855afa9150503d806000811461157c576040519150601f19603f3d011682016040523d82523d6000602084013e611581565b606091505b5091509150816108dc576342100002816040516375fff46760e01b81526004016103769291906125d2565b6040805160008082526020820192839052606092909182916342010001916115d3916125b6565b600060405180830381855afa9150503d806000811461160e576040519150601f19603f3d011682016040523d82523d6000602084013e611613565b606091505b5091509150816106cd576342010001816040516375fff46760e01b81526004016103769291906125d2565b6040805160c0810182526000808252602082018190529181019190915260608082018190526080820181905260a082015290565b634e487b7160e01b600052604160045260246000fd5b604051608081016001600160401b03811182821017156116aa576116aa611672565b60405290565b60405161012081016001600160401b03811182821017156116aa576116aa611672565b60405160c081016001600160401b03811182821017156116aa576116aa611672565b604051601f8201601f191681016001600160401b038111828210171561171d5761171d611672565b604052919050565b6001600160401b038116811461173a57600080fd5b50565b803561174881611725565b919050565b60006001600160401b0382111561176657611766611672565b50601f01601f191660200190565b600082601f83011261178557600080fd5b81356117986117938261174d565b6116f5565b8181528460208386010111156117ad57600080fd5b816020850160208301376000918101602001919091529392505050565b6001600160a01b038116811461173a57600080fd5b8035611748816117ca565b60006001600160401b0382111561180357611803611672565b5060051b60200190565b600082601f83011261181e57600080fd5b8135602061182e611793836117ea565b82815260079290921b8401810191818101908684111561184d57600080fd5b8286015b848110156118c4576080818903121561186a5760008081fd5b611872611688565b813561187d81611725565b81528185013561188c81611725565b8186015260408281013561189f816117ca565b908201526060828101356118b281611725565b90820152835291830191608001611851565b509695505050505050565b600061012082840312156118e257600080fd5b6118ea6116b0565b90506118f58261173d565b815260208201356001600160401b038082111561191157600080fd5b61191d85838601611774565b6020840152604084013560408401526119386060850161173d565b6060840152611949608085016117df565b608084015261195a60a0850161173d565b60a084015260c084013560c084015260e084013591508082111561197d57600080fd5b6119898583860161180d565b60e0840152610100915081840135818111156119a457600080fd5b6119b086828701611774565b8385015250505092915050565b6001600160801b03198116811461173a57600080fd5b8035611748816119bd565b600080600080608085870312156119f457600080fd5b84356001600160401b0380821115611a0b57600080fd5b611a17888389016118cf565b95506020915081870135611a2a81611725565b9450604087013581811115611a3e57600080fd5b8701601f81018913611a4f57600080fd5b8035611a5d611793826117ea565b81815260059190911b8201840190848101908b831115611a7c57600080fd5b928501925b82841015611aa3578335611a94816119bd565b82529285019290850190611a81565b96505050506060870135915080821115611abc57600080fd5b50611ac987828801611774565b91505092959194509250565b600081518084526020808501945080840160005b83811015611b0e5781516001600160a01b031687529582019590820190600101611ae9565b509495945050505050565b60005b83811015611b34578181015183820152602001611b1c565b50506000910152565b60008151808452611b55816020860160208601611b19565b601f01601f19169290920160200192915050565b60006001600160801b0319808351168452806020840151166020850152506001600160401b036040830151166040840152606082015160c06060850152611bb360c0850182611ad5565b905060808301518482036080860152611bcc8282611ad5565b91505060a083015184820360a086015261143c8282611b3d565b604081526000611bf96040830185611b69565b828103602084015261143c8185611b3d565b60008060408385031215611c1e57600080fd5b82356001600160401b03811115611c3457600080fd5b611c40858286016118cf565b9250506020830135611c5181611725565b809150509250929050565b602081526000611c6f6020830184611b3d565b9392505050565b60008060408385031215611c8957600080fd5b8235611c94816119bd565b915060208301356001600160401b03811115611caf57600080fd5b611cbb85828601611774565b9150509250929050565b600082601f830112611cd657600080fd5b81356020611ce6611793836117ea565b82815260059290921b84018101918181019086841115611d0557600080fd5b8286015b848110156118c4578035611d1c816117ca565b8352918301918301611d09565b60008060408385031215611d3c57600080fd5b82356001600160401b0380821115611d5357600080fd5b9084019060c08287031215611d6757600080fd5b611d6f6116d3565b611d78836119d3565b8152611d86602084016119d3565b6020820152611d976040840161173d565b6040820152606083013582811115611dae57600080fd5b611dba88828601611cc5565b606083015250608083013582811115611dd257600080fd5b611dde88828601611cc5565b60808301525060a083013582811115611df657600080fd5b611e0288828601611774565b60a08301525093506020850135915080821115611e1e57600080fd5b50611cbb85828601611774565b600060208284031215611e3d57600080fd5b81356001600160401b03811115611e5357600080fd5b820160c08185031215611c6f57600080fd5b60008060408385031215611e7857600080fd5b8235611e83816119bd565b91506020830135611c51816119bd565b634e487b7160e01b600052603260045260246000fd5b600081518084526020808501945080840160005b83811015611b0e5781516001600160801b03191687529582019590820190600101611ebd565b602081526000611c6f6020830184611ea9565b6001600160a01b03919091168152604060208201819052600790820152666e6f206269647360c81b606082015260800190565b805161174881611725565b600060208284031215611f4657600080fd5b8151611c6f81611725565b634e487b7160e01b600052601160045260246000fd5b600060018201611f7957611f79611f51565b5060010190565b818103818111156106cd576106cd611f51565b808201808211156106cd576106cd611f51565b600081518084526020808501945080840160005b83811015611b0e57815180516001600160401b039081168952848201518116858a01526040808301516001600160a01b0316908a0152606091820151169088015260809096019590820190600101611fba565b80516001600160401b031682526000610120602083015181602086015261203682860182611b3d565b91505060408301516040850152606083015161205d60608601826001600160401b03169052565b50608083015161207860808601826001600160a01b03169052565b5060a083015161209360a08601826001600160401b03169052565b5060c083015160c085015260e083015184820360e08601526120b58282611fa6565b91505061010080840151858303828701526120d08382611b3d565b9695505050505050565b6080815260006120ed608083018761200d565b6001600160401b0386166020840152828103604084015261210e8186611ea9565b905082810360608401526111708185611b3d565b8051611748816119bd565b600082601f83011261213e57600080fd5b8151602061214e611793836117ea565b82815260059290921b8401810191818101908684111561216d57600080fd5b8286015b848110156118c4578051612184816117ca565b8352918301918301612171565b600082601f8301126121a257600080fd5b81516121b06117938261174d565b8181528460208386010111156121c557600080fd5b6108dc826020830160208701611b19565b600060c082840312156121e857600080fd5b6121f06116d3565b90506121fb82612122565b815261220960208301612122565b602082015261221a60408301611f29565b604082015260608201516001600160401b038082111561223957600080fd5b6122458583860161212d565b6060840152608084015191508082111561225e57600080fd5b61226a8583860161212d565b608084015260a084015191508082111561228357600080fd5b5061229084828501612191565b60a08301525092915050565b600080604083850312156122af57600080fd5b82516001600160401b03808211156122c657600080fd5b6122d2868387016121d6565b935060208501519150808211156122e857600080fd5b50611cbb85828601612191565b600181811c9082168061230957607f821691505b60208210810361232957634e487b7160e01b600052602260045260246000fd5b50919050565b6001600160801b0319841681526001600160401b038316602082015260606040820152600061143c6060830184611ad5565b602081526000611c6f6020830184611b69565b6001600160e01b0319831681528151600090612397816004850160208701611b19565b919091016004019392505050565b6000602082840312156123b757600080fd5b81516001600160401b038111156123cd57600080fd5b6108dc84828501612191565b6001600160801b0319831681526040602082015260006108dc6040830184611b3d565b60006020828403121561240e57600080fd5b8135611c6f816119bd565b60006020828403121561242b57600080fd5b8135611c6f81611725565b6000808335601e1984360301811261244d57600080fd5b8301803591506001600160401b0382111561246757600080fd5b6020019150600581901b36038213156109b157600080fd5b6000606082016001600160801b03198716835260206001600160401b03871681850152606060408501528185835260808501905086925060005b868110156124e75783356124cc816117ca565b6001600160a01b0316825292820192908201906001016124b9565b5098975050505050505050565b6000602080838503121561250757600080fd5b82516001600160401b0381111561251d57600080fd5b8301601f8101851361252e57600080fd5b805161253c611793826117ea565b81815260059190911b8201830190838101908783111561255b57600080fd5b928401925b82841015611170578351612573816119bd565b82529284019290840190612560565b6001600160401b03851681526080602082015260006125a46080830186611ad5565b828103604084015261210e8186611ad5565b600082516125c8818460208701611b19565b9190910192915050565b6001600160a01b03831681526040602082018190526000906108dc90830184611b3d565b60006020828403121561260857600080fd5b81516001600160401b0381111561261e57600080fd5b6108dc848285016121d6565b6001600160801b03198416815260606020820152600061264d6060830185611b3d565b82810360408401526120d08185611b3d565b606081526000612672606083018661200d565b6001600160801b03198516602084015282810360408401526120d08185611b3d565b600080604083850312156126a757600080fd5b82516001600160401b03808211156126be57600080fd5b6122d286838701612191565b6001600160401b03831681526040602082015260006108dc6040830184611b3d565b600060208083850312156126ff57600080fd5b82516001600160401b038082111561271657600080fd5b818501915085601f83011261272a57600080fd5b8151612738611793826117ea565b81815260059190911b8301840190848101908883111561275757600080fd5b8585015b838110156124e7578051858111156127735760008081fd5b6127818b89838a01016121d6565b84525091860191860161275b565b604081526000611bf96040830185611b3d56fea164736f6c6343000813000a"
  }
}