{
  "abi": [
    {
      "inputs": [
        {
          "internalType": "string",
          "name": "boostRelayUrl_",
          "type": "string"
        }
      ],
      "stateMutability": "nonpayable",
      "type": "constructor"
    },
    {
      "inputs": [
        {
          "internalType": "address",
          "name": "",
          "type": "address"
        },
        {
          "internalType": "bytes",
          "name": "",
          "type": "bytes"
        }
      ],
      "name": "PeekerReverted",
      "type": "error"
    },
    {
      "anonymous": false,
      "inputs": [
        {
          "indexed": false,
          "internalType": "Suave.BidId",
          "name": "bidId",
          "type": "bytes16"
        },
        {
          "indexed": false,
          "internalType": "uint64",
          "name": "decryptionCondition",
          "type": "uint64"
        },
        {
          "indexed": false,
          "internalType": "address[]",
          "name": "allowedPeekers",
          "type": "address[]"
        }
      ],
      "name": "BidEvent",
      "type": "event"
    },
    {
      "anonymous": false,
      "inputs": [
        {
          "indexed": false,
          "internalType": "Suave.BidId",
          "name": "bidId",
          "type": "bytes16"
        },
        {
          "indexed": false,
          "internalType": "bytes",
          "name": "builderBid",
          "type": "bytes"
        }
      ],
      "name": "BuilderBoostBidEvent",
      "type": "event"
    },
    {
      "inputs": [
        {
          "components": [
            {
              "internalType": "uint64",
              "name": "slot",
              "type": "uint64"
            },
            {
              "internalType": "bytes",
              "name": "proposerPubkey",
              "type": "bytes"
            },
            {
              "internalType": "bytes32",
              "name": "parent",
              "type": "bytes32"
            },
            {
              "internalType": "uint64",
              "name": "timestamp",
              "type": "uint64"
            },
            {
              "internalType": "address",
              "name": "feeRecipient",
              "type": "address"
            },
            {
              "internalType": "uint64",
              "name": "gasLimit",
              "type": "uint64"
            },
            {
              "internalType": "bytes32",
              "name": "random",
              "type": "bytes32"
            },
            {
              "components": [
                {
                  "internalType": "uint64",
                  "name": "index",
                  "type": "uint64"
                },
                {
                  "internalType": "uint64",
                  "name": "validator",
                  "type": "uint64"
                },
                {
                  "internalType": "address",
                  "name": "Address",
                  "type": "address"
                },
                {
                  "internalType": "uint64",
                  "name": "amount",
                  "type": "uint64"
                }
              ],
              "internalType": "struct Suave.Withdrawal[]",
              "name": "withdrawals",
              "type": "tuple[]"
            }
          ],
          "internalType": "struct Suave.BuildBlockArgs",
          "name": "blockArgs",
          "type": "tuple"
        },
        {
          "internalType": "uint64",
          "name": "blockHeight",
          "type": "uint64"
        },
        {
          "internalType": "Suave.BidId[]",
          "name": "bids",
          "type": "bytes16[]"
        },
        {
          "internalType": "string",
          "name": "namespace",
          "type": "string"
        }
      ],
      "name": "buildAndEmit",
      "outputs": [
        {
          "internalType": "bytes",
          "name": "",
          "type": "bytes"
        }
      ],
      "stateMutability": "nonpayable",
      "type": "function"
    },
    {
      "inputs": [
        {
          "components": [
            {
              "internalType": "uint64",
              "name": "slot",
              "type": "uint64"
            },
            {
              "internalType": "bytes",
              "name": "proposerPubkey",
              "type": "bytes"
            },
            {
              "internalType": "bytes32",
              "name": "parent",
              "type": "bytes32"
            },
            {
              "internalType": "uint64",
              "name": "timestamp",
              "type": "uint64"
            },
            {
              "internalType": "address",
              "name": "feeRecipient",
              "type": "address"
            },
            {
              "internalType": "uint64",
              "name": "gasLimit",
              "type": "uint64"
            },
            {
              "internalType": "bytes32",
              "name": "random",
              "type": "bytes32"
            },
            {
              "components": [
                {
                  "internalType": "uint64",
                  "name": "index",
                  "type": "uint64"
                },
                {
                  "internalType": "uint64",
                  "name": "validator",
                  "type": "uint64"
                },
                {
                  "internalType": "address",
                  "name": "Address",
                  "type": "address"
                },
                {
                  "internalType": "uint64",
                  "name": "amount",
                  "type": "uint64"
                }
              ],
              "internalType": "struct Suave.Withdrawal[]",
              "name": "withdrawals",
              "type": "tuple[]"
            }
          ],
          "internalType": "struct Suave.BuildBlockArgs",
          "name": "blockArgs",
          "type": "tuple"
        },
        {
          "internalType": "uint64",
          "name": "blockHeight",
          "type": "uint64"
        }
      ],
      "name": "buildFromPool",
      "outputs": [
        {
          "internalType": "bytes",
          "name": "",
          "type": "bytes"
        }
      ],
      "stateMutability": "nonpayable",
      "type": "function"
    },
    {
      "inputs": [
        {
          "components": [
            {
              "internalType": "uint64",
              "name": "slot",
              "type": "uint64"
            },
            {
              "internalType": "bytes",
              "name": "proposerPubkey",
              "type": "bytes"
            },
            {
              "internalType": "bytes32",
              "name": "parent",
              "type": "bytes32"
            },
            {
              "internalType": "uint64",
              "name": "timestamp",
              "type": "uint64"
            },
            {
              "internalType": "address",
              "name": "feeRecipient",
              "type": "address"
            },
            {
              "internalType": "uint64",
              "name": "gasLimit",
              "type": "uint64"
            },
            {
              "internalType": "bytes32",
              "name": "random",
              "type": "bytes32"
            },
            {
              "components": [
                {
                  "internalType": "uint64",
                  "name": "index",
                  "type": "uint64"
                },
                {
                  "internalType": "uint64",
                  "name": "validator",
                  "type": "uint64"
                },
                {
                  "internalType": "address",
                  "name": "Address",
                  "type": "address"
                },
                {
                  "internalType": "uint64",
                  "name": "amount",
                  "type": "uint64"
                }
              ],
              "internalType": "struct Suave.Withdrawal[]",
              "name": "withdrawals",
              "type": "tuple[]"
            }
          ],
          "internalType": "struct Suave.BuildBlockArgs",
          "name": "blockArgs",
          "type": "tuple"
        },
        {
          "internalType": "uint64",
          "name": "blockHeight",
          "type": "uint64"
        }
      ],
      "name": "buildMevShare",
      "outputs": [
        {
          "internalType": "bytes",
          "name": "",
          "type": "bytes"
        }
      ],
      "stateMutability": "nonpayable",
      "type": "function"
    },
    {
      "inputs": [
        {
          "components": [
            {
              "internalType": "uint64",
              "name": "slot",
              "type": "uint64"
            },
            {
              "internalType": "bytes",
              "name": "proposerPubkey",
              "type": "bytes"
            },
            {
              "internalType": "bytes32",
              "name": "parent",
              "type": "bytes32"
            },
            {
              "internalType": "uint64",
              "name": "timestamp",
              "type": "uint64"
            },
            {
              "internalType": "address",
              "name": "feeRecipient",
              "type": "address"
            },
            {
              "internalType": "uint64",
              "name": "gasLimit",
              "type": "uint64"
            },
            {
              "internalType": "bytes32",
              "name": "random",
              "type": "bytes32"
            },
            {
              "components": [
                {
                  "internalType": "uint64",
                  "name": "index",
                  "type": "uint64"
                },
                {
                  "internalType": "uint64",
                  "name": "validator",
                  "type": "uint64"
                },
                {
                  "internalType": "address",
                  "name": "Address",
                  "type": "address"
                },
                {
                  "internalType": "uint64",
                  "name": "amount",
                  "type": "uint64"
                }
              ],
              "internalType": "struct Suave.Withdrawal[]",
              "name": "withdrawals",
              "type": "tuple[]"
            }
          ],
          "internalType": "struct Suave.BuildBlockArgs",
          "name": "blockArgs",
          "type": "tuple"
        },
        {
          "internalType": "uint64",
          "name": "blockHeight",
          "type": "uint64"
        },
        {
          "internalType": "Suave.BidId[]",
          "name": "bids",
          "type": "bytes16[]"
        },
        {
          "internalType": "string",
          "name": "namespace",
          "type": "string"
        }
      ],
      "name": "doBuild",
      "outputs": [
        {
          "components": [
            {
              "internalType": "Suave.BidId",
              "name": "id",
              "type": "bytes16"
            },
            {
              "internalType": "Suave.BidId",
              "name": "salt",
              "type": "bytes16"
            },
            {
              "internalType": "uint64",
              "name": "decryptionCondition",
              "type": "uint64"
            },
            {
              "internalType": "address[]",
              "name": "allowedPeekers",
              "type": "address[]"
            },
            {
              "internalType": "address[]",
              "name": "allowedStores",
              "type": "address[]"
            },
            {
              "internalType": "string",
              "name": "version",
              "type": "string"
            }
          ],
          "internalType": "struct Suave.Bid",
          "name": "",
          "type": "tuple"
        },
        {
          "internalType": "bytes",
          "name": "",
          "type": "bytes"
        }
      ],
      "stateMutability": "view",
      "type": "function"
    },
    {
      "inputs": [
        {
          "components": [
            {
              "internalType": "Suave.BidId",
              "name": "id",
              "type": "bytes16"
            },
            {
              "internalType": "Suave.BidId",
              "name": "salt",
              "type": "bytes16"
            },
            {
              "internalType": "uint64",
              "name": "decryptionCondition",
              "type": "uint64"
            },
            {
              "internalType": "address[]",
              "name": "allowedPeekers",
              "type": "address[]"
            },
            {
              "internalType": "address[]",
              "name": "allowedStores",
              "type": "address[]"
            },
            {
              "internalType": "string",
              "name": "version",
              "type": "string"
            }
          ],
          "internalType": "struct Suave.Bid",
          "name": "bid",
          "type": "tuple"
        }
      ],
      "name": "emitBid",
      "outputs": [],
      "stateMutability": "nonpayable",
      "type": "function"
    },
    {
      "inputs": [
        {
          "components": [
            {
              "internalType": "Suave.BidId",
              "name": "id",
              "type": "bytes16"
            },
            {
              "internalType": "Suave.BidId",
              "name": "salt",
              "type": "bytes16"
            },
            {
              "internalType": "uint64",
              "name": "decryptionCondition",
              "type": "uint64"
            },
            {
              "internalType": "address[]",
              "name": "allowedPeekers",
              "type": "address[]"
            },
            {
              "internalType": "address[]",
              "name": "allowedStores",
              "type": "address[]"
            },
            {
              "internalType": "string",
              "name": "version",
              "type": "string"
            }
          ],
          "internalType": "struct Suave.Bid",
          "name": "bid",
          "type": "tuple"
        },
        {
          "internalType": "bytes",
          "name": "builderBid",
          "type": "bytes"
        }
      ],
      "name": "emitBuilderBidAndBid",
      "outputs": [
        {
          "components": [
            {
              "internalType": "Suave.BidId",
              "name": "id",
              "type": "bytes16"
            },
            {
              "internalType": "Suave.BidId",
              "name": "salt",
              "type": "bytes16"
            },
            {
              "internalType": "uint64",
              "name": "decryptionCondition",
              "type": "uint64"
            },
            {
              "internalType": "address[]",
              "name": "allowedPeekers",
              "type": "address[]"
            },
            {
              "internalType": "address[]",
              "name": "allowedStores",
              "type": "address[]"
            },
            {
              "internalType": "string",
              "name": "version",
              "type": "string"
            }
          ],
          "internalType": "struct Suave.Bid",
          "name": "",
          "type": "tuple"
        },
        {
          "internalType": "bytes",
          "name": "",
          "type": "bytes"
        }
      ],
      "stateMutability": "nonpayable",
      "type": "function"
    },
    {
      "inputs": [],
      "name": "fetchBidConfidentialBundleData",
      "outputs": [
        {
          "internalType": "bytes",
          "name": "",
          "type": "bytes"
        }
      ],
      "stateMutability": "nonpayable",
      "type": "function"
    },
    {
      "inputs": [
        {
          "internalType": "Suave.BidId",
          "name": "_l",
          "type": "bytes16"
        },
        {
          "internalType": "Suave.BidId",
          "name": "_r",
          "type": "bytes16"
        }
      ],
      "name": "idsEqual",
      "outputs": [
        {
          "internalType": "bool",
          "name": "",
          "type": "bool"
        }
      ],
      "stateMutability": "pure",
      "type": "function"
    },
    {
      "inputs": [
        {
          "internalType": "Suave.BidId",
          "name": "bidId",
          "type": "bytes16"
        },
        {
          "internalType": "bytes",
          "name": "signedBlindedHeader",
          "type": "bytes"
        }
      ],
      "name": "unlock",
      "outputs": [
        {
          "internalType": "bytes",
          "name": "",
          "type": "bytes"
        }
      ],
      "stateMutability": "view",
      "type": "function"
    }
  ],
  "bytecode": {
    "object": "0x60806040523480156200001157600080fd5b5060405162002b6338038062002b63833981016040819052620000349162000060565b6000620000428282620001c4565b505062000290565b634e487b7160e01b600052604160045260246000fd5b600060208083850312156200007457600080fd5b82516001600160401b03808211156200008c57600080fd5b818501915085601f830112620000a157600080fd5b815181811115620000b657620000b66200004a565b604051601f8201601f19908116603f01168101908382118183101715620000e157620000e16200004a565b816040528281528886848701011115620000fa57600080fd5b600093505b828410156200011e5784840186015181850187015292850192620000ff565b600086848301015280965050505050505092915050565b600181811c908216806200014a57607f821691505b6020821081036200016b57634e487b7160e01b600052602260045260246000fd5b50919050565b601f821115620001bf57600081815260208120601f850160051c810160208610156200019a5750805b601f850160051c820191505b81811015620001bb57828155600101620001a6565b5050505b505050565b81516001600160401b03811115620001e057620001e06200004a565b620001f881620001f1845462000135565b8462000171565b602080601f831160018114620002305760008415620002175750858301515b600019600386901b1c1916600185901b178555620001bb565b600085815260208120601f198616915b82811015620002615788860151825594840194600190910190840162000240565b5085821015620002805787850151600019600388901b60f8161c191681555b5050505050600190811b01905550565b6128c380620002a06000396000f3fe608060405234801561001057600080fd5b50600436106100935760003560e01c8063b33e471511610066578063b33e4715146100ef578063c0b9d28714610110578063c2eceb1114610125578063e829cd5d14610138578063ebb89de41461015b57600080fd5b80634c8820f81461009857806354dfbd39146100c15780637df1cde2146100d457806392f07a58146100e7575b600080fd5b6100ab6100a6366004611a0b565b61016e565b6040516100b89190611b52565b60405180910390f35b6100ab6100cf366004611b6c565b61036d565b6100ab6100e2366004611bbd565b610b74565b6100ab610c68565b6101026100fd366004611c70565b610d6d565b6040516100b8929190611e3c565b61012361011e366004611e61565b610e08565b005b610102610133366004611a0b565b610e6e565b61014b610146366004611e9b565b6110bd565b60405190151581526020016100b8565b6100ab610169366004611b6c565b611181565b60606342100002601160981b016001600160a01b0316630e38f3376040518163ffffffff1660e01b8152600401602060405180830381865afa1580156101b8573d6000803e3d6000fd5b505050506040513d601f19601f820116820180604052508101906101dc9190611ec9565b6101e557600080fd5b60405163c2eceb1160e01b81526000908190309063c2eceb1190610213908a908a908a908a9060040161201e565b600060405180830381865afa158015610230573d6000803e3d6000fd5b505050506040513d6000823e601f3d908101601f1916820160405261025891908101906121eb565b604051631bd2b43560e11b815291935091506342100002601160981b01906337a5686a9061028d906000908590600401612244565b600060405180830381865afa1580156102aa573d6000803e3d6000fd5b505050506040513d6000823e601f3d908101601f191682016040526102d291908101906122fb565b507f83481d5b04dea534715acad673a8177a46fc93882760f36bdc16ccac439d504e8260000151836040015184606001516040516103129392919061232f565b60405180910390a160405163c0b9d28760e01b90610334908490602001612361565b60408051601f19818403018152908290526103529291602001612374565b60405160208183030381529060405292505050949350505050565b60606342100002601160981b016001600160a01b0316630e38f3376040518163ffffffff1660e01b8152600401602060405180830381865afa1580156103b7573d6000803e3d6000fd5b505050506040513d601f19601f820116820180604052508101906103db9190611ec9565b6103e457600080fd5b60408051632cb05c5360e21b81526001600160401b0384166004820152602481019190915260156044820152746d657673686172653a76303a6d617463684269647360581b60648201526000906342100002601160981b019063b2c1714c90608401600060405180830381865afa158015610463573d6000803e3d6000fd5b505050506040513d6000823e601f3d908101601f1916820160405261048b91908101906123a5565b60408051632cb05c5360e21b81526001600160401b03861660048201526024810191909152601c60448201527f6d657673686172653a76303a756e6d61746368656442756e646c65730000000060648201529091506000906342100002601160981b019063b2c1714c90608401600060405180830381865afa158015610515573d6000803e3d6000fd5b505050506040513d6000823e601f3d908101601f1916820160405261053d91908101906123a5565b9050805160000361056c57306040516375fff46760e01b81526004016105639190612455565b60405180910390fd5b600081516001600160401b03811115610587576105876116c6565b6040519080825280602002602001820160405280156105c057816020015b6105ad611692565b8152602001906001900390816105a55790505b50905060005b825181101561078e5760008382815181106105e3576105e3612488565b6020026020010151905060005b855181101561075b5760006342100002601160981b016001600160a01b031663ae9a604088848151811061062657610626612488565b602090810291909101015151604080516001600160e01b031960e085901b1681526001600160801b03199092166004830152602482015260166044820152756d657673686172653a76303a6d65726765644269647360501b6064820152608401600060405180830381865afa1580156106a3573d6000803e3d6000fd5b505050506040513d6000823e601f3d908101601f191682016040526106cb91908101906122fb565b8060200190518101906106de919061249e565b9050610721816000815181106106f6576106f6612488565b602002602001015187868151811061071057610710612488565b6020026020010151600001516110bd565b156107485786828151811061073857610738612488565b602002602001015192505061075b565b508061075381612542565b9150506105f0565b508083838151811061076f5761076f612488565b602002602001018190525050808061078690612542565b9150506105c6565b50600081516001600160401b038111156107aa576107aa6116c6565b6040519080825280602002602001820160405280156107ef57816020015b60408051808201909152600080825260208201528152602001906001900390816107c85790505b50905060005b82518110156109685760006342100002601160981b016001600160a01b031663ae9a604085848151811061082b5761082b612488565b602090810291909101015151604080516001600160e01b031960e085901b1681526001600160801b031990921660048301526024820152601f60448201527f6d657673686172653a76303a65746842756e646c6553696d526573756c7473006064820152608401600060405180830381865afa1580156108af573d6000803e3d6000fd5b505050506040513d6000823e601f3d908101601f191682016040526108d791908101906122fb565b90506000818060200190518101906108ef919061255b565b90506040518060400160405280826001600160401b0316815260200186858151811061091d5761091d612488565b6020026020010151600001516001600160801b03191681525084848151811061094857610948612488565b60200260200101819052505050808061096090612542565b9150506107f5565b50805160005b610979600183612578565b811015610a8657600061098d82600161258b565b90505b82811015610a73578381815181106109aa576109aa612488565b6020026020010151600001516001600160401b03168483815181106109d1576109d1612488565b6020026020010151600001516001600160401b03161015610a61576000848381518110610a0057610a00612488565b60200260200101519050848281518110610a1c57610a1c612488565b6020026020010151858481518110610a3657610a36612488565b602002602001018190525080858381518110610a5457610a54612488565b6020026020010181905250505b80610a6b81612542565b915050610990565b5080610a7e81612542565b91505061096e565b50600083516001600160401b03811115610aa257610aa26116c6565b604051908082528060200260200182016040528015610acb578160200160208202803683370190505b50905060005b8351811015610b3557838181518110610aec57610aec612488565b602002602001015160200151828281518110610b0a57610b0a612488565b6001600160801b03199092166020928302919091019091015280610b2d81612542565b915050610ad1565b50610b658989836040518060400160405280600b81526020016a06d657673686172653a76360ac1b81525061016e565b96505050505050505b92915050565b60606342100002601160981b016001600160a01b0316630e38f3376040518163ffffffff1660e01b8152600401602060405180830381865afa158015610bbe573d6000803e3d6000fd5b505050506040513d601f19601f82011682018060405250810190610be29190611ec9565b610beb57600080fd5b6040516302ba698160e61b81526000906342100002601160981b019063ae9a604090610c1b90879060040161259e565b600060405180830381865afa158015610c38573d6000803e3d6000fd5b505050506040513d6000823e601f3d908101601f19168201604052610c6091908101906122fb565b949350505050565b60606342100002601160981b016001600160a01b0316630e38f3376040518163ffffffff1660e01b8152600401602060405180830381865afa158015610cb2573d6000803e3d6000fd5b505050506040513d601f19601f82011682018060405250810190610cd69190611ec9565b610cdf57600080fd5b60006342100002601160981b016001600160a01b03166336cb97fd6040518163ffffffff1660e01b8152600401600060405180830381865afa158015610d29573d6000803e3d6000fd5b505050506040513d6000823e601f3d908101601f19168201604052610d5191908101906122fb565b905080806020019051810190610d6791906122fb565b91505090565b610d75611692565b60607f67fa9c16cd72410c4cc1d47205b31852a81ec5e92d1c8cebc3ecbe98ed67fe3f846000015184604051610dac9291906125e7565b60405180910390a17f83481d5b04dea534715acad673a8177a46fc93882760f36bdc16ccac439d504e846000015185604001518660600151604051610df39392919061232f565b60405180910390a150829050815b9250929050565b7f83481d5b04dea534715acad673a8177a46fc93882760f36bdc16ccac439d504e610e36602083018361260a565b610e466060840160408501612627565b610e536060850185612644565b604051610e63949392919061268d565b60405180910390a150565b610e76611692565b604080516002808252606080830184529260009291906020830190803683370190505090503081600081518110610eaf57610eaf612488565b6001600160a01b0390921660209283029190910190910152604051634f56314160e01b81526000906342100002601160981b0190634f56314190610efb908a90869081906004016126f5565b600060405180830381865afa158015610f18573d6000803e3d6000fd5b505050506040513d6000823e601f3d908101601f19168201604052610f409190810190612764565b90506342100002601160981b016001600160a01b031663a90a6c5f826000015188604051602001610f719190612798565b6040516020818303038152906040526040518363ffffffff1660e01b8152600401610f9d9291906127ab565b60006040518083038186803b158015610fb557600080fd5b505afa158015610fc9573d6000803e3d6000fd5b5050825160405163bd5bcdf360e01b8152600093508392506342100002601160981b019163bd5bcdf391611003918e918c90600401612802565b600060405180830381865afa158015611020573d6000803e3d6000fd5b505050506040513d6000823e601f3d908101601f191682016040526110489190810190612837565b845160405163a90a6c5f60e01b81529294509092506342100002601160981b019163a90a6c5f9161107d91859060040161286d565b60006040518083038186803b15801561109557600080fd5b505afa1580156110a9573d6000803e3d6000fd5b50949c939b50929950505050505050505050565b604080516001600160801b03198481166020830152825160108184030181526030830184529084166050830152825180830384018152606090920190925260009190825b82518110156111755781818151811061111c5761111c612488565b602001015160f81c60f81b6001600160f81b03191683828151811061114357611143612488565b01602001516001600160f81b031916146111635760009350505050610b6e565b8061116d81612542565b915050611101565b50600195945050505050565b60606342100002601160981b016001600160a01b0316630e38f3376040518163ffffffff1660e01b8152600401602060405180830381865afa1580156111cb573d6000803e3d6000fd5b505050506040513d601f19601f820116820180604052508101906111ef9190611ec9565b6111f857600080fd5b60408051632cb05c5360e21b81526001600160401b03841660048201526024810191909152601560448201527464656661756c743a76303a65746842756e646c657360581b60648201526000906342100002601160981b019063b2c1714c90608401600060405180830381865afa158015611277573d6000803e3d6000fd5b505050506040513d6000823e601f3d908101601f1916820160405261129f91908101906123a5565b905080516000036112c557306040516375fff46760e01b81526004016105639190612455565b600081516001600160401b038111156112e0576112e06116c6565b60405190808252806020026020018201604052801561132557816020015b60408051808201909152600080825260208201528152602001906001900390816112fe5790505b50905060005b825181101561149e5760006342100002601160981b016001600160a01b031663ae9a604085848151811061136157611361612488565b602090810291909101015151604080516001600160e01b031960e085901b1681526001600160801b031990921660048301526024820152601e60448201527f64656661756c743a76303a65746842756e646c6553696d526573756c747300006064820152608401600060405180830381865afa1580156113e5573d6000803e3d6000fd5b505050506040513d6000823e601f3d908101601f1916820160405261140d91908101906122fb565b9050600081806020019051810190611425919061255b565b90506040518060400160405280826001600160401b0316815260200186858151811061145357611453612488565b6020026020010151600001516001600160801b03191681525084848151811061147e5761147e612488565b60200260200101819052505050808061149690612542565b91505061132b565b50805160005b6114af600183612578565b8110156115bc5760006114c382600161258b565b90505b828110156115a9578381815181106114e0576114e0612488565b6020026020010151600001516001600160401b031684838151811061150757611507612488565b6020026020010151600001516001600160401b0316101561159757600084838151811061153657611536612488565b6020026020010151905084828151811061155257611552612488565b602002602001015185848151811061156c5761156c612488565b60200260200101819052508085838151811061158a5761158a612488565b6020026020010181905250505b806115a181612542565b9150506114c6565b50806115b481612542565b9150506114a4565b50600083516001600160401b038111156115d8576115d86116c6565b604051908082528060200260200182016040528015611601578160200160208202803683370190505b50905060005b835181101561166b5783818151811061162257611622612488565b60200260200101516020015182828151811061164057611640612488565b6001600160801b0319909216602092830291909101909101528061166381612542565b915050611607565b506116878787836040518060200160405280600081525061016e565b979650505050505050565b6040805160c0810182526000808252602082018190529181019190915260608082018190526080820181905260a082015290565b634e487b7160e01b600052604160045260246000fd5b604051608081016001600160401b03811182821017156116fe576116fe6116c6565b60405290565b60405161010081016001600160401b03811182821017156116fe576116fe6116c6565b60405160c081016001600160401b03811182821017156116fe576116fe6116c6565b604051601f8201601f191681016001600160401b0381118282101715611771576117716116c6565b604052919050565b6001600160401b038116811461178e57600080fd5b50565b803561179c81611779565b919050565b60006001600160401b038211156117ba576117ba6116c6565b50601f01601f191660200190565b600082601f8301126117d957600080fd5b81356117ec6117e7826117a1565b611749565b81815284602083860101111561180157600080fd5b816020850160208301376000918101602001919091529392505050565b6001600160a01b038116811461178e57600080fd5b803561179c8161181e565b60006001600160401b03821115611857576118576116c6565b5060051b60200190565b600082601f83011261187257600080fd5b813560206118826117e78361183e565b82815260079290921b840181019181810190868411156118a157600080fd5b8286015b8481101561191857608081890312156118be5760008081fd5b6118c66116dc565b81356118d181611779565b8152818501356118e081611779565b818601526040828101356118f38161181e565b9082015260608281013561190681611779565b908201528352918301916080016118a5565b509695505050505050565b6000610100828403121561193657600080fd5b61193e611704565b905061194982611791565b815260208201356001600160401b038082111561196557600080fd5b611971858386016117c8565b60208401526040840135604084015261198c60608501611791565b606084015261199d60808501611833565b60808401526119ae60a08501611791565b60a084015260c084013560c084015260e08401359150808211156119d157600080fd5b506119de84828501611861565b60e08301525092915050565b6001600160801b03198116811461178e57600080fd5b803561179c816119ea565b60008060008060808587031215611a2157600080fd5b84356001600160401b0380821115611a3857600080fd5b611a4488838901611923565b95506020915081870135611a5781611779565b9450604087013581811115611a6b57600080fd5b8701601f81018913611a7c57600080fd5b8035611a8a6117e78261183e565b81815260059190911b8201840190848101908b831115611aa957600080fd5b928501925b82841015611ad0578335611ac1816119ea565b82529285019290850190611aae565b96505050506060870135915080821115611ae957600080fd5b50611af6878288016117c8565b91505092959194509250565b60005b83811015611b1d578181015183820152602001611b05565b50506000910152565b60008151808452611b3e816020860160208601611b02565b601f01601f19169290920160200192915050565b602081526000611b656020830184611b26565b9392505050565b60008060408385031215611b7f57600080fd5b82356001600160401b03811115611b9557600080fd5b611ba185828601611923565b9250506020830135611bb281611779565b809150509250929050565b60008060408385031215611bd057600080fd5b8235611bdb816119ea565b915060208301356001600160401b03811115611bf657600080fd5b611c02858286016117c8565b9150509250929050565b600082601f830112611c1d57600080fd5b81356020611c2d6117e78361183e565b82815260059290921b84018101918181019086841115611c4c57600080fd5b8286015b84811015611918578035611c638161181e565b8352918301918301611c50565b60008060408385031215611c8357600080fd5b82356001600160401b0380821115611c9a57600080fd5b9084019060c08287031215611cae57600080fd5b611cb6611727565b611cbf83611a00565b8152611ccd60208401611a00565b6020820152611cde60408401611791565b6040820152606083013582811115611cf557600080fd5b611d0188828601611c0c565b606083015250608083013582811115611d1957600080fd5b611d2588828601611c0c565b60808301525060a083013582811115611d3d57600080fd5b611d49888286016117c8565b60a08301525093506020850135915080821115611d6557600080fd5b50611c02858286016117c8565b600081518084526020808501945080840160005b83811015611dab5781516001600160a01b031687529582019590820190600101611d86565b509495945050505050565b60006001600160801b0319808351168452806020840151166020850152506001600160401b036040830151166040840152606082015160c06060850152611e0060c0850182611d72565b905060808301518482036080860152611e198282611d72565b91505060a083015184820360a0860152611e338282611b26565b95945050505050565b604081526000611e4f6040830185611db6565b8281036020840152611e338185611b26565b600060208284031215611e7357600080fd5b81356001600160401b03811115611e8957600080fd5b820160c08185031215611b6557600080fd5b60008060408385031215611eae57600080fd5b8235611eb9816119ea565b91506020830135611bb2816119ea565b600060208284031215611edb57600080fd5b81518015158114611b6557600080fd5b600081518084526020808501945080840160005b83811015611dab57815180516001600160401b039081168952848201518116858a01526040808301516001600160a01b0316908a0152606091820151169088015260809096019590820190600101611eff565b60006101006001600160401b038084511685526020840151826020870152611f7c83870182611b26565b925050604084015160408601528060608501511660608601525060018060a01b03608084015116608085015260a0830151611fc260a08601826001600160401b03169052565b5060c083015160c085015260e083015184820360e0860152611e338282611eeb565b600081518084526020808501945080840160005b83811015611dab5781516001600160801b03191687529582019590820190600101611ff8565b6080815260006120316080830187611f52565b6001600160401b038616602084015282810360408401526120528186611fe4565b905082810360608401526116878185611b26565b805161179c816119ea565b805161179c81611779565b600082601f83011261208d57600080fd5b8151602061209d6117e78361183e565b82815260059290921b840181019181810190868411156120bc57600080fd5b8286015b848110156119185780516120d38161181e565b83529183019183016120c0565b600082601f8301126120f157600080fd5b81516120ff6117e7826117a1565b81815284602083860101111561211457600080fd5b610c60826020830160208701611b02565b600060c0828403121561213757600080fd5b61213f611727565b905061214a82612066565b815261215860208301612066565b602082015261216960408301612071565b604082015260608201516001600160401b038082111561218857600080fd5b6121948583860161207c565b606084015260808401519150808211156121ad57600080fd5b6121b98583860161207c565b608084015260a08401519150808211156121d257600080fd5b506121df848285016120e0565b60a08301525092915050565b600080604083850312156121fe57600080fd5b82516001600160401b038082111561221557600080fd5b61222186838701612125565b9350602085015191508082111561223757600080fd5b50611c02858286016120e0565b60408152600080845481600182811c91508083168061226457607f831692505b6020808410820361228357634e487b7160e01b86526022600452602486fd5b60408801849052606088018280156122a257600181146122b8576122e3565b60ff198716825285151560051b820197506122e3565b60008c81526020902060005b878110156122dd578154848201529086019084016122c4565b83019850505b5050878603818901525050505050611e338185611b26565b60006020828403121561230d57600080fd5b81516001600160401b0381111561232357600080fd5b610c60848285016120e0565b6001600160801b0319841681526001600160401b0383166020820152606060408201526000611e336060830184611d72565b602081526000611b656020830184611db6565b6001600160e01b0319831681528151600090612397816004850160208701611b02565b919091016004019392505050565b600060208083850312156123b857600080fd5b82516001600160401b03808211156123cf57600080fd5b818501915085601f8301126123e357600080fd5b81516123f16117e78261183e565b81815260059190911b8301840190848101908883111561241057600080fd5b8585015b838110156124485780518581111561242c5760008081fd5b61243a8b89838a0101612125565b845250918601918601612414565b5098975050505050505050565b6001600160a01b03919091168152604060208201819052600790820152666e6f206269647360c81b606082015260800190565b634e487b7160e01b600052603260045260246000fd5b600060208083850312156124b157600080fd5b82516001600160401b038111156124c757600080fd5b8301601f810185136124d857600080fd5b80516124e66117e78261183e565b81815260059190911b8201830190838101908783111561250557600080fd5b928401925b8284101561168757835161251d816119ea565b8252928401929084019061250a565b634e487b7160e01b600052601160045260246000fd5b6000600182016125545761255461252c565b5060010190565b60006020828403121561256d57600080fd5b8151611b6581611779565b81810381811115610b6e57610b6e61252c565b80820180821115610b6e57610b6e61252c565b6001600160801b031982168152604060208201526000611b65604083016019815278191959985d5b1d0e9d8c0e989d5a5b19195c94185e5b1bd859603a1b602082015260400190565b6001600160801b031983168152604060208201526000610c606040830184611b26565b60006020828403121561261c57600080fd5b8135611b65816119ea565b60006020828403121561263957600080fd5b8135611b6581611779565b6000808335601e1984360301811261265b57600080fd5b8301803591506001600160401b0382111561267557600080fd5b6020019150600581901b3603821315610e0157600080fd5b6000606082016001600160801b03198716835260206001600160401b03871681850152606060408501528185835260808501905086925060005b868110156124485783356126da8161181e565b6001600160a01b0316825292820192908201906001016126c7565b6001600160401b03841681526080602082015260006127176080830185611d72565b82810360408401526127298185611d72565b8381036060850152601581527464656661756c743a76303a6d65726765644269647360581b60208201529050604081015b9695505050505050565b60006020828403121561277657600080fd5b81516001600160401b0381111561278c57600080fd5b610c6084828501612125565b602081526000611b656020830184611fe4565b6001600160801b0319831681526060602082015260006127f060608301601581527464656661756c743a76303a6d65726765644269647360581b602082015260400190565b8281036040840152611e338185611b26565b6060815260006128156060830186611f52565b6001600160801b031985166020840152828103604084015261275a8185611b26565b6000806040838503121561284a57600080fd5b82516001600160401b038082111561286157600080fd5b612221868387016120e0565b6001600160801b0319831681526060602082015260006127f0606083016019815278191959985d5b1d0e9d8c0e989d5a5b19195c94185e5b1bd859603a1b60208201526040019056fea164736f6c6343000813000a",
    "linkReferences": {}
  },
  "methodIdentifiers": {
    "buildAndEmit((uint64,bytes,bytes32,uint64,address,uint64,bytes32,(uint64,uint64,address,uint64)[]),uint64,bytes16[],string)": "4c8820f8",
    "buildFromPool((uint64,bytes,bytes32,uint64,address,uint64,bytes32,(uint64,uint64,address,uint64)[]),uint64)": "ebb89de4",
    "buildMevShare((uint64,bytes,bytes32,uint64,address,uint64,bytes32,(uint64,uint64,address,uint64)[]),uint64)": "54dfbd39",
    "doBuild((uint64,bytes,bytes32,uint64,address,uint64,bytes32,(uint64,uint64,address,uint64)[]),uint64,bytes16[],string)": "c2eceb11",
    "emitBid((bytes16,bytes16,uint64,address[],address[],string))": "c0b9d287",
    "emitBuilderBidAndBid((bytes16,bytes16,uint64,address[],address[],string),bytes)": "b33e4715",
    "fetchBidConfidentialBundleData()": "92f07a58",
    "idsEqual(bytes16,bytes16)": "e829cd5d",
    "unlock(bytes16,bytes)": "7df1cde2"
  },
  "id": 17
}