{
  "abi": [
    {
      "inputs": [
        {
          "internalType": "string[]",
          "name": "builderUrls_",
          "type": "string[]"
        }
      ],
      "stateMutability": "nonpayable",
      "type": "constructor"
    },
    {
      "inputs": [
        {
          "internalType": "address",
          "name": "",
          "type": "address"
        },
        {
          "internalType": "bytes",
          "name": "",
          "type": "bytes"
        }
      ],
      "name": "PeekerReverted",
      "type": "error"
    },
    {
      "anonymous": false,
      "inputs": [
        {
          "indexed": false,
          "internalType": "Suave.BidId",
          "name": "bidId",
          "type": "bytes16"
        },
        {
          "indexed": false,
          "internalType": "uint64",
          "name": "decryptionCondition",
          "type": "uint64"
        },
        {
          "indexed": false,
          "internalType": "address[]",
          "name": "allowedPeekers",
          "type": "address[]"
        }
      ],
      "name": "BidEvent",
      "type": "event"
    },
    {
      "inputs": [
        {
          "internalType": "uint256",
          "name": "",
          "type": "uint256"
        }
      ],
      "name": "builderUrls",
      "outputs": [
        {
          "internalType": "string",
          "name": "",
          "type": "string"
        }
      ],
      "stateMutability": "view",
      "type": "function"
    },
    {
      "inputs": [
        {
          "components": [
            {
              "internalType": "Suave.BidId",
              "name": "id",
              "type": "bytes16"
            },
            {
              "internalType": "Suave.BidId",
              "name": "salt",
              "type": "bytes16"
            },
            {
              "internalType": "uint64",
              "name": "decryptionCondition",
              "type": "uint64"
            },
            {
              "internalType": "address[]",
              "name": "allowedPeekers",
              "type": "address[]"
            },
            {
              "internalType": "address[]",
              "name": "allowedStores",
              "type": "address[]"
            },
            {
              "internalType": "string",
              "name": "version",
              "type": "string"
            }
          ],
          "internalType": "struct Suave.Bid",
          "name": "bid",
          "type": "tuple"
        }
      ],
      "name": "emitBid",
      "outputs": [],
      "stateMutability": "nonpayable",
      "type": "function"
    },
    {
      "inputs": [],
      "name": "fetchBidConfidentialBundleData",
      "outputs": [
        {
          "internalType": "bytes",
          "name": "",
          "type": "bytes"
        }
      ],
      "stateMutability": "nonpayable",
      "type": "function"
    },
    {
      "inputs": [
        {
          "internalType": "uint64",
          "name": "decryptionCondition",
          "type": "uint64"
        },
        {
          "internalType": "address[]",
          "name": "bidAllowedPeekers",
          "type": "address[]"
        },
        {
          "internalType": "address[]",
          "name": "bidAllowedStores",
          "type": "address[]"
        }
      ],
      "name": "newBid",
      "outputs": [
        {
          "internalType": "bytes",
          "name": "",
          "type": "bytes"
        }
      ],
      "stateMutability": "payable",
      "type": "function"
    }
  ],
  "bytecode": {
    "object": "0x60806040523480156200001157600080fd5b50604051620019b3380380620019b3833981016040819052620000349162000171565b80516200004990600090602084019062000051565b505062000410565b8280548282559060005260206000209081019282156200009c579160200282015b828111156200009c57825182906200008b908262000344565b509160200191906001019062000072565b50620000aa929150620000ae565b5090565b80821115620000aa576000620000c58282620000cf565b50600101620000ae565b508054620000dd90620002b5565b6000825580601f10620000ee575050565b601f0160209004906000526020600020908101906200010e919062000111565b50565b5b80821115620000aa576000815560010162000112565b634e487b7160e01b600052604160045260246000fd5b604051601f8201601f191681016001600160401b038111828210171562000169576200016962000128565b604052919050565b600060208083850312156200018557600080fd5b82516001600160401b03808211156200019d57600080fd5b8185019150601f8681840112620001b357600080fd5b825182811115620001c857620001c862000128565b8060051b620001d98682016200013e565b918252848101860191868101908a841115620001f457600080fd5b87870192505b83831015620002a757825186811115620002145760008081fd5b8701603f81018c13620002275760008081fd5b88810151878111156200023e576200023e62000128565b62000251818801601f19168b016200013e565b81815260408e81848601011115620002695760008081fd5b60005b8381101562000289578481018201518382018e01528c016200026c565b505060009181018b01919091528352509187019190870190620001fa565b9a9950505050505050505050565b600181811c90821680620002ca57607f821691505b602082108103620002eb57634e487b7160e01b600052602260045260246000fd5b50919050565b601f8211156200033f57600081815260208120601f850160051c810160208610156200031a5750805b601f850160051c820191505b818110156200033b5782815560010162000326565b5050505b505050565b81516001600160401b0381111562000360576200036062000128565b6200037881620003718454620002b5565b84620002f1565b602080601f831160018114620003b05760008415620003975750858301515b600019600386901b1c1916600185901b1785556200033b565b600085815260208120601f198616915b82811015620003e157888601518255948401946001909101908401620003c0565b5085821015620004005787850151600019600388901b60f8161c191681555b5050505050600190811b01905550565b61159380620004206000396000f3fe60806040526004361061003f5760003560e01c80631141a0b014610044578063236eb5a71461007a57806392f07a581461008d578063c0b9d287146100a2575b600080fd5b34801561005057600080fd5b5061006461005f366004610b48565b6100c4565b6040516100719190610bcf565b60405180910390f35b610064610088366004610d5c565b610170565b34801561009957600080fd5b5061006461032a565b3480156100ae57600080fd5b506100c26100bd366004610dd2565b610363565b005b600081815481106100d457600080fd5b9060005260206000200160009150905080546100ef90610e0d565b80601f016020809104026020016040519081016040528092919081815260200182805461011b90610e0d565b80156101685780601f1061013d57610100808354040283529160200191610168565b820191906000526020600020905b81548152906001019060200180831161014b57829003601f168201915b505050505081565b606061017a6103c9565b61018357600080fd5b60003073ffffffffffffffffffffffffffffffffffffffff166392f07a586040518163ffffffff1660e01b81526004016000604051808303816000875af11580156101d2573d6000803e3d6000fd5b505050506040513d6000823e601f3d9081017fffffffffffffffffffffffffffffffffffffffffffffffffffffffffffffffe01682016040526102189190810190610ecd565b905060006102258261046b565b9050600061026a8787876040518060400160405280601581526020017f64656661756c743a76303a65746842756e646c65730000000000000000000000815250610574565b90506102b081600001516040518060400160405280601581526020017f64656661756c743a76303a65746842756e646c65730000000000000000000000815250856106b5565b8051604080518082018252601e81527f64656661756c743a76303a65746842756e646c6553696d526573756c74730000602080830191909152825167ffffffffffffffff87168183015283518082039092018252830190925261031392916106b5565b61031d81846107ab565b93505050505b9392505050565b60606103346103c9565b61033d57600080fd5b60006103476108bd565b90508080602001905181019061035d9190610ecd565b91505090565b7f83481d5b04dea534715acad673a8177a46fc93882760f36bdc16ccac439d504e6103916020830183610f44565b6103a16060840160408501610f61565b6103ae6060850185610f7e565b6040516103be9493929190610fed565b60405180910390a150565b6040516000908190819063420100009082818181855afa9150503d806000811461040f576040519150601f19603f3d011682016040523d82523d6000602084013e610414565b606091505b509150915081610461576342010000816040517f75fff467000000000000000000000000000000000000000000000000000000008152600401610458929190611088565b60405180910390fd5b6020015192915050565b6000806000634210000073ffffffffffffffffffffffffffffffffffffffff168460405160200161049c9190610bcf565b604080517fffffffffffffffffffffffffffffffffffffffffffffffffffffffffffffffe0818403018152908290526104d4916110b7565b600060405180830381855afa9150503d806000811461050f576040519150601f19603f3d011682016040523d82523d6000602084013e610514565b606091505b509150915081610558576342100000816040517f75fff467000000000000000000000000000000000000000000000000000000008152600401610458929190611088565b8080602001905181019061056c91906110e3565b949350505050565b6040805160c0810182526000808252602082018190529181019190915260608082018190526080820181905260a0820152600080634203000073ffffffffffffffffffffffffffffffffffffffff16878787876040516020016105da9493929190611151565b604080517fffffffffffffffffffffffffffffffffffffffffffffffffffffffffffffffe081840301815290829052610612916110b7565b600060405180830381855afa9150503d806000811461064d576040519150601f19603f3d011682016040523d82523d6000602084013e610652565b606091505b509150915081610696576342030000816040517f75fff467000000000000000000000000000000000000000000000000000000008152600401610458929190611088565b808060200190518101906106aa9190611229565b979650505050505050565b600080634202000073ffffffffffffffffffffffffffffffffffffffff168585856040516020016106e893929190611311565b604080517fffffffffffffffffffffffffffffffffffffffffffffffffffffffffffffffe081840301815290829052610720916110b7565b600060405180830381855afa9150503d806000811461075b576040519150601f19603f3d011682016040523d82523d6000602084013e610760565b606091505b5091509150816107a4576342020000816040517f75fff467000000000000000000000000000000000000000000000000000000008152600401610458929190611088565b5050505050565b606060005b6000548110156108b25761089f600082815481106107d0576107d0611368565b9060005260206000200180546107e590610e0d565b80601f016020809104026020016040519081016040528092919081815260200182805461081190610e0d565b801561085e5780601f106108335761010080835404028352916020019161085e565b820191906000526020600020905b81548152906001019060200180831161084157829003601f168201915b50505050506040518060400160405280600e81526020017f6574685f73656e6442756e646c650000000000000000000000000000000000008152508561096e565b50806108aa81611397565b9150506107b0565b506103238383610a79565b6040805160008082526020820192839052606092909182916342010001916108e4916110b7565b600060405180830381855afa9150503d806000811461091f576040519150601f19603f3d011682016040523d82523d6000602084013e610924565b606091505b509150915081610968576342010001816040517f75fff467000000000000000000000000000000000000000000000000000000008152600401610458929190611088565b92915050565b60606109786103c9565b61098157600080fd5b600080634300000173ffffffffffffffffffffffffffffffffffffffff168686866040516020016109b4939291906113f6565b604080517fffffffffffffffffffffffffffffffffffffffffffffffffffffffffffffffe0818403018152908290526109ec916110b7565b600060405180830381855afa9150503d8060008114610a27576040519150601f19603f3d011682016040523d82523d6000602084013e610a2c565b606091505b509150915081610a70576343000001816040517f75fff467000000000000000000000000000000000000000000000000000000008152600401610458929190611088565b95945050505050565b60607f83481d5b04dea534715acad673a8177a46fc93882760f36bdc16ccac439d504e836000015184604001518560600151604051610aba9392919061142f565b60405180910390a16040517fc0b9d2870000000000000000000000000000000000000000000000000000000090610af590859060200161147a565b604080517fffffffffffffffffffffffffffffffffffffffffffffffffffffffffffffffe081840301815290829052610b31929160200161153e565b604051602081830303815290604052905092915050565b600060208284031215610b5a57600080fd5b5035919050565b60005b83811015610b7c578181015183820152602001610b64565b50506000910152565b60008151808452610b9d816020860160208601610b61565b601f017fffffffffffffffffffffffffffffffffffffffffffffffffffffffffffffffe0169290920160200192915050565b6020815260006103236020830184610b85565b67ffffffffffffffff81168114610bf857600080fd5b50565b7f4e487b7100000000000000000000000000000000000000000000000000000000600052604160045260246000fd5b60405160c0810167ffffffffffffffff81118282101715610c4d57610c4d610bfb565b60405290565b604051601f82017fffffffffffffffffffffffffffffffffffffffffffffffffffffffffffffffe016810167ffffffffffffffff81118282101715610c9a57610c9a610bfb565b604052919050565b600067ffffffffffffffff821115610cbc57610cbc610bfb565b5060051b60200190565b73ffffffffffffffffffffffffffffffffffffffff81168114610bf857600080fd5b600082601f830112610cf957600080fd5b81356020610d0e610d0983610ca2565b610c53565b82815260059290921b84018101918181019086841115610d2d57600080fd5b8286015b84811015610d51578035610d4481610cc6565b8352918301918301610d31565b509695505050505050565b600080600060608486031215610d7157600080fd5b8335610d7c81610be2565b9250602084013567ffffffffffffffff80821115610d9957600080fd5b610da587838801610ce8565b93506040860135915080821115610dbb57600080fd5b50610dc886828701610ce8565b9150509250925092565b600060208284031215610de457600080fd5b813567ffffffffffffffff811115610dfb57600080fd5b820160c0818503121561032357600080fd5b600181811c90821680610e2157607f821691505b602082108103610e5a577f4e487b7100000000000000000000000000000000000000000000000000000000600052602260045260246000fd5b50919050565b600067ffffffffffffffff831115610e7a57610e7a610bfb565b610eab60207fffffffffffffffffffffffffffffffffffffffffffffffffffffffffffffffe0601f86011601610c53565b9050828152838383011115610ebf57600080fd5b610323836020830184610b61565b600060208284031215610edf57600080fd5b815167ffffffffffffffff811115610ef657600080fd5b8201601f81018413610f0757600080fd5b61056c84825160208401610e60565b7fffffffffffffffffffffffffffffffff0000000000000000000000000000000081168114610bf857600080fd5b600060208284031215610f5657600080fd5b813561032381610f16565b600060208284031215610f7357600080fd5b813561032381610be2565b60008083357fffffffffffffffffffffffffffffffffffffffffffffffffffffffffffffffe1843603018112610fb357600080fd5b83018035915067ffffffffffffffff821115610fce57600080fd5b6020019150600581901b3603821315610fe657600080fd5b9250929050565b6000606082017fffffffffffffffffffffffffffffffff0000000000000000000000000000000087168352602067ffffffffffffffff871681850152606060408501528185835260808501905086925060005b8681101561107b57833561105381610cc6565b73ffffffffffffffffffffffffffffffffffffffff1682529282019290820190600101611040565b5098975050505050505050565b73ffffffffffffffffffffffffffffffffffffffff8316815260406020820152600061056c6040830184610b85565b600082516110c9818460208701610b61565b9190910192915050565b80516110de81610be2565b919050565b6000602082840312156110f557600080fd5b815161032381610be2565b600081518084526020808501945080840160005b8381101561114657815173ffffffffffffffffffffffffffffffffffffffff1687529582019590820190600101611114565b509495945050505050565b67ffffffffffffffff851681526080602082015260006111746080830186611100565b82810360408401526111868186611100565b905082810360608401526106aa8185610b85565b80516110de81610f16565b600082601f8301126111b657600080fd5b815160206111c6610d0983610ca2565b82815260059290921b840181019181810190868411156111e557600080fd5b8286015b84811015610d515780516111fc81610cc6565b83529183019183016111e9565b600082601f83011261121a57600080fd5b61032383835160208501610e60565b60006020828403121561123b57600080fd5b815167ffffffffffffffff8082111561125357600080fd5b9083019060c0828603121561126757600080fd5b61126f610c2a565b6112788361119a565b81526112866020840161119a565b6020820152611297604084016110d3565b60408201526060830151828111156112ae57600080fd5b6112ba878286016111a5565b6060830152506080830151828111156112d257600080fd5b6112de878286016111a5565b60808301525060a0830151828111156112f657600080fd5b61130287828601611209565b60a08301525095945050505050565b7fffffffffffffffffffffffffffffffff000000000000000000000000000000008416815260606020820152600061134c6060830185610b85565b828103604084015261135e8185610b85565b9695505050505050565b7f4e487b7100000000000000000000000000000000000000000000000000000000600052603260045260246000fd5b60007fffffffffffffffffffffffffffffffffffffffffffffffffffffffffffffffff82036113ef577f4e487b7100000000000000000000000000000000000000000000000000000000600052601160045260246000fd5b5060010190565b6060815260006114096060830186610b85565b828103602084015261141b8186610b85565b9050828103604084015261135e8185610b85565b7fffffffffffffffffffffffffffffffff000000000000000000000000000000008416815267ffffffffffffffff83166020820152606060408201526000610a706060830184611100565b6020815260007fffffffffffffffffffffffffffffffff000000000000000000000000000000008084511660208401528060208501511660408401525067ffffffffffffffff6040840151166060830152606083015160c060808401526114e460e0840182611100565b905060808401517fffffffffffffffffffffffffffffffffffffffffffffffffffffffffffffffe0808584030160a08601526115208383611100565b925060a08601519150808584030160c086015250610a708282610b85565b7fffffffff000000000000000000000000000000000000000000000000000000008316815260008251611578816004850160208701610b61565b91909101600401939250505056fea164736f6c6343000813000a"
  }
}