{
  "abi": [
    {
      "anonymous": false,
      "inputs": [
        {
          "indexed": false,
          "internalType": "Suave.BidId",
          "name": "bidId",
          "type": "bytes16"
        },
        {
          "indexed": false,
          "internalType": "uint64",
          "name": "decryptionCondition",
          "type": "uint64"
        },
        {
          "indexed": false,
          "internalType": "address[]",
          "name": "allowedPeekers",
          "type": "address[]"
        }
      ],
      "name": "BidEvent",
      "type": "event"
    },
    {
      "anonymous": false,
      "inputs": [
        {
          "indexed": false,
          "internalType": "Suave.BidId",
          "name": "bidId",
          "type": "bytes16"
        },
        {
          "indexed": false,
          "internalType": "bytes",
          "name": "hint",
          "type": "bytes"
        }
      ],
      "name": "HintEvent",
      "type": "event"
    },
    {
      "anonymous": false,
      "inputs": [
        {
          "indexed": false,
          "internalType": "Suave.BidId",
          "name": "matchBidId",
          "type": "bytes16"
        },
        {
          "indexed": false,
          "internalType": "bytes",
          "name": "matchHint",
          "type": "bytes"
        }
      ],
      "name": "MatchEvent",
      "type": "event"
    },
    {
      "inputs": [
        {
          "components": [
            {
              "internalType": "Suave.BidId",
              "name": "id",
              "type": "bytes16"
            },
            {
              "internalType": "Suave.BidId",
              "name": "salt",
              "type": "bytes16"
            },
            {
              "internalType": "uint64",
              "name": "decryptionCondition",
              "type": "uint64"
            },
            {
              "internalType": "address[]",
              "name": "allowedPeekers",
              "type": "address[]"
            },
            {
              "internalType": "address[]",
              "name": "allowedStores",
              "type": "address[]"
            },
            {
              "internalType": "string",
              "name": "version",
              "type": "string"
            }
          ],
          "internalType": "struct Suave.Bid",
          "name": "bid",
          "type": "tuple"
        }
      ],
      "name": "emitBid",
      "outputs": [],
      "stateMutability": "nonpayable",
      "type": "function"
    },
    {
      "inputs": [
        {
          "components": [
            {
              "internalType": "Suave.BidId",
              "name": "id",
              "type": "bytes16"
            },
            {
              "internalType": "Suave.BidId",
              "name": "salt",
              "type": "bytes16"
            },
            {
              "internalType": "uint64",
              "name": "decryptionCondition",
              "type": "uint64"
            },
            {
              "internalType": "address[]",
              "name": "allowedPeekers",
              "type": "address[]"
            },
            {
              "internalType": "address[]",
              "name": "allowedStores",
              "type": "address[]"
            },
            {
              "internalType": "string",
              "name": "version",
              "type": "string"
            }
          ],
          "internalType": "struct Suave.Bid",
          "name": "bid",
          "type": "tuple"
        },
        {
          "internalType": "bytes",
          "name": "hint",
          "type": "bytes"
        }
      ],
      "name": "emitBidAndHint",
      "outputs": [],
      "stateMutability": "nonpayable",
      "type": "function"
    },
    {
      "inputs": [],
      "name": "fetchBidConfidentialBundleData",
      "outputs": [
        {
          "internalType": "bytes",
          "name": "",
          "type": "bytes"
        }
      ],
      "stateMutability": "nonpayable",
      "type": "function"
    },
    {
      "inputs": [
        {
          "internalType": "uint64",
          "name": "decryptionCondition",
          "type": "uint64"
        },
        {
          "internalType": "address[]",
          "name": "bidAllowedPeekers",
          "type": "address[]"
        },
        {
          "internalType": "address[]",
          "name": "bidAllowedStores",
          "type": "address[]"
        }
      ],
      "name": "newBid",
      "outputs": [
        {
          "internalType": "bytes",
          "name": "",
          "type": "bytes"
        }
      ],
      "stateMutability": "payable",
      "type": "function"
    },
    {
      "inputs": [
        {
          "internalType": "uint64",
          "name": "decryptionCondition",
          "type": "uint64"
        },
        {
          "internalType": "address[]",
          "name": "bidAllowedPeekers",
          "type": "address[]"
        },
        {
          "internalType": "address[]",
          "name": "bidAllowedStores",
          "type": "address[]"
        },
        {
          "internalType": "Suave.BidId",
          "name": "shareBidId",
          "type": "bytes16"
        }
      ],
      "name": "newMatch",
      "outputs": [
        {
          "internalType": "bytes",
          "name": "",
          "type": "bytes"
        }
      ],
      "stateMutability": "payable",
      "type": "function"
    }
  ],
  "bytecode": {
    "object": "0x608060405234801561001057600080fd5b50611737806100206000396000f3fe60806040526004361061004a5760003560e01c8063236eb5a71461004f57806389026c111461007857806392f07a581461009a578063c0b9d287146100af578063d8f55db9146100cf575b600080fd5b61006261005d366004610d75565b6100e2565b60405161006f9190610e3a565b60405180910390f35b34801561008457600080fd5b50610098610093366004610e8c565b610504565b005b3480156100a657600080fd5b5061006261059e565b3480156100bb57600080fd5b506100986100ca366004610f2d565b6106a5565b6100626100dd366004610f7f565b6106f9565b606073__$e374338554c5da70f90c17374827737168$__630e38f3376040518163ffffffff1660e01b8152600401602060405180830381865af415801561012d573d6000803e3d6000fd5b505050506040513d601f19601f820116820180604052508101906101519190611007565b61015a57600080fd5b6000306001600160a01b03166392f07a586040518163ffffffff1660e01b81526004016000604051808303816000875af115801561019c573d6000803e3d6000fd5b505050506040513d6000823e601f3d908101601f191682016040526101c49190810190611059565b9050600073__$e374338554c5da70f90c17374827737168$__63023e8e2f836040518263ffffffff1660e01b81526004016101ff9190610e3a565b602060405180830381865af415801561021c573d6000803e3d6000fd5b505050506040513d601f19601f8201168201806040525081019061024091906110b1565b9050600073__$e374338554c5da70f90c17374827737168$__6320f16c3e846040518263ffffffff1660e01b815260040161027b9190610e3a565b600060405180830381865af4158015610298573d6000803e3d6000fd5b505050506040513d6000823e601f3d908101601f191682016040526102c09190810190611059565b9050600073__$e374338554c5da70f90c17374827737168$__634f5631418989896040518463ffffffff1660e01b81526004016102ff93929190611112565b600060405180830381865af415801561031c573d6000803e3d6000fd5b505050506040513d6000823e601f3d908101601f191682016040526103449190810190611217565b805160405163a90a6c5f60e01b815291925073__$e374338554c5da70f90c17374827737168$__9163a90a6c5f916103809188906004016112fe565b60006040518083038186803b15801561039857600080fd5b505af41580156103ac573d6000803e3d6000fd5b50508251604080516001600160401b038816602082015273__$e374338554c5da70f90c17374827737168$__945063a90a6c5f9350016040516020818303038152906040526040518363ffffffff1660e01b815260040161040e92919061134e565b60006040518083038186803b15801561042657600080fd5b505af415801561043a573d6000803e3d6000fd5b5050505060008051602061170b83398151915281600001518260400151836060015160405161046b939291906113a5565b60405180910390a180516040517fdab8306bad2ca820d05b9eff8da2e3016d372c15f00bb032f758718b9cda3950916104a59185906113e0565b60405180910390a16040516389026c1160e01b906104c99083908590602001611480565b60408051601f19818403018152908290526104e792916020016114a5565b6040516020818303038152906040529450505050505b9392505050565b60008051602061170b83398151915261052060208401846114d6565b61053060608501604086016114f3565b61053d6060860186611510565b60405161054d9493929190611560565b60405180910390a17fdab8306bad2ca820d05b9eff8da2e3016d372c15f00bb032f758718b9cda395061058360208401846114d6565b826040516105929291906113e0565b60405180910390a15050565b606073__$e374338554c5da70f90c17374827737168$__630e38f3376040518163ffffffff1660e01b8152600401602060405180830381865af41580156105e9573d6000803e3d6000fd5b505050506040513d601f19601f8201168201806040525081019061060d9190611007565b61061657600080fd5b600073__$e374338554c5da70f90c17374827737168$__6336cb97fd6040518163ffffffff1660e01b8152600401600060405180830381865af4158015610661573d6000803e3d6000fd5b505050506040513d6000823e601f3d908101601f191682016040526106899190810190611059565b90508080602001905181019061069f9190611059565b91505090565b60008051602061170b8339815191526106c160208301836114d6565b6106d160608401604085016114f3565b6106de6060850185611510565b6040516106ee9493929190611560565b60405180910390a150565b606073__$e374338554c5da70f90c17374827737168$__630e38f3376040518163ffffffff1660e01b8152600401602060405180830381865af4158015610744573d6000803e3d6000fd5b505050506040513d601f19601f820116820180604052508101906107689190611007565b61077157600080fd5b6000306001600160a01b03166392f07a586040518163ffffffff1660e01b81526004016000604051808303816000875af11580156107b3573d6000803e3d6000fd5b505050506040513d6000823e601f3d908101601f191682016040526107db9190810190611059565b9050600073__$e374338554c5da70f90c17374827737168$__63023e8e2f836040518263ffffffff1660e01b81526004016108169190610e3a565b602060405180830381865af4158015610833573d6000803e3d6000fd5b505050506040513d601f19601f8201168201806040525081019061085791906110b1565b9050600073__$e374338554c5da70f90c17374827737168$__6320f16c3e846040518263ffffffff1660e01b81526004016108929190610e3a565b600060405180830381865af41580156108af573d6000803e3d6000fd5b505050506040513d6000823e601f3d908101601f191682016040526108d79190810190611059565b9050600073__$e374338554c5da70f90c17374827737168$__634f5631418a8a8a6040518463ffffffff1660e01b8152600401610916939291906115d5565b600060405180830381865af4158015610933573d6000803e3d6000fd5b505050506040513d6000823e601f3d908101601f1916820160405261095b9190810190611217565b805160405163a90a6c5f60e01b815291925073__$e374338554c5da70f90c17374827737168$__9163a90a6c5f916109979188906004016112fe565b60006040518083038186803b1580156109af57600080fd5b505af41580156109c3573d6000803e3d6000fd5b50508251604080516000602082015273__$e374338554c5da70f90c17374827737168$__945063a90a6c5f9350016040516020818303038152906040526040518363ffffffff1660e01b8152600401610a1d92919061134e565b60006040518083038186803b158015610a3557600080fd5b505af4158015610a49573d6000803e3d6000fd5b506000925060029150610a599050565b604051908082528060200260200182016040528015610a82578160200160208202803683370190505b5090508681600081518110610a9957610a99611643565b6001600160801b0319909216602092830291909101909101528151815182906001908110610ac957610ac9611643565b6001600160801b0319909216602092830291909101820152825160405173__$e374338554c5da70f90c17374827737168$__9263a90a6c5f9291610b0f91869101611659565b6040516020818303038152906040526040518363ffffffff1660e01b8152600401610b3b9291906116a7565b60006040518083038186803b158015610b5357600080fd5b505af4158015610b67573d6000803e3d6000fd5b50505050610b758284610b83565b9a9950505050505050505050565b606060008051602061170b833981519152836000015184604001518560600151604051610bb2939291906113a5565b60405180910390a182516040517fafa6f6affefc1010901fc56588695137d9939d2d8b34b30abee96af800a1adc291610bec9185906113e0565b60405180910390a160405163c0b9d28760e01b90610c0e9085906020016116f7565b60408051601f1981840301815290829052610c2c92916020016114a5565b604051602081830303815290604052905092915050565b6001600160401b0381168114610c5857600080fd5b50565b634e487b7160e01b600052604160045260246000fd5b60405160c081016001600160401b0381118282101715610c9357610c93610c5b565b60405290565b604051601f8201601f191681016001600160401b0381118282101715610cc157610cc1610c5b565b604052919050565b60006001600160401b03821115610ce257610ce2610c5b565b5060051b60200190565b6001600160a01b0381168114610c5857600080fd5b600082601f830112610d1257600080fd5b81356020610d27610d2283610cc9565b610c99565b82815260059290921b84018101918181019086841115610d4657600080fd5b8286015b84811015610d6a578035610d5d81610cec565b8352918301918301610d4a565b509695505050505050565b600080600060608486031215610d8a57600080fd5b8335610d9581610c43565b925060208401356001600160401b0380821115610db157600080fd5b610dbd87838801610d01565b93506040860135915080821115610dd357600080fd5b50610de086828701610d01565b9150509250925092565b60005b83811015610e05578181015183820152602001610ded565b50506000910152565b60008151808452610e26816020860160208601610dea565b601f01601f19169290920160200192915050565b6020815260006104fd6020830184610e0e565b600060c08284031215610e5f57600080fd5b50919050565b60006001600160401b03821115610e7e57610e7e610c5b565b50601f01601f191660200190565b60008060408385031215610e9f57600080fd5b82356001600160401b0380821115610eb657600080fd5b610ec286838701610e4d565b93506020850135915080821115610ed857600080fd5b508301601f81018513610eea57600080fd5b8035610ef8610d2282610e65565b818152866020838501011115610f0d57600080fd5b816020840160208301376000602083830101528093505050509250929050565b600060208284031215610f3f57600080fd5b81356001600160401b03811115610f5557600080fd5b610f6184828501610e4d565b949350505050565b6001600160801b031981168114610c5857600080fd5b60008060008060808587031215610f9557600080fd5b8435610fa081610c43565b935060208501356001600160401b0380821115610fbc57600080fd5b610fc888838901610d01565b94506040870135915080821115610fde57600080fd5b50610feb87828801610d01565b9250506060850135610ffc81610f69565b939692955090935050565b60006020828403121561101957600080fd5b815180151581146104fd57600080fd5b6000611037610d2284610e65565b905082815283838301111561104b57600080fd5b6104fd836020830184610dea565b60006020828403121561106b57600080fd5b81516001600160401b0381111561108157600080fd5b8201601f8101841361109257600080fd5b610f6184825160208401611029565b80516110ac81610c43565b919050565b6000602082840312156110c357600080fd5b81516104fd81610c43565b600081518084526020808501945080840160005b838110156111075781516001600160a01b0316875295820195908201906001016110e2565b509495945050505050565b6001600160401b038416815260806020820152600061113460808301856110ce565b828103604084015261114681856110ce565b8381036060909401939093525050601c81527f6d657673686172653a76303a756e6d61746368656442756e646c65730000000060208201526040019392505050565b80516110ac81610f69565b600082601f8301126111a457600080fd5b815160206111b4610d2283610cc9565b82815260059290921b840181019181810190868411156111d357600080fd5b8286015b84811015610d6a5780516111ea81610cec565b83529183019183016111d7565b600082601f83011261120857600080fd5b6104fd83835160208501611029565b60006020828403121561122957600080fd5b81516001600160401b038082111561124057600080fd5b9083019060c0828603121561125457600080fd5b61125c610c71565b61126583611188565b815261127360208401611188565b6020820152611284604084016110a1565b604082015260608301518281111561129b57600080fd5b6112a787828601611193565b6060830152506080830151828111156112bf57600080fd5b6112cb87828601611193565b60808301525060a0830151828111156112e357600080fd5b6112ef878286016111f7565b60a08301525095945050505050565b6001600160801b0319831681526060602082015260166060820152756d657673686172653a76303a65746842756e646c657360501b608082015260a060408201526000610f6160a0830184610e0e565b6001600160801b03198316815260606020820152601f60608201527f6d657673686172653a76303a65746842756e646c6553696d526573756c747300608082015260a060408201526000610f6160a0830184610e0e565b6001600160801b0319841681526001600160401b03831660208201526060604082015260006113d760608301846110ce565b95945050505050565b6001600160801b031983168152604060208201526000610f616040830184610e0e565b60006001600160801b0319808351168452806020840151166020850152506001600160401b036040830151166040840152606082015160c0606085015261144d60c08501826110ce565b90506080830151848203608086015261146682826110ce565b91505060a083015184820360a08601526113d78282610e0e565b6040815260006114936040830185611403565b82810360208401526113d78185610e0e565b6001600160e01b03198316815281516000906114c8816004850160208701610dea565b919091016004019392505050565b6000602082840312156114e857600080fd5b81356104fd81610f69565b60006020828403121561150557600080fd5b81356104fd81610c43565b6000808335601e1984360301811261152757600080fd5b8301803591506001600160401b0382111561154157600080fd5b6020019150600581901b360382131561155957600080fd5b9250929050565b6000606082016001600160801b03198716835260206001600160401b03871681850152606060408501528185835260808501905086925060005b868110156115c85783356115ad81610cec565b6001600160a01b03168252928201929082019060010161159a565b5098975050505050505050565b6001600160401b03841681526080602082015260006115f760808301856110ce565b828103604084015261160981856110ce565b838103606090940193909352505060158152746d657673686172653a76303a6d617463684269647360581b60208201526040019392505050565b634e487b7160e01b600052603260045260246000fd5b6020808252825182820181905260009190848201906040850190845b8181101561169b5783516001600160801b03191683529284019291840191600101611675565b50909695505050505050565b6001600160801b0319831681526060602082015260166060820152756d657673686172653a76303a6d65726765644269647360501b608082015260a060408201526000610f6160a0830184610e0e565b6020815260006104fd602083018461140356fe83481d5b04dea534715acad673a8177a46fc93882760f36bdc16ccac439d504ea164736f6c6343000813000a"
  }
}