{
  "abi": [
    {
      "anonymous": false,
      "inputs": [
        {
          "indexed": false,
          "internalType": "Suave.BidId",
          "name": "bidId",
          "type": "bytes16"
        },
        {
          "indexed": false,
          "internalType": "uint64",
          "name": "decryptionCondition",
          "type": "uint64"
        },
        {
          "indexed": false,
          "internalType": "address[]",
          "name": "allowedPeekers",
          "type": "address[]"
        }
      ],
      "name": "BidEvent",
      "type": "event"
    },
    {
      "anonymous": false,
      "inputs": [
        {
          "indexed": false,
          "internalType": "Suave.BidId",
          "name": "bidId",
          "type": "bytes16"
        },
        {
          "indexed": false,
          "internalType": "bytes",
          "name": "hint",
          "type": "bytes"
        }
      ],
      "name": "HintEvent",
      "type": "event"
    },
    {
      "anonymous": false,
      "inputs": [
        {
          "indexed": false,
          "internalType": "Suave.BidId",
          "name": "matchBidId",
          "type": "bytes16"
        },
        {
          "indexed": false,
          "internalType": "bytes",
          "name": "bidhint",
          "type": "bytes"
        },
        {
          "indexed": false,
          "internalType": "bytes",
          "name": "matchHint",
          "type": "bytes"
        }
      ],
      "name": "MatchEvent",
      "type": "event"
    },
    {
      "inputs": [
        {
          "components": [
            {
              "internalType": "Suave.BidId",
              "name": "id",
              "type": "bytes16"
            },
            {
              "internalType": "Suave.BidId",
              "name": "salt",
              "type": "bytes16"
            },
            {
              "internalType": "uint64",
              "name": "decryptionCondition",
              "type": "uint64"
            },
            {
              "internalType": "address[]",
              "name": "allowedPeekers",
              "type": "address[]"
            },
            {
              "internalType": "address[]",
              "name": "allowedStores",
              "type": "address[]"
            },
            {
              "internalType": "string",
              "name": "version",
              "type": "string"
            }
          ],
          "internalType": "struct Suave.Bid",
          "name": "bid",
          "type": "tuple"
        }
      ],
      "name": "emitBid",
      "outputs": [],
      "stateMutability": "nonpayable",
      "type": "function"
    },
    {
      "inputs": [
        {
          "components": [
            {
              "internalType": "Suave.BidId",
              "name": "id",
              "type": "bytes16"
            },
            {
              "internalType": "Suave.BidId",
              "name": "salt",
              "type": "bytes16"
            },
            {
              "internalType": "uint64",
              "name": "decryptionCondition",
              "type": "uint64"
            },
            {
              "internalType": "address[]",
              "name": "allowedPeekers",
              "type": "address[]"
            },
            {
              "internalType": "address[]",
              "name": "allowedStores",
              "type": "address[]"
            },
            {
              "internalType": "string",
              "name": "version",
              "type": "string"
            }
          ],
          "internalType": "struct Suave.Bid",
          "name": "bid",
          "type": "tuple"
        },
        {
          "internalType": "bytes",
          "name": "hint",
          "type": "bytes"
        }
      ],
      "name": "emitBidAndHint",
      "outputs": [],
      "stateMutability": "nonpayable",
      "type": "function"
    },
    {
      "inputs": [
        {
          "components": [
            {
              "internalType": "Suave.BidId",
              "name": "id",
              "type": "bytes16"
            },
            {
              "internalType": "Suave.BidId",
              "name": "salt",
              "type": "bytes16"
            },
            {
              "internalType": "uint64",
              "name": "decryptionCondition",
              "type": "uint64"
            },
            {
              "internalType": "address[]",
              "name": "allowedPeekers",
              "type": "address[]"
            },
            {
              "internalType": "address[]",
              "name": "allowedStores",
              "type": "address[]"
            },
            {
              "internalType": "string",
              "name": "version",
              "type": "string"
            }
          ],
          "internalType": "struct Suave.Bid",
          "name": "bid",
          "type": "tuple"
        },
        {
          "internalType": "bytes",
          "name": "bidHint",
          "type": "bytes"
        },
        {
          "internalType": "bytes",
          "name": "matchHint",
          "type": "bytes"
        }
      ],
      "name": "emitMatchBidAndHint",
      "outputs": [],
      "stateMutability": "nonpayable",
      "type": "function"
    },
    {
      "inputs": [],
      "name": "fetchBidConfidentialBundleData",
      "outputs": [
        {
          "internalType": "bytes",
          "name": "",
          "type": "bytes"
        }
      ],
      "stateMutability": "nonpayable",
      "type": "function"
    },
    {
      "inputs": [
        {
          "internalType": "uint64",
          "name": "decryptionCondition",
          "type": "uint64"
        },
        {
          "internalType": "address[]",
          "name": "bidAllowedPeekers",
          "type": "address[]"
        },
        {
          "internalType": "address[]",
          "name": "bidAllowedStores",
          "type": "address[]"
        }
      ],
      "name": "newBid",
      "outputs": [
        {
          "internalType": "bytes",
          "name": "",
          "type": "bytes"
        }
      ],
      "stateMutability": "payable",
      "type": "function"
    },
    {
      "inputs": [
        {
          "internalType": "uint64",
          "name": "decryptionCondition",
          "type": "uint64"
        },
        {
          "internalType": "address[]",
          "name": "bidAllowedPeekers",
          "type": "address[]"
        },
        {
          "internalType": "address[]",
          "name": "bidAllowedStores",
          "type": "address[]"
        },
        {
          "internalType": "Suave.BidId",
          "name": "shareBidId",
          "type": "bytes16"
        }
      ],
      "name": "newMatch",
      "outputs": [
        {
          "internalType": "bytes",
          "name": "",
          "type": "bytes"
        }
      ],
      "stateMutability": "payable",
      "type": "function"
    }
  ],
  "bytecode": {
    "object": "0x608060405234801561001057600080fd5b506117e6806100206000396000f3fe6080604052600436106100555760003560e01c8063236eb5a71461005a57806343d50a7c1461008357806389026c11146100a557806392f07a58146100c5578063c0b9d287146100da578063d8f55db9146100fa575b600080fd5b61006d610068366004610d55565b61010d565b60405161007a9190610e1a565b60405180910390f35b34801561008f57600080fd5b506100a361009e366004610ebd565b610502565b005b3480156100b157600080fd5b506100a36100c0366004610f3a565b61059f565b3480156100d157600080fd5b5061006d610639565b3480156100e657600080fd5b506100a36100f5366004610f9d565b61073e565b61006d610108366004610fef565b610792565b60606342100002601160981b016001600160a01b0316630e38f3376040518163ffffffff1660e01b8152600401602060405180830381865afa158015610157573d6000803e3d6000fd5b505050506040513d601f19601f8201168201806040525081019061017b9190611077565b61018457600080fd5b6000306001600160a01b03166392f07a586040518163ffffffff1660e01b81526004016000604051808303816000875af11580156101c6573d6000803e3d6000fd5b505050506040513d6000823e601f3d908101601f191682016040526101ee91908101906110c9565b60405163023e8e2f60e01b81529091506000906342100002601160981b019063023e8e2f90610221908590600401610e1a565b602060405180830381865afa15801561023e573d6000803e3d6000fd5b505050506040513d601f19601f820116820180604052508101906102629190611121565b604051631078b61f60e11b81529091506000906342100002601160981b01906320f16c3e90610295908690600401610e1a565b600060405180830381865afa1580156102b2573d6000803e3d6000fd5b505050506040513d6000823e601f3d908101601f191682016040526102da91908101906110c9565b604051634f56314160e01b81529091506000906342100002601160981b0190634f56314190610311908b908b908b90600401611182565b600060405180830381865afa15801561032e573d6000803e3d6000fd5b505050506040513d6000823e601f3d908101601f191682016040526103569190810190611287565b805160405163a90a6c5f60e01b81529192506342100002601160981b019163a90a6c5f9161038891889060040161136e565b60006040518083038186803b1580156103a057600080fd5b505afa1580156103b4573d6000803e3d6000fd5b50508251604080516001600160401b03881660208201526342100002601160981b01945063a90a6c5f9350016040516020818303038152906040526040518363ffffffff1660e01b815260040161040c9291906113be565b60006040518083038186803b15801561042457600080fd5b505afa158015610438573d6000803e3d6000fd5b505050506000805160206117ba83398151915281600001518260400151836060015160405161046993929190611415565b60405180910390a180516040517fdab8306bad2ca820d05b9eff8da2e3016d372c15f00bb032f758718b9cda3950916104a3918590611450565b60405180910390a16040516389026c1160e01b906104c790839085906020016114f0565b60408051601f19818403018152908290526104e59291602001611515565b6040516020818303038152906040529450505050505b9392505050565b6000805160206117ba83398151915261051e6020850185611546565b61052e6060860160408701611563565b61053b6060870187611580565b60405161054b94939291906115d0565b60405180910390a17f417b0c16c40ca502ef10ae6921892668f006f527e3f4599cb95b9de965d413346105816020850185611546565b838360405161059293929190611645565b60405180910390a1505050565b6000805160206117ba8339815191526105bb6020840184611546565b6105cb6060850160408601611563565b6105d86060860186611580565b6040516105e894939291906115d0565b60405180910390a17fdab8306bad2ca820d05b9eff8da2e3016d372c15f00bb032f758718b9cda395061061e6020840184611546565b8260405161062d929190611450565b60405180910390a15050565b60606342100002601160981b016001600160a01b0316630e38f3376040518163ffffffff1660e01b8152600401602060405180830381865afa158015610683573d6000803e3d6000fd5b505050506040513d601f19601f820116820180604052508101906106a79190611077565b6106b057600080fd5b60006342100002601160981b016001600160a01b03166336cb97fd6040518163ffffffff1660e01b8152600401600060405180830381865afa1580156106fa573d6000803e3d6000fd5b505050506040513d6000823e601f3d908101601f1916820160405261072291908101906110c9565b90508080602001905181019061073891906110c9565b91505090565b6000805160206117ba83398151915261075a6020830183611546565b61076a6060840160408501611563565b6107776060850185611580565b60405161078794939291906115d0565b60405180910390a150565b60606342100002601160981b016001600160a01b0316630e38f3376040518163ffffffff1660e01b8152600401602060405180830381865afa1580156107dc573d6000803e3d6000fd5b505050506040513d601f19601f820116820180604052508101906108009190611077565b61080957600080fd5b6000306001600160a01b03166392f07a586040518163ffffffff1660e01b81526004016000604051808303816000875af115801561084b573d6000803e3d6000fd5b505050506040513d6000823e601f3d908101601f1916820160405261087391908101906110c9565b60405163023e8e2f60e01b81529091506000906342100002601160981b019063023e8e2f906108a6908590600401610e1a565b602060405180830381865afa1580156108c3573d6000803e3d6000fd5b505050506040513d601f19601f820116820180604052508101906108e79190611121565b604051631078b61f60e11b81529091506000906342100002601160981b01906320f16c3e9061091a908690600401610e1a565b600060405180830381865afa158015610937573d6000803e3d6000fd5b505050506040513d6000823e601f3d908101601f1916820160405261095f91908101906110c9565b604051634f56314160e01b81529091506000906342100002601160981b0190634f56314190610996908c908c908c90600401611684565b600060405180830381865afa1580156109b3573d6000803e3d6000fd5b505050506040513d6000823e601f3d908101601f191682016040526109db9190810190611287565b805160405163a90a6c5f60e01b81529192506342100002601160981b019163a90a6c5f91610a0d91889060040161136e565b60006040518083038186803b158015610a2557600080fd5b505afa158015610a39573d6000803e3d6000fd5b5050825160408051600060208201526342100002601160981b01945063a90a6c5f9350016040516020818303038152906040526040518363ffffffff1660e01b8152600401610a899291906113be565b60006040518083038186803b158015610aa157600080fd5b505afa158015610ab5573d6000803e3d6000fd5b506000925060029150610ac59050565b604051908082528060200260200182016040528015610aee578160200160208202803683370190505b5090508681600081518110610b0557610b056116f2565b6001600160801b0319909216602092830291909101909101528151815182906001908110610b3557610b356116f2565b6001600160801b031990921660209283029190910182015282516040516342100002601160981b019263a90a6c5f9291610b7191869101611708565b6040516020818303038152906040526040518363ffffffff1660e01b8152600401610b9d929190611756565b60006040518083038186803b158015610bb557600080fd5b505afa158015610bc9573d6000803e3d6000fd5b505060405163c0b9d28760e01b9250610be7915084906020016117a6565b60408051601f1981840301815290829052610c059291602001611515565b60405160208183030381529060405295505050505050949350505050565b6001600160401b0381168114610c3857600080fd5b50565b634e487b7160e01b600052604160045260246000fd5b60405160c081016001600160401b0381118282101715610c7357610c73610c3b565b60405290565b604051601f8201601f191681016001600160401b0381118282101715610ca157610ca1610c3b565b604052919050565b60006001600160401b03821115610cc257610cc2610c3b565b5060051b60200190565b6001600160a01b0381168114610c3857600080fd5b600082601f830112610cf257600080fd5b81356020610d07610d0283610ca9565b610c79565b82815260059290921b84018101918181019086841115610d2657600080fd5b8286015b84811015610d4a578035610d3d81610ccc565b8352918301918301610d2a565b509695505050505050565b600080600060608486031215610d6a57600080fd5b8335610d7581610c23565b925060208401356001600160401b0380821115610d9157600080fd5b610d9d87838801610ce1565b93506040860135915080821115610db357600080fd5b50610dc086828701610ce1565b9150509250925092565b60005b83811015610de5578181015183820152602001610dcd565b50506000910152565b60008151808452610e06816020860160208601610dca565b601f01601f19169290920160200192915050565b6020815260006104fb6020830184610dee565b600060c08284031215610e3f57600080fd5b50919050565b60006001600160401b03821115610e5e57610e5e610c3b565b50601f01601f191660200190565b600082601f830112610e7d57600080fd5b8135610e8b610d0282610e45565b818152846020838601011115610ea057600080fd5b816020850160208301376000918101602001919091529392505050565b600080600060608486031215610ed257600080fd5b83356001600160401b0380821115610ee957600080fd5b610ef587838801610e2d565b94506020860135915080821115610f0b57600080fd5b610f1787838801610e6c565b93506040860135915080821115610f2d57600080fd5b50610dc086828701610e6c565b60008060408385031215610f4d57600080fd5b82356001600160401b0380821115610f6457600080fd5b610f7086838701610e2d565b93506020850135915080821115610f8657600080fd5b50610f9385828601610e6c565b9150509250929050565b600060208284031215610faf57600080fd5b81356001600160401b03811115610fc557600080fd5b610fd184828501610e2d565b949350505050565b6001600160801b031981168114610c3857600080fd5b6000806000806080858703121561100557600080fd5b843561101081610c23565b935060208501356001600160401b038082111561102c57600080fd5b61103888838901610ce1565b9450604087013591508082111561104e57600080fd5b5061105b87828801610ce1565b925050606085013561106c81610fd9565b939692955090935050565b60006020828403121561108957600080fd5b815180151581146104fb57600080fd5b60006110a7610d0284610e45565b90508281528383830111156110bb57600080fd5b6104fb836020830184610dca565b6000602082840312156110db57600080fd5b81516001600160401b038111156110f157600080fd5b8201601f8101841361110257600080fd5b610fd184825160208401611099565b805161111c81610c23565b919050565b60006020828403121561113357600080fd5b81516104fb81610c23565b600081518084526020808501945080840160005b838110156111775781516001600160a01b031687529582019590820190600101611152565b509495945050505050565b6001600160401b03841681526080602082015260006111a4608083018561113e565b82810360408401526111b6818561113e565b8381036060909401939093525050601c81527f6d657673686172653a76303a756e6d61746368656442756e646c65730000000060208201526040019392505050565b805161111c81610fd9565b600082601f83011261121457600080fd5b81516020611224610d0283610ca9565b82815260059290921b8401810191818101908684111561124357600080fd5b8286015b84811015610d4a57805161125a81610ccc565b8352918301918301611247565b600082601f83011261127857600080fd5b6104fb83835160208501611099565b60006020828403121561129957600080fd5b81516001600160401b03808211156112b057600080fd5b9083019060c082860312156112c457600080fd5b6112cc610c51565b6112d5836111f8565b81526112e3602084016111f8565b60208201526112f460408401611111565b604082015260608301518281111561130b57600080fd5b61131787828601611203565b60608301525060808301518281111561132f57600080fd5b61133b87828601611203565b60808301525060a08301518281111561135357600080fd5b61135f87828601611267565b60a08301525095945050505050565b6001600160801b0319831681526060602082015260166060820152756d657673686172653a76303a65746842756e646c657360501b608082015260a060408201526000610fd160a0830184610dee565b6001600160801b03198316815260606020820152601f60608201527f6d657673686172653a76303a65746842756e646c6553696d526573756c747300608082015260a060408201526000610fd160a0830184610dee565b6001600160801b0319841681526001600160401b0383166020820152606060408201526000611447606083018461113e565b95945050505050565b6001600160801b031983168152604060208201526000610fd16040830184610dee565b60006001600160801b0319808351168452806020840151166020850152506001600160401b036040830151166040840152606082015160c060608501526114bd60c085018261113e565b9050608083015184820360808601526114d6828261113e565b91505060a083015184820360a08601526114478282610dee565b6040815260006115036040830185611473565b82810360208401526114478185610dee565b6001600160e01b0319831681528151600090611538816004850160208701610dca565b919091016004019392505050565b60006020828403121561155857600080fd5b81356104fb81610fd9565b60006020828403121561157557600080fd5b81356104fb81610c23565b6000808335601e1984360301811261159757600080fd5b8301803591506001600160401b038211156115b157600080fd5b6020019150600581901b36038213156115c957600080fd5b9250929050565b6000606082016001600160801b03198716835260206001600160401b03871681850152606060408501528185835260808501905086925060005b8681101561163857833561161d81610ccc565b6001600160a01b03168252928201929082019060010161160a565b5098975050505050505050565b6001600160801b0319841681526060602082015260006116686060830185610dee565b828103604084015261167a8185610dee565b9695505050505050565b6001600160401b03841681526080602082015260006116a6608083018561113e565b82810360408401526116b8818561113e565b838103606090940193909352505060158152746d657673686172653a76303a6d617463684269647360581b60208201526040019392505050565b634e487b7160e01b600052603260045260246000fd5b6020808252825182820181905260009190848201906040850190845b8181101561174a5783516001600160801b03191683529284019291840191600101611724565b50909695505050505050565b6001600160801b0319831681526060602082015260166060820152756d657673686172653a76303a6d65726765644269647360501b608082015260a060408201526000610fd160a0830184610dee565b6020815260006104fb602083018461147356fe83481d5b04dea534715acad673a8177a46fc93882760f36bdc16ccac439d504ea164736f6c6343000813000a",
    "linkReferences": {}
  },
  "methodIdentifiers": {
    "emitBid((bytes16,bytes16,uint64,address[],address[],string))": "c0b9d287",
    "emitBidAndHint((bytes16,bytes16,uint64,address[],address[],string),bytes)": "89026c11",
    "emitMatchBidAndHint((bytes16,bytes16,uint64,address[],address[],string),bytes,bytes)": "43d50a7c",
    "fetchBidConfidentialBundleData()": "92f07a58",
    "newBid(uint64,address[],address[])": "236eb5a7",
    "newMatch(uint64,address[],address[],bytes16)": "d8f55db9"
  },
  "id": 17
}