{
  "abi": [
    {
      "inputs": [
        {
          "internalType": "string[]",
          "name": "builderUrls_",
          "type": "string[]"
        }
      ],
      "stateMutability": "nonpayable",
      "type": "constructor"
    },
    {
      "inputs": [
        {
          "internalType": "address",
          "name": "",
          "type": "address"
        },
        {
          "internalType": "bytes",
          "name": "",
          "type": "bytes"
        }
      ],
      "name": "PeekerReverted",
      "type": "error"
    },
    {
      "anonymous": false,
      "inputs": [
        {
          "indexed": false,
          "internalType": "Suave.BidId",
          "name": "bidId",
          "type": "bytes16"
        },
        {
          "indexed": false,
          "internalType": "uint64",
          "name": "decryptionCondition",
          "type": "uint64"
        },
        {
          "indexed": false,
          "internalType": "address[]",
          "name": "allowedPeekers",
          "type": "address[]"
        }
      ],
      "name": "BidEvent",
      "type": "event"
    },
    {
      "anonymous": false,
      "inputs": [
        {
          "indexed": false,
          "internalType": "Suave.BidId",
          "name": "bidId",
          "type": "bytes16"
        },
        {
          "indexed": false,
          "internalType": "bytes",
          "name": "hint",
          "type": "bytes"
        }
      ],
      "name": "HintEvent",
      "type": "event"
    },
    {
      "anonymous": false,
      "inputs": [
        {
          "indexed": false,
          "internalType": "Suave.BidId",
          "name": "matchBidId",
          "type": "bytes16"
        },
        {
          "indexed": false,
          "internalType": "bytes",
          "name": "matchHint",
          "type": "bytes"
        }
      ],
      "name": "MatchEvent",
      "type": "event"
    },
    {
      "inputs": [
        {
          "internalType": "uint256",
          "name": "",
          "type": "uint256"
        }
      ],
      "name": "builderUrls",
      "outputs": [
        {
          "internalType": "string",
          "name": "",
          "type": "string"
        }
      ],
      "stateMutability": "view",
      "type": "function"
    },
    {
      "inputs": [
        {
          "components": [
            {
              "internalType": "Suave.BidId",
              "name": "id",
              "type": "bytes16"
            },
            {
              "internalType": "Suave.BidId",
              "name": "salt",
              "type": "bytes16"
            },
            {
              "internalType": "uint64",
              "name": "decryptionCondition",
              "type": "uint64"
            },
            {
              "internalType": "address[]",
              "name": "allowedPeekers",
              "type": "address[]"
            },
            {
              "internalType": "address[]",
              "name": "allowedStores",
              "type": "address[]"
            },
            {
              "internalType": "string",
              "name": "version",
              "type": "string"
            }
          ],
          "internalType": "struct Suave.Bid",
          "name": "bid",
          "type": "tuple"
        }
      ],
      "name": "emitBid",
      "outputs": [],
      "stateMutability": "nonpayable",
      "type": "function"
    },
    {
      "inputs": [
        {
          "components": [
            {
              "internalType": "Suave.BidId",
              "name": "id",
              "type": "bytes16"
            },
            {
              "internalType": "Suave.BidId",
              "name": "salt",
              "type": "bytes16"
            },
            {
              "internalType": "uint64",
              "name": "decryptionCondition",
              "type": "uint64"
            },
            {
              "internalType": "address[]",
              "name": "allowedPeekers",
              "type": "address[]"
            },
            {
              "internalType": "address[]",
              "name": "allowedStores",
              "type": "address[]"
            },
            {
              "internalType": "string",
              "name": "version",
              "type": "string"
            }
          ],
          "internalType": "struct Suave.Bid",
          "name": "bid",
          "type": "tuple"
        },
        {
          "internalType": "bytes",
          "name": "hint",
          "type": "bytes"
        }
      ],
      "name": "emitBidAndHint",
      "outputs": [],
      "stateMutability": "nonpayable",
      "type": "function"
    },
    {
      "inputs": [],
      "name": "fetchBidConfidentialBundleData",
      "outputs": [
        {
          "internalType": "bytes",
          "name": "",
          "type": "bytes"
        }
      ],
      "stateMutability": "nonpayable",
      "type": "function"
    },
    {
      "inputs": [
        {
          "internalType": "uint64",
          "name": "decryptionCondition",
          "type": "uint64"
        },
        {
          "internalType": "address[]",
          "name": "bidAllowedPeekers",
          "type": "address[]"
        },
        {
          "internalType": "address[]",
          "name": "bidAllowedStores",
          "type": "address[]"
        }
      ],
      "name": "newBid",
      "outputs": [
        {
          "internalType": "bytes",
          "name": "",
          "type": "bytes"
        }
      ],
      "stateMutability": "payable",
      "type": "function"
    },
    {
      "inputs": [
        {
          "internalType": "uint64",
          "name": "decryptionCondition",
          "type": "uint64"
        },
        {
          "internalType": "address[]",
          "name": "bidAllowedPeekers",
          "type": "address[]"
        },
        {
          "internalType": "address[]",
          "name": "bidAllowedStores",
          "type": "address[]"
        },
        {
          "internalType": "Suave.BidId",
          "name": "shareBidId",
          "type": "bytes16"
        }
      ],
      "name": "newMatch",
      "outputs": [
        {
          "internalType": "bytes",
          "name": "",
          "type": "bytes"
        }
      ],
      "stateMutability": "payable",
      "type": "function"
    }
  ],
  "bytecode": {
    "object": "0x60806040523480156200001157600080fd5b5060405162001d7a38038062001d7a833981016040819052620000349162000171565b80516200004990600090602084019062000051565b505062000410565b8280548282559060005260206000209081019282156200009c579160200282015b828111156200009c57825182906200008b908262000344565b509160200191906001019062000072565b50620000aa929150620000ae565b5090565b80821115620000aa576000620000c58282620000cf565b50600101620000ae565b508054620000dd90620002b5565b6000825580601f10620000ee575050565b601f0160209004906000526020600020908101906200010e919062000111565b50565b5b80821115620000aa576000815560010162000112565b634e487b7160e01b600052604160045260246000fd5b604051601f8201601f191681016001600160401b038111828210171562000169576200016962000128565b604052919050565b600060208083850312156200018557600080fd5b82516001600160401b03808211156200019d57600080fd5b8185019150601f8681840112620001b357600080fd5b825182811115620001c857620001c862000128565b8060051b620001d98682016200013e565b918252848101860191868101908a841115620001f457600080fd5b87870192505b83831015620002a757825186811115620002145760008081fd5b8701603f81018c13620002275760008081fd5b88810151878111156200023e576200023e62000128565b62000251818801601f19168b016200013e565b81815260408e81848601011115620002695760008081fd5b60005b8381101562000289578481018201518382018e01528c016200026c565b505060009181018b01919091528352509187019190870190620001fa565b9a9950505050505050505050565b600181811c90821680620002ca57607f821691505b602082108103620002eb57634e487b7160e01b600052602260045260246000fd5b50919050565b601f8211156200033f57600081815260208120601f850160051c810160208610156200031a5750805b601f850160051c820191505b818110156200033b5782815560010162000326565b5050505b505050565b81516001600160401b0381111562000360576200036062000128565b6200037881620003718454620002b5565b84620002f1565b602080601f831160018114620003b05760008415620003975750858301515b600019600386901b1c1916600185901b1785556200033b565b600085815260208120601f198616915b82811015620003e157888601518255948401946001909101908401620003c0565b5085821015620004005787850151600019600388901b60f8161c191681555b5050505050600190811b01905550565b61195a80620004206000396000f3fe6080604052600436106100555760003560e01c80631141a0b01461005a578063236eb5a71461009057806389026c11146100a357806392f07a58146100c5578063c0b9d287146100da578063d8f55db9146100fa575b600080fd5b34801561006657600080fd5b5061007a610075366004610f00565b61010d565b6040516100879190610f69565b60405180910390f35b61007a61009e3660046110ae565b6101b9565b3480156100af57600080fd5b506100c36100be366004611162565b610401565b005b3480156100d157600080fd5b5061007a61049b565b3480156100e657600080fd5b506100c36100f5366004611203565b6104d4565b61007a61010836600461124d565b610528565b6000818154811061011d57600080fd5b906000526020600020016000915090508054610138906112d5565b80601f0160208091040260200160405190810160405280929190818152602001828054610164906112d5565b80156101b15780601f10610186576101008083540402835291602001916101b1565b820191906000526020600020905b81548152906001019060200180831161019457829003601f168201915b505050505081565b60606101c361075e565b6101cc57600080fd5b6000306001600160a01b03166392f07a586040518163ffffffff1660e01b81526004016000604051808303816000875af115801561020e573d6000803e3d6000fd5b505050506040513d6000823e601f3d908101601f191682016040526102369190810190611339565b90506000610243826107e7565b90506000610250836108ac565b905060006102958888886040518060400160405280601c81526020017f6d657673686172653a76303a756e6d61746368656442756e646c657300000000815250610966565b90506102d48160000151604051806040016040528060168152602001756d657673686172653a76303a65746842756e646c657360501b81525086610a63565b8051604080518082018252601f81527f6d657673686172653a76303a65746842756e646c6553696d526573756c74730060208083019190915282516001600160401b0388169181019190915261033b9392015b604051602081830303815290604052610a63565b60008051602061192e833981519152816000015182604001518360600151604051610368939291906113c5565b60405180910390a180516040517fdab8306bad2ca820d05b9eff8da2e3016d372c15f00bb032f758718b9cda3950916103a29185906113f7565b60405180910390a16040516389026c1160e01b906103c69083908590602001611497565b60408051601f19818403018152908290526103e492916020016114bc565b6040516020818303038152906040529450505050505b9392505050565b60008051602061192e83398151915261041d60208401846114ed565b61042d606085016040860161150a565b61043a6060860186611527565b60405161044a9493929190611577565b60405180910390a17fdab8306bad2ca820d05b9eff8da2e3016d372c15f00bb032f758718b9cda395061048060208401846114ed565b8260405161048f9291906113f7565b60405180910390a15050565b60606104a561075e565b6104ae57600080fd5b60006104b8610b15565b9050808060200190518101906104ce9190611339565b91505090565b60008051602061192e8339815191526104f060208301836114ed565b610500606084016040850161150a565b61050d6060850185611527565b60405161051d9493929190611577565b60405180910390a150565b606061053261075e565b61053b57600080fd5b6000306001600160a01b03166392f07a586040518163ffffffff1660e01b81526004016000604051808303816000875af115801561057d573d6000803e3d6000fd5b505050506040513d6000823e601f3d908101601f191682016040526105a59190810190611339565b905060006105b2826107e7565b905060006105bf836108ac565b905060006105fc898989604051806040016040528060158152602001746d657673686172653a76303a6d617463684269647360581b815250610966565b905061063b8160000151604051806040016040528060168152602001756d657673686172653a76303a65746842756e646c657360501b81525086610a63565b8051604080518082018252601f81527f6d657673686172653a76303a65746842756e646c6553696d526573756c747300602080830191909152825160009181019190915261068a939201610327565b60408051600280825260608201835260009260208301908036833701905050905086816000815181106106bf576106bf6115ec565b6001600160801b03199092166020928302919091019091015281518151829060019081106106ef576106ef6115ec565b6001600160801b0319909216602092830291909101820152825160408051808201825260168152756d657673686172653a76303a6d65726765644269647360501b8185015290516107469361032791869101611602565b6107508284610bad565b9a9950505050505050505050565b6040516000908190819063420100009082818181855afa9150503d80600081146107a4576040519150601f19603f3d011682016040523d82523d6000602084013e6107a9565b606091505b5091509150816107dd576342010000816040516375fff46760e01b81526004016107d4929190611650565b60405180910390fd5b6020015192915050565b600080600063421000006001600160a01b03168460405160200161080b9190610f69565b60408051601f198184030181529082905261082591611674565b600060405180830381855afa9150503d8060008114610860576040519150601f19603f3d011682016040523d82523d6000602084013e610865565b606091505b509150915081610890576342100000816040516375fff46760e01b81526004016107d4929190611650565b808060200190518101906108a491906116a0565b949350505050565b60606108b661075e565b6108bf57600080fd5b60008063421000376001600160a01b0316846040516020016108e19190610f69565b60408051601f19818403018152908290526108fb91611674565b600060405180830381855afa9150503d8060008114610936576040519150601f19603f3d011682016040523d82523d6000602084013e61093b565b606091505b5091509150816103fa576342100037816040516375fff46760e01b81526004016107d4929190611650565b6040805160c0810182526000808252602082018190529181019190915260608082018190526080820181905260a082015260008063420300006001600160a01b0316878787876040516020016109bf94939291906116bd565b60408051601f19818403018152908290526109d991611674565b600060405180830381855afa9150503d8060008114610a14576040519150601f19603f3d011682016040523d82523d6000602084013e610a19565b606091505b509150915081610a44576342030000816040516375fff46760e01b81526004016107d4929190611650565b80806020019051810190610a589190611794565b979650505050505050565b60008063420200006001600160a01b0316858585604051602001610a899392919061187b565b60408051601f1981840301815290829052610aa391611674565b600060405180830381855afa9150503d8060008114610ade576040519150601f19603f3d011682016040523d82523d6000602084013e610ae3565b606091505b509150915081610b0e576342020000816040516375fff46760e01b81526004016107d4929190611650565b5050505050565b604080516000808252602082019283905260609290918291634201000191610b3c91611674565b600060405180830381855afa9150503d8060008114610b77576040519150601f19603f3d011682016040523d82523d6000602084013e610b7c565b606091505b509150915081610ba7576342010001816040516375fff46760e01b81526004016107d4929190611650565b92915050565b60606000610bbe8460000151610cc1565b905060005b600054811015610cb657610ca360008281548110610be357610be36115ec565b906000526020600020018054610bf8906112d5565b80601f0160208091040260200160405190810160405280929190818152602001828054610c24906112d5565b8015610c715780601f10610c4657610100808354040283529160200191610c71565b820191906000526020600020905b815481529060010190602001808311610c5457829003601f168201915b50505050506040518060400160405280600e81526020016d6d65765f73656e6442756e646c6560901b81525084610d79565b5080610cae816118ba565b915050610bc3565b506108a48484610e40565b6060610ccb61075e565b610cd457600080fd5b604080516001600160801b03198416602082015260009182916343200001910160408051601f1981840301815290829052610d0e91611674565b600060405180830381855afa9150503d8060008114610d49576040519150601f19603f3d011682016040523d82523d6000602084013e610d4e565b606091505b5091509150816103fa576343200001816040516375fff46760e01b81526004016107d4929190611650565b6060610d8361075e565b610d8c57600080fd5b60008063430000016001600160a01b0316868686604051602001610db2939291906118e1565b60408051601f1981840301815290829052610dcc91611674565b600060405180830381855afa9150503d8060008114610e07576040519150601f19603f3d011682016040523d82523d6000602084013e610e0c565b606091505b509150915081610e37576343000001816040516375fff46760e01b81526004016107d4929190611650565b95945050505050565b606060008051602061192e833981519152836000015184604001518560600151604051610e6f939291906113c5565b60405180910390a182516040517fafa6f6affefc1010901fc56588695137d9939d2d8b34b30abee96af800a1adc291610ea99185906113f7565b60405180910390a160405163c0b9d28760e01b90610ecb90859060200161191a565b60408051601f1981840301815290829052610ee992916020016114bc565b604051602081830303815290604052905092915050565b600060208284031215610f1257600080fd5b5035919050565b60005b83811015610f34578181015183820152602001610f1c565b50506000910152565b60008151808452610f55816020860160208601610f19565b601f01601f19169290920160200192915050565b6020815260006103fa6020830184610f3d565b6001600160401b0381168114610f9157600080fd5b50565b634e487b7160e01b600052604160045260246000fd5b60405160c081016001600160401b0381118282101715610fcc57610fcc610f94565b60405290565b604051601f8201601f191681016001600160401b0381118282101715610ffa57610ffa610f94565b604052919050565b60006001600160401b0382111561101b5761101b610f94565b5060051b60200190565b6001600160a01b0381168114610f9157600080fd5b600082601f83011261104b57600080fd5b8135602061106061105b83611002565b610fd2565b82815260059290921b8401810191818101908684111561107f57600080fd5b8286015b848110156110a357803561109681611025565b8352918301918301611083565b509695505050505050565b6000806000606084860312156110c357600080fd5b83356110ce81610f7c565b925060208401356001600160401b03808211156110ea57600080fd5b6110f68783880161103a565b9350604086013591508082111561110c57600080fd5b506111198682870161103a565b9150509250925092565b600060c0828403121561113557600080fd5b50919050565b60006001600160401b0382111561115457611154610f94565b50601f01601f191660200190565b6000806040838503121561117557600080fd5b82356001600160401b038082111561118c57600080fd5b61119886838701611123565b935060208501359150808211156111ae57600080fd5b508301601f810185136111c057600080fd5b80356111ce61105b8261113b565b8181528660208385010111156111e357600080fd5b816020840160208301376000602083830101528093505050509250929050565b60006020828403121561121557600080fd5b81356001600160401b0381111561122b57600080fd5b6108a484828501611123565b6001600160801b031981168114610f9157600080fd5b6000806000806080858703121561126357600080fd5b843561126e81610f7c565b935060208501356001600160401b038082111561128a57600080fd5b6112968883890161103a565b945060408701359150808211156112ac57600080fd5b506112b98782880161103a565b92505060608501356112ca81611237565b939692955090935050565b600181811c908216806112e957607f821691505b60208210810361113557634e487b7160e01b600052602260045260246000fd5b600061131761105b8461113b565b905082815283838301111561132b57600080fd5b6103fa836020830184610f19565b60006020828403121561134b57600080fd5b81516001600160401b0381111561136157600080fd5b8201601f8101841361137257600080fd5b6108a484825160208401611309565b600081518084526020808501945080840160005b838110156113ba5781516001600160a01b031687529582019590820190600101611395565b509495945050505050565b6001600160801b0319841681526001600160401b0383166020820152606060408201526000610e376060830184611381565b6001600160801b0319831681526040602082015260006108a46040830184610f3d565b60006001600160801b0319808351168452806020840151166020850152506001600160401b036040830151166040840152606082015160c0606085015261146460c0850182611381565b90506080830151848203608086015261147d8282611381565b91505060a083015184820360a0860152610e378282610f3d565b6040815260006114aa604083018561141a565b8281036020840152610e378185610f3d565b6001600160e01b03198316815281516000906114df816004850160208701610f19565b919091016004019392505050565b6000602082840312156114ff57600080fd5b81356103fa81611237565b60006020828403121561151c57600080fd5b81356103fa81610f7c565b6000808335601e1984360301811261153e57600080fd5b8301803591506001600160401b0382111561155857600080fd5b6020019150600581901b360382131561157057600080fd5b9250929050565b6000606082016001600160801b03198716835260206001600160401b03871681850152606060408501528185835260808501905086925060005b868110156115df5783356115c481611025565b6001600160a01b0316825292820192908201906001016115b1565b5098975050505050505050565b634e487b7160e01b600052603260045260246000fd5b6020808252825182820181905260009190848201906040850190845b818110156116445783516001600160801b0319168352928401929184019160010161161e565b50909695505050505050565b6001600160a01b03831681526040602082018190526000906108a490830184610f3d565b60008251611686818460208701610f19565b9190910192915050565b805161169b81610f7c565b919050565b6000602082840312156116b257600080fd5b81516103fa81610f7c565b6001600160401b03851681526080602082015260006116df6080830186611381565b82810360408401526116f18186611381565b90508281036060840152610a588185610f3d565b805161169b81611237565b600082601f83011261172157600080fd5b8151602061173161105b83611002565b82815260059290921b8401810191818101908684111561175057600080fd5b8286015b848110156110a357805161176781611025565b8352918301918301611754565b600082601f83011261178557600080fd5b6103fa83835160208501611309565b6000602082840312156117a657600080fd5b81516001600160401b03808211156117bd57600080fd5b9083019060c082860312156117d157600080fd5b6117d9610faa565b6117e283611705565b81526117f060208401611705565b602082015261180160408401611690565b604082015260608301518281111561181857600080fd5b61182487828601611710565b60608301525060808301518281111561183c57600080fd5b61184887828601611710565b60808301525060a08301518281111561186057600080fd5b61186c87828601611774565b60a08301525095945050505050565b6001600160801b03198416815260606020820152600061189e6060830185610f3d565b82810360408401526118b08185610f3d565b9695505050505050565b6000600182016118da57634e487b7160e01b600052601160045260246000fd5b5060010190565b6060815260006118f46060830186610f3d565b82810360208401526119068186610f3d565b905082810360408401526118b08185610f3d565b6020815260006103fa602083018461141a56fe83481d5b04dea534715acad673a8177a46fc93882760f36bdc16ccac439d504ea164736f6c6343000813000a",
    "linkReferences": {}
  },
  "methodIdentifiers": {
    "builderUrls(uint256)": "1141a0b0",
    "emitBid((bytes16,bytes16,uint64,address[],address[],string))": "c0b9d287",
    "emitBidAndHint((bytes16,bytes16,uint64,address[],address[],string),bytes)": "89026c11",
    "fetchBidConfidentialBundleData()": "92f07a58",
    "newBid(uint64,address[],address[])": "236eb5a7",
    "newMatch(uint64,address[],address[],bytes16)": "d8f55db9"
  },
  "id": 25
}