{
  "abi": [
    {
      "inputs": [
        {
          "internalType": "address",
          "name": "",
          "type": "address"
        },
        {
          "internalType": "bytes",
          "name": "",
          "type": "bytes"
        }
      ],
      "name": "PeekerReverted",
      "type": "error"
    },
    {
      "anonymous": false,
      "inputs": [
        {
          "indexed": false,
          "internalType": "Suave.BidId",
          "name": "bidId",
          "type": "bytes16"
        },
        {
          "indexed": false,
          "internalType": "uint64",
          "name": "decryptionCondition",
          "type": "uint64"
        },
        {
          "indexed": false,
          "internalType": "address[]",
          "name": "allowedPeekers",
          "type": "address[]"
        }
      ],
      "name": "BidEvent",
      "type": "event"
    },
    {
      "anonymous": false,
      "inputs": [
        {
          "indexed": false,
          "internalType": "Suave.BidId",
          "name": "bidId",
          "type": "bytes16"
        },
        {
          "indexed": false,
          "internalType": "bytes",
          "name": "hint",
          "type": "bytes"
        }
      ],
      "name": "HintEvent",
      "type": "event"
    },
    {
      "anonymous": false,
      "inputs": [
        {
          "indexed": false,
          "internalType": "Suave.BidId",
          "name": "matchBidId",
          "type": "bytes16"
        },
        {
          "indexed": false,
          "internalType": "bytes",
          "name": "matchHint",
          "type": "bytes"
        }
      ],
      "name": "MatchEvent",
      "type": "event"
    },
    {
      "inputs": [
        {
          "components": [
            {
              "internalType": "Suave.BidId",
              "name": "id",
              "type": "bytes16"
            },
            {
              "internalType": "Suave.BidId",
              "name": "salt",
              "type": "bytes16"
            },
            {
              "internalType": "uint64",
              "name": "decryptionCondition",
              "type": "uint64"
            },
            {
              "internalType": "address[]",
              "name": "allowedPeekers",
              "type": "address[]"
            },
            {
              "internalType": "address[]",
              "name": "allowedStores",
              "type": "address[]"
            },
            {
              "internalType": "string",
              "name": "version",
              "type": "string"
            }
          ],
          "internalType": "struct Suave.Bid",
          "name": "bid",
          "type": "tuple"
        }
      ],
      "name": "emitBid",
      "outputs": [],
      "stateMutability": "nonpayable",
      "type": "function"
    },
    {
      "inputs": [
        {
          "components": [
            {
              "internalType": "Suave.BidId",
              "name": "id",
              "type": "bytes16"
            },
            {
              "internalType": "Suave.BidId",
              "name": "salt",
              "type": "bytes16"
            },
            {
              "internalType": "uint64",
              "name": "decryptionCondition",
              "type": "uint64"
            },
            {
              "internalType": "address[]",
              "name": "allowedPeekers",
              "type": "address[]"
            },
            {
              "internalType": "address[]",
              "name": "allowedStores",
              "type": "address[]"
            },
            {
              "internalType": "string",
              "name": "version",
              "type": "string"
            }
          ],
          "internalType": "struct Suave.Bid",
          "name": "bid",
          "type": "tuple"
        },
        {
          "internalType": "bytes",
          "name": "hint",
          "type": "bytes"
        }
      ],
      "name": "emitBidAndHint",
      "outputs": [],
      "stateMutability": "nonpayable",
      "type": "function"
    },
    {
      "inputs": [],
      "name": "fetchBidConfidentialBundleData",
      "outputs": [
        {
          "internalType": "bytes",
          "name": "",
          "type": "bytes"
        }
      ],
      "stateMutability": "nonpayable",
      "type": "function"
    },
    {
      "inputs": [
        {
          "internalType": "uint64",
          "name": "decryptionCondition",
          "type": "uint64"
        },
        {
          "internalType": "address[]",
          "name": "bidAllowedPeekers",
          "type": "address[]"
        },
        {
          "internalType": "address[]",
          "name": "bidAllowedStores",
          "type": "address[]"
        }
      ],
      "name": "newBid",
      "outputs": [
        {
          "internalType": "bytes",
          "name": "",
          "type": "bytes"
        }
      ],
      "stateMutability": "payable",
      "type": "function"
    },
    {
      "inputs": [
        {
          "internalType": "uint64",
          "name": "decryptionCondition",
          "type": "uint64"
        },
        {
          "internalType": "address[]",
          "name": "bidAllowedPeekers",
          "type": "address[]"
        },
        {
          "internalType": "address[]",
          "name": "bidAllowedStores",
          "type": "address[]"
        },
        {
          "internalType": "Suave.BidId",
          "name": "shareBidId",
          "type": "bytes16"
        }
      ],
      "name": "newMatch",
      "outputs": [
        {
          "internalType": "bytes",
          "name": "",
          "type": "bytes"
        }
      ],
      "stateMutability": "payable",
      "type": "function"
    }
  ],
  "bytecode": {
    "object": "0x608060405234801561001057600080fd5b5061154c806100206000396000f3fe60806040526004361061004a5760003560e01c8063236eb5a71461004f57806389026c111461007857806392f07a581461009a578063c0b9d287146100af578063d8f55db9146100cf575b600080fd5b61006261005d366004610cc8565b6100e2565b60405161006f9190610d8d565b60405180910390f35b34801561008457600080fd5b50610098610093366004610ddf565b61032a565b005b3480156100a657600080fd5b506100626103c4565b3480156100bb57600080fd5b506100986100ca366004610e80565b6103fd565b6100626100dd366004610eca565b610451565b60606100ec610687565b6100f557600080fd5b6000306001600160a01b03166392f07a586040518163ffffffff1660e01b81526004016000604051808303816000875af1158015610137573d6000803e3d6000fd5b505050506040513d6000823e601f3d908101601f1916820160405261015f9190810190610f82565b9050600061016c82610710565b90506000610179836107d5565b905060006101be8888886040518060400160405280601c81526020017f6d657673686172653a76303a756e6d61746368656442756e646c65730000000081525061088f565b90506101fd8160000151604051806040016040528060168152602001756d657673686172653a76303a65746842756e646c657360501b8152508661098c565b8051604080518082018252601f81527f6d657673686172653a76303a65746842756e646c6553696d526573756c74730060208083019190915282516001600160401b038816918101919091526102649392015b60405160208183030381529060405261098c565b6000805160206115208339815191528160000151826040015183606001516040516102919392919061100e565b60405180910390a180516040517fdab8306bad2ca820d05b9eff8da2e3016d372c15f00bb032f758718b9cda3950916102cb918590611049565b60405180910390a16040516389026c1160e01b906102ef90839085906020016110e9565b60408051601f198184030181529082905261030d929160200161110e565b6040516020818303038152906040529450505050505b9392505050565b600080516020611520833981519152610346602084018461113f565b610356606085016040860161115c565b6103636060860186611179565b60405161037394939291906111c9565b60405180910390a17fdab8306bad2ca820d05b9eff8da2e3016d372c15f00bb032f758718b9cda39506103a9602084018461113f565b826040516103b8929190611049565b60405180910390a15050565b60606103ce610687565b6103d757600080fd5b60006103e1610a3e565b9050808060200190518101906103f79190610f82565b91505090565b600080516020611520833981519152610419602083018361113f565b610429606084016040850161115c565b6104366060850185611179565b60405161044694939291906111c9565b60405180910390a150565b606061045b610687565b61046457600080fd5b6000306001600160a01b03166392f07a586040518163ffffffff1660e01b81526004016000604051808303816000875af11580156104a6573d6000803e3d6000fd5b505050506040513d6000823e601f3d908101601f191682016040526104ce9190810190610f82565b905060006104db82610710565b905060006104e8836107d5565b90506000610525898989604051806040016040528060158152602001746d657673686172653a76303a6d617463684269647360581b81525061088f565b90506105648160000151604051806040016040528060168152602001756d657673686172653a76303a65746842756e646c657360501b8152508661098c565b8051604080518082018252601f81527f6d657673686172653a76303a65746842756e646c6553696d526573756c74730060208083019190915282516000918101919091526105b3939201610250565b60408051600280825260608201835260009260208301908036833701905050905086816000815181106105e8576105e861123e565b6001600160801b03199092166020928302919091019091015281518151829060019081106106185761061861123e565b6001600160801b0319909216602092830291909101820152825160408051808201825260168152756d657673686172653a76303a6d65726765644269647360501b81850152905161066f9361025091869101611254565b6106798284610ad6565b9a9950505050505050505050565b6040516000908190819063420100009082818181855afa9150503d80600081146106cd576040519150601f19603f3d011682016040523d82523d6000602084013e6106d2565b606091505b509150915081610706576342010000816040516375fff46760e01b81526004016106fd9291906112a2565b60405180910390fd5b6020015192915050565b600080600063421000006001600160a01b0316846040516020016107349190610d8d565b60408051601f198184030181529082905261074e916112c6565b600060405180830381855afa9150503d8060008114610789576040519150601f19603f3d011682016040523d82523d6000602084013e61078e565b606091505b5091509150816107b9576342100000816040516375fff46760e01b81526004016106fd9291906112a2565b808060200190518101906107cd91906112f2565b949350505050565b60606107df610687565b6107e857600080fd5b60008063421000376001600160a01b03168460405160200161080a9190610d8d565b60408051601f1981840301815290829052610824916112c6565b600060405180830381855afa9150503d806000811461085f576040519150601f19603f3d011682016040523d82523d6000602084013e610864565b606091505b509150915081610323576342100037816040516375fff46760e01b81526004016106fd9291906112a2565b6040805160c0810182526000808252602082018190529181019190915260608082018190526080820181905260a082015260008063420300006001600160a01b0316878787876040516020016108e8949392919061130f565b60408051601f1981840301815290829052610902916112c6565b600060405180830381855afa9150503d806000811461093d576040519150601f19603f3d011682016040523d82523d6000602084013e610942565b606091505b50915091508161096d576342030000816040516375fff46760e01b81526004016106fd9291906112a2565b8080602001905181019061098191906113e6565b979650505050505050565b60008063420200006001600160a01b03168585856040516020016109b2939291906114cd565b60408051601f19818403018152908290526109cc916112c6565b600060405180830381855afa9150503d8060008114610a07576040519150601f19603f3d011682016040523d82523d6000602084013e610a0c565b606091505b509150915081610a37576342020000816040516375fff46760e01b81526004016106fd9291906112a2565b5050505050565b604080516000808252602082019283905260609290918291634201000191610a65916112c6565b600060405180830381855afa9150503d8060008114610aa0576040519150601f19603f3d011682016040523d82523d6000602084013e610aa5565b606091505b509150915081610ad0576342010001816040516375fff46760e01b81526004016106fd9291906112a2565b92915050565b6060600080516020611520833981519152836000015184604001518560600151604051610b059392919061100e565b60405180910390a182516040517fafa6f6affefc1010901fc56588695137d9939d2d8b34b30abee96af800a1adc291610b3f918590611049565b60405180910390a160405163c0b9d28760e01b90610b6190859060200161150c565b60408051601f1981840301815290829052610b7f929160200161110e565b604051602081830303815290604052905092915050565b6001600160401b0381168114610bab57600080fd5b50565b634e487b7160e01b600052604160045260246000fd5b60405160c081016001600160401b0381118282101715610be657610be6610bae565b60405290565b604051601f8201601f191681016001600160401b0381118282101715610c1457610c14610bae565b604052919050565b60006001600160401b03821115610c3557610c35610bae565b5060051b60200190565b6001600160a01b0381168114610bab57600080fd5b600082601f830112610c6557600080fd5b81356020610c7a610c7583610c1c565b610bec565b82815260059290921b84018101918181019086841115610c9957600080fd5b8286015b84811015610cbd578035610cb081610c3f565b8352918301918301610c9d565b509695505050505050565b600080600060608486031215610cdd57600080fd5b8335610ce881610b96565b925060208401356001600160401b0380821115610d0457600080fd5b610d1087838801610c54565b93506040860135915080821115610d2657600080fd5b50610d3386828701610c54565b9150509250925092565b60005b83811015610d58578181015183820152602001610d40565b50506000910152565b60008151808452610d79816020860160208601610d3d565b601f01601f19169290920160200192915050565b6020815260006103236020830184610d61565b600060c08284031215610db257600080fd5b50919050565b60006001600160401b03821115610dd157610dd1610bae565b50601f01601f191660200190565b60008060408385031215610df257600080fd5b82356001600160401b0380821115610e0957600080fd5b610e1586838701610da0565b93506020850135915080821115610e2b57600080fd5b508301601f81018513610e3d57600080fd5b8035610e4b610c7582610db8565b818152866020838501011115610e6057600080fd5b816020840160208301376000602083830101528093505050509250929050565b600060208284031215610e9257600080fd5b81356001600160401b03811115610ea857600080fd5b6107cd84828501610da0565b6001600160801b031981168114610bab57600080fd5b60008060008060808587031215610ee057600080fd5b8435610eeb81610b96565b935060208501356001600160401b0380821115610f0757600080fd5b610f1388838901610c54565b94506040870135915080821115610f2957600080fd5b50610f3687828801610c54565b9250506060850135610f4781610eb4565b939692955090935050565b6000610f60610c7584610db8565b9050828152838383011115610f7457600080fd5b610323836020830184610d3d565b600060208284031215610f9457600080fd5b81516001600160401b03811115610faa57600080fd5b8201601f81018413610fbb57600080fd5b6107cd84825160208401610f52565b600081518084526020808501945080840160005b838110156110035781516001600160a01b031687529582019590820190600101610fde565b509495945050505050565b6001600160801b0319841681526001600160401b03831660208201526060604082015260006110406060830184610fca565b95945050505050565b6001600160801b0319831681526040602082015260006107cd6040830184610d61565b60006001600160801b0319808351168452806020840151166020850152506001600160401b036040830151166040840152606082015160c060608501526110b660c0850182610fca565b9050608083015184820360808601526110cf8282610fca565b91505060a083015184820360a08601526110408282610d61565b6040815260006110fc604083018561106c565b82810360208401526110408185610d61565b6001600160e01b0319831681528151600090611131816004850160208701610d3d565b919091016004019392505050565b60006020828403121561115157600080fd5b813561032381610eb4565b60006020828403121561116e57600080fd5b813561032381610b96565b6000808335601e1984360301811261119057600080fd5b8301803591506001600160401b038211156111aa57600080fd5b6020019150600581901b36038213156111c257600080fd5b9250929050565b6000606082016001600160801b03198716835260206001600160401b03871681850152606060408501528185835260808501905086925060005b8681101561123157833561121681610c3f565b6001600160a01b031682529282019290820190600101611203565b5098975050505050505050565b634e487b7160e01b600052603260045260246000fd5b6020808252825182820181905260009190848201906040850190845b818110156112965783516001600160801b03191683529284019291840191600101611270565b50909695505050505050565b6001600160a01b03831681526040602082018190526000906107cd90830184610d61565b600082516112d8818460208701610d3d565b9190910192915050565b80516112ed81610b96565b919050565b60006020828403121561130457600080fd5b815161032381610b96565b6001600160401b03851681526080602082015260006113316080830186610fca565b82810360408401526113438186610fca565b905082810360608401526109818185610d61565b80516112ed81610eb4565b600082601f83011261137357600080fd5b81516020611383610c7583610c1c565b82815260059290921b840181019181810190868411156113a257600080fd5b8286015b84811015610cbd5780516113b981610c3f565b83529183019183016113a6565b600082601f8301126113d757600080fd5b61032383835160208501610f52565b6000602082840312156113f857600080fd5b81516001600160401b038082111561140f57600080fd5b9083019060c0828603121561142357600080fd5b61142b610bc4565b61143483611357565b815261144260208401611357565b6020820152611453604084016112e2565b604082015260608301518281111561146a57600080fd5b61147687828601611362565b60608301525060808301518281111561148e57600080fd5b61149a87828601611362565b60808301525060a0830151828111156114b257600080fd5b6114be878286016113c6565b60a08301525095945050505050565b6001600160801b0319841681526060602082015260006114f06060830185610d61565b82810360408401526115028185610d61565b9695505050505050565b602081526000610323602083018461106c56fe83481d5b04dea534715acad673a8177a46fc93882760f36bdc16ccac439d504ea164736f6c6343000813000a"
  }
}