{
  "abi": [
    {
      "inputs": [
        {
          "internalType": "string[]",
          "name": "builderUrls_",
          "type": "string[]"
        }
      ],
      "stateMutability": "nonpayable",
      "type": "constructor"
    },
    {
      "anonymous": false,
      "inputs": [
        {
          "indexed": false,
          "internalType": "Suave.BidId",
          "name": "bidId",
          "type": "bytes16"
        },
        {
          "indexed": false,
          "internalType": "uint64",
          "name": "decryptionCondition",
          "type": "uint64"
        },
        {
          "indexed": false,
          "internalType": "address[]",
          "name": "allowedPeekers",
          "type": "address[]"
        }
      ],
      "name": "BidEvent",
      "type": "event"
    },
    {
      "anonymous": false,
      "inputs": [
        {
          "indexed": false,
          "internalType": "Suave.BidId",
          "name": "bidId",
          "type": "bytes16"
        },
        {
          "indexed": false,
          "internalType": "bytes",
          "name": "hint",
          "type": "bytes"
        }
      ],
      "name": "HintEvent",
      "type": "event"
    },
    {
      "anonymous": false,
      "inputs": [
        {
          "indexed": false,
          "internalType": "Suave.BidId",
          "name": "matchBidId",
          "type": "bytes16"
        },
        {
          "indexed": false,
          "internalType": "bytes",
          "name": "matchHint",
          "type": "bytes"
        }
      ],
      "name": "MatchEvent",
      "type": "event"
    },
    {
      "inputs": [
        {
          "internalType": "uint256",
          "name": "",
          "type": "uint256"
        }
      ],
      "name": "builderUrls",
      "outputs": [
        {
          "internalType": "string",
          "name": "",
          "type": "string"
        }
      ],
      "stateMutability": "view",
      "type": "function"
    },
    {
      "inputs": [
        {
          "components": [
            {
              "internalType": "Suave.BidId",
              "name": "id",
              "type": "bytes16"
            },
            {
              "internalType": "Suave.BidId",
              "name": "salt",
              "type": "bytes16"
            },
            {
              "internalType": "uint64",
              "name": "decryptionCondition",
              "type": "uint64"
            },
            {
              "internalType": "address[]",
              "name": "allowedPeekers",
              "type": "address[]"
            },
            {
              "internalType": "address[]",
              "name": "allowedStores",
              "type": "address[]"
            },
            {
              "internalType": "string",
              "name": "version",
              "type": "string"
            }
          ],
          "internalType": "struct Suave.Bid",
          "name": "bid",
          "type": "tuple"
        }
      ],
      "name": "emitBid",
      "outputs": [],
      "stateMutability": "nonpayable",
      "type": "function"
    },
    {
      "inputs": [
        {
          "components": [
            {
              "internalType": "Suave.BidId",
              "name": "id",
              "type": "bytes16"
            },
            {
              "internalType": "Suave.BidId",
              "name": "salt",
              "type": "bytes16"
            },
            {
              "internalType": "uint64",
              "name": "decryptionCondition",
              "type": "uint64"
            },
            {
              "internalType": "address[]",
              "name": "allowedPeekers",
              "type": "address[]"
            },
            {
              "internalType": "address[]",
              "name": "allowedStores",
              "type": "address[]"
            },
            {
              "internalType": "string",
              "name": "version",
              "type": "string"
            }
          ],
          "internalType": "struct Suave.Bid",
          "name": "bid",
          "type": "tuple"
        },
        {
          "internalType": "bytes",
          "name": "hint",
          "type": "bytes"
        }
      ],
      "name": "emitBidAndHint",
      "outputs": [],
      "stateMutability": "nonpayable",
      "type": "function"
    },
    {
      "inputs": [],
      "name": "fetchBidConfidentialBundleData",
      "outputs": [
        {
          "internalType": "bytes",
          "name": "",
          "type": "bytes"
        }
      ],
      "stateMutability": "nonpayable",
      "type": "function"
    },
    {
      "inputs": [
        {
          "internalType": "uint64",
          "name": "decryptionCondition",
          "type": "uint64"
        },
        {
          "internalType": "address[]",
          "name": "bidAllowedPeekers",
          "type": "address[]"
        },
        {
          "internalType": "address[]",
          "name": "bidAllowedStores",
          "type": "address[]"
        }
      ],
      "name": "newBid",
      "outputs": [
        {
          "internalType": "bytes",
          "name": "",
          "type": "bytes"
        }
      ],
      "stateMutability": "payable",
      "type": "function"
    },
    {
      "inputs": [
        {
          "internalType": "uint64",
          "name": "decryptionCondition",
          "type": "uint64"
        },
        {
          "internalType": "address[]",
          "name": "bidAllowedPeekers",
          "type": "address[]"
        },
        {
          "internalType": "address[]",
          "name": "bidAllowedStores",
          "type": "address[]"
        },
        {
          "internalType": "Suave.BidId",
          "name": "shareBidId",
          "type": "bytes16"
        }
      ],
      "name": "newMatch",
      "outputs": [
        {
          "internalType": "bytes",
          "name": "",
          "type": "bytes"
        }
      ],
      "stateMutability": "payable",
      "type": "function"
    }
  ],
  "bytecode": {
    "object": "0x60806040523480156200001157600080fd5b5060405162001ed238038062001ed2833981016040819052620000349162000171565b80516200004990600090602084019062000051565b505062000410565b8280548282559060005260206000209081019282156200009c579160200282015b828111156200009c57825182906200008b908262000344565b509160200191906001019062000072565b50620000aa929150620000ae565b5090565b80821115620000aa576000620000c58282620000cf565b50600101620000ae565b508054620000dd90620002b5565b6000825580601f10620000ee575050565b601f0160209004906000526020600020908101906200010e919062000111565b50565b5b80821115620000aa576000815560010162000112565b634e487b7160e01b600052604160045260246000fd5b604051601f8201601f191681016001600160401b038111828210171562000169576200016962000128565b604052919050565b600060208083850312156200018557600080fd5b82516001600160401b03808211156200019d57600080fd5b8185019150601f8681840112620001b357600080fd5b825182811115620001c857620001c862000128565b8060051b620001d98682016200013e565b918252848101860191868101908a841115620001f457600080fd5b87870192505b83831015620002a757825186811115620002145760008081fd5b8701603f81018c13620002275760008081fd5b88810151878111156200023e576200023e62000128565b62000251818801601f19168b016200013e565b81815260408e81848601011115620002695760008081fd5b60005b8381101562000289578481018201518382018e01528c016200026c565b505060009181018b01919091528352509187019190870190620001fa565b9a9950505050505050505050565b600181811c90821680620002ca57607f821691505b602082108103620002eb57634e487b7160e01b600052602260045260246000fd5b50919050565b601f8211156200033f57600081815260208120601f850160051c810160208610156200031a5750805b601f850160051c820191505b818110156200033b5782815560010162000326565b5050505b505050565b81516001600160401b0381111562000360576200036062000128565b6200037881620003718454620002b5565b84620002f1565b602080601f831160018114620003b05760008415620003975750858301515b600019600386901b1c1916600185901b1785556200033b565b600085815260208120601f198616915b82811015620003e157888601518255948401946001909101908401620003c0565b5085821015620004005787850151600019600388901b60f8161c191681555b5050505050600190811b01905550565b611ab280620004206000396000f3fe6080604052600436106100555760003560e01c80631141a0b01461005a578063236eb5a71461009057806389026c11146100a357806392f07a58146100c5578063c0b9d287146100da578063d8f55db9146100fa575b600080fd5b34801561006657600080fd5b5061007a610075366004610e73565b61010d565b6040516100879190610edc565b60405180910390f35b61007a61009e366004611021565b6101b9565b3480156100af57600080fd5b506100c36100be3660046110d5565b6105db565b005b3480156100d157600080fd5b5061007a610675565b3480156100e657600080fd5b506100c36100f5366004611176565b61077c565b61007a6101083660046111c0565b6107d0565b6000818154811061011d57600080fd5b90600052602060002001600091509050805461013890611248565b80601f016020809104026020016040519081016040528092919081815260200182805461016490611248565b80156101b15780601f10610186576101008083540402835291602001916101b1565b820191906000526020600020905b81548152906001019060200180831161019457829003601f168201915b505050505081565b606073__$e374338554c5da70f90c17374827737168$__630e38f3376040518163ffffffff1660e01b8152600401602060405180830381865af4158015610204573d6000803e3d6000fd5b505050506040513d601f19601f82011682018060405250810190610228919061127c565b61023157600080fd5b6000306001600160a01b03166392f07a586040518163ffffffff1660e01b81526004016000604051808303816000875af1158015610273573d6000803e3d6000fd5b505050506040513d6000823e601f3d908101601f1916820160405261029b91908101906112ce565b9050600073__$e374338554c5da70f90c17374827737168$__63023e8e2f836040518263ffffffff1660e01b81526004016102d69190610edc565b602060405180830381865af41580156102f3573d6000803e3d6000fd5b505050506040513d601f19601f820116820180604052508101906103179190611326565b9050600073__$e374338554c5da70f90c17374827737168$__6320f16c3e846040518263ffffffff1660e01b81526004016103529190610edc565b600060405180830381865af415801561036f573d6000803e3d6000fd5b505050506040513d6000823e601f3d908101601f1916820160405261039791908101906112ce565b9050600073__$e374338554c5da70f90c17374827737168$__634f5631418989896040518463ffffffff1660e01b81526004016103d693929190611387565b600060405180830381865af41580156103f3573d6000803e3d6000fd5b505050506040513d6000823e601f3d908101601f1916820160405261041b919081019061148c565b805160405163a90a6c5f60e01b815291925073__$e374338554c5da70f90c17374827737168$__9163a90a6c5f91610457918890600401611573565b60006040518083038186803b15801561046f57600080fd5b505af4158015610483573d6000803e3d6000fd5b50508251604080516001600160401b038816602082015273__$e374338554c5da70f90c17374827737168$__945063a90a6c5f9350016040516020818303038152906040526040518363ffffffff1660e01b81526004016104e59291906115c3565b60006040518083038186803b1580156104fd57600080fd5b505af4158015610511573d6000803e3d6000fd5b50505050600080516020611a868339815191528160000151826040015183606001516040516105429392919061161a565b60405180910390a180516040517fdab8306bad2ca820d05b9eff8da2e3016d372c15f00bb032f758718b9cda39509161057c918590611655565b60405180910390a16040516389026c1160e01b906105a090839085906020016116f5565b60408051601f19818403018152908290526105be929160200161171a565b6040516020818303038152906040529450505050505b9392505050565b600080516020611a868339815191526105f7602084018461174b565b6106076060850160408601611768565b6106146060860186611785565b60405161062494939291906117d5565b60405180910390a17fdab8306bad2ca820d05b9eff8da2e3016d372c15f00bb032f758718b9cda395061065a602084018461174b565b82604051610669929190611655565b60405180910390a15050565b606073__$e374338554c5da70f90c17374827737168$__630e38f3376040518163ffffffff1660e01b8152600401602060405180830381865af41580156106c0573d6000803e3d6000fd5b505050506040513d601f19601f820116820180604052508101906106e4919061127c565b6106ed57600080fd5b600073__$e374338554c5da70f90c17374827737168$__6336cb97fd6040518163ffffffff1660e01b8152600401600060405180830381865af4158015610738573d6000803e3d6000fd5b505050506040513d6000823e601f3d908101601f1916820160405261076091908101906112ce565b90508080602001905181019061077691906112ce565b91505090565b600080516020611a86833981519152610798602083018361174b565b6107a86060840160408501611768565b6107b56060850185611785565b6040516107c594939291906117d5565b60405180910390a150565b606073__$e374338554c5da70f90c17374827737168$__630e38f3376040518163ffffffff1660e01b8152600401602060405180830381865af415801561081b573d6000803e3d6000fd5b505050506040513d601f19601f8201168201806040525081019061083f919061127c565b61084857600080fd5b6000306001600160a01b03166392f07a586040518163ffffffff1660e01b81526004016000604051808303816000875af115801561088a573d6000803e3d6000fd5b505050506040513d6000823e601f3d908101601f191682016040526108b291908101906112ce565b9050600073__$e374338554c5da70f90c17374827737168$__63023e8e2f836040518263ffffffff1660e01b81526004016108ed9190610edc565b602060405180830381865af415801561090a573d6000803e3d6000fd5b505050506040513d601f19601f8201168201806040525081019061092e9190611326565b9050600073__$e374338554c5da70f90c17374827737168$__6320f16c3e846040518263ffffffff1660e01b81526004016109699190610edc565b600060405180830381865af4158015610986573d6000803e3d6000fd5b505050506040513d6000823e601f3d908101601f191682016040526109ae91908101906112ce565b9050600073__$e374338554c5da70f90c17374827737168$__634f5631418a8a8a6040518463ffffffff1660e01b81526004016109ed9392919061184a565b600060405180830381865af4158015610a0a573d6000803e3d6000fd5b505050506040513d6000823e601f3d908101601f19168201604052610a32919081019061148c565b805160405163a90a6c5f60e01b815291925073__$e374338554c5da70f90c17374827737168$__9163a90a6c5f91610a6e918890600401611573565b60006040518083038186803b158015610a8657600080fd5b505af4158015610a9a573d6000803e3d6000fd5b50508251604080516000602082015273__$e374338554c5da70f90c17374827737168$__945063a90a6c5f9350016040516020818303038152906040526040518363ffffffff1660e01b8152600401610af49291906115c3565b60006040518083038186803b158015610b0c57600080fd5b505af4158015610b20573d6000803e3d6000fd5b506000925060029150610b309050565b604051908082528060200260200182016040528015610b59578160200160208202803683370190505b5090508681600081518110610b7057610b706118b8565b6001600160801b0319909216602092830291909101909101528151815182906001908110610ba057610ba06118b8565b6001600160801b0319909216602092830291909101820152825160405173__$e374338554c5da70f90c17374827737168$__9263a90a6c5f9291610be6918691016118ce565b6040516020818303038152906040526040518363ffffffff1660e01b8152600401610c1292919061191c565b60006040518083038186803b158015610c2a57600080fd5b505af4158015610c3e573d6000803e3d6000fd5b50505050610c4c8284610c5a565b9a9950505050505050505050565b8151604051638735d61760e01b81526001600160801b0319909116600482015260609060009073__$e374338554c5da70f90c17374827737168$__90638735d61790602401600060405180830381865af4158015610cbc573d6000803e3d6000fd5b505050506040513d6000823e601f3d908101601f19168201604052610ce491908101906112ce565b905060005b600054811015610da05773__$e374338554c5da70f90c17374827737168$__6392649e7d60008381548110610d2057610d206118b8565b90600052602060002001846040518363ffffffff1660e01b8152600401610d4892919061196c565b600060405180830381865af4158015610d65573d6000803e3d6000fd5b505050506040513d6000823e601f3d908101601f19168201604052610d8d91908101906112ce565b5080610d9881611a4b565b915050610ce9565b50610dab8484610db3565b949350505050565b6060600080516020611a86833981519152836000015184604001518560600151604051610de29392919061161a565b60405180910390a182516040517fafa6f6affefc1010901fc56588695137d9939d2d8b34b30abee96af800a1adc291610e1c918590611655565b60405180910390a160405163c0b9d28760e01b90610e3e908590602001611a72565b60408051601f1981840301815290829052610e5c929160200161171a565b604051602081830303815290604052905092915050565b600060208284031215610e8557600080fd5b5035919050565b60005b83811015610ea7578181015183820152602001610e8f565b50506000910152565b60008151808452610ec8816020860160208601610e8c565b601f01601f19169290920160200192915050565b6020815260006105d46020830184610eb0565b6001600160401b0381168114610f0457600080fd5b50565b634e487b7160e01b600052604160045260246000fd5b60405160c081016001600160401b0381118282101715610f3f57610f3f610f07565b60405290565b604051601f8201601f191681016001600160401b0381118282101715610f6d57610f6d610f07565b604052919050565b60006001600160401b03821115610f8e57610f8e610f07565b5060051b60200190565b6001600160a01b0381168114610f0457600080fd5b600082601f830112610fbe57600080fd5b81356020610fd3610fce83610f75565b610f45565b82815260059290921b84018101918181019086841115610ff257600080fd5b8286015b8481101561101657803561100981610f98565b8352918301918301610ff6565b509695505050505050565b60008060006060848603121561103657600080fd5b833561104181610eef565b925060208401356001600160401b038082111561105d57600080fd5b61106987838801610fad565b9350604086013591508082111561107f57600080fd5b5061108c86828701610fad565b9150509250925092565b600060c082840312156110a857600080fd5b50919050565b60006001600160401b038211156110c7576110c7610f07565b50601f01601f191660200190565b600080604083850312156110e857600080fd5b82356001600160401b03808211156110ff57600080fd5b61110b86838701611096565b9350602085013591508082111561112157600080fd5b508301601f8101851361113357600080fd5b8035611141610fce826110ae565b81815286602083850101111561115657600080fd5b816020840160208301376000602083830101528093505050509250929050565b60006020828403121561118857600080fd5b81356001600160401b0381111561119e57600080fd5b610dab84828501611096565b6001600160801b031981168114610f0457600080fd5b600080600080608085870312156111d657600080fd5b84356111e181610eef565b935060208501356001600160401b03808211156111fd57600080fd5b61120988838901610fad565b9450604087013591508082111561121f57600080fd5b5061122c87828801610fad565b925050606085013561123d816111aa565b939692955090935050565b600181811c9082168061125c57607f821691505b6020821081036110a857634e487b7160e01b600052602260045260246000fd5b60006020828403121561128e57600080fd5b815180151581146105d457600080fd5b60006112ac610fce846110ae565b90508281528383830111156112c057600080fd5b6105d4836020830184610e8c565b6000602082840312156112e057600080fd5b81516001600160401b038111156112f657600080fd5b8201601f8101841361130757600080fd5b610dab8482516020840161129e565b805161132181610eef565b919050565b60006020828403121561133857600080fd5b81516105d481610eef565b600081518084526020808501945080840160005b8381101561137c5781516001600160a01b031687529582019590820190600101611357565b509495945050505050565b6001600160401b03841681526080602082015260006113a96080830185611343565b82810360408401526113bb8185611343565b8381036060909401939093525050601c81527f6d657673686172653a76303a756e6d61746368656442756e646c65730000000060208201526040019392505050565b8051611321816111aa565b600082601f83011261141957600080fd5b81516020611429610fce83610f75565b82815260059290921b8401810191818101908684111561144857600080fd5b8286015b8481101561101657805161145f81610f98565b835291830191830161144c565b600082601f83011261147d57600080fd5b6105d48383516020850161129e565b60006020828403121561149e57600080fd5b81516001600160401b03808211156114b557600080fd5b9083019060c082860312156114c957600080fd5b6114d1610f1d565b6114da836113fd565b81526114e8602084016113fd565b60208201526114f960408401611316565b604082015260608301518281111561151057600080fd5b61151c87828601611408565b60608301525060808301518281111561153457600080fd5b61154087828601611408565b60808301525060a08301518281111561155857600080fd5b6115648782860161146c565b60a08301525095945050505050565b6001600160801b0319831681526060602082015260166060820152756d657673686172653a76303a65746842756e646c657360501b608082015260a060408201526000610dab60a0830184610eb0565b6001600160801b03198316815260606020820152601f60608201527f6d657673686172653a76303a65746842756e646c6553696d526573756c747300608082015260a060408201526000610dab60a0830184610eb0565b6001600160801b0319841681526001600160401b038316602082015260606040820152600061164c6060830184611343565b95945050505050565b6001600160801b031983168152604060208201526000610dab6040830184610eb0565b60006001600160801b0319808351168452806020840151166020850152506001600160401b036040830151166040840152606082015160c060608501526116c260c0850182611343565b9050608083015184820360808601526116db8282611343565b91505060a083015184820360a086015261164c8282610eb0565b6040815260006117086040830185611678565b828103602084015261164c8185610eb0565b6001600160e01b031983168152815160009061173d816004850160208701610e8c565b919091016004019392505050565b60006020828403121561175d57600080fd5b81356105d4816111aa565b60006020828403121561177a57600080fd5b81356105d481610eef565b6000808335601e1984360301811261179c57600080fd5b8301803591506001600160401b038211156117b657600080fd5b6020019150600581901b36038213156117ce57600080fd5b9250929050565b6000606082016001600160801b03198716835260206001600160401b03871681850152606060408501528185835260808501905086925060005b8681101561183d57833561182281610f98565b6001600160a01b03168252928201929082019060010161180f565b5098975050505050505050565b6001600160401b038416815260806020820152600061186c6080830185611343565b828103604084015261187e8185611343565b838103606090940193909352505060158152746d657673686172653a76303a6d617463684269647360581b60208201526040019392505050565b634e487b7160e01b600052603260045260246000fd5b6020808252825182820181905260009190848201906040850190845b818110156119105783516001600160801b031916835292840192918401916001016118ea565b50909695505050505050565b6001600160801b0319831681526060602082015260166060820152756d657673686172653a76303a6d65726765644269647360501b608082015260a060408201526000610dab60a0830184610eb0565b60608152600080845481600182811c91508083168061198c57607f831692505b602080841082036119ab57634e487b7160e01b86526022600452602486fd5b60608801849052608088018280156119ca57600181146119e057611a0b565b60ff198716825285151560051b82019750611a0b565b60008c81526020902060005b87811015611a05578154848201529086019084016119ec565b83019850505b5050878603908801525050600e835250506d6d65765f73656e6442756e646c6560901b6020820152604081019050828103604084015261164c8185610eb0565b600060018201611a6b57634e487b7160e01b600052601160045260246000fd5b5060010190565b6020815260006105d4602083018461167856fe83481d5b04dea534715acad673a8177a46fc93882760f36bdc16ccac439d504ea164736f6c6343000813000a"
  }
}