{
  "abi": [
    {
      "inputs": [
        {
          "internalType": "address",
          "name": "",
          "type": "address"
        },
        {
          "internalType": "bytes",
          "name": "",
          "type": "bytes"
        }
      ],
      "name": "PeekerReverted",
      "type": "error"
    },
    {
      "anonymous": false,
      "inputs": [
        {
          "indexed": false,
          "internalType": "Suave.BidId",
          "name": "bidId",
          "type": "bytes16"
        },
        {
          "indexed": false,
          "internalType": "uint64",
          "name": "decryptionCondition",
          "type": "uint64"
        },
        {
          "indexed": false,
          "internalType": "address[]",
          "name": "allowedPeekers",
          "type": "address[]"
        }
      ],
      "name": "BidEvent",
      "type": "event"
    },
    {
      "anonymous": false,
      "inputs": [
        {
          "indexed": false,
          "internalType": "Suave.BidId",
          "name": "bidId",
          "type": "bytes16"
        },
        {
          "indexed": false,
          "internalType": "bytes",
          "name": "hint",
          "type": "bytes"
        }
      ],
      "name": "HintEvent",
      "type": "event"
    },
    {
      "anonymous": false,
      "inputs": [
        {
          "indexed": false,
          "internalType": "Suave.BidId",
          "name": "matchBidId",
          "type": "bytes16"
        },
        {
          "indexed": false,
          "internalType": "bytes",
          "name": "bidhint",
          "type": "bytes"
        },
        {
          "indexed": false,
          "internalType": "bytes",
          "name": "matchHint",
          "type": "bytes"
        }
      ],
      "name": "MatchEvent",
      "type": "event"
    },
    {
      "inputs": [
        {
          "components": [
            {
              "internalType": "Suave.BidId",
              "name": "id",
              "type": "bytes16"
            },
            {
              "internalType": "Suave.BidId",
              "name": "salt",
              "type": "bytes16"
            },
            {
              "internalType": "uint64",
              "name": "decryptionCondition",
              "type": "uint64"
            },
            {
              "internalType": "address[]",
              "name": "allowedPeekers",
              "type": "address[]"
            },
            {
              "internalType": "address[]",
              "name": "allowedStores",
              "type": "address[]"
            },
            {
              "internalType": "string",
              "name": "version",
              "type": "string"
            }
          ],
          "internalType": "struct Suave.Bid",
          "name": "bid",
          "type": "tuple"
        }
      ],
      "name": "emitBid",
      "outputs": [],
      "stateMutability": "nonpayable",
      "type": "function"
    },
    {
      "inputs": [
        {
          "components": [
            {
              "internalType": "Suave.BidId",
              "name": "id",
              "type": "bytes16"
            },
            {
              "internalType": "Suave.BidId",
              "name": "salt",
              "type": "bytes16"
            },
            {
              "internalType": "uint64",
              "name": "decryptionCondition",
              "type": "uint64"
            },
            {
              "internalType": "address[]",
              "name": "allowedPeekers",
              "type": "address[]"
            },
            {
              "internalType": "address[]",
              "name": "allowedStores",
              "type": "address[]"
            },
            {
              "internalType": "string",
              "name": "version",
              "type": "string"
            }
          ],
          "internalType": "struct Suave.Bid",
          "name": "bid",
          "type": "tuple"
        },
        {
          "internalType": "bytes",
          "name": "hint",
          "type": "bytes"
        }
      ],
      "name": "emitBidAndHint",
      "outputs": [],
      "stateMutability": "nonpayable",
      "type": "function"
    },
    {
      "inputs": [
        {
          "components": [
            {
              "internalType": "Suave.BidId",
              "name": "id",
              "type": "bytes16"
            },
            {
              "internalType": "Suave.BidId",
              "name": "salt",
              "type": "bytes16"
            },
            {
              "internalType": "uint64",
              "name": "decryptionCondition",
              "type": "uint64"
            },
            {
              "internalType": "address[]",
              "name": "allowedPeekers",
              "type": "address[]"
            },
            {
              "internalType": "address[]",
              "name": "allowedStores",
              "type": "address[]"
            },
            {
              "internalType": "string",
              "name": "version",
              "type": "string"
            }
          ],
          "internalType": "struct Suave.Bid",
          "name": "bid",
          "type": "tuple"
        },
        {
          "internalType": "bytes",
          "name": "bidHint",
          "type": "bytes"
        },
        {
          "internalType": "bytes",
          "name": "matchHint",
          "type": "bytes"
        }
      ],
      "name": "emitMatchBidAndHint",
      "outputs": [],
      "stateMutability": "nonpayable",
      "type": "function"
    },
    {
      "inputs": [],
      "name": "fetchBidConfidentialBundleData",
      "outputs": [
        {
          "internalType": "bytes",
          "name": "",
          "type": "bytes"
        }
      ],
      "stateMutability": "nonpayable",
      "type": "function"
    },
    {
      "inputs": [
        {
          "internalType": "uint64",
          "name": "decryptionCondition",
          "type": "uint64"
        },
        {
          "internalType": "address[]",
          "name": "bidAllowedPeekers",
          "type": "address[]"
        },
        {
          "internalType": "address[]",
          "name": "bidAllowedStores",
          "type": "address[]"
        }
      ],
      "name": "newBid",
      "outputs": [
        {
          "internalType": "bytes",
          "name": "",
          "type": "bytes"
        }
      ],
      "stateMutability": "payable",
      "type": "function"
    },
    {
      "inputs": [
        {
          "internalType": "uint64",
          "name": "decryptionCondition",
          "type": "uint64"
        },
        {
          "internalType": "address[]",
          "name": "bidAllowedPeekers",
          "type": "address[]"
        },
        {
          "internalType": "address[]",
          "name": "bidAllowedStores",
          "type": "address[]"
        },
        {
          "internalType": "Suave.BidId",
          "name": "shareBidId",
          "type": "bytes16"
        }
      ],
      "name": "newMatch",
      "outputs": [
        {
          "internalType": "bytes",
          "name": "",
          "type": "bytes"
        }
      ],
      "stateMutability": "payable",
      "type": "function"
    }
  ],
  "bytecode": {
    "object": "0x608060405234801561001057600080fd5b50611622806100206000396000f3fe6080604052600436106100555760003560e01c8063236eb5a71461005a57806343d50a7c1461008357806389026c11146100a557806392f07a58146100c5578063c0b9d287146100da578063d8f55db9146100fa575b600080fd5b61006d610068366004610d0e565b61010d565b60405161007a9190610dd3565b60405180910390f35b34801561008f57600080fd5b506100a361009e366004610e76565b610355565b005b3480156100b157600080fd5b506100a36100c0366004610ef3565b6103f2565b3480156100d157600080fd5b5061006d61048c565b3480156100e657600080fd5b506100a36100f5366004610f56565b6104c5565b61006d610108366004610fa0565b610519565b606061011761078d565b61012057600080fd5b6000306001600160a01b03166392f07a586040518163ffffffff1660e01b81526004016000604051808303816000875af1158015610162573d6000803e3d6000fd5b505050506040513d6000823e601f3d908101601f1916820160405261018a9190810190611058565b9050600061019782610816565b905060006101a4836108db565b905060006101e98888886040518060400160405280601c81526020017f6d657673686172653a76303a756e6d61746368656442756e646c657300000000815250610995565b90506102288160000151604051806040016040528060168152602001756d657673686172653a76303a65746842756e646c657360501b81525086610a92565b8051604080518082018252601f81527f6d657673686172653a76303a65746842756e646c6553696d526573756c74730060208083019190915282516001600160401b0388169181019190915261028f9392015b604051602081830303815290604052610a92565b6000805160206115f68339815191528160000151826040015183606001516040516102bc939291906110e4565b60405180910390a180516040517fdab8306bad2ca820d05b9eff8da2e3016d372c15f00bb032f758718b9cda3950916102f691859061111f565b60405180910390a16040516389026c1160e01b9061031a90839085906020016111bf565b60408051601f198184030181529082905261033892916020016111e4565b6040516020818303038152906040529450505050505b9392505050565b6000805160206115f68339815191526103716020850185611215565b6103816060860160408701611232565b61038e606087018761124f565b60405161039e949392919061129f565b60405180910390a17f417b0c16c40ca502ef10ae6921892668f006f527e3f4599cb95b9de965d413346103d46020850185611215565b83836040516103e593929190611314565b60405180910390a1505050565b6000805160206115f683398151915261040e6020840184611215565b61041e6060850160408601611232565b61042b606086018661124f565b60405161043b949392919061129f565b60405180910390a17fdab8306bad2ca820d05b9eff8da2e3016d372c15f00bb032f758718b9cda39506104716020840184611215565b8260405161048092919061111f565b60405180910390a15050565b606061049661078d565b61049f57600080fd5b60006104a9610b44565b9050808060200190518101906104bf9190611058565b91505090565b6000805160206115f68339815191526104e16020830183611215565b6104f16060840160408501611232565b6104fe606085018561124f565b60405161050e949392919061129f565b60405180910390a150565b606061052361078d565b61052c57600080fd5b6000306001600160a01b03166392f07a586040518163ffffffff1660e01b81526004016000604051808303816000875af115801561056e573d6000803e3d6000fd5b505050506040513d6000823e601f3d908101601f191682016040526105969190810190611058565b905060006105a382610816565b905060006105b0836108db565b905060006105ed898989604051806040016040528060158152602001746d657673686172653a76303a6d617463684269647360581b815250610995565b905061062c8160000151604051806040016040528060168152602001756d657673686172653a76303a65746842756e646c657360501b81525086610a92565b8051604080518082018252601f81527f6d657673686172653a76303a65746842756e646c6553696d526573756c747300602080830191909152825160009181019190915261067b93920161027b565b60408051600280825260608201835260009260208301908036833701905050905086816000815181106106b0576106b0611353565b6001600160801b03199092166020928302919091019091015281518151829060019081106106e0576106e0611353565b6001600160801b0319909216602092830291909101820152825160408051808201825260168152756d657673686172653a76303a6d65726765644269647360501b8185015290516107379361027b91869101611369565b60405163c0b9d28760e01b906107519084906020016113b7565b60408051601f198184030181529082905261076f92916020016111e4565b60405160208183030381529060405295505050505050949350505050565b6040516000908190819063420100009082818181855afa9150503d80600081146107d3576040519150601f19603f3d011682016040523d82523d6000602084013e6107d8565b606091505b50915091508161080c576342010000816040516375fff46760e01b81526004016108039291906113ca565b60405180910390fd5b6020015192915050565b600080600063421000006001600160a01b03168460405160200161083a9190610dd3565b60408051601f1981840301815290829052610854916113ee565b600060405180830381855afa9150503d806000811461088f576040519150601f19603f3d011682016040523d82523d6000602084013e610894565b606091505b5091509150816108bf576342100000816040516375fff46760e01b81526004016108039291906113ca565b808060200190518101906108d3919061141a565b949350505050565b60606108e561078d565b6108ee57600080fd5b60008063421000376001600160a01b0316846040516020016109109190610dd3565b60408051601f198184030181529082905261092a916113ee565b600060405180830381855afa9150503d8060008114610965576040519150601f19603f3d011682016040523d82523d6000602084013e61096a565b606091505b50915091508161034e576342100037816040516375fff46760e01b81526004016108039291906113ca565b6040805160c0810182526000808252602082018190529181019190915260608082018190526080820181905260a082015260008063420300006001600160a01b0316878787876040516020016109ee9493929190611437565b60408051601f1981840301815290829052610a08916113ee565b600060405180830381855afa9150503d8060008114610a43576040519150601f19603f3d011682016040523d82523d6000602084013e610a48565b606091505b509150915081610a73576342030000816040516375fff46760e01b81526004016108039291906113ca565b80806020019051810190610a87919061150e565b979650505050505050565b60008063420200006001600160a01b0316858585604051602001610ab893929190611314565b60408051601f1981840301815290829052610ad2916113ee565b600060405180830381855afa9150503d8060008114610b0d576040519150601f19603f3d011682016040523d82523d6000602084013e610b12565b606091505b509150915081610b3d576342020000816040516375fff46760e01b81526004016108039291906113ca565b5050505050565b604080516000808252602082019283905260609290918291634201000191610b6b916113ee565b600060405180830381855afa9150503d8060008114610ba6576040519150601f19603f3d011682016040523d82523d6000602084013e610bab565b606091505b509150915081610bd6576342010001816040516375fff46760e01b81526004016108039291906113ca565b92915050565b6001600160401b0381168114610bf157600080fd5b50565b634e487b7160e01b600052604160045260246000fd5b60405160c081016001600160401b0381118282101715610c2c57610c2c610bf4565b60405290565b604051601f8201601f191681016001600160401b0381118282101715610c5a57610c5a610bf4565b604052919050565b60006001600160401b03821115610c7b57610c7b610bf4565b5060051b60200190565b6001600160a01b0381168114610bf157600080fd5b600082601f830112610cab57600080fd5b81356020610cc0610cbb83610c62565b610c32565b82815260059290921b84018101918181019086841115610cdf57600080fd5b8286015b84811015610d03578035610cf681610c85565b8352918301918301610ce3565b509695505050505050565b600080600060608486031215610d2357600080fd5b8335610d2e81610bdc565b925060208401356001600160401b0380821115610d4a57600080fd5b610d5687838801610c9a565b93506040860135915080821115610d6c57600080fd5b50610d7986828701610c9a565b9150509250925092565b60005b83811015610d9e578181015183820152602001610d86565b50506000910152565b60008151808452610dbf816020860160208601610d83565b601f01601f19169290920160200192915050565b60208152600061034e6020830184610da7565b600060c08284031215610df857600080fd5b50919050565b60006001600160401b03821115610e1757610e17610bf4565b50601f01601f191660200190565b600082601f830112610e3657600080fd5b8135610e44610cbb82610dfe565b818152846020838601011115610e5957600080fd5b816020850160208301376000918101602001919091529392505050565b600080600060608486031215610e8b57600080fd5b83356001600160401b0380821115610ea257600080fd5b610eae87838801610de6565b94506020860135915080821115610ec457600080fd5b610ed087838801610e25565b93506040860135915080821115610ee657600080fd5b50610d7986828701610e25565b60008060408385031215610f0657600080fd5b82356001600160401b0380821115610f1d57600080fd5b610f2986838701610de6565b93506020850135915080821115610f3f57600080fd5b50610f4c85828601610e25565b9150509250929050565b600060208284031215610f6857600080fd5b81356001600160401b03811115610f7e57600080fd5b6108d384828501610de6565b6001600160801b031981168114610bf157600080fd5b60008060008060808587031215610fb657600080fd5b8435610fc181610bdc565b935060208501356001600160401b0380821115610fdd57600080fd5b610fe988838901610c9a565b94506040870135915080821115610fff57600080fd5b5061100c87828801610c9a565b925050606085013561101d81610f8a565b939692955090935050565b6000611036610cbb84610dfe565b905082815283838301111561104a57600080fd5b61034e836020830184610d83565b60006020828403121561106a57600080fd5b81516001600160401b0381111561108057600080fd5b8201601f8101841361109157600080fd5b6108d384825160208401611028565b600081518084526020808501945080840160005b838110156110d95781516001600160a01b0316875295820195908201906001016110b4565b509495945050505050565b6001600160801b0319841681526001600160401b038316602082015260606040820152600061111660608301846110a0565b95945050505050565b6001600160801b0319831681526040602082015260006108d36040830184610da7565b60006001600160801b0319808351168452806020840151166020850152506001600160401b036040830151166040840152606082015160c0606085015261118c60c08501826110a0565b9050608083015184820360808601526111a582826110a0565b91505060a083015184820360a08601526111168282610da7565b6040815260006111d26040830185611142565b82810360208401526111168185610da7565b6001600160e01b0319831681528151600090611207816004850160208701610d83565b919091016004019392505050565b60006020828403121561122757600080fd5b813561034e81610f8a565b60006020828403121561124457600080fd5b813561034e81610bdc565b6000808335601e1984360301811261126657600080fd5b8301803591506001600160401b0382111561128057600080fd5b6020019150600581901b360382131561129857600080fd5b9250929050565b6000606082016001600160801b03198716835260206001600160401b03871681850152606060408501528185835260808501905086925060005b868110156113075783356112ec81610c85565b6001600160a01b0316825292820192908201906001016112d9565b5098975050505050505050565b6001600160801b0319841681526060602082015260006113376060830185610da7565b82810360408401526113498185610da7565b9695505050505050565b634e487b7160e01b600052603260045260246000fd5b6020808252825182820181905260009190848201906040850190845b818110156113ab5783516001600160801b03191683529284019291840191600101611385565b50909695505050505050565b60208152600061034e6020830184611142565b6001600160a01b03831681526040602082018190526000906108d390830184610da7565b60008251611400818460208701610d83565b9190910192915050565b805161141581610bdc565b919050565b60006020828403121561142c57600080fd5b815161034e81610bdc565b6001600160401b038516815260806020820152600061145960808301866110a0565b828103604084015261146b81866110a0565b90508281036060840152610a878185610da7565b805161141581610f8a565b600082601f83011261149b57600080fd5b815160206114ab610cbb83610c62565b82815260059290921b840181019181810190868411156114ca57600080fd5b8286015b84811015610d035780516114e181610c85565b83529183019183016114ce565b600082601f8301126114ff57600080fd5b61034e83835160208501611028565b60006020828403121561152057600080fd5b81516001600160401b038082111561153757600080fd5b9083019060c0828603121561154b57600080fd5b611553610c0a565b61155c8361147f565b815261156a6020840161147f565b602082015261157b6040840161140a565b604082015260608301518281111561159257600080fd5b61159e8782860161148a565b6060830152506080830151828111156115b657600080fd5b6115c28782860161148a565b60808301525060a0830151828111156115da57600080fd5b6115e6878286016114ee565b60a0830152509594505050505056fe83481d5b04dea534715acad673a8177a46fc93882760f36bdc16ccac439d504ea164736f6c6343000813000a"
  }
}