{
  "abi": [
    {
      "inputs": [],
      "stateMutability": "nonpayable",
      "type": "constructor"
    },
    {
      "inputs": [
        {
          "internalType": "address",
          "name": "",
          "type": "address"
        },
        {
          "internalType": "bytes",
          "name": "",
          "type": "bytes"
        }
      ],
      "name": "PeekerReverted",
      "type": "error"
    },
    {
      "inputs": [
        {
          "internalType": "bytes",
          "name": "data",
          "type": "bytes"
        }
      ],
      "name": "decrypt",
      "outputs": [
        {
          "internalType": "bytes",
          "name": "",
          "type": "bytes"
        }
      ],
      "stateMutability": "nonpayable",
      "type": "function"
    },
    {
      "inputs": [
        {
          "internalType": "bytes",
          "name": "data",
          "type": "bytes"
        }
      ],
      "name": "encrypt",
      "outputs": [
        {
          "internalType": "bytes",
          "name": "",
          "type": "bytes"
        }
      ],
      "stateMutability": "nonpayable",
      "type": "function"
    },
    {
      "inputs": [
        {
          "internalType": "address[]",
          "name": "allowedStores",
          "type": "address[]"
        }
      ],
      "name": "initialize",
      "outputs": [
        {
          "internalType": "bytes",
          "name": "",
          "type": "bytes"
        }
      ],
      "stateMutability": "nonpayable",
      "type": "function"
    },
    {
      "inputs": [
        {
          "internalType": "Suave.BidId",
          "name": "_keyConfStoreId",
          "type": "bytes16"
        },
        {
          "internalType": "bytes",
          "name": "_pubkey",
          "type": "bytes"
        }
      ],
      "name": "setInitialized",
      "outputs": [],
      "stateMutability": "nonpayable",
      "type": "function"
    },
    {
      "inputs": [
        {
          "internalType": "bytes",
          "name": "data",
          "type": "bytes"
        }
      ],
      "name": "sign",
      "outputs": [
        {
          "internalType": "bytes",
          "name": "",
          "type": "bytes"
        }
      ],
      "stateMutability": "nonpayable",
      "type": "function"
    }
  ],
  "bytecode": {
    "object": "0x608060405234801561001057600080fd5b506000805460ff19169055600280546001600160a01b0319163317905561115b8061003c6000396000f3fe608060405234801561001057600080fd5b50600436106100575760003560e01c8063210ca7be1461005c57806331b00e461461008557806376cd7cbc14610098578063a224cee7146100ab578063c56db0a7146100be575b600080fd5b61006f61006a366004610a4a565b6100d3565b60405161007c9190610acf565b60405180910390f35b61006f610093366004610a4a565b61016f565b61006f6100a6366004610a4a565b6101cc565b61006f6100b9366004610b25565b61022a565b6100d16100cc366004610bd3565b610392565b005b60606100dd610538565b156101665760008054604080518082019091526007815266707269766b657960c81b602082015261011691610100900460801b906105b8565b905063210ca7be60e01b836040516020016101319190610acf565b60408051601f198184030181529082905261014f9291602001610c23565b604051602081830303815290604052915050919050565b5090565b919050565b6060610179610538565b15610166576040516318d8072360e11b90610198908490602001610acf565b60408051601f19818403018152908290526101b69291602001610c23565b6040516020818303038152906040529050919050565b60606101d6610538565b156101665760008054604080518082019091526007815266707269766b657960c81b602082015261020f91610100900460801b906105b8565b90506376cd7cbc60e01b836040516020016101319190610acf565b6060610234610538565b61023d57600080fd5b6002546001600160a01b0316331461025457600080fd5b60005460ff161561026457600080fd5b60408051600180825281830190925260009160208083019080368337019050509050308160008151811061029a5761029a610c54565b60200260200101906001600160a01b031690816001600160a01b0316815250506000806102c561066b565b91509150600061030d600085886040518060400160405280601781526020017f707269766174655f6b65795f636f6e74726163743a763000000000000000000081525061071b565b905061033d816000015160405180604001604052806007815260200166707269766b657960c81b81525085610818565b805160405163c56db0a760e01b9161035a91859190602001610c6a565b60408051601f19818403018152908290526103789291602001610c23565b604051602081830303815290604052945050505050919050565b6002546001600160a01b031633146103e25760405162461bcd60e51b815260206004820152600e60248201526d1b9bdd08185d5d1a1bdc9a5e995960921b60448201526064015b60405180910390fd5b60005460ff161561042b5760405162461bcd60e51b8152602060048201526013602482015272185b1c9958591e481a5b9a5d1a585b1a5e9959606a1b60448201526064016103d9565b60006104356108ca565b905060005b60048110156104fc5781818151811061045557610455610c54565b01602001516001600160f81b03191663a224cee760e01b826004811061047d5761047d610c54565b1a60f81b6001600160f81b031916146104ea5760405162461bcd60e51b815260206004820152602960248201527f696e736563757265206269642c2063637220776173206e6f7420746f20696e696044820152687469616c697a65282960b81b60648201526084016103d9565b806104f481610c96565b91505061043a565b5060008054600170ffffffffffffffffffffffffffffffffff19909116610100608087901c021781179091556105328382610d46565b50505050565b6040516000908190819063420100009082818181855afa9150503d806000811461057e576040519150601f19603f3d011682016040523d82523d6000602084013e610583565b606091505b5091509150816105ae576342010000816040516375fff46760e01b81526004016103d9929190610e06565b6020015192915050565b606060008063420200016001600160a01b031685856040516020016105de929190610e2a565b60408051601f19818403018152908290526105f891610e4d565b600060405180830381855afa9150503d8060008114610633576040519150601f19603f3d011682016040523d82523d6000602084013e610638565b606091505b509150915081610663576342020001816040516375fff46760e01b81526004016103d9929190610e06565b949350505050565b60408051600080825260208201928390526060928392829163401000039161069291610e4d565b600060405180830381855afa9150503d80600081146106cd576040519150601f19603f3d011682016040523d82523d6000602084013e6106d2565b606091505b5091509150816106fd576340100003816040516375fff46760e01b81526004016103d9929190610e06565b808060200190518101906107119190610eae565b9350935050509091565b6040805160c0810182526000808252602082018190529181019190915260608082018190526080820181905260a082015260008063420300006001600160a01b0316878787876040516020016107749493929190610f4c565b60408051601f198184030181529082905261078e91610e4d565b600060405180830381855afa9150503d80600081146107c9576040519150601f19603f3d011682016040523d82523d6000602084013e6107ce565b606091505b5091509150816107f9576342030000816040516375fff46760e01b81526004016103d9929190610e06565b8080602001905181019061080d9190611027565b979650505050505050565b60008063420200006001600160a01b031685858560405160200161083e9392919061110f565b60408051601f198184030181529082905261085891610e4d565b600060405180830381855afa9150503d8060008114610893576040519150601f19603f3d011682016040523d82523d6000602084013e610898565b606091505b5091509150816108c3576342020000816040516375fff46760e01b81526004016103d9929190610e06565b5050505050565b6040805160008082526020820192839052606092909182916007916108ee91610e4d565b600060405180830381855afa9150503d8060008114610929576040519150601f19603f3d011682016040523d82523d6000602084013e61092e565b606091505b509150915081610956576007816040516375fff46760e01b81526004016103d9929190610e06565b92915050565b634e487b7160e01b600052604160045260246000fd5b60405160c0810167ffffffffffffffff811182821017156109955761099561095c565b60405290565b604051601f8201601f1916810167ffffffffffffffff811182821017156109c4576109c461095c565b604052919050565b600067ffffffffffffffff8211156109e6576109e661095c565b50601f01601f191660200190565b600082601f830112610a0557600080fd5b8135610a18610a13826109cc565b61099b565b818152846020838601011115610a2d57600080fd5b816020850160208301376000918101602001919091529392505050565b600060208284031215610a5c57600080fd5b813567ffffffffffffffff811115610a7357600080fd5b610663848285016109f4565b60005b83811015610a9a578181015183820152602001610a82565b50506000910152565b60008151808452610abb816020860160208601610a7f565b601f01601f19169290920160200192915050565b602081526000610ae26020830184610aa3565b9392505050565b600067ffffffffffffffff821115610b0357610b0361095c565b5060051b60200190565b6001600160a01b0381168114610b2257600080fd5b50565b60006020808385031215610b3857600080fd5b823567ffffffffffffffff811115610b4f57600080fd5b8301601f81018513610b6057600080fd5b8035610b6e610a1382610ae9565b81815260059190911b82018301908381019087831115610b8d57600080fd5b928401925b8284101561080d578335610ba581610b0d565b82529284019290840190610b92565b6fffffffffffffffffffffffffffffffff1981168114610b2257600080fd5b60008060408385031215610be657600080fd5b8235610bf181610bb4565b9150602083013567ffffffffffffffff811115610c0d57600080fd5b610c19858286016109f4565b9150509250929050565b6001600160e01b0319831681528151600090610c46816004850160208701610a7f565b919091016004019392505050565b634e487b7160e01b600052603260045260246000fd5b604081526000610c7d6040830185610aa3565b90506001600160801b0319831660208301529392505050565b600060018201610cb657634e487b7160e01b600052601160045260246000fd5b5060010190565b600181811c90821680610cd157607f821691505b602082108103610cf157634e487b7160e01b600052602260045260246000fd5b50919050565b601f821115610d4157600081815260208120601f850160051c81016020861015610d1e5750805b601f850160051c820191505b81811015610d3d57828155600101610d2a565b5050505b505050565b815167ffffffffffffffff811115610d6057610d6061095c565b610d7481610d6e8454610cbd565b84610cf7565b602080601f831160018114610da95760008415610d915750858301515b600019600386901b1c1916600185901b178555610d3d565b600085815260208120601f198616915b82811015610dd857888601518255948401946001909101908401610db9565b5085821015610df65787850151600019600388901b60f8161c191681555b5050505050600190811b01905550565b6001600160a01b038316815260406020820181905260009061066390830184610aa3565b6001600160801b0319831681526040602082015260006106636040830184610aa3565b60008251610e5f818460208701610a7f565b9190910192915050565b600082601f830112610e7a57600080fd5b8151610e88610a13826109cc565b818152846020838601011115610e9d57600080fd5b610663826020830160208701610a7f565b60008060408385031215610ec157600080fd5b825167ffffffffffffffff80821115610ed957600080fd5b610ee586838701610e69565b93506020850151915080821115610efb57600080fd5b50610c1985828601610e69565b600081518084526020808501945080840160005b83811015610f415781516001600160a01b031687529582019590820190600101610f1c565b509495945050505050565b67ffffffffffffffff85168152608060208201526000610f6f6080830186610f08565b8281036040840152610f818186610f08565b9050828103606084015261080d8185610aa3565b805161016a81610bb4565b805167ffffffffffffffff8116811461016a57600080fd5b600082601f830112610fc957600080fd5b81516020610fd9610a1383610ae9565b82815260059290921b84018101918181019086841115610ff857600080fd5b8286015b8481101561101c57805161100f81610b0d565b8352918301918301610ffc565b509695505050505050565b60006020828403121561103957600080fd5b815167ffffffffffffffff8082111561105157600080fd5b9083019060c0828603121561106557600080fd5b61106d610972565b61107683610f95565b815261108460208401610f95565b602082015261109560408401610fa0565b60408201526060830151828111156110ac57600080fd5b6110b887828601610fb8565b6060830152506080830151828111156110d057600080fd5b6110dc87828601610fb8565b60808301525060a0830151828111156110f457600080fd5b61110087828601610e69565b60a08301525095945050505050565b6001600160801b0319841681526060602082015260006111326060830185610aa3565b82810360408401526111448185610aa3565b969550505050505056fea164736f6c6343000813000a"
  }
}